{
  "_format": "hh-sol-artifact-1",
  "contractName": "Game",
  "sourceName": "contracts/Game.sol",
  "abi": [
    {
      "inputs": [
        {
          "internalType": "address",
          "name": "_verifierBoard",
          "type": "address"
        },
        {
          "internalType": "address",
          "name": "_verifierQuestion",
          "type": "address"
        },
        {
          "internalType": "address",
          "name": "_verifierGuess",
          "type": "address"
        }
      ],
      "stateMutability": "nonpayable",
      "type": "constructor"
    },
    {
      "anonymous": false,
      "inputs": [
        {
          "indexed": false,
          "internalType": "uint256[4]",
          "name": "_guess",
          "type": "uint256[4]"
        }
      ],
      "name": "Guess",
      "type": "event"
    },
    {
      "anonymous": false,
      "inputs": [
        {
          "indexed": false,
          "internalType": "uint8",
          "name": "_answer",
          "type": "uint8"
        }
      ],
      "name": "GuessResponse",
      "type": "event"
    },
    {
      "anonymous": false,
      "inputs": [],
      "name": "Joined",
      "type": "event"
    },
    {
      "anonymous": false,
      "inputs": [
        {
          "indexed": false,
          "internalType": "uint8",
          "name": "_answer",
          "type": "uint8"
        }
      ],
      "name": "QuestionAnswered",
      "type": "event"
    },
    {
      "anonymous": false,
      "inputs": [
        {
          "indexed": false,
          "internalType": "uint8",
          "name": "_type",
          "type": "uint8"
        },
        {
          "indexed": false,
          "internalType": "uint8",
          "name": "_characteristic",
          "type": "uint8"
        }
      ],
      "name": "QuestionAsked",
      "type": "event"
    },
    {
      "inputs": [
        {
          "internalType": "uint8",
          "name": "_type",
          "type": "uint8"
        },
        {
          "internalType": "uint8",
          "name": "_characteristic",
          "type": "uint8"
        }
      ],
      "name": "ask",
      "outputs": [],
      "stateMutability": "nonpayable",
      "type": "function"
    },
    {
      "inputs": [],
      "name": "currentTurn",
      "outputs": [
        {
          "internalType": "uint256",
          "name": "",
          "type": "uint256"
        }
      ],
      "stateMutability": "view",
      "type": "function"
    },
    {
      "inputs": [
        {
          "internalType": "uint8[4]",
          "name": "_guess",
          "type": "uint8[4]"
        }
      ],
      "name": "guess",
      "outputs": [],
      "stateMutability": "nonpayable",
      "type": "function"
    },
    {
      "inputs": [
        {
          "internalType": "uint256",
          "name": "",
          "type": "uint256"
        }
      ],
      "name": "hash",
      "outputs": [
        {
          "internalType": "uint256",
          "name": "",
          "type": "uint256"
        }
      ],
      "stateMutability": "view",
      "type": "function"
    },
    {
      "inputs": [],
      "name": "hashByAccount",
      "outputs": [
        {
          "internalType": "uint256",
          "name": "",
          "type": "uint256"
        }
      ],
      "stateMutability": "view",
      "type": "function"
    },
    {
      "inputs": [],
      "name": "isAnswerTurn",
      "outputs": [
        {
          "internalType": "bool",
          "name": "",
          "type": "bool"
        }
      ],
      "stateMutability": "view",
      "type": "function"
    },
    {
      "inputs": [],
      "name": "isCreated",
      "outputs": [
        {
          "internalType": "bool",
          "name": "",
          "type": "bool"
        }
      ],
      "stateMutability": "view",
      "type": "function"
    },
    {
      "inputs": [],
      "name": "isQuestionTurn",
      "outputs": [
        {
          "internalType": "bool",
          "name": "",
          "type": "bool"
        }
      ],
      "stateMutability": "view",
      "type": "function"
    },
    {
      "inputs": [],
      "name": "isStarted",
      "outputs": [
        {
          "internalType": "bool",
          "name": "",
          "type": "bool"
        }
      ],
      "stateMutability": "view",
      "type": "function"
    },
    {
      "inputs": [
        {
          "internalType": "uint8",
          "name": "_won",
          "type": "uint8"
        },
        {
          "internalType": "uint256[2]",
          "name": "a",
          "type": "uint256[2]"
        },
        {
          "internalType": "uint256[2][2]",
          "name": "b",
          "type": "uint256[2][2]"
        },
        {
          "internalType": "uint256[2]",
          "name": "c",
          "type": "uint256[2]"
        }
      ],
      "name": "isWon",
      "outputs": [],
      "stateMutability": "nonpayable",
      "type": "function"
    },
    {
      "inputs": [
        {
          "internalType": "uint256",
          "name": "_hash",
          "type": "uint256"
        },
        {
          "internalType": "uint256[2]",
          "name": "a",
          "type": "uint256[2]"
        },
        {
          "internalType": "uint256[2][2]",
          "name": "b",
          "type": "uint256[2][2]"
        },
        {
          "internalType": "uint256[2]",
          "name": "c",
          "type": "uint256[2]"
        }
      ],
      "name": "join",
      "outputs": [],
      "stateMutability": "nonpayable",
      "type": "function"
    },
    {
      "inputs": [],
      "name": "lastCharacteristic",
      "outputs": [
        {
          "internalType": "uint8",
          "name": "",
          "type": "uint8"
        }
      ],
      "stateMutability": "view",
      "type": "function"
    },
    {
      "inputs": [
        {
          "internalType": "uint256",
          "name": "",
          "type": "uint256"
        }
      ],
      "name": "lastGuess",
      "outputs": [
        {
          "internalType": "uint256",
          "name": "",
          "type": "uint256"
        }
      ],
      "stateMutability": "view",
      "type": "function"
    },
    {
      "inputs": [],
      "name": "lastResponse",
      "outputs": [
        {
          "internalType": "uint8",
          "name": "",
          "type": "uint8"
        }
      ],
      "stateMutability": "view",
      "type": "function"
    },
    {
      "inputs": [],
      "name": "lastType",
      "outputs": [
        {
          "internalType": "uint8",
          "name": "",
          "type": "uint8"
        }
      ],
      "stateMutability": "view",
      "type": "function"
    },
    {
      "inputs": [
        {
          "internalType": "uint256",
          "name": "",
          "type": "uint256"
        }
      ],
      "name": "players",
      "outputs": [
        {
          "internalType": "address",
          "name": "",
          "type": "address"
        }
      ],
      "stateMutability": "view",
      "type": "function"
    },
    {
      "inputs": [],
      "name": "previousTurn",
      "outputs": [
        {
          "internalType": "uint256",
          "name": "",
          "type": "uint256"
        }
      ],
      "stateMutability": "view",
      "type": "function"
    },
    {
      "inputs": [
        {
          "internalType": "uint8",
          "name": "_answer",
          "type": "uint8"
        },
        {
          "internalType": "uint256[2]",
          "name": "a",
          "type": "uint256[2]"
        },
        {
          "internalType": "uint256[2][2]",
          "name": "b",
          "type": "uint256[2][2]"
        },
        {
          "internalType": "uint256[2]",
          "name": "c",
          "type": "uint256[2]"
        }
      ],
      "name": "response",
      "outputs": [],
      "stateMutability": "nonpayable",
      "type": "function"
    },
    {
      "inputs": [
        {
          "internalType": "uint256",
          "name": "_hash",
          "type": "uint256"
        },
        {
          "internalType": "uint256[2]",
          "name": "a",
          "type": "uint256[2]"
        },
        {
          "internalType": "uint256[2][2]",
          "name": "b",
          "type": "uint256[2][2]"
        },
        {
          "internalType": "uint256[2]",
          "name": "c",
          "type": "uint256[2]"
        }
      ],
      "name": "start",
      "outputs": [],
      "stateMutability": "nonpayable",
      "type": "function"
    },
    {
      "inputs": [],
      "name": "winner",
      "outputs": [
        {
          "internalType": "address",
          "name": "",
          "type": "address"
        }
      ],
      "stateMutability": "view",
      "type": "function"
    },
    {
      "inputs": [],
      "name": "won",
      "outputs": [
        {
          "internalType": "uint8",
          "name": "",
          "type": "uint8"
        }
      ],
      "stateMutability": "view",
      "type": "function"
    }
  ],
  "bytecode": "0x60806040523480156200001157600080fd5b506040516200392e3803806200392e83398181016040528101906200003791906200011a565b82600a60006101000a81548173ffffffffffffffffffffffffffffffffffffffff021916908373ffffffffffffffffffffffffffffffffffffffff16021790555081600b60006101000a81548173ffffffffffffffffffffffffffffffffffffffff021916908373ffffffffffffffffffffffffffffffffffffffff16021790555080600c60006101000a81548173ffffffffffffffffffffffffffffffffffffffff021916908373ffffffffffffffffffffffffffffffffffffffff160217905550505050620001be565b6000815190506200011481620001a4565b92915050565b6000806000606084860312156200013057600080fd5b6000620001408682870162000103565b9350506020620001538682870162000103565b9250506040620001668682870162000103565b9150509250925092565b60006200017d8262000184565b9050919050565b600073ffffffffffffffffffffffffffffffffffffffff82169050919050565b620001af8162000170565b8114620001bb57600080fd5b50565b61376080620001ce6000396000f3fe608060405234801561001057600080fd5b50600436106101375760003560e01c8063ae43f848116100b8578063e4cecb101161007c578063e4cecb1014610306578063e602f7f714610324578063eea108c214610340578063f250975c14610370578063f71d96cb1461038e578063fabd2f9c146103be57610137565b8063ae43f84814610262578063b189fd4c1461027e578063b85f46eb146102ae578063deb61286146102ca578063dfbf53ae146102e857610137565b806362747e42116100ff57806362747e42146101ce5780636c366848146101ec57806386174396146102085780639f9a32b014610226578063a7acd3411461024457610137565b806312c8052f1461013c5780632e5144381461015a57806333bd875d14610178578063352e84a714610194578063544736e6146101b0575b600080fd5b6101446103dc565b6040516101519190612fef565b60405180910390f35b6101626103ef565b60405161016f9190612fd4565b60405180910390f35b610192600480360381019061018d91906126da565b610411565b005b6101ae60048036038101906101a991906127a2565b610911565b005b6101b8610bdf565b6040516101c59190612dd9565b60405180910390f35b6101d6610cbb565b6040516101e39190612fef565b60405180910390f35b6102066004803603810190610201919061273e565b610cce565b005b610210611133565b60405161021d9190612dd9565b60405180910390f35b61022e611259565b60405161023b9190612fef565b60405180910390f35b61024c61126c565b6040516102599190612dd9565b60405180910390f35b61027c6004803603810190610277919061273e565b611303565b005b610298600480360381019061029391906126b1565b6116a0565b6040516102a59190612fd4565b60405180910390f35b6102c860048036038101906102c391906126da565b6116bb565b005b6102d2611a43565b6040516102df9190612fd4565b60405180910390f35b6102f0611a59565b6040516102fd9190612cce565b60405180910390f35b61030e611a7f565b60405161031b9190612fd4565b60405180910390f35b61033e6004803603810190610339919061265f565b611c2f565b005b61035a600480360381019061035591906126b1565b611ed7565b6040516103679190612fd4565b60405180910390f35b610378611ef2565b6040516103859190612fef565b60405180910390f35b6103a860048036038101906103a391906126b1565b611f05565b6040516103b59190612cce565b60405180910390f35b6103c6611f3b565b6040516103d39190612dd9565b60405180910390f35b600960039054906101000a900460ff1681565b60006002600160045461040291906131e9565b61040c9190613369565b905090565b6000600260006002811061044e577f4e487b7100000000000000000000000000000000000000000000000000000000600052603260045260246000fd5b01541415610491576040517f08c379a000000000000000000000000000000000000000000000000000000000815260040161048890612e94565b60405180910390fd5b600073ffffffffffffffffffffffffffffffffffffffff1660006001600281106104e4577f4e487b7100000000000000000000000000000000000000000000000000000000600052603260045260246000fd5b0160009054906101000a900473ffffffffffffffffffffffffffffffffffffffff1673ffffffffffffffffffffffffffffffffffffffff161461055c576040517f08c379a000000000000000000000000000000000000000000000000000000000815260040161055390612e54565b60405180910390fd5b3373ffffffffffffffffffffffffffffffffffffffff16600080600281106105ad577f4e487b7100000000000000000000000000000000000000000000000000000000600052603260045260246000fd5b0160009054906101000a900473ffffffffffffffffffffffffffffffffffffffff1673ffffffffffffffffffffffffffffffffffffffff161415610626576040517f08c379a000000000000000000000000000000000000000000000000000000000815260040161061d90612f94565b60405180910390fd5b60006002600160028110610663577f4e487b7100000000000000000000000000000000000000000000000000000000600052603260045260246000fd5b0154146106a5576040517f08c379a000000000000000000000000000000000000000000000000000000000815260040161069c90612fb4565b60405180910390fd5b60006040518060200160405280868152509050600a60009054906101000a900473ffffffffffffffffffffffffffffffffffffffff1673ffffffffffffffffffffffffffffffffffffffff166343753b4d858585856040518563ffffffff1660e01b81526004016107199493929190612ce9565b60206040518083038186803b15801561073157600080fd5b505afa158015610745573d6000803e3d6000fd5b505050506040513d601f19601f820116820180604052508101906107699190612688565b6107a8576040517f08c379a000000000000000000000000000000000000000000000000000000000815260040161079f90612f34565b60405180910390fd5b8460026001600281106107e4577f4e487b7100000000000000000000000000000000000000000000000000000000600052603260045260246000fd5b0181905550336000600160028110610825577f4e487b7100000000000000000000000000000000000000000000000000000000600052603260045260246000fd5b0160006101000a81548173ffffffffffffffffffffffffffffffffffffffff021916908373ffffffffffffffffffffffffffffffffffffffff1602179055506003600960026101000a81548160ff021916908360ff1602179055506003600960036101000a81548160ff021916908360ff1602179055506000600960046101000a81548173ffffffffffffffffffffffffffffffffffffffff021916908373ffffffffffffffffffffffffffffffffffffffff1602179055507f01bef3730c3b3c7a12797f6baa6ef0473275290438b5264ad09598751c13a10c60405160405180910390a15050505050565b6000600260006002811061094e577f4e487b7100000000000000000000000000000000000000000000000000000000600052603260045260246000fd5b01541415610991576040517f08c379a000000000000000000000000000000000000000000000000000000000815260040161098890612e94565b60405180910390fd5b600073ffffffffffffffffffffffffffffffffffffffff1660006001600281106109e4577f4e487b7100000000000000000000000000000000000000000000000000000000600052603260045260246000fd5b0160009054906101000a900473ffffffffffffffffffffffffffffffffffffffff1673ffffffffffffffffffffffffffffffffffffffff161415610a5d576040517f08c379a0000000000000000000000000000000000000000000000000000000008152600401610a5490612f54565b60405180910390fd5b610a6561126c565b610aa4576040517f08c379a0000000000000000000000000000000000000000000000000000000008152600401610a9b90612ed4565b60405180910390fd5b6000600960029054906101000a900460ff1660ff161415610afa576040517f08c379a0000000000000000000000000000000000000000000000000000000008152600401610af190612f14565b60405180910390fd5b6000600960039054906101000a900460ff1660ff161415610b50576040517f08c379a0000000000000000000000000000000000000000000000000000000008152600401610b4790612df4565b60405180910390fd5b81600960006101000a81548160ff021916908360ff16021790555080600960016101000a81548160ff021916908360ff1602179055506000600960026101000a81548160ff021916908360ff1602179055507f32a95ea2373c4d2cff10c37d2caf784dc5e400dc50924dc7042f3f9afb5a270f8282604051610bd392919061300a565b60405180910390a15050565b6000806002600060028110610c1d577f4e487b7100000000000000000000000000000000000000000000000000000000600052603260045260246000fd5b015414158015610cb65750600073ffffffffffffffffffffffffffffffffffffffff166000600160028110610c7b577f4e487b7100000000000000000000000000000000000000000000000000000000600052603260045260246000fd5b0160009054906101000a900473ffffffffffffffffffffffffffffffffffffffff1673ffffffffffffffffffffffffffffffffffffffff1614155b905090565b600960029054906101000a900460ff1681565b60006002600060028110610d0b577f4e487b7100000000000000000000000000000000000000000000000000000000600052603260045260246000fd5b01541415610d4e576040517f08c379a0000000000000000000000000000000000000000000000000000000008152600401610d4590612e94565b60405180910390fd5b600073ffffffffffffffffffffffffffffffffffffffff166000600160028110610da1577f4e487b7100000000000000000000000000000000000000000000000000000000600052603260045260246000fd5b0160009054906101000a900473ffffffffffffffffffffffffffffffffffffffff1673ffffffffffffffffffffffffffffffffffffffff161415610e1a576040517f08c379a0000000000000000000000000000000000000000000000000000000008152600401610e1190612f54565b60405180910390fd5b610e22611f3b565b610e61576040517f08c379a0000000000000000000000000000000000000000000000000000000008152600401610e5890612eb4565b60405180910390fd5b60006040518060c001604052808660ff1681526020016005600060048110610eb2577f4e487b7100000000000000000000000000000000000000000000000000000000600052603260045260246000fd5b015481526020016005600160048110610ef4577f4e487b7100000000000000000000000000000000000000000000000000000000600052603260045260246000fd5b015481526020016005600260048110610f36577f4e487b7100000000000000000000000000000000000000000000000000000000600052603260045260246000fd5b015481526020016005600360048110610f78577f4e487b7100000000000000000000000000000000000000000000000000000000600052603260045260246000fd5b015481526020016002610f89611a43565b60028110610fc0577f4e487b7100000000000000000000000000000000000000000000000000000000600052603260045260246000fd5b01548152509050600c60009054906101000a900473ffffffffffffffffffffffffffffffffffffffff1673ffffffffffffffffffffffffffffffffffffffff1663f398789b858585856040518563ffffffff1660e01b81526004016110289493929190612d77565b60206040518083038186803b15801561104057600080fd5b505afa158015611054573d6000803e3d6000fd5b505050506040513d601f19601f820116820180604052508101906110789190612688565b6110b7576040517f08c379a00000000000000000000000000000000000000000000000000000000081526004016110ae90612f74565b60405180910390fd5b6001856110c4919061323f565b600960036101000a81548160ff021916908360ff1602179055506110e6611fd2565b7f321b96ee4065ea0954e60de9522d211aabbec3815b71688d7a79c8a19463d195600960039054906101000a900460ff166040516111249190612fef565b60405180910390a15050505050565b60008073ffffffffffffffffffffffffffffffffffffffff1660008060028110611186577f4e487b7100000000000000000000000000000000000000000000000000000000600052603260045260246000fd5b0160009054906101000a900473ffffffffffffffffffffffffffffffffffffffff1673ffffffffffffffffffffffffffffffffffffffff16141580156112545750600073ffffffffffffffffffffffffffffffffffffffff16600060016002811061121a577f4e487b7100000000000000000000000000000000000000000000000000000000600052603260045260246000fd5b0160009054906101000a900473ffffffffffffffffffffffffffffffffffffffff1673ffffffffffffffffffffffffffffffffffffffff16145b905090565b600960009054906101000a900460ff1681565b6000806112776103ef565b600281106112ae577f4e487b7100000000000000000000000000000000000000000000000000000000600052603260045260246000fd5b0160009054906101000a900473ffffffffffffffffffffffffffffffffffffffff1673ffffffffffffffffffffffffffffffffffffffff163373ffffffffffffffffffffffffffffffffffffffff1614905090565b60006002600060028110611340577f4e487b7100000000000000000000000000000000000000000000000000000000600052603260045260246000fd5b01541415611383576040517f08c379a000000000000000000000000000000000000000000000000000000000815260040161137a90612e94565b60405180910390fd5b600073ffffffffffffffffffffffffffffffffffffffff1660006001600281106113d6577f4e487b7100000000000000000000000000000000000000000000000000000000600052603260045260246000fd5b0160009054906101000a900473ffffffffffffffffffffffffffffffffffffffff1673ffffffffffffffffffffffffffffffffffffffff16141561144f576040517f08c379a000000000000000000000000000000000000000000000000000000000815260040161144690612f54565b60405180910390fd5b611457611f3b565b611496576040517f08c379a000000000000000000000000000000000000000000000000000000000815260040161148d90612eb4565b60405180910390fd5b600060405180608001604052808660ff168152602001600960009054906101000a900460ff1660ff168152602001600960019054906101000a900460ff1660ff16815260200160026114e6611a43565b6002811061151d577f4e487b7100000000000000000000000000000000000000000000000000000000600052603260045260246000fd5b01548152509050600b60009054906101000a900473ffffffffffffffffffffffffffffffffffffffff1673ffffffffffffffffffffffffffffffffffffffff16635fe8c13b858585856040518563ffffffff1660e01b81526004016115859493929190612d30565b60206040518083038186803b15801561159d57600080fd5b505afa1580156115b1573d6000803e3d6000fd5b505050506040513d601f19601f820116820180604052508101906115d59190612688565b611614576040517f08c379a000000000000000000000000000000000000000000000000000000000815260040161160b90612ef4565b60405180910390fd5b600185611621919061323f565b600960026101000a81548160ff021916908360ff1602179055506004600081548092919061164e90613320565b91905055507fb9c2decafb8bb7052b7a1c4452beff9a62e1bbf436aa24e3f22e3dbfa05f1ca1600960029054906101000a900460ff166040516116919190612fef565b60405180910390a15050505050565b600281600281106116b057600080fd5b016000915090505481565b600073ffffffffffffffffffffffffffffffffffffffff166000806002811061170d577f4e487b7100000000000000000000000000000000000000000000000000000000600052603260045260246000fd5b0160009054906101000a900473ffffffffffffffffffffffffffffffffffffffff1673ffffffffffffffffffffffffffffffffffffffff1614611785576040517f08c379a000000000000000000000000000000000000000000000000000000000815260040161177c90612e14565b60405180910390fd5b600060026000600281106117c2577f4e487b7100000000000000000000000000000000000000000000000000000000600052603260045260246000fd5b015414611804576040517f08c379a00000000000000000000000000000000000000000000000000000000081526004016117fb90612e14565b60405180910390fd5b60006040518060200160405280868152509050600a60009054906101000a900473ffffffffffffffffffffffffffffffffffffffff1673ffffffffffffffffffffffffffffffffffffffff166343753b4d858585856040518563ffffffff1660e01b81526004016118789493929190612ce9565b60206040518083038186803b15801561189057600080fd5b505afa1580156118a4573d6000803e3d6000fd5b505050506040513d601f19601f820116820180604052508101906118c89190612688565b611907576040517f08c379a00000000000000000000000000000000000000000000000000000000081526004016118fe90612f34565b60405180910390fd5b846002600060028110611943577f4e487b7100000000000000000000000000000000000000000000000000000000600052603260045260246000fd5b01819055503360008060028110611983577f4e487b7100000000000000000000000000000000000000000000000000000000600052603260045260246000fd5b0160006101000a81548173ffffffffffffffffffffffffffffffffffffffff021916908373ffffffffffffffffffffffffffffffffffffffff1602179055506003600960026101000a81548160ff021916908360ff1602179055506003600960036101000a81548160ff021916908360ff1602179055506000600960046101000a81548173ffffffffffffffffffffffffffffffffffffffff021916908373ffffffffffffffffffffffffffffffffffffffff1602179055505050505050565b60006002600454611a549190613369565b905090565b600960049054906101000a900473ffffffffffffffffffffffffffffffffffffffff1681565b600080600160028110611abb577f4e487b7100000000000000000000000000000000000000000000000000000000600052603260045260246000fd5b0160009054906101000a900473ffffffffffffffffffffffffffffffffffffffff1673ffffffffffffffffffffffffffffffffffffffff163373ffffffffffffffffffffffffffffffffffffffff161415611b54576002600160028110611b4b577f4e487b7100000000000000000000000000000000000000000000000000000000600052603260045260246000fd5b01549050611c2c565b60008060028110611b8e577f4e487b7100000000000000000000000000000000000000000000000000000000600052603260045260246000fd5b0160009054906101000a900473ffffffffffffffffffffffffffffffffffffffff1673ffffffffffffffffffffffffffffffffffffffff163373ffffffffffffffffffffffffffffffffffffffff161415611c27576002600060028110611c1e577f4e487b7100000000000000000000000000000000000000000000000000000000600052603260045260246000fd5b01549050611c2c565b600090505b90565b60006002600060028110611c6c577f4e487b7100000000000000000000000000000000000000000000000000000000600052603260045260246000fd5b01541415611caf576040517f08c379a0000000000000000000000000000000000000000000000000000000008152600401611ca690612e94565b60405180910390fd5b600073ffffffffffffffffffffffffffffffffffffffff166000600160028110611d02577f4e487b7100000000000000000000000000000000000000000000000000000000600052603260045260246000fd5b0160009054906101000a900473ffffffffffffffffffffffffffffffffffffffff1673ffffffffffffffffffffffffffffffffffffffff161415611d7b576040517f08c379a0000000000000000000000000000000000000000000000000000000008152600401611d7290612f54565b60405180910390fd5b611d8361126c565b611dc2576040517f08c379a0000000000000000000000000000000000000000000000000000000008152600401611db990612ed4565b60405180910390fd5b6000600960039054906101000a900460ff1660ff161415611e18576040517f08c379a0000000000000000000000000000000000000000000000000000000008152600401611e0f90612e34565b60405180910390fd5b6000600960029054906101000a900460ff1660ff161415611e6e576040517f08c379a0000000000000000000000000000000000000000000000000000000008152600401611e6590612e74565b60405180910390fd5b806005906004611e7f929190612420565b506000600960036101000a81548160ff021916908360ff1602179055507f5fbecfb9ebd9b032c64d3ad9e07a26c11d5cc0e530f3187f2f77087ea4ec622f6005604051611ecc9190612dbe565b60405180910390a150565b60058160048110611ee757600080fd5b016000915090505481565b600960019054906101000a900460ff1681565b60008160028110611f1557600080fd5b016000915054906101000a900473ffffffffffffffffffffffffffffffffffffffff1681565b600080611f46611a43565b60028110611f7d577f4e487b7100000000000000000000000000000000000000000000000000000000600052603260045260246000fd5b0160009054906101000a900473ffffffffffffffffffffffffffffffffffffffff1673ffffffffffffffffffffffffffffffffffffffff163373ffffffffffffffffffffffffffffffffffffffff1614905090565b6000600260006002811061200f577f4e487b7100000000000000000000000000000000000000000000000000000000600052603260045260246000fd5b01541415612052576040517f08c379a000000000000000000000000000000000000000000000000000000000815260040161204990612e94565b60405180910390fd5b600073ffffffffffffffffffffffffffffffffffffffff1660006001600281106120a5577f4e487b7100000000000000000000000000000000000000000000000000000000600052603260045260246000fd5b0160009054906101000a900473ffffffffffffffffffffffffffffffffffffffff1673ffffffffffffffffffffffffffffffffffffffff16141561211e576040517f08c379a000000000000000000000000000000000000000000000000000000000815260040161211590612f54565b60405180910390fd5b6002600960039054906101000a900460ff1660ff1614156121dd5760006121436103ef565b6002811061217a577f4e487b7100000000000000000000000000000000000000000000000000000000600052603260045260246000fd5b0160009054906101000a900473ffffffffffffffffffffffffffffffffffffffff16600960046101000a81548173ffffffffffffffffffffffffffffffffffffffff021916908373ffffffffffffffffffffffffffffffffffffffff1602179055505b6001600960039054906101000a900460ff1660ff16141561229c576000612202611a43565b60028110612239577f4e487b7100000000000000000000000000000000000000000000000000000000600052603260045260246000fd5b0160009054906101000a900473ffffffffffffffffffffffffffffffffffffffff16600960046101000a81548173ffffffffffffffffffffffffffffffffffffffff021916908373ffffffffffffffffffffffffffffffffffffffff1602179055505b600060026000600281106122d9577f4e487b7100000000000000000000000000000000000000000000000000000000600052603260045260246000fd5b01819055506000600260016002811061231b577f4e487b7100000000000000000000000000000000000000000000000000000000600052603260045260246000fd5b01819055506000600481905550600080600060028110612364577f4e487b7100000000000000000000000000000000000000000000000000000000600052603260045260246000fd5b0160006101000a81548173ffffffffffffffffffffffffffffffffffffffff021916908373ffffffffffffffffffffffffffffffffffffffff1602179055506000806001600281106123df577f4e487b7100000000000000000000000000000000000000000000000000000000600052603260045260246000fd5b0160006101000a81548173ffffffffffffffffffffffffffffffffffffffff021916908373ffffffffffffffffffffffffffffffffffffffff160217905550565b8260048101928215612454579160200282015b82811115612453578251829060ff16905591602001919060010190612433565b5b5090506124619190612465565b5090565b5b8082111561247e576000816000905550600101612466565b5090565b600061249561249084613058565b613033565b905080828560408602820111156124ab57600080fd5b60005b858110156124db57816124c188826125d2565b8452602084019350604083019250506001810190506124ae565b5050509392505050565b60006124f86124f38461307e565b613033565b9050808285602086028201111561250e57600080fd5b60005b8581101561253e57816125248882612635565b845260208401935060208301925050600181019050612511565b5050509392505050565b600061255b612556846130a4565b613033565b9050808285602086028201111561257157600080fd5b60005b858110156125a15781612587888261264a565b845260208401935060208301925050600181019050612574565b5050509392505050565b600082601f8301126125bc57600080fd5b60026125c9848285612482565b91505092915050565b600082601f8301126125e357600080fd5b60026125f08482856124e5565b91505092915050565b600082601f83011261260a57600080fd5b6004612617848285612548565b91505092915050565b60008151905061262f816136e5565b92915050565b600081359050612644816136fc565b92915050565b60008135905061265981613713565b92915050565b60006080828403121561267157600080fd5b600061267f848285016125f9565b91505092915050565b60006020828403121561269a57600080fd5b60006126a884828501612620565b91505092915050565b6000602082840312156126c357600080fd5b60006126d184828501612635565b91505092915050565b60008060008061012085870312156126f157600080fd5b60006126ff87828801612635565b9450506020612710878288016125d2565b9350506060612721878288016125ab565b92505060e0612732878288016125d2565b91505092959194509250565b600080600080610120858703121561275557600080fd5b60006127638782880161264a565b9450506020612774878288016125d2565b9350506060612785878288016125ab565b92505060e0612796878288016125d2565b91505092959194509250565b600080604083850312156127b557600080fd5b60006127c38582860161264a565b92505060206127d48582860161264a565b9150509250929050565b60006127ea83836128cb565b60408301905092915050565b60006128028383612ca1565b60208301905092915050565b61281781613280565b82525050565b61282681613106565b6128308184613196565b925061283b826130ca565b8060005b8381101561286c57815161285387826127de565b965061285e83613148565b92505060018101905061283f565b505050505050565b61287d81613111565b61288781846131a1565b9250612892826130d4565b8060005b838110156128c35781516128aa87826127f6565b96506128b583613155565b925050600181019050612896565b505050505050565b6128d48161311c565b6128de81846131ac565b92506128e9826130de565b8060005b8381101561291a57815161290187826127f6565b965061290c83613162565b9250506001810190506128ed565b505050505050565b61292b8161311c565b61293581846131b7565b9250612940826130de565b8060005b8381101561297157815161295887826127f6565b965061296383613162565b925050600181019050612944565b505050505050565b61298281613127565b61298c81846131c2565b9250612997826130e8565b8060005b838110156129c85781516129af87826127f6565b96506129ba8361316f565b92505060018101905061299b565b505050505050565b6129d981613132565b6129e381846131c2565b92506129ee826130f2565b8060005b83811015612a2657612a0382613427565b612a0d87826127f6565b9650612a188361317c565b9250506001810190506129f2565b505050505050565b612a378161313d565b612a4181846131cd565b9250612a4c826130fc565b8060005b83811015612a7d578151612a6487826127f6565b9650612a6f83613189565b925050600181019050612a50565b505050505050565b612a8e81613292565b82525050565b6000612aa16014836131d8565b9150612aac82613458565b602082019050919050565b6000612ac46014836131d8565b9150612acf82613481565b602082019050919050565b6000612ae7601a836131d8565b9150612af2826134aa565b602082019050919050565b6000612b0a6016836131d8565b9150612b15826134d3565b602082019050919050565b6000612b2d6017836131d8565b9150612b38826134fc565b602082019050919050565b6000612b506010836131d8565b9150612b5b82613525565b602082019050919050565b6000612b736023836131d8565b9150612b7e8261354e565b604082019050919050565b6000612b96600f836131d8565b9150612ba18261359d565b602082019050919050565b6000612bb96018836131d8565b9150612bc4826135c6565b602082019050919050565b6000612bdc601d836131d8565b9150612be7826135ef565b602082019050919050565b6000612bff601c836131d8565b9150612c0a82613618565b602082019050919050565b6000612c226014836131d8565b9150612c2d82613641565b602082019050919050565b6000612c456017836131d8565b9150612c508261366a565b602082019050919050565b6000612c686013836131d8565b9150612c7382613693565b602082019050919050565b6000612c8b6014836131d8565b9150612c96826136bc565b602082019050919050565b612caa816132be565b82525050565b612cb9816132be565b82525050565b612cc8816132c8565b82525050565b6000602082019050612ce3600083018461280e565b92915050565b600061012082019050612cff6000830187612922565b612d0c604083018661281d565b612d1960c0830185612922565b612d27610100830184612874565b95945050505050565b600061018082019050612d466000830187612922565b612d53604083018661281d565b612d6060c0830185612922565b612d6e610100830184612979565b95945050505050565b60006101c082019050612d8d6000830187612922565b612d9a604083018661281d565b612da760c0830185612922565b612db5610100830184612a2e565b95945050505050565b6000608082019050612dd360008301846129d0565b92915050565b6000602082019050612dee6000830184612a85565b92915050565b60006020820190508181036000830152612e0d81612a94565b9050919050565b60006020820190508181036000830152612e2d81612ab7565b9050919050565b60006020820190508181036000830152612e4d81612ada565b9050919050565b60006020820190508181036000830152612e6d81612afd565b9050919050565b60006020820190508181036000830152612e8d81612b20565b9050919050565b60006020820190508181036000830152612ead81612b43565b9050919050565b60006020820190508181036000830152612ecd81612b66565b9050919050565b60006020820190508181036000830152612eed81612b89565b9050919050565b60006020820190508181036000830152612f0d81612bac565b9050919050565b60006020820190508181036000830152612f2d81612bcf565b9050919050565b60006020820190508181036000830152612f4d81612bf2565b9050919050565b60006020820190508181036000830152612f6d81612c15565b9050919050565b60006020820190508181036000830152612f8d81612c38565b9050919050565b60006020820190508181036000830152612fad81612c5b565b9050919050565b60006020820190508181036000830152612fcd81612c7e565b9050919050565b6000602082019050612fe96000830184612cb0565b92915050565b60006020820190506130046000830184612cbf565b92915050565b600060408201905061301f6000830185612cbf565b61302c6020830184612cbf565b9392505050565b600061303d61304e565b905061304982826132ef565b919050565b6000604051905090565b600067ffffffffffffffff821115613073576130726133f8565b5b602082029050919050565b600067ffffffffffffffff821115613099576130986133f8565b5b602082029050919050565b600067ffffffffffffffff8211156130bf576130be6133f8565b5b602082029050919050565b6000819050919050565b6000819050919050565b6000819050919050565b6000819050919050565b6000819050919050565b6000819050919050565b600060029050919050565b600060019050919050565b600060029050919050565b600060049050919050565b600060049050919050565b600060069050919050565b6000602082019050919050565b6000602082019050919050565b6000602082019050919050565b6000602082019050919050565b6000600182019050919050565b6000602082019050919050565b600081905092915050565b600081905092915050565b600081905092915050565b600081905092915050565b600081905092915050565b600081905092915050565b600082825260208201905092915050565b60006131f4826132be565b91506131ff836132be565b9250827fffffffffffffffffffffffffffffffffffffffffffffffffffffffffffffffff038211156132345761323361339a565b5b828201905092915050565b600061324a826132c8565b9150613255836132c8565b92508260ff0382111561326b5761326a61339a565b5b828201905092915050565b6000819050919050565b600061328b8261329e565b9050919050565b60008115159050919050565b600073ffffffffffffffffffffffffffffffffffffffff82169050919050565b6000819050919050565b600060ff82169050919050565b60006132e86132e38361344b565b613276565b9050919050565b6132f88261343a565b810181811067ffffffffffffffff82111715613317576133166133f8565b5b80604052505050565b600061332b826132be565b91507fffffffffffffffffffffffffffffffffffffffffffffffffffffffffffffffff82141561335e5761335d61339a565b5b600182019050919050565b6000613374826132be565b915061337f836132be565b92508261338f5761338e6133c9565b5b828206905092915050565b7f4e487b7100000000000000000000000000000000000000000000000000000000600052601160045260246000fd5b7f4e487b7100000000000000000000000000000000000000000000000000000000600052601260045260246000fd5b7f4e487b7100000000000000000000000000000000000000000000000000000000600052604160045260246000fd5b600061343382546132d5565b9050919050565b6000601f19601f8301169050919050565b60008160001c9050919050565b7f50656e64696e6720677565737320616e73776572000000000000000000000000600082015250565b7f47616d6520616c72656164792063726561746564000000000000000000000000600082015250565b7f47756573732069732070656e64696e67206f6620616e73776572000000000000600082015250565b7f47616d6520526f6f6d20616c72656164792066756c6c00000000000000000000600082015250565b7f50656e64696e67207175657374696f6e20616e73776572000000000000000000600082015250565b7f47616d65206e6f74207374617274656400000000000000000000000000000000600082015250565b7f4f6e6c792063757272656e7420706c61796572207475726e2063616e20616e7360008201527f7765720000000000000000000000000000000000000000000000000000000000602082015250565b7f4e6f7420706c61796572207475726e0000000000000000000000000000000000600082015250565b7f496e76616c6964207175657374696f6e20616e73776572210000000000000000600082015250565b7f5175657374696f6e2069732070656e64696e67206f6620616e73776572000000600082015250565b7f496e76616c6964206368617261637465722073656c656374696f6e2100000000600082015250565b7f506c617965722032206973206e6f74206a6f696e000000000000000000000000600082015250565b7f496e76616c696420677565737320726573706f6e736521000000000000000000600082015250565b7f506c6179657220616c7265616479206a6f696e00000000000000000000000000600082015250565b7f47616d6520616c72656164792073746172746564000000000000000000000000600082015250565b6136ee81613292565b81146136f957600080fd5b50565b613705816132be565b811461371057600080fd5b50565b61371c816132c8565b811461372757600080fd5b5056fea2646970667358221220dfb4bfbddd13e74c41f2d6eff5e073e45e0f3992e9f7b8c9ef9e8ed6ee49e9b264736f6c63430008040033",
  "linkReferences": {},
  "deployedLinkReferences": {}
}