{
  "_format": "hh-sol-artifact-1",
  "contractName": "Game",
  "sourceName": "contracts/Game.sol",
  "abi": [
    {
      "inputs": [
        {
          "internalType": "address",
          "name": "_verifierBoard",
          "type": "address"
        },
        {
          "internalType": "address",
          "name": "_verifierQuestion",
          "type": "address"
        },
        {
          "internalType": "address",
          "name": "_verifierGuess",
          "type": "address"
        }
      ],
      "stateMutability": "nonpayable",
      "type": "constructor"
    },
    {
      "anonymous": false,
      "inputs": [],
      "name": "GameCreated",
      "type": "event"
    },
    {
      "anonymous": false,
      "inputs": [
        {
          "indexed": false,
          "internalType": "uint256[4]",
          "name": "_guess",
          "type": "uint256[4]"
        }
      ],
      "name": "Guess",
      "type": "event"
    },
    {
      "anonymous": false,
      "inputs": [
        {
          "indexed": false,
          "internalType": "uint8",
          "name": "_answer",
          "type": "uint8"
        }
      ],
      "name": "GuessResponse",
      "type": "event"
    },
    {
      "anonymous": false,
      "inputs": [],
      "name": "Joined",
      "type": "event"
    },
    {
      "anonymous": false,
      "inputs": [
        {
          "indexed": false,
          "internalType": "uint8",
          "name": "_answer",
          "type": "uint8"
        }
      ],
      "name": "QuestionAnswered",
      "type": "event"
    },
    {
      "anonymous": false,
      "inputs": [
        {
          "indexed": false,
          "internalType": "uint8",
          "name": "_type",
          "type": "uint8"
        },
        {
          "indexed": false,
          "internalType": "uint8",
          "name": "_characteristic",
          "type": "uint8"
        }
      ],
      "name": "QuestionAsked",
      "type": "event"
    },
    {
      "inputs": [
        {
          "internalType": "uint8",
          "name": "_type",
          "type": "uint8"
        },
        {
          "internalType": "uint8",
          "name": "_characteristic",
          "type": "uint8"
        }
      ],
      "name": "ask",
      "outputs": [],
      "stateMutability": "nonpayable",
      "type": "function"
    },
    {
      "inputs": [
        {
          "internalType": "uint256",
          "name": "_hash",
          "type": "uint256"
        },
        {
          "internalType": "uint256[2]",
          "name": "a",
          "type": "uint256[2]"
        },
        {
          "internalType": "uint256[2][2]",
          "name": "b",
          "type": "uint256[2][2]"
        },
        {
          "internalType": "uint256[2]",
          "name": "c",
          "type": "uint256[2]"
        }
      ],
      "name": "createOrJoin",
      "outputs": [],
      "stateMutability": "nonpayable",
      "type": "function"
    },
    {
      "inputs": [],
      "name": "currentTurn",
      "outputs": [
        {
          "internalType": "uint256",
          "name": "",
          "type": "uint256"
        }
      ],
      "stateMutability": "view",
      "type": "function"
    },
    {
      "inputs": [
        {
          "internalType": "uint8[4]",
          "name": "_guess",
          "type": "uint8[4]"
        }
      ],
      "name": "guess",
      "outputs": [],
      "stateMutability": "nonpayable",
      "type": "function"
    },
    {
      "inputs": [
        {
          "internalType": "uint256",
          "name": "",
          "type": "uint256"
        }
      ],
      "name": "hash",
      "outputs": [
        {
          "internalType": "uint256",
          "name": "",
          "type": "uint256"
        }
      ],
      "stateMutability": "view",
      "type": "function"
    },
    {
      "inputs": [],
      "name": "hashByAccount",
      "outputs": [
        {
          "internalType": "uint256",
          "name": "",
          "type": "uint256"
        }
      ],
      "stateMutability": "view",
      "type": "function"
    },
    {
      "inputs": [],
      "name": "isAnswerTurn",
      "outputs": [
        {
          "internalType": "bool",
          "name": "",
          "type": "bool"
        }
      ],
      "stateMutability": "view",
      "type": "function"
    },
    {
      "inputs": [],
      "name": "isCreated",
      "outputs": [
        {
          "internalType": "bool",
          "name": "",
          "type": "bool"
        }
      ],
      "stateMutability": "view",
      "type": "function"
    },
    {
      "inputs": [],
      "name": "isPlayerInGame",
      "outputs": [
        {
          "internalType": "bool",
          "name": "",
          "type": "bool"
        }
      ],
      "stateMutability": "view",
      "type": "function"
    },
    {
      "inputs": [],
      "name": "isQuestionTurn",
      "outputs": [
        {
          "internalType": "bool",
          "name": "",
          "type": "bool"
        }
      ],
      "stateMutability": "view",
      "type": "function"
    },
    {
      "inputs": [],
      "name": "isStarted",
      "outputs": [
        {
          "internalType": "bool",
          "name": "",
          "type": "bool"
        }
      ],
      "stateMutability": "view",
      "type": "function"
    },
    {
      "inputs": [],
      "name": "isWinner",
      "outputs": [
        {
          "internalType": "bool",
          "name": "",
          "type": "bool"
        }
      ],
      "stateMutability": "view",
      "type": "function"
    },
    {
      "inputs": [
        {
          "internalType": "uint8",
          "name": "_won",
          "type": "uint8"
        },
        {
          "internalType": "uint256[2]",
          "name": "a",
          "type": "uint256[2]"
        },
        {
          "internalType": "uint256[2][2]",
          "name": "b",
          "type": "uint256[2][2]"
        },
        {
          "internalType": "uint256[2]",
          "name": "c",
          "type": "uint256[2]"
        }
      ],
      "name": "isWon",
      "outputs": [],
      "stateMutability": "nonpayable",
      "type": "function"
    },
    {
      "inputs": [],
      "name": "lastCharacteristic",
      "outputs": [
        {
          "internalType": "uint8",
          "name": "",
          "type": "uint8"
        }
      ],
      "stateMutability": "view",
      "type": "function"
    },
    {
      "inputs": [
        {
          "internalType": "uint256",
          "name": "",
          "type": "uint256"
        }
      ],
      "name": "lastGuess",
      "outputs": [
        {
          "internalType": "uint256",
          "name": "",
          "type": "uint256"
        }
      ],
      "stateMutability": "view",
      "type": "function"
    },
    {
      "inputs": [],
      "name": "lastResponse",
      "outputs": [
        {
          "internalType": "uint8",
          "name": "",
          "type": "uint8"
        }
      ],
      "stateMutability": "view",
      "type": "function"
    },
    {
      "inputs": [],
      "name": "lastType",
      "outputs": [
        {
          "internalType": "uint8",
          "name": "",
          "type": "uint8"
        }
      ],
      "stateMutability": "view",
      "type": "function"
    },
    {
      "inputs": [],
      "name": "owner",
      "outputs": [
        {
          "internalType": "address",
          "name": "",
          "type": "address"
        }
      ],
      "stateMutability": "view",
      "type": "function"
    },
    {
      "inputs": [
        {
          "internalType": "uint256",
          "name": "",
          "type": "uint256"
        }
      ],
      "name": "players",
      "outputs": [
        {
          "internalType": "address",
          "name": "",
          "type": "address"
        }
      ],
      "stateMutability": "view",
      "type": "function"
    },
    {
      "inputs": [],
      "name": "previousTurn",
      "outputs": [
        {
          "internalType": "uint256",
          "name": "",
          "type": "uint256"
        }
      ],
      "stateMutability": "view",
      "type": "function"
    },
    {
      "inputs": [],
      "name": "reset",
      "outputs": [],
      "stateMutability": "nonpayable",
      "type": "function"
    },
    {
      "inputs": [
        {
          "internalType": "uint8",
          "name": "_answer",
          "type": "uint8"
        },
        {
          "internalType": "uint256[2]",
          "name": "a",
          "type": "uint256[2]"
        },
        {
          "internalType": "uint256[2][2]",
          "name": "b",
          "type": "uint256[2][2]"
        },
        {
          "internalType": "uint256[2]",
          "name": "c",
          "type": "uint256[2]"
        }
      ],
      "name": "response",
      "outputs": [],
      "stateMutability": "nonpayable",
      "type": "function"
    },
    {
      "inputs": [],
      "name": "winner",
      "outputs": [
        {
          "internalType": "address",
          "name": "",
          "type": "address"
        }
      ],
      "stateMutability": "view",
      "type": "function"
    },
    {
      "inputs": [],
      "name": "won",
      "outputs": [
        {
          "internalType": "uint8",
          "name": "",
          "type": "uint8"
        }
      ],
      "stateMutability": "view",
      "type": "function"
    }
  ],
  "bytecode": "0x60806040523480156200001157600080fd5b5060405162003fcf38038062003fcf83398181016040528101906200003791906200015b565b82600b60006101000a81548173ffffffffffffffffffffffffffffffffffffffff021916908373ffffffffffffffffffffffffffffffffffffffff16021790555081600c60006101000a81548173ffffffffffffffffffffffffffffffffffffffff021916908373ffffffffffffffffffffffffffffffffffffffff16021790555080600d60006101000a81548173ffffffffffffffffffffffffffffffffffffffff021916908373ffffffffffffffffffffffffffffffffffffffff16021790555033600a60006101000a81548173ffffffffffffffffffffffffffffffffffffffff021916908373ffffffffffffffffffffffffffffffffffffffff160217905550505050620001ff565b6000815190506200015581620001e5565b92915050565b6000806000606084860312156200017157600080fd5b6000620001818682870162000144565b9350506020620001948682870162000144565b9250506040620001a78682870162000144565b9150509250925092565b6000620001be82620001c5565b9050919050565b600073ffffffffffffffffffffffffffffffffffffffff82169050919050565b620001f081620001b1565b8114620001fc57600080fd5b50565b613dc0806200020f6000396000f3fe608060405234801561001057600080fd5b50600436106101585760003560e01c8063ae43f848116100c3578063e602f7f71161007c578063e602f7f71461036f578063eea108c21461038b578063f250975c146103bb578063f4b7621c146103d9578063f71d96cb146103f7578063fabd2f9c1461042757610158565b8063ae43f848146102bf578063b189fd4c146102db578063d826f88f1461030b578063deb6128614610315578063dfbf53ae14610333578063e4cecb101461035157610158565b806362747e421161011557806362747e421461020d5780636c3668481461022b57806386174396146102475780638da5cb5b146102655780639f9a32b014610283578063a7acd341146102a157610158565b8063099c56cb1461015d57806312c8052f146101795780631a9b0b7c146101975780632e514438146101b5578063352e84a7146101d3578063544736e6146101ef575b600080fd5b61017760048036038101906101729190612cce565b610445565b005b6101816104be565b60405161018e9190613626565b60405180910390f35b61019f6104d1565b6040516101ac91906133f0565b60405180910390f35b6101bd610529565b6040516101ca919061360b565b60405180910390f35b6101ed60048036038101906101e89190612d96565b61054b565b005b6101f7610819565b60405161020491906133f0565b60405180910390f35b6102156108f5565b6040516102229190613626565b60405180910390f35b61024560048036038101906102409190612d32565b610908565b005b61024f610d6d565b60405161025c91906133f0565b60405180910390f35b61026d610e93565b60405161027a91906132e5565b60405180910390f35b61028b610eb9565b6040516102989190613626565b60405180910390f35b6102a9610ecc565b6040516102b691906133f0565b60405180910390f35b6102d960048036038101906102d49190612d32565b610f63565b005b6102f560048036038101906102f09190612ca5565b611300565b604051610302919061360b565b60405180910390f35b61031361131b565b005b61031d6113c4565b60405161032a919061360b565b60405180910390f35b61033b6113da565b60405161034891906132e5565b60405180910390f35b610359611400565b604051610366919061360b565b60405180910390f35b61038960048036038101906103849190612c53565b6115b0565b005b6103a560048036038101906103a09190612ca5565b611858565b6040516103b2919061360b565b60405180910390f35b6103c3611873565b6040516103d09190613626565b60405180910390f35b6103e1611886565b6040516103ee91906133f0565b60405180910390f35b610411600480360381019061040c9190612ca5565b6119a9565b60405161041e91906132e5565b60405180910390f35b61042f6119df565b60405161043c91906133f0565b60405180910390f35b61044d610819565b1561048d576040517f08c379a00000000000000000000000000000000000000000000000000000000081526004016104849061346b565b60405180910390fd5b610495610d6d565b156104ab576104a684848484611a76565b6104b8565b6104b784848484611f76565b5b50505050565b600960039054906101000a900460ff1681565b6000600960049054906101000a900473ffffffffffffffffffffffffffffffffffffffff1673ffffffffffffffffffffffffffffffffffffffff163373ffffffffffffffffffffffffffffffffffffffff1614905090565b60006002600160045461053c9190613820565b61054691906139a0565b905090565b60006002600060028110610588577f4e487b7100000000000000000000000000000000000000000000000000000000600052603260045260246000fd5b015414156105cb576040517f08c379a00000000000000000000000000000000000000000000000000000000081526004016105c2906134cb565b60405180910390fd5b600073ffffffffffffffffffffffffffffffffffffffff16600060016002811061061e577f4e487b7100000000000000000000000000000000000000000000000000000000600052603260045260246000fd5b0160009054906101000a900473ffffffffffffffffffffffffffffffffffffffff1673ffffffffffffffffffffffffffffffffffffffff161415610697576040517f08c379a000000000000000000000000000000000000000000000000000000000815260040161068e9061358b565b60405180910390fd5b61069f610ecc565b6106de576040517f08c379a00000000000000000000000000000000000000000000000000000000081526004016106d59061350b565b60405180910390fd5b6000600960029054906101000a900460ff1660ff161415610734576040517f08c379a000000000000000000000000000000000000000000000000000000000815260040161072b9061354b565b60405180910390fd5b6000600960039054906101000a900460ff1660ff16141561078a576040517f08c379a00000000000000000000000000000000000000000000000000000000081526004016107819061340b565b60405180910390fd5b81600960006101000a81548160ff021916908360ff16021790555080600960016101000a81548160ff021916908360ff1602179055506000600960026101000a81548160ff021916908360ff1602179055507f32a95ea2373c4d2cff10c37d2caf784dc5e400dc50924dc7042f3f9afb5a270f828260405161080d929190613641565b60405180910390a15050565b6000806002600060028110610857577f4e487b7100000000000000000000000000000000000000000000000000000000600052603260045260246000fd5b0154141580156108f05750600073ffffffffffffffffffffffffffffffffffffffff1660006001600281106108b5577f4e487b7100000000000000000000000000000000000000000000000000000000600052603260045260246000fd5b0160009054906101000a900473ffffffffffffffffffffffffffffffffffffffff1673ffffffffffffffffffffffffffffffffffffffff1614155b905090565b600960029054906101000a900460ff1681565b60006002600060028110610945577f4e487b7100000000000000000000000000000000000000000000000000000000600052603260045260246000fd5b01541415610988576040517f08c379a000000000000000000000000000000000000000000000000000000000815260040161097f906134cb565b60405180910390fd5b600073ffffffffffffffffffffffffffffffffffffffff1660006001600281106109db577f4e487b7100000000000000000000000000000000000000000000000000000000600052603260045260246000fd5b0160009054906101000a900473ffffffffffffffffffffffffffffffffffffffff1673ffffffffffffffffffffffffffffffffffffffff161415610a54576040517f08c379a0000000000000000000000000000000000000000000000000000000008152600401610a4b9061358b565b60405180910390fd5b610a5c6119df565b610a9b576040517f08c379a0000000000000000000000000000000000000000000000000000000008152600401610a92906134eb565b60405180910390fd5b60006040518060c001604052808660ff1681526020016005600060048110610aec577f4e487b7100000000000000000000000000000000000000000000000000000000600052603260045260246000fd5b015481526020016005600160048110610b2e577f4e487b7100000000000000000000000000000000000000000000000000000000600052603260045260246000fd5b015481526020016005600260048110610b70577f4e487b7100000000000000000000000000000000000000000000000000000000600052603260045260246000fd5b015481526020016005600360048110610bb2577f4e487b7100000000000000000000000000000000000000000000000000000000600052603260045260246000fd5b015481526020016002610bc36113c4565b60028110610bfa577f4e487b7100000000000000000000000000000000000000000000000000000000600052603260045260246000fd5b01548152509050600d60009054906101000a900473ffffffffffffffffffffffffffffffffffffffff1673ffffffffffffffffffffffffffffffffffffffff1663f398789b858585856040518563ffffffff1660e01b8152600401610c62949392919061338e565b60206040518083038186803b158015610c7a57600080fd5b505afa158015610c8e573d6000803e3d6000fd5b505050506040513d601f19601f82011682018060405250810190610cb29190612c7c565b610cf1576040517f08c379a0000000000000000000000000000000000000000000000000000000008152600401610ce8906135ab565b60405180910390fd5b600185610cfe9190613876565b600960036101000a81548160ff021916908360ff160217905550610d20612332565b7f321b96ee4065ea0954e60de9522d211aabbec3815b71688d7a79c8a19463d195600960039054906101000a900460ff16604051610d5e9190613626565b60405180910390a15050505050565b60008073ffffffffffffffffffffffffffffffffffffffff1660008060028110610dc0577f4e487b7100000000000000000000000000000000000000000000000000000000600052603260045260246000fd5b0160009054906101000a900473ffffffffffffffffffffffffffffffffffffffff1673ffffffffffffffffffffffffffffffffffffffff1614158015610e8e5750600073ffffffffffffffffffffffffffffffffffffffff166000600160028110610e54577f4e487b7100000000000000000000000000000000000000000000000000000000600052603260045260246000fd5b0160009054906101000a900473ffffffffffffffffffffffffffffffffffffffff1673ffffffffffffffffffffffffffffffffffffffff16145b905090565b600a60009054906101000a900473ffffffffffffffffffffffffffffffffffffffff1681565b600960009054906101000a900460ff1681565b600080610ed7610529565b60028110610f0e577f4e487b7100000000000000000000000000000000000000000000000000000000600052603260045260246000fd5b0160009054906101000a900473ffffffffffffffffffffffffffffffffffffffff1673ffffffffffffffffffffffffffffffffffffffff163373ffffffffffffffffffffffffffffffffffffffff1614905090565b60006002600060028110610fa0577f4e487b7100000000000000000000000000000000000000000000000000000000600052603260045260246000fd5b01541415610fe3576040517f08c379a0000000000000000000000000000000000000000000000000000000008152600401610fda906134cb565b60405180910390fd5b600073ffffffffffffffffffffffffffffffffffffffff166000600160028110611036577f4e487b7100000000000000000000000000000000000000000000000000000000600052603260045260246000fd5b0160009054906101000a900473ffffffffffffffffffffffffffffffffffffffff1673ffffffffffffffffffffffffffffffffffffffff1614156110af576040517f08c379a00000000000000000000000000000000000000000000000000000000081526004016110a69061358b565b60405180910390fd5b6110b76119df565b6110f6576040517f08c379a00000000000000000000000000000000000000000000000000000000081526004016110ed906134eb565b60405180910390fd5b600060405180608001604052808660ff168152602001600960009054906101000a900460ff1660ff168152602001600960019054906101000a900460ff1660ff16815260200160026111466113c4565b6002811061117d577f4e487b7100000000000000000000000000000000000000000000000000000000600052603260045260246000fd5b01548152509050600c60009054906101000a900473ffffffffffffffffffffffffffffffffffffffff1673ffffffffffffffffffffffffffffffffffffffff16635fe8c13b858585856040518563ffffffff1660e01b81526004016111e59493929190613347565b60206040518083038186803b1580156111fd57600080fd5b505afa158015611211573d6000803e3d6000fd5b505050506040513d601f19601f820116820180604052508101906112359190612c7c565b611274576040517f08c379a000000000000000000000000000000000000000000000000000000000815260040161126b9061352b565b60405180910390fd5b6001856112819190613876565b600960026101000a81548160ff021916908360ff160217905550600460008154809291906112ae90613957565b91905055507fb9c2decafb8bb7052b7a1c4452beff9a62e1bbf436aa24e3f22e3dbfa05f1ca1600960029054906101000a900460ff166040516112f19190613626565b60405180910390a15050505050565b6002816002811061131057600080fd5b016000915090505481565b600a60009054906101000a900473ffffffffffffffffffffffffffffffffffffffff1673ffffffffffffffffffffffffffffffffffffffff163373ffffffffffffffffffffffffffffffffffffffff16148061137b575061137a611886565b5b6113ba576040517f08c379a00000000000000000000000000000000000000000000000000000000081526004016113b19061348b565b60405180910390fd5b6113c2612780565b565b600060026004546113d591906139a0565b905090565b600960049054906101000a900473ffffffffffffffffffffffffffffffffffffffff1681565b60008060016002811061143c577f4e487b7100000000000000000000000000000000000000000000000000000000600052603260045260246000fd5b0160009054906101000a900473ffffffffffffffffffffffffffffffffffffffff1673ffffffffffffffffffffffffffffffffffffffff163373ffffffffffffffffffffffffffffffffffffffff1614156114d55760026001600281106114cc577f4e487b7100000000000000000000000000000000000000000000000000000000600052603260045260246000fd5b015490506115ad565b6000806002811061150f577f4e487b7100000000000000000000000000000000000000000000000000000000600052603260045260246000fd5b0160009054906101000a900473ffffffffffffffffffffffffffffffffffffffff1673ffffffffffffffffffffffffffffffffffffffff163373ffffffffffffffffffffffffffffffffffffffff1614156115a857600260006002811061159f577f4e487b7100000000000000000000000000000000000000000000000000000000600052603260045260246000fd5b015490506115ad565b600090505b90565b600060026000600281106115ed577f4e487b7100000000000000000000000000000000000000000000000000000000600052603260045260246000fd5b01541415611630576040517f08c379a0000000000000000000000000000000000000000000000000000000008152600401611627906134cb565b60405180910390fd5b600073ffffffffffffffffffffffffffffffffffffffff166000600160028110611683577f4e487b7100000000000000000000000000000000000000000000000000000000600052603260045260246000fd5b0160009054906101000a900473ffffffffffffffffffffffffffffffffffffffff1673ffffffffffffffffffffffffffffffffffffffff1614156116fc576040517f08c379a00000000000000000000000000000000000000000000000000000000081526004016116f39061358b565b60405180910390fd5b611704610ecc565b611743576040517f08c379a000000000000000000000000000000000000000000000000000000000815260040161173a9061350b565b60405180910390fd5b6000600960039054906101000a900460ff1660ff161415611799576040517f08c379a00000000000000000000000000000000000000000000000000000000081526004016117909061344b565b60405180910390fd5b6000600960029054906101000a900460ff1660ff1614156117ef576040517f08c379a00000000000000000000000000000000000000000000000000000000081526004016117e6906134ab565b60405180910390fd5b806005906004611800929190612a14565b506000600960036101000a81548160ff021916908360ff1602179055507f5fbecfb9ebd9b032c64d3ad9e07a26c11d5cc0e530f3187f2f77087ea4ec622f600560405161184d91906133d5565b60405180910390a150565b6005816004811061186857600080fd5b016000915090505481565b600960019054906101000a900460ff1681565b6000806000600281106118c2577f4e487b7100000000000000000000000000000000000000000000000000000000600052603260045260246000fd5b0160009054906101000a900473ffffffffffffffffffffffffffffffffffffffff1673ffffffffffffffffffffffffffffffffffffffff163373ffffffffffffffffffffffffffffffffffffffff1614806119a457506000600160028110611953577f4e487b7100000000000000000000000000000000000000000000000000000000600052603260045260246000fd5b0160009054906101000a900473ffffffffffffffffffffffffffffffffffffffff1673ffffffffffffffffffffffffffffffffffffffff163373ffffffffffffffffffffffffffffffffffffffff16145b905090565b600081600281106119b957600080fd5b016000915054906101000a900473ffffffffffffffffffffffffffffffffffffffff1681565b6000806119ea6113c4565b60028110611a21577f4e487b7100000000000000000000000000000000000000000000000000000000600052603260045260246000fd5b0160009054906101000a900473ffffffffffffffffffffffffffffffffffffffff1673ffffffffffffffffffffffffffffffffffffffff163373ffffffffffffffffffffffffffffffffffffffff1614905090565b60006002600060028110611ab3577f4e487b7100000000000000000000000000000000000000000000000000000000600052603260045260246000fd5b01541415611af6576040517f08c379a0000000000000000000000000000000000000000000000000000000008152600401611aed906134cb565b60405180910390fd5b600073ffffffffffffffffffffffffffffffffffffffff166000600160028110611b49577f4e487b7100000000000000000000000000000000000000000000000000000000600052603260045260246000fd5b0160009054906101000a900473ffffffffffffffffffffffffffffffffffffffff1673ffffffffffffffffffffffffffffffffffffffff1614611bc1576040517f08c379a0000000000000000000000000000000000000000000000000000000008152600401611bb89061346b565b60405180910390fd5b3373ffffffffffffffffffffffffffffffffffffffff1660008060028110611c12577f4e487b7100000000000000000000000000000000000000000000000000000000600052603260045260246000fd5b0160009054906101000a900473ffffffffffffffffffffffffffffffffffffffff1673ffffffffffffffffffffffffffffffffffffffff161415611c8b576040517f08c379a0000000000000000000000000000000000000000000000000000000008152600401611c82906135cb565b60405180910390fd5b60006002600160028110611cc8577f4e487b7100000000000000000000000000000000000000000000000000000000600052603260045260246000fd5b015414611d0a576040517f08c379a0000000000000000000000000000000000000000000000000000000008152600401611d01906135eb565b60405180910390fd5b60006040518060200160405280868152509050600b60009054906101000a900473ffffffffffffffffffffffffffffffffffffffff1673ffffffffffffffffffffffffffffffffffffffff166343753b4d858585856040518563ffffffff1660e01b8152600401611d7e9493929190613300565b60206040518083038186803b158015611d9657600080fd5b505afa158015611daa573d6000803e3d6000fd5b505050506040513d601f19601f82011682018060405250810190611dce9190612c7c565b611e0d576040517f08c379a0000000000000000000000000000000000000000000000000000000008152600401611e049061356b565b60405180910390fd5b846002600160028110611e49577f4e487b7100000000000000000000000000000000000000000000000000000000600052603260045260246000fd5b0181905550336000600160028110611e8a577f4e487b7100000000000000000000000000000000000000000000000000000000600052603260045260246000fd5b0160006101000a81548173ffffffffffffffffffffffffffffffffffffffff021916908373ffffffffffffffffffffffffffffffffffffffff1602179055506003600960026101000a81548160ff021916908360ff1602179055506003600960036101000a81548160ff021916908360ff1602179055506000600960046101000a81548173ffffffffffffffffffffffffffffffffffffffff021916908373ffffffffffffffffffffffffffffffffffffffff1602179055507f01bef3730c3b3c7a12797f6baa6ef0473275290438b5264ad09598751c13a10c60405160405180910390a15050505050565b600073ffffffffffffffffffffffffffffffffffffffff1660008060028110611fc8577f4e487b7100000000000000000000000000000000000000000000000000000000600052603260045260246000fd5b0160009054906101000a900473ffffffffffffffffffffffffffffffffffffffff1673ffffffffffffffffffffffffffffffffffffffff1614612040576040517f08c379a00000000000000000000000000000000000000000000000000000000081526004016120379061342b565b60405180910390fd5b6000600260006002811061207d577f4e487b7100000000000000000000000000000000000000000000000000000000600052603260045260246000fd5b0154146120bf576040517f08c379a00000000000000000000000000000000000000000000000000000000081526004016120b69061342b565b60405180910390fd5b60006040518060200160405280868152509050600b60009054906101000a900473ffffffffffffffffffffffffffffffffffffffff1673ffffffffffffffffffffffffffffffffffffffff166343753b4d858585856040518563ffffffff1660e01b81526004016121339493929190613300565b60206040518083038186803b15801561214b57600080fd5b505afa15801561215f573d6000803e3d6000fd5b505050506040513d601f19601f820116820180604052508101906121839190612c7c565b6121c2576040517f08c379a00000000000000000000000000000000000000000000000000000000081526004016121b99061356b565b60405180910390fd5b6121ca612780565b846002600060028110612206577f4e487b7100000000000000000000000000000000000000000000000000000000600052603260045260246000fd5b01819055503360008060028110612246577f4e487b7100000000000000000000000000000000000000000000000000000000600052603260045260246000fd5b0160006101000a81548173ffffffffffffffffffffffffffffffffffffffff021916908373ffffffffffffffffffffffffffffffffffffffff1602179055506003600960026101000a81548160ff021916908360ff1602179055506003600960036101000a81548160ff021916908360ff1602179055506000600960046101000a81548173ffffffffffffffffffffffffffffffffffffffff021916908373ffffffffffffffffffffffffffffffffffffffff1602179055507f151802685129c44d0dd1313fc103826047d8aac8add2f9aec41ea52a69f2495d60405160405180910390a15050505050565b6000600260006002811061236f577f4e487b7100000000000000000000000000000000000000000000000000000000600052603260045260246000fd5b015414156123b2576040517f08c379a00000000000000000000000000000000000000000000000000000000081526004016123a9906134cb565b60405180910390fd5b600073ffffffffffffffffffffffffffffffffffffffff166000600160028110612405577f4e487b7100000000000000000000000000000000000000000000000000000000600052603260045260246000fd5b0160009054906101000a900473ffffffffffffffffffffffffffffffffffffffff1673ffffffffffffffffffffffffffffffffffffffff16141561247e576040517f08c379a00000000000000000000000000000000000000000000000000000000081526004016124759061358b565b60405180910390fd5b6002600960039054906101000a900460ff1660ff16141561253d5760006124a3610529565b600281106124da577f4e487b7100000000000000000000000000000000000000000000000000000000600052603260045260246000fd5b0160009054906101000a900473ffffffffffffffffffffffffffffffffffffffff16600960046101000a81548173ffffffffffffffffffffffffffffffffffffffff021916908373ffffffffffffffffffffffffffffffffffffffff1602179055505b6001600960039054906101000a900460ff1660ff1614156125fc5760006125626113c4565b60028110612599577f4e487b7100000000000000000000000000000000000000000000000000000000600052603260045260246000fd5b0160009054906101000a900473ffffffffffffffffffffffffffffffffffffffff16600960046101000a81548173ffffffffffffffffffffffffffffffffffffffff021916908373ffffffffffffffffffffffffffffffffffffffff1602179055505b60006002600060028110612639577f4e487b7100000000000000000000000000000000000000000000000000000000600052603260045260246000fd5b01819055506000600260016002811061267b577f4e487b7100000000000000000000000000000000000000000000000000000000600052603260045260246000fd5b018190555060006004819055506000806000600281106126c4577f4e487b7100000000000000000000000000000000000000000000000000000000600052603260045260246000fd5b0160006101000a81548173ffffffffffffffffffffffffffffffffffffffff021916908373ffffffffffffffffffffffffffffffffffffffff16021790555060008060016002811061273f577f4e487b7100000000000000000000000000000000000000000000000000000000600052603260045260246000fd5b0160006101000a81548173ffffffffffffffffffffffffffffffffffffffff021916908373ffffffffffffffffffffffffffffffffffffffff160217905550565b600060026000600281106127bd577f4e487b7100000000000000000000000000000000000000000000000000000000600052603260045260246000fd5b0181905550600060026001600281106127ff577f4e487b7100000000000000000000000000000000000000000000000000000000600052603260045260246000fd5b0181905550600080600060028110612840577f4e487b7100000000000000000000000000000000000000000000000000000000600052603260045260246000fd5b0160006101000a81548173ffffffffffffffffffffffffffffffffffffffff021916908373ffffffffffffffffffffffffffffffffffffffff1602179055506000806001600281106128bb577f4e487b7100000000000000000000000000000000000000000000000000000000600052603260045260246000fd5b0160006101000a81548173ffffffffffffffffffffffffffffffffffffffff021916908373ffffffffffffffffffffffffffffffffffffffff16021790555060006004819055506003600960026101000a81548160ff021916908360ff1602179055506003600960036101000a81548160ff021916908360ff1602179055506000600960046101000a81548173ffffffffffffffffffffffffffffffffffffffff021916908373ffffffffffffffffffffffffffffffffffffffff1602179055506040518060800160405280600060ff168152602001600060ff168152602001600060ff168152602001600060ff1681525060059060046129bd929190612a14565b506000600960006101000a81548160ff021916908360ff1602179055506000600960016101000a81548160ff021916908360ff1602179055506000600960026101000a81548160ff021916908360ff160217905550565b8260048101928215612a48579160200282015b82811115612a47578251829060ff16905591602001919060010190612a27565b5b509050612a559190612a59565b5090565b5b80821115612a72576000816000905550600101612a5a565b5090565b6000612a89612a848461368f565b61366a565b90508082856040860282011115612a9f57600080fd5b60005b85811015612acf5781612ab58882612bc6565b845260208401935060408301925050600181019050612aa2565b5050509392505050565b6000612aec612ae7846136b5565b61366a565b90508082856020860282011115612b0257600080fd5b60005b85811015612b325781612b188882612c29565b845260208401935060208301925050600181019050612b05565b5050509392505050565b6000612b4f612b4a846136db565b61366a565b90508082856020860282011115612b6557600080fd5b60005b85811015612b955781612b7b8882612c3e565b845260208401935060208301925050600181019050612b68565b5050509392505050565b600082601f830112612bb057600080fd5b6002612bbd848285612a76565b91505092915050565b600082601f830112612bd757600080fd5b6002612be4848285612ad9565b91505092915050565b600082601f830112612bfe57600080fd5b6004612c0b848285612b3c565b91505092915050565b600081519050612c2381613d45565b92915050565b600081359050612c3881613d5c565b92915050565b600081359050612c4d81613d73565b92915050565b600060808284031215612c6557600080fd5b6000612c7384828501612bed565b91505092915050565b600060208284031215612c8e57600080fd5b6000612c9c84828501612c14565b91505092915050565b600060208284031215612cb757600080fd5b6000612cc584828501612c29565b91505092915050565b6000806000806101208587031215612ce557600080fd5b6000612cf387828801612c29565b9450506020612d0487828801612bc6565b9350506060612d1587828801612b9f565b92505060e0612d2687828801612bc6565b91505092959194509250565b6000806000806101208587031215612d4957600080fd5b6000612d5787828801612c3e565b9450506020612d6887828801612bc6565b9350506060612d7987828801612b9f565b92505060e0612d8a87828801612bc6565b91505092959194509250565b60008060408385031215612da957600080fd5b6000612db785828601612c3e565b9250506020612dc885828601612c3e565b9150509250929050565b6000612dde8383612ebf565b60408301905092915050565b6000612df683836132b8565b60208301905092915050565b612e0b816138b7565b82525050565b612e1a8161373d565b612e2481846137cd565b9250612e2f82613701565b8060005b83811015612e60578151612e478782612dd2565b9650612e528361377f565b925050600181019050612e33565b505050505050565b612e7181613748565b612e7b81846137d8565b9250612e868261370b565b8060005b83811015612eb7578151612e9e8782612dea565b9650612ea98361378c565b925050600181019050612e8a565b505050505050565b612ec881613753565b612ed281846137e3565b9250612edd82613715565b8060005b83811015612f0e578151612ef58782612dea565b9650612f0083613799565b925050600181019050612ee1565b505050505050565b612f1f81613753565b612f2981846137ee565b9250612f3482613715565b8060005b83811015612f65578151612f4c8782612dea565b9650612f5783613799565b925050600181019050612f38565b505050505050565b612f768161375e565b612f8081846137f9565b9250612f8b8261371f565b8060005b83811015612fbc578151612fa38782612dea565b9650612fae836137a6565b925050600181019050612f8f565b505050505050565b612fcd81613769565b612fd781846137f9565b9250612fe282613729565b8060005b8381101561301a57612ff782613a5e565b6130018782612dea565b965061300c836137b3565b925050600181019050612fe6565b505050505050565b61302b81613774565b6130358184613804565b925061304082613733565b8060005b838110156130715781516130588782612dea565b9650613063836137c0565b925050600181019050613044565b505050505050565b613082816138c9565b82525050565b600061309560148361380f565b91506130a082613a8f565b602082019050919050565b60006130b860148361380f565b91506130c382613ab8565b602082019050919050565b60006130db601a8361380f565b91506130e682613ae1565b602082019050919050565b60006130fe60168361380f565b915061310982613b0a565b602082019050919050565b6000613121601f8361380f565b915061312c82613b33565b602082019050919050565b600061314460178361380f565b915061314f82613b5c565b602082019050919050565b600061316760108361380f565b915061317282613b85565b602082019050919050565b600061318a60238361380f565b915061319582613bae565b604082019050919050565b60006131ad600f8361380f565b91506131b882613bfd565b602082019050919050565b60006131d060188361380f565b91506131db82613c26565b602082019050919050565b60006131f3601d8361380f565b91506131fe82613c4f565b602082019050919050565b6000613216601c8361380f565b915061322182613c78565b602082019050919050565b600061323960148361380f565b915061324482613ca1565b602082019050919050565b600061325c60178361380f565b915061326782613cca565b602082019050919050565b600061327f60138361380f565b915061328a82613cf3565b602082019050919050565b60006132a260148361380f565b91506132ad82613d1c565b602082019050919050565b6132c1816138f5565b82525050565b6132d0816138f5565b82525050565b6132df816138ff565b82525050565b60006020820190506132fa6000830184612e02565b92915050565b6000610120820190506133166000830187612f16565b6133236040830186612e11565b61333060c0830185612f16565b61333e610100830184612e68565b95945050505050565b60006101808201905061335d6000830187612f16565b61336a6040830186612e11565b61337760c0830185612f16565b613385610100830184612f6d565b95945050505050565b60006101c0820190506133a46000830187612f16565b6133b16040830186612e11565b6133be60c0830185612f16565b6133cc610100830184613022565b95945050505050565b60006080820190506133ea6000830184612fc4565b92915050565b60006020820190506134056000830184613079565b92915050565b6000602082019050818103600083015261342481613088565b9050919050565b60006020820190508181036000830152613444816130ab565b9050919050565b60006020820190508181036000830152613464816130ce565b9050919050565b60006020820190508181036000830152613484816130f1565b9050919050565b600060208201905081810360008301526134a481613114565b9050919050565b600060208201905081810360008301526134c481613137565b9050919050565b600060208201905081810360008301526134e48161315a565b9050919050565b600060208201905081810360008301526135048161317d565b9050919050565b60006020820190508181036000830152613524816131a0565b9050919050565b60006020820190508181036000830152613544816131c3565b9050919050565b60006020820190508181036000830152613564816131e6565b9050919050565b6000602082019050818103600083015261358481613209565b9050919050565b600060208201905081810360008301526135a48161322c565b9050919050565b600060208201905081810360008301526135c48161324f565b9050919050565b600060208201905081810360008301526135e481613272565b9050919050565b6000602082019050818103600083015261360481613295565b9050919050565b600060208201905061362060008301846132c7565b92915050565b600060208201905061363b60008301846132d6565b92915050565b600060408201905061365660008301856132d6565b61366360208301846132d6565b9392505050565b6000613674613685565b90506136808282613926565b919050565b6000604051905090565b600067ffffffffffffffff8211156136aa576136a9613a2f565b5b602082029050919050565b600067ffffffffffffffff8211156136d0576136cf613a2f565b5b602082029050919050565b600067ffffffffffffffff8211156136f6576136f5613a2f565b5b602082029050919050565b6000819050919050565b6000819050919050565b6000819050919050565b6000819050919050565b6000819050919050565b6000819050919050565b600060029050919050565b600060019050919050565b600060029050919050565b600060049050919050565b600060049050919050565b600060069050919050565b6000602082019050919050565b6000602082019050919050565b6000602082019050919050565b6000602082019050919050565b6000600182019050919050565b6000602082019050919050565b600081905092915050565b600081905092915050565b600081905092915050565b600081905092915050565b600081905092915050565b600081905092915050565b600082825260208201905092915050565b600061382b826138f5565b9150613836836138f5565b9250827fffffffffffffffffffffffffffffffffffffffffffffffffffffffffffffffff0382111561386b5761386a6139d1565b5b828201905092915050565b6000613881826138ff565b915061388c836138ff565b92508260ff038211156138a2576138a16139d1565b5b828201905092915050565b6000819050919050565b60006138c2826138d5565b9050919050565b60008115159050919050565b600073ffffffffffffffffffffffffffffffffffffffff82169050919050565b6000819050919050565b600060ff82169050919050565b600061391f61391a83613a82565b6138ad565b9050919050565b61392f82613a71565b810181811067ffffffffffffffff8211171561394e5761394d613a2f565b5b80604052505050565b6000613962826138f5565b91507fffffffffffffffffffffffffffffffffffffffffffffffffffffffffffffffff821415613995576139946139d1565b5b600182019050919050565b60006139ab826138f5565b91506139b6836138f5565b9250826139c6576139c5613a00565b5b828206905092915050565b7f4e487b7100000000000000000000000000000000000000000000000000000000600052601160045260246000fd5b7f4e487b7100000000000000000000000000000000000000000000000000000000600052601260045260246000fd5b7f4e487b7100000000000000000000000000000000000000000000000000000000600052604160045260246000fd5b6000613a6a825461390c565b9050919050565b6000601f19601f8301169050919050565b60008160001c9050919050565b7f50656e64696e6720677565737320616e73776572000000000000000000000000600082015250565b7f47616d6520616c72656164792063726561746564000000000000000000000000600082015250565b7f47756573732069732070656e64696e67206f6620616e73776572000000000000600082015250565b7f47616d6520526f6f6d20616c72656164792066756c6c00000000000000000000600082015250565b7f4f6e6c79206f776e6572206f7220706c61796572732063616e20726573657400600082015250565b7f50656e64696e67207175657374696f6e20616e73776572000000000000000000600082015250565b7f47616d65206e6f74207374617274656400000000000000000000000000000000600082015250565b7f4f6e6c792063757272656e7420706c61796572207475726e2063616e20616e7360008201527f7765720000000000000000000000000000000000000000000000000000000000602082015250565b7f4e6f7420706c61796572207475726e0000000000000000000000000000000000600082015250565b7f496e76616c6964207175657374696f6e20616e73776572210000000000000000600082015250565b7f5175657374696f6e2069732070656e64696e67206f6620616e73776572000000600082015250565b7f496e76616c6964206368617261637465722073656c656374696f6e2100000000600082015250565b7f506c617965722032206973206e6f74206a6f696e000000000000000000000000600082015250565b7f496e76616c696420677565737320726573706f6e736521000000000000000000600082015250565b7f506c6179657220616c7265616479206a6f696e00000000000000000000000000600082015250565b7f47616d6520616c72656164792073746172746564000000000000000000000000600082015250565b613d4e816138c9565b8114613d5957600080fd5b50565b613d65816138f5565b8114613d7057600080fd5b50565b613d7c816138ff565b8114613d8757600080fd5b5056fea264697066735822122057b8cc52444fd26257bf44d6c16cc4374826cfe67759edc84af3b84bb1c411e964736f6c63430008040033",
  "linkReferences": {},
  "deployedLinkReferences": {}
}