{
  "_format": "hh-sol-artifact-1",
  "contractName": "Game",
  "sourceName": "contracts/Game.sol",
  "abi": [
    {
      "inputs": [
        {
          "internalType": "address",
          "name": "_verifierBoard",
          "type": "address"
        },
        {
          "internalType": "address",
          "name": "_verifierQuestion",
          "type": "address"
        },
        {
          "internalType": "address",
          "name": "_verifierGuess",
          "type": "address"
        }
      ],
      "stateMutability": "nonpayable",
      "type": "constructor"
    },
    {
      "anonymous": false,
      "inputs": [
        {
          "indexed": false,
          "internalType": "uint256[4]",
          "name": "_guess",
          "type": "uint256[4]"
        }
      ],
      "name": "Guess",
      "type": "event"
    },
    {
      "anonymous": false,
      "inputs": [
        {
          "indexed": false,
          "internalType": "uint8",
          "name": "_answer",
          "type": "uint8"
        }
      ],
      "name": "GuessResponse",
      "type": "event"
    },
    {
      "anonymous": false,
      "inputs": [],
      "name": "Joined",
      "type": "event"
    },
    {
      "anonymous": false,
      "inputs": [
        {
          "indexed": false,
          "internalType": "uint8",
          "name": "_answer",
          "type": "uint8"
        }
      ],
      "name": "QuestionAnswered",
      "type": "event"
    },
    {
      "anonymous": false,
      "inputs": [
        {
          "indexed": false,
          "internalType": "uint8",
          "name": "_type",
          "type": "uint8"
        },
        {
          "indexed": false,
          "internalType": "uint8",
          "name": "_characteristic",
          "type": "uint8"
        }
      ],
      "name": "QuestionAsked",
      "type": "event"
    },
    {
      "inputs": [
        {
          "internalType": "uint8",
          "name": "_type",
          "type": "uint8"
        },
        {
          "internalType": "uint8",
          "name": "_characteristic",
          "type": "uint8"
        }
      ],
      "name": "ask",
      "outputs": [],
      "stateMutability": "nonpayable",
      "type": "function"
    },
    {
      "inputs": [],
      "name": "currentTurn",
      "outputs": [
        {
          "internalType": "uint256",
          "name": "",
          "type": "uint256"
        }
      ],
      "stateMutability": "view",
      "type": "function"
    },
    {
      "inputs": [
        {
          "internalType": "uint8[4]",
          "name": "_guess",
          "type": "uint8[4]"
        }
      ],
      "name": "guess",
      "outputs": [],
      "stateMutability": "nonpayable",
      "type": "function"
    },
    {
      "inputs": [
        {
          "internalType": "uint256",
          "name": "",
          "type": "uint256"
        }
      ],
      "name": "hash",
      "outputs": [
        {
          "internalType": "uint256",
          "name": "",
          "type": "uint256"
        }
      ],
      "stateMutability": "view",
      "type": "function"
    },
    {
      "inputs": [],
      "name": "hashByAccount",
      "outputs": [
        {
          "internalType": "uint256",
          "name": "",
          "type": "uint256"
        }
      ],
      "stateMutability": "view",
      "type": "function"
    },
    {
      "inputs": [],
      "name": "isAnswerTurn",
      "outputs": [
        {
          "internalType": "bool",
          "name": "",
          "type": "bool"
        }
      ],
      "stateMutability": "view",
      "type": "function"
    },
    {
      "inputs": [],
      "name": "isCreated",
      "outputs": [
        {
          "internalType": "bool",
          "name": "",
          "type": "bool"
        }
      ],
      "stateMutability": "view",
      "type": "function"
    },
    {
      "inputs": [],
      "name": "isStarted",
      "outputs": [
        {
          "internalType": "bool",
          "name": "",
          "type": "bool"
        }
      ],
      "stateMutability": "view",
      "type": "function"
    },
    {
      "inputs": [
        {
          "internalType": "uint8",
          "name": "_won",
          "type": "uint8"
        },
        {
          "internalType": "uint256[2]",
          "name": "a",
          "type": "uint256[2]"
        },
        {
          "internalType": "uint256[2][2]",
          "name": "b",
          "type": "uint256[2][2]"
        },
        {
          "internalType": "uint256[2]",
          "name": "c",
          "type": "uint256[2]"
        }
      ],
      "name": "isWon",
      "outputs": [],
      "stateMutability": "nonpayable",
      "type": "function"
    },
    {
      "inputs": [
        {
          "internalType": "uint256",
          "name": "_hash",
          "type": "uint256"
        },
        {
          "internalType": "uint256[2]",
          "name": "a",
          "type": "uint256[2]"
        },
        {
          "internalType": "uint256[2][2]",
          "name": "b",
          "type": "uint256[2][2]"
        },
        {
          "internalType": "uint256[2]",
          "name": "c",
          "type": "uint256[2]"
        }
      ],
      "name": "join",
      "outputs": [],
      "stateMutability": "nonpayable",
      "type": "function"
    },
    {
      "inputs": [],
      "name": "lastCharacteristic",
      "outputs": [
        {
          "internalType": "uint8",
          "name": "",
          "type": "uint8"
        }
      ],
      "stateMutability": "view",
      "type": "function"
    },
    {
      "inputs": [
        {
          "internalType": "uint256",
          "name": "",
          "type": "uint256"
        }
      ],
      "name": "lastGuess",
      "outputs": [
        {
          "internalType": "uint256",
          "name": "",
          "type": "uint256"
        }
      ],
      "stateMutability": "view",
      "type": "function"
    },
    {
      "inputs": [],
      "name": "lastResponse",
      "outputs": [
        {
          "internalType": "uint8",
          "name": "",
          "type": "uint8"
        }
      ],
      "stateMutability": "view",
      "type": "function"
    },
    {
      "inputs": [],
      "name": "lastType",
      "outputs": [
        {
          "internalType": "uint8",
          "name": "",
          "type": "uint8"
        }
      ],
      "stateMutability": "view",
      "type": "function"
    },
    {
      "inputs": [
        {
          "internalType": "uint256",
          "name": "",
          "type": "uint256"
        }
      ],
      "name": "players",
      "outputs": [
        {
          "internalType": "address",
          "name": "",
          "type": "address"
        }
      ],
      "stateMutability": "view",
      "type": "function"
    },
    {
      "inputs": [
        {
          "internalType": "uint8",
          "name": "_answer",
          "type": "uint8"
        },
        {
          "internalType": "uint256[2]",
          "name": "a",
          "type": "uint256[2]"
        },
        {
          "internalType": "uint256[2][2]",
          "name": "b",
          "type": "uint256[2][2]"
        },
        {
          "internalType": "uint256[2]",
          "name": "c",
          "type": "uint256[2]"
        }
      ],
      "name": "response",
      "outputs": [],
      "stateMutability": "nonpayable",
      "type": "function"
    },
    {
      "inputs": [
        {
          "internalType": "uint256",
          "name": "_hash",
          "type": "uint256"
        },
        {
          "internalType": "uint256[2]",
          "name": "a",
          "type": "uint256[2]"
        },
        {
          "internalType": "uint256[2][2]",
          "name": "b",
          "type": "uint256[2][2]"
        },
        {
          "internalType": "uint256[2]",
          "name": "c",
          "type": "uint256[2]"
        }
      ],
      "name": "start",
      "outputs": [],
      "stateMutability": "nonpayable",
      "type": "function"
    },
    {
      "inputs": [],
      "name": "won",
      "outputs": [
        {
          "internalType": "uint8",
          "name": "",
          "type": "uint8"
        }
      ],
      "stateMutability": "view",
      "type": "function"
    }
  ],
  "bytecode": "0x60806040523480156200001157600080fd5b50604051620032fe380380620032fe83398181016040528101906200003791906200011a565b82600960046101000a81548173ffffffffffffffffffffffffffffffffffffffff021916908373ffffffffffffffffffffffffffffffffffffffff16021790555081600a60006101000a81548173ffffffffffffffffffffffffffffffffffffffff021916908373ffffffffffffffffffffffffffffffffffffffff16021790555080600b60006101000a81548173ffffffffffffffffffffffffffffffffffffffff021916908373ffffffffffffffffffffffffffffffffffffffff160217905550505050620001be565b6000815190506200011481620001a4565b92915050565b6000806000606084860312156200013057600080fd5b6000620001408682870162000103565b9350506020620001538682870162000103565b9250506040620001668682870162000103565b9150509250925092565b60006200017d8262000184565b9050919050565b600073ffffffffffffffffffffffffffffffffffffffff82169050919050565b620001af8162000170565b8114620001bb57600080fd5b50565b61313080620001ce6000396000f3fe608060405234801561001057600080fd5b50600436106101165760003560e01c8063b189fd4c116100a2578063e602f7f711610071578063e602f7f7146102a9578063eea108c2146102c5578063f250975c146102f5578063f71d96cb14610313578063fabd2f9c1461034357610116565b8063b189fd4c14610221578063b85f46eb14610251578063deb612861461026d578063e4cecb101461028b57610116565b806362747e42116100e957806362747e421461018f5780636c366848146101ad57806386174396146101c95780639f9a32b0146101e7578063ae43f8481461020557610116565b806312c8052f1461011b57806333bd875d14610139578063352e84a714610155578063544736e614610171575b600080fd5b610123610361565b6040516101309190612a90565b60405180910390f35b610153600480360381019061014e9190612244565b610374565b005b61016f600480360381019061016a919061230c565b610832565b005b610179610a63565b60405161018691906128da565b60405180910390f35b610197610b3f565b6040516101a49190612a90565b60405180910390f35b6101c760048036038101906101c291906122a8565b610b52565b005b6101d1610fb7565b6040516101de91906128da565b60405180910390f35b6101ef6110dd565b6040516101fc9190612a90565b60405180910390f35b61021f600480360381019061021a91906122a8565b6110f0565b005b61023b6004803603810190610236919061221b565b61148d565b6040516102489190612a75565b60405180910390f35b61026b60048036038101906102669190612244565b6114a8565b005b6102756117ee565b6040516102829190612a75565b60405180910390f35b610293611804565b6040516102a09190612a75565b60405180910390f35b6102c360048036038101906102be91906121c9565b6119b4565b005b6102df60048036038101906102da919061221b565b611bbf565b6040516102ec9190612a75565b60405180910390f35b6102fd611bda565b60405161030a9190612a90565b60405180910390f35b61032d6004803603810190610328919061221b565b611bed565b60405161033a91906127cf565b60405180910390f35b61034b611c23565b60405161035891906128da565b60405180910390f35b600960039054906101000a900460ff1681565b600060026000600281106103b1577f4e487b7100000000000000000000000000000000000000000000000000000000600052603260045260246000fd5b015414156103f4576040517f08c379a00000000000000000000000000000000000000000000000000000000081526004016103eb90612955565b60405180910390fd5b600073ffffffffffffffffffffffffffffffffffffffff166000600160028110610447577f4e487b7100000000000000000000000000000000000000000000000000000000600052603260045260246000fd5b0160009054906101000a900473ffffffffffffffffffffffffffffffffffffffff1673ffffffffffffffffffffffffffffffffffffffff16146104bf576040517f08c379a00000000000000000000000000000000000000000000000000000000081526004016104b690612935565b60405180910390fd5b3373ffffffffffffffffffffffffffffffffffffffff1660008060028110610510577f4e487b7100000000000000000000000000000000000000000000000000000000600052603260045260246000fd5b0160009054906101000a900473ffffffffffffffffffffffffffffffffffffffff1673ffffffffffffffffffffffffffffffffffffffff161415610589576040517f08c379a000000000000000000000000000000000000000000000000000000000815260040161058090612a35565b60405180910390fd5b600060026001600281106105c6577f4e487b7100000000000000000000000000000000000000000000000000000000600052603260045260246000fd5b015414610608576040517f08c379a00000000000000000000000000000000000000000000000000000000081526004016105ff90612a55565b60405180910390fd5b60006040518060200160405280868152509050600960049054906101000a900473ffffffffffffffffffffffffffffffffffffffff1673ffffffffffffffffffffffffffffffffffffffff166343753b4d858585856040518563ffffffff1660e01b815260040161067c94939291906127ea565b60206040518083038186803b15801561069457600080fd5b505afa1580156106a8573d6000803e3d6000fd5b505050506040513d601f19601f820116820180604052508101906106cc91906121f2565b61070b576040517f08c379a0000000000000000000000000000000000000000000000000000000008152600401610702906129d5565b60405180910390fd5b846002600160028110610747577f4e487b7100000000000000000000000000000000000000000000000000000000600052603260045260246000fd5b0181905550336000600160028110610788577f4e487b7100000000000000000000000000000000000000000000000000000000600052603260045260246000fd5b0160006101000a81548173ffffffffffffffffffffffffffffffffffffffff021916908373ffffffffffffffffffffffffffffffffffffffff1602179055506003600960026101000a81548160ff021916908360ff1602179055506003600960036101000a81548160ff021916908360ff1602179055507f01bef3730c3b3c7a12797f6baa6ef0473275290438b5264ad09598751c13a10c60405160405180910390a15050505050565b6000600260006002811061086f577f4e487b7100000000000000000000000000000000000000000000000000000000600052603260045260246000fd5b015414156108b2576040517f08c379a00000000000000000000000000000000000000000000000000000000081526004016108a990612955565b60405180910390fd5b600073ffffffffffffffffffffffffffffffffffffffff166000600160028110610905577f4e487b7100000000000000000000000000000000000000000000000000000000600052603260045260246000fd5b0160009054906101000a900473ffffffffffffffffffffffffffffffffffffffff1673ffffffffffffffffffffffffffffffffffffffff16141561097e576040517f08c379a0000000000000000000000000000000000000000000000000000000008152600401610975906129f5565b60405180910390fd5b6000600960029054906101000a900460ff1660ff1614156109d4576040517f08c379a00000000000000000000000000000000000000000000000000000000081526004016109cb906129b5565b60405180910390fd5b81600960006101000a81548160ff021916908360ff16021790555080600960016101000a81548160ff021916908360ff1602179055506000600960026101000a81548160ff021916908360ff1602179055507f32a95ea2373c4d2cff10c37d2caf784dc5e400dc50924dc7042f3f9afb5a270f8282604051610a57929190612aab565b60405180910390a15050565b6000806002600060028110610aa1577f4e487b7100000000000000000000000000000000000000000000000000000000600052603260045260246000fd5b015414158015610b3a5750600073ffffffffffffffffffffffffffffffffffffffff166000600160028110610aff577f4e487b7100000000000000000000000000000000000000000000000000000000600052603260045260246000fd5b0160009054906101000a900473ffffffffffffffffffffffffffffffffffffffff1673ffffffffffffffffffffffffffffffffffffffff1614155b905090565b600960029054906101000a900460ff1681565b60006002600060028110610b8f577f4e487b7100000000000000000000000000000000000000000000000000000000600052603260045260246000fd5b01541415610bd2576040517f08c379a0000000000000000000000000000000000000000000000000000000008152600401610bc990612955565b60405180910390fd5b600073ffffffffffffffffffffffffffffffffffffffff166000600160028110610c25577f4e487b7100000000000000000000000000000000000000000000000000000000600052603260045260246000fd5b0160009054906101000a900473ffffffffffffffffffffffffffffffffffffffff1673ffffffffffffffffffffffffffffffffffffffff161415610c9e576040517f08c379a0000000000000000000000000000000000000000000000000000000008152600401610c95906129f5565b60405180910390fd5b610ca6611c23565b610ce5576040517f08c379a0000000000000000000000000000000000000000000000000000000008152600401610cdc90612975565b60405180910390fd5b60006040518060c001604052808660ff1681526020016005600060048110610d36577f4e487b7100000000000000000000000000000000000000000000000000000000600052603260045260246000fd5b015481526020016005600160048110610d78577f4e487b7100000000000000000000000000000000000000000000000000000000600052603260045260246000fd5b015481526020016005600260048110610dba577f4e487b7100000000000000000000000000000000000000000000000000000000600052603260045260246000fd5b015481526020016005600360048110610dfc577f4e487b7100000000000000000000000000000000000000000000000000000000600052603260045260246000fd5b015481526020016002610e0d6117ee565b60028110610e44577f4e487b7100000000000000000000000000000000000000000000000000000000600052603260045260246000fd5b01548152509050600b60009054906101000a900473ffffffffffffffffffffffffffffffffffffffff1673ffffffffffffffffffffffffffffffffffffffff1663f398789b858585856040518563ffffffff1660e01b8152600401610eac9493929190612878565b60206040518083038186803b158015610ec457600080fd5b505afa158015610ed8573d6000803e3d6000fd5b505050506040513d601f19601f82011682018060405250810190610efc91906121f2565b610f3b576040517f08c379a0000000000000000000000000000000000000000000000000000000008152600401610f3290612a15565b60405180910390fd5b600185610f489190612c8a565b600960036101000a81548160ff021916908360ff160217905550610f6a611cba565b7f321b96ee4065ea0954e60de9522d211aabbec3815b71688d7a79c8a19463d195600960039054906101000a900460ff16604051610fa89190612a90565b60405180910390a15050505050565b60008073ffffffffffffffffffffffffffffffffffffffff166000806002811061100a577f4e487b7100000000000000000000000000000000000000000000000000000000600052603260045260246000fd5b0160009054906101000a900473ffffffffffffffffffffffffffffffffffffffff1673ffffffffffffffffffffffffffffffffffffffff16141580156110d85750600073ffffffffffffffffffffffffffffffffffffffff16600060016002811061109e577f4e487b7100000000000000000000000000000000000000000000000000000000600052603260045260246000fd5b0160009054906101000a900473ffffffffffffffffffffffffffffffffffffffff1673ffffffffffffffffffffffffffffffffffffffff16145b905090565b600960009054906101000a900460ff1681565b6000600260006002811061112d577f4e487b7100000000000000000000000000000000000000000000000000000000600052603260045260246000fd5b01541415611170576040517f08c379a000000000000000000000000000000000000000000000000000000000815260040161116790612955565b60405180910390fd5b600073ffffffffffffffffffffffffffffffffffffffff1660006001600281106111c3577f4e487b7100000000000000000000000000000000000000000000000000000000600052603260045260246000fd5b0160009054906101000a900473ffffffffffffffffffffffffffffffffffffffff1673ffffffffffffffffffffffffffffffffffffffff16141561123c576040517f08c379a0000000000000000000000000000000000000000000000000000000008152600401611233906129f5565b60405180910390fd5b611244611c23565b611283576040517f08c379a000000000000000000000000000000000000000000000000000000000815260040161127a90612975565b60405180910390fd5b600060405180608001604052808660ff168152602001600960009054906101000a900460ff1660ff168152602001600960019054906101000a900460ff1660ff16815260200160026112d36117ee565b6002811061130a577f4e487b7100000000000000000000000000000000000000000000000000000000600052603260045260246000fd5b01548152509050600a60009054906101000a900473ffffffffffffffffffffffffffffffffffffffff1673ffffffffffffffffffffffffffffffffffffffff16635fe8c13b858585856040518563ffffffff1660e01b81526004016113729493929190612831565b60206040518083038186803b15801561138a57600080fd5b505afa15801561139e573d6000803e3d6000fd5b505050506040513d601f19601f820116820180604052508101906113c291906121f2565b611401576040517f08c379a00000000000000000000000000000000000000000000000000000000081526004016113f890612995565b60405180910390fd5b60018561140e9190612c8a565b600960026101000a81548160ff021916908360ff1602179055506004600081548092919061143b90612d6b565b91905055507fb9c2decafb8bb7052b7a1c4452beff9a62e1bbf436aa24e3f22e3dbfa05f1ca1600960029054906101000a900460ff1660405161147e9190612a90565b60405180910390a15050505050565b6002816002811061149d57600080fd5b016000915090505481565b600073ffffffffffffffffffffffffffffffffffffffff16600080600281106114fa577f4e487b7100000000000000000000000000000000000000000000000000000000600052603260045260246000fd5b0160009054906101000a900473ffffffffffffffffffffffffffffffffffffffff1673ffffffffffffffffffffffffffffffffffffffff1614611572576040517f08c379a0000000000000000000000000000000000000000000000000000000008152600401611569906128f5565b60405180910390fd5b600060026000600281106115af577f4e487b7100000000000000000000000000000000000000000000000000000000600052603260045260246000fd5b0154146115f1576040517f08c379a00000000000000000000000000000000000000000000000000000000081526004016115e8906128f5565b60405180910390fd5b60006040518060200160405280868152509050600960049054906101000a900473ffffffffffffffffffffffffffffffffffffffff1673ffffffffffffffffffffffffffffffffffffffff166343753b4d858585856040518563ffffffff1660e01b815260040161166594939291906127ea565b60206040518083038186803b15801561167d57600080fd5b505afa158015611691573d6000803e3d6000fd5b505050506040513d601f19601f820116820180604052508101906116b591906121f2565b6116f4576040517f08c379a00000000000000000000000000000000000000000000000000000000081526004016116eb906129d5565b60405180910390fd5b846002600060028110611730577f4e487b7100000000000000000000000000000000000000000000000000000000600052603260045260246000fd5b01819055503360008060028110611770577f4e487b7100000000000000000000000000000000000000000000000000000000600052603260045260246000fd5b0160006101000a81548173ffffffffffffffffffffffffffffffffffffffff021916908373ffffffffffffffffffffffffffffffffffffffff1602179055506003600960026101000a81548160ff021916908360ff1602179055506003600960036101000a81548160ff021916908360ff1602179055505050505050565b600060026004546117ff9190612db4565b905090565b600080600160028110611840577f4e487b7100000000000000000000000000000000000000000000000000000000600052603260045260246000fd5b0160009054906101000a900473ffffffffffffffffffffffffffffffffffffffff1673ffffffffffffffffffffffffffffffffffffffff163373ffffffffffffffffffffffffffffffffffffffff1614156118d95760026001600281106118d0577f4e487b7100000000000000000000000000000000000000000000000000000000600052603260045260246000fd5b015490506119b1565b60008060028110611913577f4e487b7100000000000000000000000000000000000000000000000000000000600052603260045260246000fd5b0160009054906101000a900473ffffffffffffffffffffffffffffffffffffffff1673ffffffffffffffffffffffffffffffffffffffff163373ffffffffffffffffffffffffffffffffffffffff1614156119ac5760026000600281106119a3577f4e487b7100000000000000000000000000000000000000000000000000000000600052603260045260246000fd5b015490506119b1565b600090505b90565b600060026000600281106119f1577f4e487b7100000000000000000000000000000000000000000000000000000000600052603260045260246000fd5b01541415611a34576040517f08c379a0000000000000000000000000000000000000000000000000000000008152600401611a2b90612955565b60405180910390fd5b600073ffffffffffffffffffffffffffffffffffffffff166000600160028110611a87577f4e487b7100000000000000000000000000000000000000000000000000000000600052603260045260246000fd5b0160009054906101000a900473ffffffffffffffffffffffffffffffffffffffff1673ffffffffffffffffffffffffffffffffffffffff161415611b00576040517f08c379a0000000000000000000000000000000000000000000000000000000008152600401611af7906129f5565b60405180910390fd5b6000600960039054906101000a900460ff1660ff161415611b56576040517f08c379a0000000000000000000000000000000000000000000000000000000008152600401611b4d90612915565b60405180910390fd5b806005906004611b67929190611f8a565b506000600960036101000a81548160ff021916908360ff1602179055507f5fbecfb9ebd9b032c64d3ad9e07a26c11d5cc0e530f3187f2f77087ea4ec622f6005604051611bb491906128bf565b60405180910390a150565b60058160048110611bcf57600080fd5b016000915090505481565b600960019054906101000a900460ff1681565b60008160028110611bfd57600080fd5b016000915054906101000a900473ffffffffffffffffffffffffffffffffffffffff1681565b600080611c2e6117ee565b60028110611c65577f4e487b7100000000000000000000000000000000000000000000000000000000600052603260045260246000fd5b0160009054906101000a900473ffffffffffffffffffffffffffffffffffffffff1673ffffffffffffffffffffffffffffffffffffffff163373ffffffffffffffffffffffffffffffffffffffff1614905090565b60006002600060028110611cf7577f4e487b7100000000000000000000000000000000000000000000000000000000600052603260045260246000fd5b01541415611d3a576040517f08c379a0000000000000000000000000000000000000000000000000000000008152600401611d3190612955565b60405180910390fd5b600073ffffffffffffffffffffffffffffffffffffffff166000600160028110611d8d577f4e487b7100000000000000000000000000000000000000000000000000000000600052603260045260246000fd5b0160009054906101000a900473ffffffffffffffffffffffffffffffffffffffff1673ffffffffffffffffffffffffffffffffffffffff161415611e06576040517f08c379a0000000000000000000000000000000000000000000000000000000008152600401611dfd906129f5565b60405180910390fd5b60006002600060028110611e43577f4e487b7100000000000000000000000000000000000000000000000000000000600052603260045260246000fd5b018190555060006002600160028110611e85577f4e487b7100000000000000000000000000000000000000000000000000000000600052603260045260246000fd5b01819055506000600481905550600080600060028110611ece577f4e487b7100000000000000000000000000000000000000000000000000000000600052603260045260246000fd5b0160006101000a81548173ffffffffffffffffffffffffffffffffffffffff021916908373ffffffffffffffffffffffffffffffffffffffff160217905550600080600160028110611f49577f4e487b7100000000000000000000000000000000000000000000000000000000600052603260045260246000fd5b0160006101000a81548173ffffffffffffffffffffffffffffffffffffffff021916908373ffffffffffffffffffffffffffffffffffffffff160217905550565b8260048101928215611fbe579160200282015b82811115611fbd578251829060ff16905591602001919060010190611f9d565b5b509050611fcb9190611fcf565b5090565b5b80821115611fe8576000816000905550600101611fd0565b5090565b6000611fff611ffa84612af9565b612ad4565b9050808285604086028201111561201557600080fd5b60005b85811015612045578161202b888261213c565b845260208401935060408301925050600181019050612018565b5050509392505050565b600061206261205d84612b1f565b612ad4565b9050808285602086028201111561207857600080fd5b60005b858110156120a8578161208e888261219f565b84526020840193506020830192505060018101905061207b565b5050509392505050565b60006120c56120c084612b45565b612ad4565b905080828560208602820111156120db57600080fd5b60005b8581101561210b57816120f188826121b4565b8452602084019350602083019250506001810190506120de565b5050509392505050565b600082601f83011261212657600080fd5b6002612133848285611fec565b91505092915050565b600082601f83011261214d57600080fd5b600261215a84828561204f565b91505092915050565b600082601f83011261217457600080fd5b60046121818482856120b2565b91505092915050565b600081519050612199816130b5565b92915050565b6000813590506121ae816130cc565b92915050565b6000813590506121c3816130e3565b92915050565b6000608082840312156121db57600080fd5b60006121e984828501612163565b91505092915050565b60006020828403121561220457600080fd5b60006122128482850161218a565b91505092915050565b60006020828403121561222d57600080fd5b600061223b8482850161219f565b91505092915050565b600080600080610120858703121561225b57600080fd5b60006122698782880161219f565b945050602061227a8782880161213c565b935050606061228b87828801612115565b92505060e061229c8782880161213c565b91505092959194509250565b60008060008061012085870312156122bf57600080fd5b60006122cd878288016121b4565b94505060206122de8782880161213c565b93505060606122ef87828801612115565b92505060e06123008782880161213c565b91505092959194509250565b6000806040838503121561231f57600080fd5b600061232d858286016121b4565b925050602061233e858286016121b4565b9150509250929050565b60006123548383612435565b60408301905092915050565b600061236c83836127a2565b60208301905092915050565b61238181612ccb565b82525050565b61239081612ba7565b61239a8184612c37565b92506123a582612b6b565b8060005b838110156123d65781516123bd8782612348565b96506123c883612be9565b9250506001810190506123a9565b505050505050565b6123e781612bb2565b6123f18184612c42565b92506123fc82612b75565b8060005b8381101561242d5781516124148782612360565b965061241f83612bf6565b925050600181019050612400565b505050505050565b61243e81612bbd565b6124488184612c4d565b925061245382612b7f565b8060005b8381101561248457815161246b8782612360565b965061247683612c03565b925050600181019050612457565b505050505050565b61249581612bbd565b61249f8184612c58565b92506124aa82612b7f565b8060005b838110156124db5781516124c28782612360565b96506124cd83612c03565b9250506001810190506124ae565b505050505050565b6124ec81612bc8565b6124f68184612c63565b925061250182612b89565b8060005b838110156125325781516125198782612360565b965061252483612c10565b925050600181019050612505565b505050505050565b61254381612bd3565b61254d8184612c63565b925061255882612b93565b8060005b838110156125905761256d82612e72565b6125778782612360565b965061258283612c1d565b92505060018101905061255c565b505050505050565b6125a181612bde565b6125ab8184612c6e565b92506125b682612b9d565b8060005b838110156125e75781516125ce8782612360565b96506125d983612c2a565b9250506001810190506125ba565b505050505050565b6125f881612cdd565b82525050565b600061260b601483612c79565b915061261682612ea3565b602082019050919050565b600061262e601a83612c79565b915061263982612ecc565b602082019050919050565b6000612651601683612c79565b915061265c82612ef5565b602082019050919050565b6000612674601083612c79565b915061267f82612f1e565b602082019050919050565b6000612697602383612c79565b91506126a282612f47565b604082019050919050565b60006126ba601883612c79565b91506126c582612f96565b602082019050919050565b60006126dd601d83612c79565b91506126e882612fbf565b602082019050919050565b6000612700601c83612c79565b915061270b82612fe8565b602082019050919050565b6000612723601483612c79565b915061272e82613011565b602082019050919050565b6000612746601783612c79565b91506127518261303a565b602082019050919050565b6000612769601383612c79565b915061277482613063565b602082019050919050565b600061278c601483612c79565b91506127978261308c565b602082019050919050565b6127ab81612d09565b82525050565b6127ba81612d09565b82525050565b6127c981612d13565b82525050565b60006020820190506127e46000830184612378565b92915050565b600061012082019050612800600083018761248c565b61280d6040830186612387565b61281a60c083018561248c565b6128286101008301846123de565b95945050505050565b600061018082019050612847600083018761248c565b6128546040830186612387565b61286160c083018561248c565b61286f6101008301846124e3565b95945050505050565b60006101c08201905061288e600083018761248c565b61289b6040830186612387565b6128a860c083018561248c565b6128b6610100830184612598565b95945050505050565b60006080820190506128d4600083018461253a565b92915050565b60006020820190506128ef60008301846125ef565b92915050565b6000602082019050818103600083015261290e816125fe565b9050919050565b6000602082019050818103600083015261292e81612621565b9050919050565b6000602082019050818103600083015261294e81612644565b9050919050565b6000602082019050818103600083015261296e81612667565b9050919050565b6000602082019050818103600083015261298e8161268a565b9050919050565b600060208201905081810360008301526129ae816126ad565b9050919050565b600060208201905081810360008301526129ce816126d0565b9050919050565b600060208201905081810360008301526129ee816126f3565b9050919050565b60006020820190508181036000830152612a0e81612716565b9050919050565b60006020820190508181036000830152612a2e81612739565b9050919050565b60006020820190508181036000830152612a4e8161275c565b9050919050565b60006020820190508181036000830152612a6e8161277f565b9050919050565b6000602082019050612a8a60008301846127b1565b92915050565b6000602082019050612aa560008301846127c0565b92915050565b6000604082019050612ac060008301856127c0565b612acd60208301846127c0565b9392505050565b6000612ade612aef565b9050612aea8282612d3a565b919050565b6000604051905090565b600067ffffffffffffffff821115612b1457612b13612e43565b5b602082029050919050565b600067ffffffffffffffff821115612b3a57612b39612e43565b5b602082029050919050565b600067ffffffffffffffff821115612b6057612b5f612e43565b5b602082029050919050565b6000819050919050565b6000819050919050565b6000819050919050565b6000819050919050565b6000819050919050565b6000819050919050565b600060029050919050565b600060019050919050565b600060029050919050565b600060049050919050565b600060049050919050565b600060069050919050565b6000602082019050919050565b6000602082019050919050565b6000602082019050919050565b6000602082019050919050565b6000600182019050919050565b6000602082019050919050565b600081905092915050565b600081905092915050565b600081905092915050565b600081905092915050565b600081905092915050565b600081905092915050565b600082825260208201905092915050565b6000612c9582612d13565b9150612ca083612d13565b92508260ff03821115612cb657612cb5612de5565b5b828201905092915050565b6000819050919050565b6000612cd682612ce9565b9050919050565b60008115159050919050565b600073ffffffffffffffffffffffffffffffffffffffff82169050919050565b6000819050919050565b600060ff82169050919050565b6000612d33612d2e83612e96565b612cc1565b9050919050565b612d4382612e85565b810181811067ffffffffffffffff82111715612d6257612d61612e43565b5b80604052505050565b6000612d7682612d09565b91507fffffffffffffffffffffffffffffffffffffffffffffffffffffffffffffffff821415612da957612da8612de5565b5b600182019050919050565b6000612dbf82612d09565b9150612dca83612d09565b925082612dda57612dd9612e14565b5b828206905092915050565b7f4e487b7100000000000000000000000000000000000000000000000000000000600052601160045260246000fd5b7f4e487b7100000000000000000000000000000000000000000000000000000000600052601260045260246000fd5b7f4e487b7100000000000000000000000000000000000000000000000000000000600052604160045260246000fd5b6000612e7e8254612d20565b9050919050565b6000601f19601f8301169050919050565b60008160001c9050919050565b7f47616d6520616c72656164792063726561746564000000000000000000000000600082015250565b7f47756573732069732070656e64696e67206f6620616e73776572000000000000600082015250565b7f47616d6520526f6f6d20616c72656164792066756c6c00000000000000000000600082015250565b7f47616d65206e6f74207374617274656400000000000000000000000000000000600082015250565b7f4f6e6c792063757272656e7420706c61796572207475726e2063616e20616e7360008201527f7765720000000000000000000000000000000000000000000000000000000000602082015250565b7f496e76616c6964207175657374696f6e20616e73776572210000000000000000600082015250565b7f5175657374696f6e2069732070656e64696e67206f6620616e73776572000000600082015250565b7f496e76616c6964206368617261637465722073656c656374696f6e2100000000600082015250565b7f506c617965722032206973206e6f74206a6f696e000000000000000000000000600082015250565b7f496e76616c696420677565737320726573706f6e736521000000000000000000600082015250565b7f506c6179657220616c7265616479206a6f696e00000000000000000000000000600082015250565b7f47616d6520616c72656164792073746172746564000000000000000000000000600082015250565b6130be81612cdd565b81146130c957600080fd5b50565b6130d581612d09565b81146130e057600080fd5b50565b6130ec81612d13565b81146130f757600080fd5b5056fea2646970667358221220a08a3835caa3161ba19a82ec3f3c300f530e16ad27d5150801dff9e0702bf5a764736f6c63430008040033",
  "linkReferences": {},
  "deployedLinkReferences": {}
}