{
  "_format": "hh-sol-artifact-1",
  "contractName": "Game",
  "sourceName": "contracts/Game.sol",
  "abi": [
    {
      "inputs": [
        {
          "internalType": "address",
          "name": "_verifier",
          "type": "address"
        }
      ],
      "stateMutability": "nonpayable",
      "type": "constructor"
    },
    {
      "anonymous": false,
      "inputs": [
        {
          "indexed": false,
          "internalType": "uint256[4]",
          "name": "_guess",
          "type": "uint256[4]"
        }
      ],
      "name": "Guess",
      "type": "event"
    },
    {
      "anonymous": false,
      "inputs": [
        {
          "indexed": false,
          "internalType": "uint8",
          "name": "_answer",
          "type": "uint8"
        }
      ],
      "name": "GuessResponse",
      "type": "event"
    },
    {
      "anonymous": false,
      "inputs": [
        {
          "indexed": false,
          "internalType": "uint8",
          "name": "_answer",
          "type": "uint8"
        }
      ],
      "name": "QuestionAnswered",
      "type": "event"
    },
    {
      "anonymous": false,
      "inputs": [
        {
          "indexed": false,
          "internalType": "uint8",
          "name": "_type",
          "type": "uint8"
        },
        {
          "indexed": false,
          "internalType": "uint8",
          "name": "_characteristic",
          "type": "uint8"
        }
      ],
      "name": "QuestionAsked",
      "type": "event"
    },
    {
      "inputs": [
        {
          "internalType": "uint8",
          "name": "_type",
          "type": "uint8"
        },
        {
          "internalType": "uint8",
          "name": "_characteristic",
          "type": "uint8"
        }
      ],
      "name": "ask",
      "outputs": [],
      "stateMutability": "nonpayable",
      "type": "function"
    },
    {
      "inputs": [
        {
          "internalType": "uint8[4]",
          "name": "_guess",
          "type": "uint8[4]"
        }
      ],
      "name": "guess",
      "outputs": [],
      "stateMutability": "nonpayable",
      "type": "function"
    },
    {
      "inputs": [],
      "name": "hash",
      "outputs": [
        {
          "internalType": "uint256",
          "name": "",
          "type": "uint256"
        }
      ],
      "stateMutability": "view",
      "type": "function"
    },
    {
      "inputs": [
        {
          "internalType": "uint8",
          "name": "_won",
          "type": "uint8"
        },
        {
          "internalType": "uint256[2]",
          "name": "a",
          "type": "uint256[2]"
        },
        {
          "internalType": "uint256[2][2]",
          "name": "b",
          "type": "uint256[2][2]"
        },
        {
          "internalType": "uint256[2]",
          "name": "c",
          "type": "uint256[2]"
        }
      ],
      "name": "isWon",
      "outputs": [],
      "stateMutability": "nonpayable",
      "type": "function"
    },
    {
      "inputs": [],
      "name": "lastCharacteristic",
      "outputs": [
        {
          "internalType": "uint8",
          "name": "",
          "type": "uint8"
        }
      ],
      "stateMutability": "view",
      "type": "function"
    },
    {
      "inputs": [
        {
          "internalType": "uint256",
          "name": "",
          "type": "uint256"
        }
      ],
      "name": "lastGuess",
      "outputs": [
        {
          "internalType": "uint256",
          "name": "",
          "type": "uint256"
        }
      ],
      "stateMutability": "view",
      "type": "function"
    },
    {
      "inputs": [],
      "name": "lastResponse",
      "outputs": [
        {
          "internalType": "uint8",
          "name": "",
          "type": "uint8"
        }
      ],
      "stateMutability": "view",
      "type": "function"
    },
    {
      "inputs": [],
      "name": "lastType",
      "outputs": [
        {
          "internalType": "uint8",
          "name": "",
          "type": "uint8"
        }
      ],
      "stateMutability": "view",
      "type": "function"
    },
    {
      "inputs": [
        {
          "internalType": "uint8",
          "name": "_response",
          "type": "uint8"
        },
        {
          "internalType": "uint256[2]",
          "name": "a",
          "type": "uint256[2]"
        },
        {
          "internalType": "uint256[2][2]",
          "name": "b",
          "type": "uint256[2][2]"
        },
        {
          "internalType": "uint256[2]",
          "name": "c",
          "type": "uint256[2]"
        }
      ],
      "name": "response",
      "outputs": [],
      "stateMutability": "nonpayable",
      "type": "function"
    },
    {
      "inputs": [
        {
          "internalType": "uint256",
          "name": "_hash",
          "type": "uint256"
        },
        {
          "internalType": "uint256[2]",
          "name": "a",
          "type": "uint256[2]"
        },
        {
          "internalType": "uint256[2][2]",
          "name": "b",
          "type": "uint256[2][2]"
        },
        {
          "internalType": "uint256[2]",
          "name": "c",
          "type": "uint256[2]"
        }
      ],
      "name": "start",
      "outputs": [],
      "stateMutability": "nonpayable",
      "type": "function"
    },
    {
      "inputs": [],
      "name": "won",
      "outputs": [
        {
          "internalType": "uint8",
          "name": "",
          "type": "uint8"
        }
      ],
      "stateMutability": "view",
      "type": "function"
    }
  ],
  "bytecode": "0x60806040523480156200001157600080fd5b506040516200156e3803806200156e833981810160405281019062000037919062000096565b80600760006101000a81548173ffffffffffffffffffffffffffffffffffffffff021916908373ffffffffffffffffffffffffffffffffffffffff1602179055505062000110565b6000815190506200009081620000f6565b92915050565b600060208284031215620000a957600080fd5b6000620000b9848285016200007f565b91505092915050565b6000620000cf82620000d6565b9050919050565b600073ffffffffffffffffffffffffffffffffffffffff82169050919050565b6200010181620000c2565b81146200010d57600080fd5b50565b61144e80620001206000396000f3fe608060405234801561001057600080fd5b50600436106100a95760003560e01c80639f9a32b0116100715780639f9a32b014610140578063ae43f8481461015e578063b85f46eb1461017a578063e602f7f714610196578063eea108c2146101b2578063f250975c146101e2576100a9565b806309bd5a60146100ae57806312c8052f146100cc578063352e84a7146100ea57806362747e42146101065780636c36684814610124575b600080fd5b6100b6610200565b6040516100c39190611054565b60405180910390f35b6100d4610206565b6040516100e1919061106f565b60405180910390f35b61010460048036038101906100ff9190610cd6565b610219565b005b61010e6102a6565b60405161011b919061106f565b60405180910390f35b61013e60048036038101906101399190610c72565b6102b9565b005b610148610580565b604051610155919061106f565b60405180910390f35b61017860048036038101906101739190610c72565b610591565b005b610194600480360381019061018f9190610c0e565b61076d565b005b6101b060048036038101906101ab9190610b93565b6108bd565b005b6101cc60048036038101906101c79190610be5565b610926565b6040516101d99190611054565b60405180910390f35b6101ea610941565b6040516101f7919061106f565b60405180910390f35b60065481565b600560009054906101000a900460ff1681565b816000806101000a81548160ff021916908360ff16021790555080600060016101000a81548160ff021916908360ff16021790555060008060026101000a81548160ff021916908360ff1602179055507f32a95ea2373c4d2cff10c37d2caf784dc5e400dc50924dc7042f3f9afb5a270f828260405161029a92919061108a565b60405180910390a15050565b600060029054906101000a900460ff1681565b60006040518061014001604052806006548152602001600160006004811061030a577f4e487b7100000000000000000000000000000000000000000000000000000000600052603260045260246000fd5b015481526020016001806004811061034b577f4e487b7100000000000000000000000000000000000000000000000000000000600052603260045260246000fd5b01548152602001600160026004811061038d577f4e487b7100000000000000000000000000000000000000000000000000000000600052603260045260246000fd5b0154815260200160016003600481106103cf577f4e487b7100000000000000000000000000000000000000000000000000000000600052603260045260246000fd5b0154815260200160008054906101000a900460ff1660ff168152602001600060019054906101000a900460ff1660ff168152602001600181526020018660ff1681526020016006548152509050600760009054906101000a900473ffffffffffffffffffffffffffffffffffffffff1673ffffffffffffffffffffffffffffffffffffffff1663f3bb70f6858585856040518563ffffffff1660e01b815260040161047d9493929190610f92565b60206040518083038186803b15801561049557600080fd5b505afa1580156104a9573d6000803e3d6000fd5b505050506040513d601f19601f820116820180604052508101906104cd9190610bbc565b61050c576040517f08c379a000000000000000000000000000000000000000000000000000000000815260040161050390611034565b60405180910390fd5b600185610519919061121a565b600560006101000a81548160ff021916908360ff1602179055507f321b96ee4065ea0954e60de9522d211aabbec3815b71688d7a79c8a19463d195600560009054906101000a900460ff16604051610571919061106f565b60405180910390a15050505050565b60008054906101000a900460ff1681565b600060405180610140016040528060065481526020016000815260200160008152602001600081526020016000815260200160008054906101000a900460ff1660ff168152602001600060019054906101000a900460ff1660ff1681526020018660ff168152602001600081526020016006548152509050600760009054906101000a900473ffffffffffffffffffffffffffffffffffffffff1673ffffffffffffffffffffffffffffffffffffffff1663f3bb70f6858585856040518563ffffffff1660e01b815260040161066a9493929190610f92565b60206040518083038186803b15801561068257600080fd5b505afa158015610696573d6000803e3d6000fd5b505050506040513d601f19601f820116820180604052508101906106ba9190610bbc565b6106f9576040517f08c379a00000000000000000000000000000000000000000000000000000000081526004016106f090610ff4565b60405180910390fd5b600185610706919061121a565b600060026101000a81548160ff021916908360ff1602179055507fb9c2decafb8bb7052b7a1c4452beff9a62e1bbf436aa24e3f22e3dbfa05f1ca1600060029054906101000a900460ff1660405161075e919061106f565b60405180910390a15050505050565b60006040518061014001604052808681526020016000815260200160008152602001600081526020016000815260200160008152602001600081526020016000815260200160008152602001868152509050600760009054906101000a900473ffffffffffffffffffffffffffffffffffffffff1673ffffffffffffffffffffffffffffffffffffffff1663f3bb70f6858585856040518563ffffffff1660e01b81526004016108209493929190610f92565b60206040518083038186803b15801561083857600080fd5b505afa15801561084c573d6000803e3d6000fd5b505050506040513d601f19601f820116820180604052508101906108709190610bbc565b6108af576040517f08c379a00000000000000000000000000000000000000000000000000000000081526004016108a690611014565b60405180910390fd5b846006819055505050505050565b8060019060046108ce929190610954565b506000600560006101000a81548160ff021916908360ff1602179055507f5fbecfb9ebd9b032c64d3ad9e07a26c11d5cc0e530f3187f2f77087ea4ec622f600160405161091b9190610fd9565b60405180910390a150565b6001816004811061093657600080fd5b016000915090505481565b600060019054906101000a900460ff1681565b8260048101928215610988579160200282015b82811115610987578251829060ff16905591602001919060010190610967565b5b5090506109959190610999565b5090565b5b808211156109b257600081600090555060010161099a565b5090565b60006109c96109c4846110d8565b6110b3565b905080828560408602820111156109df57600080fd5b60005b85811015610a0f57816109f58882610b06565b8452602084019350604083019250506001810190506109e2565b5050509392505050565b6000610a2c610a27846110fe565b6110b3565b90508082856020860282011115610a4257600080fd5b60005b85811015610a725781610a588882610b69565b845260208401935060208301925050600181019050610a45565b5050509392505050565b6000610a8f610a8a84611124565b6110b3565b90508082856020860282011115610aa557600080fd5b60005b85811015610ad55781610abb8882610b7e565b845260208401935060208301925050600181019050610aa8565b5050509392505050565b600082601f830112610af057600080fd5b6002610afd8482856109b6565b91505092915050565b600082601f830112610b1757600080fd5b6002610b24848285610a19565b91505092915050565b600082601f830112610b3e57600080fd5b6004610b4b848285610a7c565b91505092915050565b600081519050610b63816113d3565b92915050565b600081359050610b78816113ea565b92915050565b600081359050610b8d81611401565b92915050565b600060808284031215610ba557600080fd5b6000610bb384828501610b2d565b91505092915050565b600060208284031215610bce57600080fd5b6000610bdc84828501610b54565b91505092915050565b600060208284031215610bf757600080fd5b6000610c0584828501610b69565b91505092915050565b6000806000806101208587031215610c2557600080fd5b6000610c3387828801610b69565b9450506020610c4487828801610b06565b9350506060610c5587828801610adf565b92505060e0610c6687828801610b06565b91505092959194509250565b6000806000806101208587031215610c8957600080fd5b6000610c9787828801610b7e565b9450506020610ca887828801610b06565b9350506060610cb987828801610adf565b92505060e0610cca87828801610b06565b91505092959194509250565b60008060408385031215610ce957600080fd5b6000610cf785828601610b7e565b9250506020610d0885828601610b7e565b9150509250929050565b6000610d1e8383610df0565b60408301905092915050565b6000610d368383610f65565b60208301905092915050565b610d4b81611172565b610d5581846111d2565b9250610d608261114a565b8060005b83811015610d91578151610d788782610d12565b9650610d838361119e565b925050600181019050610d64565b505050505050565b610da28161117d565b610dac81846111dd565b9250610db782611154565b8060005b83811015610de8578151610dcf8782610d2a565b9650610dda836111ab565b925050600181019050610dbb565b505050505050565b610df981611188565b610e0381846111e8565b9250610e0e8261115e565b8060005b83811015610e3f578151610e268782610d2a565b9650610e31836111b8565b925050600181019050610e12565b505050505050565b610e5081611188565b610e5a81846111f3565b9250610e658261115e565b8060005b83811015610e96578151610e7d8782610d2a565b9650610e88836111b8565b925050600181019050610e69565b505050505050565b610ea781611193565b610eb181846111fe565b9250610ebc82611168565b8060005b83811015610ef457610ed182611327565b610edb8782610d2a565b9650610ee6836111c5565b925050600181019050610ec0565b505050505050565b6000610f09601a83611209565b9150610f1482611358565b602082019050919050565b6000610f2c601c83611209565b9150610f3782611381565b602082019050919050565b6000610f4f601783611209565b9150610f5a826113aa565b602082019050919050565b610f6e81611267565b82525050565b610f7d81611267565b82525050565b610f8c81611271565b82525050565b600061024082019050610fa86000830187610e47565b610fb56040830186610d42565b610fc260c0830185610e47565b610fd0610100830184610d99565b95945050505050565b6000608082019050610fee6000830184610e9e565b92915050565b6000602082019050818103600083015261100d81610efc565b9050919050565b6000602082019050818103600083015261102d81610f1f565b9050919050565b6000602082019050818103600083015261104d81610f42565b9050919050565b60006020820190506110696000830184610f74565b92915050565b60006020820190506110846000830184610f83565b92915050565b600060408201905061109f6000830185610f83565b6110ac6020830184610f83565b9392505050565b60006110bd6110ce565b90506110c98282611298565b919050565b6000604051905090565b600067ffffffffffffffff8211156110f3576110f26112f8565b5b602082029050919050565b600067ffffffffffffffff821115611119576111186112f8565b5b602082029050919050565b600067ffffffffffffffff82111561113f5761113e6112f8565b5b602082029050919050565b6000819050919050565b6000819050919050565b6000819050919050565b6000819050919050565b600060029050919050565b6000600a9050919050565b600060029050919050565b600060049050919050565b6000602082019050919050565b6000602082019050919050565b6000602082019050919050565b6000600182019050919050565b600081905092915050565b600081905092915050565b600081905092915050565b600081905092915050565b600081905092915050565b600082825260208201905092915050565b600061122582611271565b915061123083611271565b92508260ff03821115611246576112456112c9565b5b828201905092915050565b6000819050919050565b60008115159050919050565b6000819050919050565b600060ff82169050919050565b600061129161128c8361134b565b611251565b9050919050565b6112a18261133a565b810181811067ffffffffffffffff821117156112c0576112bf6112f8565b5b80604052505050565b7f4e487b7100000000000000000000000000000000000000000000000000000000600052601160045260246000fd5b7f4e487b7100000000000000000000000000000000000000000000000000000000600052604160045260246000fd5b6000611333825461127e565b9050919050565b6000601f19601f8301169050919050565b60008160001c9050919050565b7f496e76616c6964207175657374696f6e20726573706f6e736521000000000000600082015250565b7f496e76616c6964206368617261637465722073656c656374696f6e2100000000600082015250565b7f496e76616c696420677565737320726573706f6e736521000000000000000000600082015250565b6113dc8161125b565b81146113e757600080fd5b50565b6113f381611267565b81146113fe57600080fd5b50565b61140a81611271565b811461141557600080fd5b5056fea26469706673582212201397278757168ff3e36f9afd7f0be8ddc037336276453bccb2ff5254926e23e464736f6c63430008040033",
  "linkReferences": {},
  "deployedLinkReferences": {}
}