{
  "_format": "hh-sol-artifact-1",
  "contractName": "Game",
  "sourceName": "contracts/Game.sol",
  "abi": [
    {
      "inputs": [
        {
          "internalType": "address",
          "name": "_verifierBoard",
          "type": "address"
        },
        {
          "internalType": "address",
          "name": "_verifierQuestion",
          "type": "address"
        },
        {
          "internalType": "address",
          "name": "_verifierGuess",
          "type": "address"
        }
      ],
      "stateMutability": "nonpayable",
      "type": "constructor"
    },
    {
      "anonymous": false,
      "inputs": [],
      "name": "GameCreated",
      "type": "event"
    },
    {
      "anonymous": false,
      "inputs": [
        {
          "indexed": false,
          "internalType": "uint256[4]",
          "name": "_guess",
          "type": "uint256[4]"
        }
      ],
      "name": "Guess",
      "type": "event"
    },
    {
      "anonymous": false,
      "inputs": [
        {
          "indexed": false,
          "internalType": "uint8",
          "name": "_answer",
          "type": "uint8"
        }
      ],
      "name": "GuessResponse",
      "type": "event"
    },
    {
      "anonymous": false,
      "inputs": [],
      "name": "Joined",
      "type": "event"
    },
    {
      "anonymous": false,
      "inputs": [
        {
          "indexed": false,
          "internalType": "uint8",
          "name": "_answer",
          "type": "uint8"
        }
      ],
      "name": "QuestionAnswered",
      "type": "event"
    },
    {
      "anonymous": false,
      "inputs": [
        {
          "indexed": false,
          "internalType": "uint8",
          "name": "_type",
          "type": "uint8"
        },
        {
          "indexed": false,
          "internalType": "uint8",
          "name": "_characteristic",
          "type": "uint8"
        }
      ],
      "name": "QuestionAsked",
      "type": "event"
    },
    {
      "inputs": [
        {
          "internalType": "uint8",
          "name": "_type",
          "type": "uint8"
        },
        {
          "internalType": "uint8",
          "name": "_characteristic",
          "type": "uint8"
        }
      ],
      "name": "ask",
      "outputs": [],
      "stateMutability": "nonpayable",
      "type": "function"
    },
    {
      "inputs": [],
      "name": "currentTurn",
      "outputs": [
        {
          "internalType": "uint256",
          "name": "",
          "type": "uint256"
        }
      ],
      "stateMutability": "view",
      "type": "function"
    },
    {
      "inputs": [
        {
          "internalType": "uint8[4]",
          "name": "_guess",
          "type": "uint8[4]"
        }
      ],
      "name": "guess",
      "outputs": [],
      "stateMutability": "nonpayable",
      "type": "function"
    },
    {
      "inputs": [
        {
          "internalType": "uint256",
          "name": "",
          "type": "uint256"
        }
      ],
      "name": "hash",
      "outputs": [
        {
          "internalType": "uint256",
          "name": "",
          "type": "uint256"
        }
      ],
      "stateMutability": "view",
      "type": "function"
    },
    {
      "inputs": [],
      "name": "hashByAccount",
      "outputs": [
        {
          "internalType": "uint256",
          "name": "",
          "type": "uint256"
        }
      ],
      "stateMutability": "view",
      "type": "function"
    },
    {
      "inputs": [],
      "name": "isAnswerTurn",
      "outputs": [
        {
          "internalType": "bool",
          "name": "",
          "type": "bool"
        }
      ],
      "stateMutability": "view",
      "type": "function"
    },
    {
      "inputs": [],
      "name": "isCreated",
      "outputs": [
        {
          "internalType": "bool",
          "name": "",
          "type": "bool"
        }
      ],
      "stateMutability": "view",
      "type": "function"
    },
    {
      "inputs": [],
      "name": "isPlayerInGame",
      "outputs": [
        {
          "internalType": "bool",
          "name": "",
          "type": "bool"
        }
      ],
      "stateMutability": "view",
      "type": "function"
    },
    {
      "inputs": [],
      "name": "isQuestionTurn",
      "outputs": [
        {
          "internalType": "bool",
          "name": "",
          "type": "bool"
        }
      ],
      "stateMutability": "view",
      "type": "function"
    },
    {
      "inputs": [],
      "name": "isStarted",
      "outputs": [
        {
          "internalType": "bool",
          "name": "",
          "type": "bool"
        }
      ],
      "stateMutability": "view",
      "type": "function"
    },
    {
      "inputs": [],
      "name": "isWinner",
      "outputs": [
        {
          "internalType": "bool",
          "name": "",
          "type": "bool"
        }
      ],
      "stateMutability": "view",
      "type": "function"
    },
    {
      "inputs": [
        {
          "internalType": "uint8",
          "name": "_won",
          "type": "uint8"
        },
        {
          "internalType": "uint256[2]",
          "name": "a",
          "type": "uint256[2]"
        },
        {
          "internalType": "uint256[2][2]",
          "name": "b",
          "type": "uint256[2][2]"
        },
        {
          "internalType": "uint256[2]",
          "name": "c",
          "type": "uint256[2]"
        }
      ],
      "name": "isWon",
      "outputs": [],
      "stateMutability": "nonpayable",
      "type": "function"
    },
    {
      "inputs": [
        {
          "internalType": "uint256",
          "name": "_hash",
          "type": "uint256"
        },
        {
          "internalType": "uint256[2]",
          "name": "a",
          "type": "uint256[2]"
        },
        {
          "internalType": "uint256[2][2]",
          "name": "b",
          "type": "uint256[2][2]"
        },
        {
          "internalType": "uint256[2]",
          "name": "c",
          "type": "uint256[2]"
        }
      ],
      "name": "join",
      "outputs": [],
      "stateMutability": "nonpayable",
      "type": "function"
    },
    {
      "inputs": [],
      "name": "lastCharacteristic",
      "outputs": [
        {
          "internalType": "uint8",
          "name": "",
          "type": "uint8"
        }
      ],
      "stateMutability": "view",
      "type": "function"
    },
    {
      "inputs": [
        {
          "internalType": "uint256",
          "name": "",
          "type": "uint256"
        }
      ],
      "name": "lastGuess",
      "outputs": [
        {
          "internalType": "uint256",
          "name": "",
          "type": "uint256"
        }
      ],
      "stateMutability": "view",
      "type": "function"
    },
    {
      "inputs": [],
      "name": "lastResponse",
      "outputs": [
        {
          "internalType": "uint8",
          "name": "",
          "type": "uint8"
        }
      ],
      "stateMutability": "view",
      "type": "function"
    },
    {
      "inputs": [],
      "name": "lastType",
      "outputs": [
        {
          "internalType": "uint8",
          "name": "",
          "type": "uint8"
        }
      ],
      "stateMutability": "view",
      "type": "function"
    },
    {
      "inputs": [],
      "name": "owner",
      "outputs": [
        {
          "internalType": "address",
          "name": "",
          "type": "address"
        }
      ],
      "stateMutability": "view",
      "type": "function"
    },
    {
      "inputs": [
        {
          "internalType": "uint256",
          "name": "",
          "type": "uint256"
        }
      ],
      "name": "players",
      "outputs": [
        {
          "internalType": "address",
          "name": "",
          "type": "address"
        }
      ],
      "stateMutability": "view",
      "type": "function"
    },
    {
      "inputs": [],
      "name": "previousTurn",
      "outputs": [
        {
          "internalType": "uint256",
          "name": "",
          "type": "uint256"
        }
      ],
      "stateMutability": "view",
      "type": "function"
    },
    {
      "inputs": [],
      "name": "reset",
      "outputs": [],
      "stateMutability": "nonpayable",
      "type": "function"
    },
    {
      "inputs": [
        {
          "internalType": "uint8",
          "name": "_answer",
          "type": "uint8"
        },
        {
          "internalType": "uint256[2]",
          "name": "a",
          "type": "uint256[2]"
        },
        {
          "internalType": "uint256[2][2]",
          "name": "b",
          "type": "uint256[2][2]"
        },
        {
          "internalType": "uint256[2]",
          "name": "c",
          "type": "uint256[2]"
        }
      ],
      "name": "response",
      "outputs": [],
      "stateMutability": "nonpayable",
      "type": "function"
    },
    {
      "inputs": [
        {
          "internalType": "uint256",
          "name": "_hash",
          "type": "uint256"
        },
        {
          "internalType": "uint256[2]",
          "name": "a",
          "type": "uint256[2]"
        },
        {
          "internalType": "uint256[2][2]",
          "name": "b",
          "type": "uint256[2][2]"
        },
        {
          "internalType": "uint256[2]",
          "name": "c",
          "type": "uint256[2]"
        }
      ],
      "name": "start",
      "outputs": [],
      "stateMutability": "nonpayable",
      "type": "function"
    },
    {
      "inputs": [],
      "name": "winner",
      "outputs": [
        {
          "internalType": "address",
          "name": "",
          "type": "address"
        }
      ],
      "stateMutability": "view",
      "type": "function"
    },
    {
      "inputs": [],
      "name": "won",
      "outputs": [
        {
          "internalType": "uint8",
          "name": "",
          "type": "uint8"
        }
      ],
      "stateMutability": "view",
      "type": "function"
    }
  ],
  "bytecode": "0x60806040523480156200001157600080fd5b5060405162003f6c38038062003f6c83398181016040528101906200003791906200015b565b82600b60006101000a81548173ffffffffffffffffffffffffffffffffffffffff021916908373ffffffffffffffffffffffffffffffffffffffff16021790555081600c60006101000a81548173ffffffffffffffffffffffffffffffffffffffff021916908373ffffffffffffffffffffffffffffffffffffffff16021790555080600d60006101000a81548173ffffffffffffffffffffffffffffffffffffffff021916908373ffffffffffffffffffffffffffffffffffffffff16021790555033600a60006101000a81548173ffffffffffffffffffffffffffffffffffffffff021916908373ffffffffffffffffffffffffffffffffffffffff160217905550505050620001ff565b6000815190506200015581620001e5565b92915050565b6000806000606084860312156200017157600080fd5b6000620001818682870162000144565b9350506020620001948682870162000144565b9250506040620001a78682870162000144565b9150509250925092565b6000620001be82620001c5565b9050919050565b600073ffffffffffffffffffffffffffffffffffffffff82169050919050565b620001f081620001b1565b8114620001fc57600080fd5b50565b613d5d806200020f6000396000f3fe608060405234801561001057600080fd5b50600436106101735760003560e01c8063ae43f848116100de578063e4cecb1011610097578063f250975c11610071578063f250975c146103f2578063f4b7621c14610410578063f71d96cb1461042e578063fabd2f9c1461045e57610173565b8063e4cecb1014610388578063e602f7f7146103a6578063eea108c2146103c257610173565b8063ae43f848146102da578063b189fd4c146102f6578063b85f46eb14610326578063d826f88f14610342578063deb612861461034c578063dfbf53ae1461036a57610173565b806362747e421161013057806362747e42146102285780636c3668481461024657806386174396146102625780638da5cb5b146102805780639f9a32b01461029e578063a7acd341146102bc57610173565b806312c8052f146101785780631a9b0b7c146101965780632e514438146101b457806333bd875d146101d2578063352e84a7146101ee578063544736e61461020a575b600080fd5b61018061047c565b60405161018d91906135c3565b60405180910390f35b61019e61048f565b6040516101ab919061338d565b60405180910390f35b6101bc6104e7565b6040516101c991906135a8565b60405180910390f35b6101ec60048036038101906101e79190612c6b565b610509565b005b61020860048036038101906102039190612d33565b610a09565b005b610212610cd7565b60405161021f919061338d565b60405180910390f35b610230610db3565b60405161023d91906135c3565b60405180910390f35b610260600480360381019061025b9190612ccf565b610dc6565b005b61026a61122b565b604051610277919061338d565b60405180910390f35b610288611351565b6040516102959190613282565b60405180910390f35b6102a6611377565b6040516102b391906135c3565b60405180910390f35b6102c461138a565b6040516102d1919061338d565b60405180910390f35b6102f460048036038101906102ef9190612ccf565b611421565b005b610310600480360381019061030b9190612c42565b6117be565b60405161031d91906135a8565b60405180910390f35b610340600480360381019061033b9190612c6b565b6117d9565b005b61034a611b8d565b005b610354611eb1565b60405161036191906135a8565b60405180910390f35b610372611ec7565b60405161037f9190613282565b60405180910390f35b610390611eed565b60405161039d91906135a8565b60405180910390f35b6103c060048036038101906103bb9190612bf0565b61209d565b005b6103dc60048036038101906103d79190612c42565b612345565b6040516103e991906135a8565b60405180910390f35b6103fa612360565b60405161040791906135c3565b60405180910390f35b610418612373565b604051610425919061338d565b60405180910390f35b61044860048036038101906104439190612c42565b612496565b6040516104559190613282565b60405180910390f35b6104666124cc565b604051610473919061338d565b60405180910390f35b600960039054906101000a900460ff1681565b6000600960049054906101000a900473ffffffffffffffffffffffffffffffffffffffff1673ffffffffffffffffffffffffffffffffffffffff163373ffffffffffffffffffffffffffffffffffffffff1614905090565b6000600260016004546104fa91906137bd565b610504919061393d565b905090565b60006002600060028110610546577f4e487b7100000000000000000000000000000000000000000000000000000000600052603260045260246000fd5b01541415610589576040517f08c379a000000000000000000000000000000000000000000000000000000000815260040161058090613468565b60405180910390fd5b600073ffffffffffffffffffffffffffffffffffffffff1660006001600281106105dc577f4e487b7100000000000000000000000000000000000000000000000000000000600052603260045260246000fd5b0160009054906101000a900473ffffffffffffffffffffffffffffffffffffffff1673ffffffffffffffffffffffffffffffffffffffff1614610654576040517f08c379a000000000000000000000000000000000000000000000000000000000815260040161064b90613428565b60405180910390fd5b3373ffffffffffffffffffffffffffffffffffffffff16600080600281106106a5577f4e487b7100000000000000000000000000000000000000000000000000000000600052603260045260246000fd5b0160009054906101000a900473ffffffffffffffffffffffffffffffffffffffff1673ffffffffffffffffffffffffffffffffffffffff16141561071e576040517f08c379a000000000000000000000000000000000000000000000000000000000815260040161071590613568565b60405180910390fd5b6000600260016002811061075b577f4e487b7100000000000000000000000000000000000000000000000000000000600052603260045260246000fd5b01541461079d576040517f08c379a000000000000000000000000000000000000000000000000000000000815260040161079490613588565b60405180910390fd5b60006040518060200160405280868152509050600b60009054906101000a900473ffffffffffffffffffffffffffffffffffffffff1673ffffffffffffffffffffffffffffffffffffffff166343753b4d858585856040518563ffffffff1660e01b8152600401610811949392919061329d565b60206040518083038186803b15801561082957600080fd5b505afa15801561083d573d6000803e3d6000fd5b505050506040513d601f19601f820116820180604052508101906108619190612c19565b6108a0576040517f08c379a000000000000000000000000000000000000000000000000000000000815260040161089790613508565b60405180910390fd5b8460026001600281106108dc577f4e487b7100000000000000000000000000000000000000000000000000000000600052603260045260246000fd5b018190555033600060016002811061091d577f4e487b7100000000000000000000000000000000000000000000000000000000600052603260045260246000fd5b0160006101000a81548173ffffffffffffffffffffffffffffffffffffffff021916908373ffffffffffffffffffffffffffffffffffffffff1602179055506003600960026101000a81548160ff021916908360ff1602179055506003600960036101000a81548160ff021916908360ff1602179055506000600960046101000a81548173ffffffffffffffffffffffffffffffffffffffff021916908373ffffffffffffffffffffffffffffffffffffffff1602179055507f01bef3730c3b3c7a12797f6baa6ef0473275290438b5264ad09598751c13a10c60405160405180910390a15050505050565b60006002600060028110610a46577f4e487b7100000000000000000000000000000000000000000000000000000000600052603260045260246000fd5b01541415610a89576040517f08c379a0000000000000000000000000000000000000000000000000000000008152600401610a8090613468565b60405180910390fd5b600073ffffffffffffffffffffffffffffffffffffffff166000600160028110610adc577f4e487b7100000000000000000000000000000000000000000000000000000000600052603260045260246000fd5b0160009054906101000a900473ffffffffffffffffffffffffffffffffffffffff1673ffffffffffffffffffffffffffffffffffffffff161415610b55576040517f08c379a0000000000000000000000000000000000000000000000000000000008152600401610b4c90613528565b60405180910390fd5b610b5d61138a565b610b9c576040517f08c379a0000000000000000000000000000000000000000000000000000000008152600401610b93906134a8565b60405180910390fd5b6000600960029054906101000a900460ff1660ff161415610bf2576040517f08c379a0000000000000000000000000000000000000000000000000000000008152600401610be9906134e8565b60405180910390fd5b6000600960039054906101000a900460ff1660ff161415610c48576040517f08c379a0000000000000000000000000000000000000000000000000000000008152600401610c3f906133c8565b60405180910390fd5b81600960006101000a81548160ff021916908360ff16021790555080600960016101000a81548160ff021916908360ff1602179055506000600960026101000a81548160ff021916908360ff1602179055507f32a95ea2373c4d2cff10c37d2caf784dc5e400dc50924dc7042f3f9afb5a270f8282604051610ccb9291906135de565b60405180910390a15050565b6000806002600060028110610d15577f4e487b7100000000000000000000000000000000000000000000000000000000600052603260045260246000fd5b015414158015610dae5750600073ffffffffffffffffffffffffffffffffffffffff166000600160028110610d73577f4e487b7100000000000000000000000000000000000000000000000000000000600052603260045260246000fd5b0160009054906101000a900473ffffffffffffffffffffffffffffffffffffffff1673ffffffffffffffffffffffffffffffffffffffff1614155b905090565b600960029054906101000a900460ff1681565b60006002600060028110610e03577f4e487b7100000000000000000000000000000000000000000000000000000000600052603260045260246000fd5b01541415610e46576040517f08c379a0000000000000000000000000000000000000000000000000000000008152600401610e3d90613468565b60405180910390fd5b600073ffffffffffffffffffffffffffffffffffffffff166000600160028110610e99577f4e487b7100000000000000000000000000000000000000000000000000000000600052603260045260246000fd5b0160009054906101000a900473ffffffffffffffffffffffffffffffffffffffff1673ffffffffffffffffffffffffffffffffffffffff161415610f12576040517f08c379a0000000000000000000000000000000000000000000000000000000008152600401610f0990613528565b60405180910390fd5b610f1a6124cc565b610f59576040517f08c379a0000000000000000000000000000000000000000000000000000000008152600401610f5090613488565b60405180910390fd5b60006040518060c001604052808660ff1681526020016005600060048110610faa577f4e487b7100000000000000000000000000000000000000000000000000000000600052603260045260246000fd5b015481526020016005600160048110610fec577f4e487b7100000000000000000000000000000000000000000000000000000000600052603260045260246000fd5b01548152602001600560026004811061102e577f4e487b7100000000000000000000000000000000000000000000000000000000600052603260045260246000fd5b015481526020016005600360048110611070577f4e487b7100000000000000000000000000000000000000000000000000000000600052603260045260246000fd5b015481526020016002611081611eb1565b600281106110b8577f4e487b7100000000000000000000000000000000000000000000000000000000600052603260045260246000fd5b01548152509050600d60009054906101000a900473ffffffffffffffffffffffffffffffffffffffff1673ffffffffffffffffffffffffffffffffffffffff1663f398789b858585856040518563ffffffff1660e01b8152600401611120949392919061332b565b60206040518083038186803b15801561113857600080fd5b505afa15801561114c573d6000803e3d6000fd5b505050506040513d601f19601f820116820180604052508101906111709190612c19565b6111af576040517f08c379a00000000000000000000000000000000000000000000000000000000081526004016111a690613548565b60405180910390fd5b6001856111bc9190613813565b600960036101000a81548160ff021916908360ff1602179055506111de612563565b7f321b96ee4065ea0954e60de9522d211aabbec3815b71688d7a79c8a19463d195600960039054906101000a900460ff1660405161121c91906135c3565b60405180910390a15050505050565b60008073ffffffffffffffffffffffffffffffffffffffff166000806002811061127e577f4e487b7100000000000000000000000000000000000000000000000000000000600052603260045260246000fd5b0160009054906101000a900473ffffffffffffffffffffffffffffffffffffffff1673ffffffffffffffffffffffffffffffffffffffff161415801561134c5750600073ffffffffffffffffffffffffffffffffffffffff166000600160028110611312577f4e487b7100000000000000000000000000000000000000000000000000000000600052603260045260246000fd5b0160009054906101000a900473ffffffffffffffffffffffffffffffffffffffff1673ffffffffffffffffffffffffffffffffffffffff16145b905090565b600a60009054906101000a900473ffffffffffffffffffffffffffffffffffffffff1681565b600960009054906101000a900460ff1681565b6000806113956104e7565b600281106113cc577f4e487b7100000000000000000000000000000000000000000000000000000000600052603260045260246000fd5b0160009054906101000a900473ffffffffffffffffffffffffffffffffffffffff1673ffffffffffffffffffffffffffffffffffffffff163373ffffffffffffffffffffffffffffffffffffffff1614905090565b6000600260006002811061145e577f4e487b7100000000000000000000000000000000000000000000000000000000600052603260045260246000fd5b015414156114a1576040517f08c379a000000000000000000000000000000000000000000000000000000000815260040161149890613468565b60405180910390fd5b600073ffffffffffffffffffffffffffffffffffffffff1660006001600281106114f4577f4e487b7100000000000000000000000000000000000000000000000000000000600052603260045260246000fd5b0160009054906101000a900473ffffffffffffffffffffffffffffffffffffffff1673ffffffffffffffffffffffffffffffffffffffff16141561156d576040517f08c379a000000000000000000000000000000000000000000000000000000000815260040161156490613528565b60405180910390fd5b6115756124cc565b6115b4576040517f08c379a00000000000000000000000000000000000000000000000000000000081526004016115ab90613488565b60405180910390fd5b600060405180608001604052808660ff168152602001600960009054906101000a900460ff1660ff168152602001600960019054906101000a900460ff1660ff1681526020016002611604611eb1565b6002811061163b577f4e487b7100000000000000000000000000000000000000000000000000000000600052603260045260246000fd5b01548152509050600c60009054906101000a900473ffffffffffffffffffffffffffffffffffffffff1673ffffffffffffffffffffffffffffffffffffffff16635fe8c13b858585856040518563ffffffff1660e01b81526004016116a394939291906132e4565b60206040518083038186803b1580156116bb57600080fd5b505afa1580156116cf573d6000803e3d6000fd5b505050506040513d601f19601f820116820180604052508101906116f39190612c19565b611732576040517f08c379a0000000000000000000000000000000000000000000000000000000008152600401611729906134c8565b60405180910390fd5b60018561173f9190613813565b600960026101000a81548160ff021916908360ff1602179055506004600081548092919061176c906138f4565b91905055507fb9c2decafb8bb7052b7a1c4452beff9a62e1bbf436aa24e3f22e3dbfa05f1ca1600960029054906101000a900460ff166040516117af91906135c3565b60405180910390a15050505050565b600281600281106117ce57600080fd5b016000915090505481565b600073ffffffffffffffffffffffffffffffffffffffff166000806002811061182b577f4e487b7100000000000000000000000000000000000000000000000000000000600052603260045260246000fd5b0160009054906101000a900473ffffffffffffffffffffffffffffffffffffffff1673ffffffffffffffffffffffffffffffffffffffff16146118a3576040517f08c379a000000000000000000000000000000000000000000000000000000000815260040161189a906133e8565b60405180910390fd5b600060026000600281106118e0577f4e487b7100000000000000000000000000000000000000000000000000000000600052603260045260246000fd5b015414611922576040517f08c379a0000000000000000000000000000000000000000000000000000000008152600401611919906133e8565b60405180910390fd5b60006040518060200160405280868152509050600b60009054906101000a900473ffffffffffffffffffffffffffffffffffffffff1673ffffffffffffffffffffffffffffffffffffffff166343753b4d858585856040518563ffffffff1660e01b8152600401611996949392919061329d565b60206040518083038186803b1580156119ae57600080fd5b505afa1580156119c2573d6000803e3d6000fd5b505050506040513d601f19601f820116820180604052508101906119e69190612c19565b611a25576040517f08c379a0000000000000000000000000000000000000000000000000000000008152600401611a1c90613508565b60405180910390fd5b846002600060028110611a61577f4e487b7100000000000000000000000000000000000000000000000000000000600052603260045260246000fd5b01819055503360008060028110611aa1577f4e487b7100000000000000000000000000000000000000000000000000000000600052603260045260246000fd5b0160006101000a81548173ffffffffffffffffffffffffffffffffffffffff021916908373ffffffffffffffffffffffffffffffffffffffff1602179055506003600960026101000a81548160ff021916908360ff1602179055506003600960036101000a81548160ff021916908360ff1602179055506000600960046101000a81548173ffffffffffffffffffffffffffffffffffffffff021916908373ffffffffffffffffffffffffffffffffffffffff1602179055507f151802685129c44d0dd1313fc103826047d8aac8add2f9aec41ea52a69f2495d60405160405180910390a15050505050565b600a60009054906101000a900473ffffffffffffffffffffffffffffffffffffffff1673ffffffffffffffffffffffffffffffffffffffff163373ffffffffffffffffffffffffffffffffffffffff1614611c1d576040517f08c379a0000000000000000000000000000000000000000000000000000000008152600401611c14906133a8565b60405180910390fd5b60006002600060028110611c5a577f4e487b7100000000000000000000000000000000000000000000000000000000600052603260045260246000fd5b018190555060006002600160028110611c9c577f4e487b7100000000000000000000000000000000000000000000000000000000600052603260045260246000fd5b0181905550600080600060028110611cdd577f4e487b7100000000000000000000000000000000000000000000000000000000600052603260045260246000fd5b0160006101000a81548173ffffffffffffffffffffffffffffffffffffffff021916908373ffffffffffffffffffffffffffffffffffffffff160217905550600080600160028110611d58577f4e487b7100000000000000000000000000000000000000000000000000000000600052603260045260246000fd5b0160006101000a81548173ffffffffffffffffffffffffffffffffffffffff021916908373ffffffffffffffffffffffffffffffffffffffff16021790555060006004819055506003600960026101000a81548160ff021916908360ff1602179055506003600960036101000a81548160ff021916908360ff1602179055506000600960046101000a81548173ffffffffffffffffffffffffffffffffffffffff021916908373ffffffffffffffffffffffffffffffffffffffff1602179055506040518060800160405280600060ff168152602001600060ff168152602001600060ff168152602001600060ff168152506005906004611e5a9291906129b1565b506000600960006101000a81548160ff021916908360ff1602179055506000600960016101000a81548160ff021916908360ff1602179055506000600960026101000a81548160ff021916908360ff160217905550565b60006002600454611ec2919061393d565b905090565b600960049054906101000a900473ffffffffffffffffffffffffffffffffffffffff1681565b600080600160028110611f29577f4e487b7100000000000000000000000000000000000000000000000000000000600052603260045260246000fd5b0160009054906101000a900473ffffffffffffffffffffffffffffffffffffffff1673ffffffffffffffffffffffffffffffffffffffff163373ffffffffffffffffffffffffffffffffffffffff161415611fc2576002600160028110611fb9577f4e487b7100000000000000000000000000000000000000000000000000000000600052603260045260246000fd5b0154905061209a565b60008060028110611ffc577f4e487b7100000000000000000000000000000000000000000000000000000000600052603260045260246000fd5b0160009054906101000a900473ffffffffffffffffffffffffffffffffffffffff1673ffffffffffffffffffffffffffffffffffffffff163373ffffffffffffffffffffffffffffffffffffffff16141561209557600260006002811061208c577f4e487b7100000000000000000000000000000000000000000000000000000000600052603260045260246000fd5b0154905061209a565b600090505b90565b600060026000600281106120da577f4e487b7100000000000000000000000000000000000000000000000000000000600052603260045260246000fd5b0154141561211d576040517f08c379a000000000000000000000000000000000000000000000000000000000815260040161211490613468565b60405180910390fd5b600073ffffffffffffffffffffffffffffffffffffffff166000600160028110612170577f4e487b7100000000000000000000000000000000000000000000000000000000600052603260045260246000fd5b0160009054906101000a900473ffffffffffffffffffffffffffffffffffffffff1673ffffffffffffffffffffffffffffffffffffffff1614156121e9576040517f08c379a00000000000000000000000000000000000000000000000000000000081526004016121e090613528565b60405180910390fd5b6121f161138a565b612230576040517f08c379a0000000000000000000000000000000000000000000000000000000008152600401612227906134a8565b60405180910390fd5b6000600960039054906101000a900460ff1660ff161415612286576040517f08c379a000000000000000000000000000000000000000000000000000000000815260040161227d90613408565b60405180910390fd5b6000600960029054906101000a900460ff1660ff1614156122dc576040517f08c379a00000000000000000000000000000000000000000000000000000000081526004016122d390613448565b60405180910390fd5b8060059060046122ed9291906129b1565b506000600960036101000a81548160ff021916908360ff1602179055507f5fbecfb9ebd9b032c64d3ad9e07a26c11d5cc0e530f3187f2f77087ea4ec622f600560405161233a9190613372565b60405180910390a150565b6005816004811061235557600080fd5b016000915090505481565b600960019054906101000a900460ff1681565b6000806000600281106123af577f4e487b7100000000000000000000000000000000000000000000000000000000600052603260045260246000fd5b0160009054906101000a900473ffffffffffffffffffffffffffffffffffffffff1673ffffffffffffffffffffffffffffffffffffffff163373ffffffffffffffffffffffffffffffffffffffff16148061249157506000600160028110612440577f4e487b7100000000000000000000000000000000000000000000000000000000600052603260045260246000fd5b0160009054906101000a900473ffffffffffffffffffffffffffffffffffffffff1673ffffffffffffffffffffffffffffffffffffffff163373ffffffffffffffffffffffffffffffffffffffff16145b905090565b600081600281106124a657600080fd5b016000915054906101000a900473ffffffffffffffffffffffffffffffffffffffff1681565b6000806124d7611eb1565b6002811061250e577f4e487b7100000000000000000000000000000000000000000000000000000000600052603260045260246000fd5b0160009054906101000a900473ffffffffffffffffffffffffffffffffffffffff1673ffffffffffffffffffffffffffffffffffffffff163373ffffffffffffffffffffffffffffffffffffffff1614905090565b600060026000600281106125a0577f4e487b7100000000000000000000000000000000000000000000000000000000600052603260045260246000fd5b015414156125e3576040517f08c379a00000000000000000000000000000000000000000000000000000000081526004016125da90613468565b60405180910390fd5b600073ffffffffffffffffffffffffffffffffffffffff166000600160028110612636577f4e487b7100000000000000000000000000000000000000000000000000000000600052603260045260246000fd5b0160009054906101000a900473ffffffffffffffffffffffffffffffffffffffff1673ffffffffffffffffffffffffffffffffffffffff1614156126af576040517f08c379a00000000000000000000000000000000000000000000000000000000081526004016126a690613528565b60405180910390fd5b6002600960039054906101000a900460ff1660ff16141561276e5760006126d46104e7565b6002811061270b577f4e487b7100000000000000000000000000000000000000000000000000000000600052603260045260246000fd5b0160009054906101000a900473ffffffffffffffffffffffffffffffffffffffff16600960046101000a81548173ffffffffffffffffffffffffffffffffffffffff021916908373ffffffffffffffffffffffffffffffffffffffff1602179055505b6001600960039054906101000a900460ff1660ff16141561282d576000612793611eb1565b600281106127ca577f4e487b7100000000000000000000000000000000000000000000000000000000600052603260045260246000fd5b0160009054906101000a900473ffffffffffffffffffffffffffffffffffffffff16600960046101000a81548173ffffffffffffffffffffffffffffffffffffffff021916908373ffffffffffffffffffffffffffffffffffffffff1602179055505b6000600260006002811061286a577f4e487b7100000000000000000000000000000000000000000000000000000000600052603260045260246000fd5b0181905550600060026001600281106128ac577f4e487b7100000000000000000000000000000000000000000000000000000000600052603260045260246000fd5b018190555060006004819055506000806000600281106128f5577f4e487b7100000000000000000000000000000000000000000000000000000000600052603260045260246000fd5b0160006101000a81548173ffffffffffffffffffffffffffffffffffffffff021916908373ffffffffffffffffffffffffffffffffffffffff160217905550600080600160028110612970577f4e487b7100000000000000000000000000000000000000000000000000000000600052603260045260246000fd5b0160006101000a81548173ffffffffffffffffffffffffffffffffffffffff021916908373ffffffffffffffffffffffffffffffffffffffff160217905550565b82600481019282156129e5579160200282015b828111156129e4578251829060ff169055916020019190600101906129c4565b5b5090506129f291906129f6565b5090565b5b80821115612a0f5760008160009055506001016129f7565b5090565b6000612a26612a218461362c565b613607565b90508082856040860282011115612a3c57600080fd5b60005b85811015612a6c5781612a528882612b63565b845260208401935060408301925050600181019050612a3f565b5050509392505050565b6000612a89612a8484613652565b613607565b90508082856020860282011115612a9f57600080fd5b60005b85811015612acf5781612ab58882612bc6565b845260208401935060208301925050600181019050612aa2565b5050509392505050565b6000612aec612ae784613678565b613607565b90508082856020860282011115612b0257600080fd5b60005b85811015612b325781612b188882612bdb565b845260208401935060208301925050600181019050612b05565b5050509392505050565b600082601f830112612b4d57600080fd5b6002612b5a848285612a13565b91505092915050565b600082601f830112612b7457600080fd5b6002612b81848285612a76565b91505092915050565b600082601f830112612b9b57600080fd5b6004612ba8848285612ad9565b91505092915050565b600081519050612bc081613ce2565b92915050565b600081359050612bd581613cf9565b92915050565b600081359050612bea81613d10565b92915050565b600060808284031215612c0257600080fd5b6000612c1084828501612b8a565b91505092915050565b600060208284031215612c2b57600080fd5b6000612c3984828501612bb1565b91505092915050565b600060208284031215612c5457600080fd5b6000612c6284828501612bc6565b91505092915050565b6000806000806101208587031215612c8257600080fd5b6000612c9087828801612bc6565b9450506020612ca187828801612b63565b9350506060612cb287828801612b3c565b92505060e0612cc387828801612b63565b91505092959194509250565b6000806000806101208587031215612ce657600080fd5b6000612cf487828801612bdb565b9450506020612d0587828801612b63565b9350506060612d1687828801612b3c565b92505060e0612d2787828801612b63565b91505092959194509250565b60008060408385031215612d4657600080fd5b6000612d5485828601612bdb565b9250506020612d6585828601612bdb565b9150509250929050565b6000612d7b8383612e5c565b60408301905092915050565b6000612d938383613255565b60208301905092915050565b612da881613854565b82525050565b612db7816136da565b612dc1818461376a565b9250612dcc8261369e565b8060005b83811015612dfd578151612de48782612d6f565b9650612def8361371c565b925050600181019050612dd0565b505050505050565b612e0e816136e5565b612e188184613775565b9250612e23826136a8565b8060005b83811015612e54578151612e3b8782612d87565b9650612e4683613729565b925050600181019050612e27565b505050505050565b612e65816136f0565b612e6f8184613780565b9250612e7a826136b2565b8060005b83811015612eab578151612e928782612d87565b9650612e9d83613736565b925050600181019050612e7e565b505050505050565b612ebc816136f0565b612ec6818461378b565b9250612ed1826136b2565b8060005b83811015612f02578151612ee98782612d87565b9650612ef483613736565b925050600181019050612ed5565b505050505050565b612f13816136fb565b612f1d8184613796565b9250612f28826136bc565b8060005b83811015612f59578151612f408782612d87565b9650612f4b83613743565b925050600181019050612f2c565b505050505050565b612f6a81613706565b612f748184613796565b9250612f7f826136c6565b8060005b83811015612fb757612f94826139fb565b612f9e8782612d87565b9650612fa983613750565b925050600181019050612f83565b505050505050565b612fc881613711565b612fd281846137a1565b9250612fdd826136d0565b8060005b8381101561300e578151612ff58782612d87565b96506130008361375d565b925050600181019050612fe1565b505050505050565b61301f81613866565b82525050565b60006130326014836137ac565b915061303d82613a2c565b602082019050919050565b60006130556014836137ac565b915061306082613a55565b602082019050919050565b60006130786014836137ac565b915061308382613a7e565b602082019050919050565b600061309b601a836137ac565b91506130a682613aa7565b602082019050919050565b60006130be6016836137ac565b91506130c982613ad0565b602082019050919050565b60006130e16017836137ac565b91506130ec82613af9565b602082019050919050565b60006131046010836137ac565b915061310f82613b22565b602082019050919050565b60006131276023836137ac565b915061313282613b4b565b604082019050919050565b600061314a600f836137ac565b915061315582613b9a565b602082019050919050565b600061316d6018836137ac565b915061317882613bc3565b602082019050919050565b6000613190601d836137ac565b915061319b82613bec565b602082019050919050565b60006131b3601c836137ac565b91506131be82613c15565b602082019050919050565b60006131d66014836137ac565b91506131e182613c3e565b602082019050919050565b60006131f96017836137ac565b915061320482613c67565b602082019050919050565b600061321c6013836137ac565b915061322782613c90565b602082019050919050565b600061323f6014836137ac565b915061324a82613cb9565b602082019050919050565b61325e81613892565b82525050565b61326d81613892565b82525050565b61327c8161389c565b82525050565b60006020820190506132976000830184612d9f565b92915050565b6000610120820190506132b36000830187612eb3565b6132c06040830186612dae565b6132cd60c0830185612eb3565b6132db610100830184612e05565b95945050505050565b6000610180820190506132fa6000830187612eb3565b6133076040830186612dae565b61331460c0830185612eb3565b613322610100830184612f0a565b95945050505050565b60006101c0820190506133416000830187612eb3565b61334e6040830186612dae565b61335b60c0830185612eb3565b613369610100830184612fbf565b95945050505050565b60006080820190506133876000830184612f61565b92915050565b60006020820190506133a26000830184613016565b92915050565b600060208201905081810360008301526133c181613025565b9050919050565b600060208201905081810360008301526133e181613048565b9050919050565b600060208201905081810360008301526134018161306b565b9050919050565b600060208201905081810360008301526134218161308e565b9050919050565b60006020820190508181036000830152613441816130b1565b9050919050565b60006020820190508181036000830152613461816130d4565b9050919050565b60006020820190508181036000830152613481816130f7565b9050919050565b600060208201905081810360008301526134a18161311a565b9050919050565b600060208201905081810360008301526134c18161313d565b9050919050565b600060208201905081810360008301526134e181613160565b9050919050565b6000602082019050818103600083015261350181613183565b9050919050565b60006020820190508181036000830152613521816131a6565b9050919050565b60006020820190508181036000830152613541816131c9565b9050919050565b60006020820190508181036000830152613561816131ec565b9050919050565b600060208201905081810360008301526135818161320f565b9050919050565b600060208201905081810360008301526135a181613232565b9050919050565b60006020820190506135bd6000830184613264565b92915050565b60006020820190506135d86000830184613273565b92915050565b60006040820190506135f36000830185613273565b6136006020830184613273565b9392505050565b6000613611613622565b905061361d82826138c3565b919050565b6000604051905090565b600067ffffffffffffffff821115613647576136466139cc565b5b602082029050919050565b600067ffffffffffffffff82111561366d5761366c6139cc565b5b602082029050919050565b600067ffffffffffffffff821115613693576136926139cc565b5b602082029050919050565b6000819050919050565b6000819050919050565b6000819050919050565b6000819050919050565b6000819050919050565b6000819050919050565b600060029050919050565b600060019050919050565b600060029050919050565b600060049050919050565b600060049050919050565b600060069050919050565b6000602082019050919050565b6000602082019050919050565b6000602082019050919050565b6000602082019050919050565b6000600182019050919050565b6000602082019050919050565b600081905092915050565b600081905092915050565b600081905092915050565b600081905092915050565b600081905092915050565b600081905092915050565b600082825260208201905092915050565b60006137c882613892565b91506137d383613892565b9250827fffffffffffffffffffffffffffffffffffffffffffffffffffffffffffffffff038211156138085761380761396e565b5b828201905092915050565b600061381e8261389c565b91506138298361389c565b92508260ff0382111561383f5761383e61396e565b5b828201905092915050565b6000819050919050565b600061385f82613872565b9050919050565b60008115159050919050565b600073ffffffffffffffffffffffffffffffffffffffff82169050919050565b6000819050919050565b600060ff82169050919050565b60006138bc6138b783613a1f565b61384a565b9050919050565b6138cc82613a0e565b810181811067ffffffffffffffff821117156138eb576138ea6139cc565b5b80604052505050565b60006138ff82613892565b91507fffffffffffffffffffffffffffffffffffffffffffffffffffffffffffffffff8214156139325761393161396e565b5b600182019050919050565b600061394882613892565b915061395383613892565b9250826139635761396261399d565b5b828206905092915050565b7f4e487b7100000000000000000000000000000000000000000000000000000000600052601160045260246000fd5b7f4e487b7100000000000000000000000000000000000000000000000000000000600052601260045260246000fd5b7f4e487b7100000000000000000000000000000000000000000000000000000000600052604160045260246000fd5b6000613a0782546138a9565b9050919050565b6000601f19601f8301169050919050565b60008160001c9050919050565b7f4f6e6c79206f776e65722063616e207265736574000000000000000000000000600082015250565b7f50656e64696e6720677565737320616e73776572000000000000000000000000600082015250565b7f47616d6520616c72656164792063726561746564000000000000000000000000600082015250565b7f47756573732069732070656e64696e67206f6620616e73776572000000000000600082015250565b7f47616d6520526f6f6d20616c72656164792066756c6c00000000000000000000600082015250565b7f50656e64696e67207175657374696f6e20616e73776572000000000000000000600082015250565b7f47616d65206e6f74207374617274656400000000000000000000000000000000600082015250565b7f4f6e6c792063757272656e7420706c61796572207475726e2063616e20616e7360008201527f7765720000000000000000000000000000000000000000000000000000000000602082015250565b7f4e6f7420706c61796572207475726e0000000000000000000000000000000000600082015250565b7f496e76616c6964207175657374696f6e20616e73776572210000000000000000600082015250565b7f5175657374696f6e2069732070656e64696e67206f6620616e73776572000000600082015250565b7f496e76616c6964206368617261637465722073656c656374696f6e2100000000600082015250565b7f506c617965722032206973206e6f74206a6f696e000000000000000000000000600082015250565b7f496e76616c696420677565737320726573706f6e736521000000000000000000600082015250565b7f506c6179657220616c7265616479206a6f696e00000000000000000000000000600082015250565b7f47616d6520616c72656164792073746172746564000000000000000000000000600082015250565b613ceb81613866565b8114613cf657600080fd5b50565b613d0281613892565b8114613d0d57600080fd5b50565b613d198161389c565b8114613d2457600080fd5b5056fea264697066735822122055a5d4b9ecffe22db257a01795431953e7db17d132484b8ca596fced140e16a064736f6c63430008040033",
  "linkReferences": {},
  "deployedLinkReferences": {}
}