{
  "_format": "hh-sol-artifact-1",
  "contractName": "Game",
  "sourceName": "contracts/Game.sol",
  "abi": [
    {
      "inputs": [
        {
          "internalType": "address",
          "name": "_verifier",
          "type": "address"
        }
      ],
      "stateMutability": "nonpayable",
      "type": "constructor"
    },
    {
      "inputs": [
        {
          "internalType": "uint8",
          "name": "_type",
          "type": "uint8"
        },
        {
          "internalType": "uint8",
          "name": "_characteristic",
          "type": "uint8"
        }
      ],
      "name": "ask",
      "outputs": [],
      "stateMutability": "nonpayable",
      "type": "function"
    },
    {
      "inputs": [
        {
          "internalType": "uint8[4]",
          "name": "_guess",
          "type": "uint8[4]"
        }
      ],
      "name": "guess",
      "outputs": [],
      "stateMutability": "nonpayable",
      "type": "function"
    },
    {
      "inputs": [],
      "name": "hash",
      "outputs": [
        {
          "internalType": "uint256",
          "name": "",
          "type": "uint256"
        }
      ],
      "stateMutability": "view",
      "type": "function"
    },
    {
      "inputs": [
        {
          "internalType": "uint8",
          "name": "_won",
          "type": "uint8"
        },
        {
          "internalType": "uint256[2]",
          "name": "a",
          "type": "uint256[2]"
        },
        {
          "internalType": "uint256[2][2]",
          "name": "b",
          "type": "uint256[2][2]"
        },
        {
          "internalType": "uint256[2]",
          "name": "c",
          "type": "uint256[2]"
        }
      ],
      "name": "isWon",
      "outputs": [],
      "stateMutability": "nonpayable",
      "type": "function"
    },
    {
      "inputs": [],
      "name": "lastCharacteristic",
      "outputs": [
        {
          "internalType": "uint8",
          "name": "",
          "type": "uint8"
        }
      ],
      "stateMutability": "view",
      "type": "function"
    },
    {
      "inputs": [
        {
          "internalType": "uint256",
          "name": "",
          "type": "uint256"
        }
      ],
      "name": "lastGuess",
      "outputs": [
        {
          "internalType": "uint256",
          "name": "",
          "type": "uint256"
        }
      ],
      "stateMutability": "view",
      "type": "function"
    },
    {
      "inputs": [],
      "name": "lastResponse",
      "outputs": [
        {
          "internalType": "uint8",
          "name": "",
          "type": "uint8"
        }
      ],
      "stateMutability": "view",
      "type": "function"
    },
    {
      "inputs": [],
      "name": "lastType",
      "outputs": [
        {
          "internalType": "uint8",
          "name": "",
          "type": "uint8"
        }
      ],
      "stateMutability": "view",
      "type": "function"
    },
    {
      "inputs": [
        {
          "internalType": "uint8",
          "name": "_response",
          "type": "uint8"
        },
        {
          "internalType": "uint256[2]",
          "name": "a",
          "type": "uint256[2]"
        },
        {
          "internalType": "uint256[2][2]",
          "name": "b",
          "type": "uint256[2][2]"
        },
        {
          "internalType": "uint256[2]",
          "name": "c",
          "type": "uint256[2]"
        }
      ],
      "name": "response",
      "outputs": [],
      "stateMutability": "nonpayable",
      "type": "function"
    },
    {
      "inputs": [
        {
          "internalType": "uint256",
          "name": "_hash",
          "type": "uint256"
        },
        {
          "internalType": "uint256[2]",
          "name": "a",
          "type": "uint256[2]"
        },
        {
          "internalType": "uint256[2][2]",
          "name": "b",
          "type": "uint256[2][2]"
        },
        {
          "internalType": "uint256[2]",
          "name": "c",
          "type": "uint256[2]"
        }
      ],
      "name": "start",
      "outputs": [],
      "stateMutability": "nonpayable",
      "type": "function"
    },
    {
      "inputs": [],
      "name": "won",
      "outputs": [
        {
          "internalType": "uint256",
          "name": "",
          "type": "uint256"
        }
      ],
      "stateMutability": "view",
      "type": "function"
    }
  ],
  "bytecode": "0x60806040523480156200001157600080fd5b506040516200133b3803806200133b833981810160405281019062000037919062000096565b80600760006101000a81548173ffffffffffffffffffffffffffffffffffffffff021916908373ffffffffffffffffffffffffffffffffffffffff1602179055505062000110565b6000815190506200009081620000f6565b92915050565b600060208284031215620000a957600080fd5b6000620000b9848285016200007f565b91505092915050565b6000620000cf82620000d6565b9050919050565b600073ffffffffffffffffffffffffffffffffffffffff82169050919050565b6200010181620000c2565b81146200010d57600080fd5b50565b61121b80620001206000396000f3fe608060405234801561001057600080fd5b50600436106100a95760003560e01c80639f9a32b0116100715780639f9a32b014610140578063ae43f8481461015e578063b85f46eb1461017a578063e602f7f714610196578063eea108c2146101b2578063f250975c146101e2576100a9565b806309bd5a60146100ae57806312c8052f146100cc578063352e84a7146100ea57806362747e42146101065780636c36684814610124575b600080fd5b6100b6610200565b6040516100c39190610f21565b60405180910390f35b6100d4610206565b6040516100e19190610f21565b60405180910390f35b61010460048036038101906100ff9190610c1c565b61020c565b005b61010e610245565b60405161011b9190610f3c565b60405180910390f35b61013e60048036038101906101399190610bb8565b610258565b005b6101486104cd565b6040516101559190610f3c565b60405180910390f35b61017860048036038101906101739190610bb8565b6104de565b005b610194600480360381019061018f9190610b54565b610668565b005b6101b060048036038101906101ab9190610ad9565b6107b8565b005b6101cc60048036038101906101c79190610b2b565b61086c565b6040516101d99190610f21565b60405180910390f35b6101ea610887565b6040516101f79190610f3c565b60405180910390f35b60065481565b60055481565b816000806101000a81548160ff021916908360ff16021790555080600060016101000a81548160ff021916908360ff1602179055505050565b600060029054906101000a900460ff1681565b6000604051806101400160405280600654815260200160016000600481106102a9577f4e487b7100000000000000000000000000000000000000000000000000000000600052603260045260246000fd5b01548152602001600180600481106102ea577f4e487b7100000000000000000000000000000000000000000000000000000000600052603260045260246000fd5b01548152602001600160026004811061032c577f4e487b7100000000000000000000000000000000000000000000000000000000600052603260045260246000fd5b01548152602001600160036004811061036e577f4e487b7100000000000000000000000000000000000000000000000000000000600052603260045260246000fd5b0154815260200160008054906101000a900460ff1660ff168152602001600060019054906101000a900460ff1660ff168152602001600060029054906101000a900460ff1660ff1681526020018660ff1681526020016006548152509050600760009054906101000a900473ffffffffffffffffffffffffffffffffffffffff1673ffffffffffffffffffffffffffffffffffffffff1663f3bb70f6858585856040518563ffffffff1660e01b815260040161042d9493929190610e7a565b60206040518083038186803b15801561044557600080fd5b505afa158015610459573d6000803e3d6000fd5b505050506040513d601f19601f8201168201806040525081019061047d9190610b02565b6104bc576040517f08c379a00000000000000000000000000000000000000000000000000000000081526004016104b390610f01565b60405180910390fd5b8460ff166005819055505050505050565b60008054906101000a900460ff1681565b600060405180610140016040528060065481526020016000815260200160008152602001600081526020016000815260200160008054906101000a900460ff1660ff168152602001600060019054906101000a900460ff1660ff1681526020018660ff168152602001600081526020016006548152509050600760009054906101000a900473ffffffffffffffffffffffffffffffffffffffff1673ffffffffffffffffffffffffffffffffffffffff1663f3bb70f6858585856040518563ffffffff1660e01b81526004016105b79493929190610e7a565b60206040518083038186803b1580156105cf57600080fd5b505afa1580156105e3573d6000803e3d6000fd5b505050506040513d601f19601f820116820180604052508101906106079190610b02565b610646576040517f08c379a000000000000000000000000000000000000000000000000000000000815260040161063d90610ec1565b60405180910390fd5b84600060026101000a81548160ff021916908360ff1602179055505050505050565b60006040518061014001604052808681526020016000815260200160008152602001600081526020016000815260200160008152602001600081526020016000815260200160008152602001868152509050600760009054906101000a900473ffffffffffffffffffffffffffffffffffffffff1673ffffffffffffffffffffffffffffffffffffffff1663f3bb70f6858585856040518563ffffffff1660e01b815260040161071b9493929190610e7a565b60206040518083038186803b15801561073357600080fd5b505afa158015610747573d6000803e3d6000fd5b505050506040513d601f19601f8201168201806040525081019061076b9190610b02565b6107aa576040517f08c379a00000000000000000000000000000000000000000000000000000000081526004016107a190610ee1565b60405180910390fd5b846006819055505050505050565b60008060006101000a81548160ff021916908360ff1602179055508060008054906101000a900460ff1660ff166004811061081c577f4e487b7100000000000000000000000000000000000000000000000000000000600052603260045260246000fd5b6020020151600060016101000a81548160ff021916908360ff1602179055506001600060026101000a81548160ff021916908360ff16021790555080600190600461086892919061089a565b5050565b6001816004811061087c57600080fd5b016000915090505481565b600060019054906101000a900460ff1681565b82600481019282156108ce579160200282015b828111156108cd578251829060ff169055916020019190600101906108ad565b5b5090506108db91906108df565b5090565b5b808211156108f85760008160009055506001016108e0565b5090565b600061090f61090a84610f7c565b610f57565b9050808285604086028201111561092557600080fd5b60005b85811015610955578161093b8882610a4c565b845260208401935060408301925050600181019050610928565b5050509392505050565b600061097261096d84610fa2565b610f57565b9050808285602086028201111561098857600080fd5b60005b858110156109b8578161099e8882610aaf565b84526020840193506020830192505060018101905061098b565b5050509392505050565b60006109d56109d084610fc8565b610f57565b905080828560208602820111156109eb57600080fd5b60005b85811015610a1b5781610a018882610ac4565b8452602084019350602083019250506001810190506109ee565b5050509392505050565b600082601f830112610a3657600080fd5b6002610a438482856108fc565b91505092915050565b600082601f830112610a5d57600080fd5b6002610a6a84828561095f565b91505092915050565b600082601f830112610a8457600080fd5b6004610a918482856109c2565b91505092915050565b600081519050610aa9816111a0565b92915050565b600081359050610abe816111b7565b92915050565b600081359050610ad3816111ce565b92915050565b600060808284031215610aeb57600080fd5b6000610af984828501610a73565b91505092915050565b600060208284031215610b1457600080fd5b6000610b2284828501610a9a565b91505092915050565b600060208284031215610b3d57600080fd5b6000610b4b84828501610aaf565b91505092915050565b6000806000806101208587031215610b6b57600080fd5b6000610b7987828801610aaf565b9450506020610b8a87828801610a4c565b9350506060610b9b87828801610a25565b92505060e0610bac87828801610a4c565b91505092959194509250565b6000806000806101208587031215610bcf57600080fd5b6000610bdd87828801610ac4565b9450506020610bee87828801610a4c565b9350506060610bff87828801610a25565b92505060e0610c1087828801610a4c565b91505092959194509250565b60008060408385031215610c2f57600080fd5b6000610c3d85828601610ac4565b9250506020610c4e85828601610ac4565b9150509250929050565b6000610c648383610d36565b60408301905092915050565b6000610c7c8383610e4d565b60208301905092915050565b610c918161100c565b610c9b8184611054565b9250610ca682610fee565b8060005b83811015610cd7578151610cbe8782610c58565b9650610cc98361102d565b925050600181019050610caa565b505050505050565b610ce881611017565b610cf2818461105f565b9250610cfd82610ff8565b8060005b83811015610d2e578151610d158782610c70565b9650610d208361103a565b925050600181019050610d01565b505050505050565b610d3f81611022565b610d49818461106a565b9250610d5482611002565b8060005b83811015610d85578151610d6c8782610c70565b9650610d7783611047565b925050600181019050610d58565b505050505050565b610d9681611022565b610da08184611075565b9250610dab82611002565b8060005b83811015610ddc578151610dc38782610c70565b9650610dce83611047565b925050600181019050610daf565b505050505050565b6000610df1601a83611080565b9150610dfc82611125565b602082019050919050565b6000610e14601c83611080565b9150610e1f8261114e565b602082019050919050565b6000610e37601783611080565b9150610e4282611177565b602082019050919050565b610e568161109d565b82525050565b610e658161109d565b82525050565b610e74816110a7565b82525050565b600061024082019050610e906000830187610d8d565b610e9d6040830186610c88565b610eaa60c0830185610d8d565b610eb8610100830184610cdf565b95945050505050565b60006020820190508181036000830152610eda81610de4565b9050919050565b60006020820190508181036000830152610efa81610e07565b9050919050565b60006020820190508181036000830152610f1a81610e2a565b9050919050565b6000602082019050610f366000830184610e5c565b92915050565b6000602082019050610f516000830184610e6b565b92915050565b6000610f61610f72565b9050610f6d82826110b4565b919050565b6000604051905090565b600067ffffffffffffffff821115610f9757610f966110e5565b5b602082029050919050565b600067ffffffffffffffff821115610fbd57610fbc6110e5565b5b602082029050919050565b600067ffffffffffffffff821115610fe357610fe26110e5565b5b602082029050919050565b6000819050919050565b6000819050919050565b6000819050919050565b600060029050919050565b6000600a9050919050565b600060029050919050565b6000602082019050919050565b6000602082019050919050565b6000602082019050919050565b600081905092915050565b600081905092915050565b600081905092915050565b600081905092915050565b600082825260208201905092915050565b60008115159050919050565b6000819050919050565b600060ff82169050919050565b6110bd82611114565b810181811067ffffffffffffffff821117156110dc576110db6110e5565b5b80604052505050565b7f4e487b7100000000000000000000000000000000000000000000000000000000600052604160045260246000fd5b6000601f19601f8301169050919050565b7f496e76616c6964207175657374696f6e20726573706f6e736521000000000000600082015250565b7f496e76616c6964206368617261637465722073656c656374696f6e2100000000600082015250565b7f496e76616c696420677565737320726573706f6e736521000000000000000000600082015250565b6111a981611091565b81146111b457600080fd5b50565b6111c08161109d565b81146111cb57600080fd5b50565b6111d7816110a7565b81146111e257600080fd5b5056fea26469706673582212201e447c7c0ec77a67868f408df538ec3b7aa1f1575004dea2f5ca96abcf4f98a664736f6c63430008040033",
  "linkReferences": {},
  "deployedLinkReferences": {}
}