{
  "_format": "hh-sol-artifact-1",
  "contractName": "Game",
  "sourceName": "contracts/Game.sol",
  "abi": [
    {
      "inputs": [
        {
          "internalType": "address",
          "name": "_verifierBoard",
          "type": "address"
        },
        {
          "internalType": "address",
          "name": "_verifierQuestion",
          "type": "address"
        },
        {
          "internalType": "address",
          "name": "_verifierGuess",
          "type": "address"
        }
      ],
      "stateMutability": "nonpayable",
      "type": "constructor"
    },
    {
      "anonymous": false,
      "inputs": [
        {
          "indexed": false,
          "internalType": "uint256[4]",
          "name": "_guess",
          "type": "uint256[4]"
        }
      ],
      "name": "Guess",
      "type": "event"
    },
    {
      "anonymous": false,
      "inputs": [
        {
          "indexed": false,
          "internalType": "uint8",
          "name": "_answer",
          "type": "uint8"
        }
      ],
      "name": "GuessResponse",
      "type": "event"
    },
    {
      "anonymous": false,
      "inputs": [
        {
          "indexed": false,
          "internalType": "uint8",
          "name": "_answer",
          "type": "uint8"
        }
      ],
      "name": "QuestionAnswered",
      "type": "event"
    },
    {
      "anonymous": false,
      "inputs": [
        {
          "indexed": false,
          "internalType": "uint8",
          "name": "_type",
          "type": "uint8"
        },
        {
          "indexed": false,
          "internalType": "uint8",
          "name": "_characteristic",
          "type": "uint8"
        }
      ],
      "name": "QuestionAsked",
      "type": "event"
    },
    {
      "inputs": [
        {
          "internalType": "uint8",
          "name": "_type",
          "type": "uint8"
        },
        {
          "internalType": "uint8",
          "name": "_characteristic",
          "type": "uint8"
        }
      ],
      "name": "ask",
      "outputs": [],
      "stateMutability": "nonpayable",
      "type": "function"
    },
    {
      "inputs": [],
      "name": "creator",
      "outputs": [
        {
          "internalType": "address",
          "name": "",
          "type": "address"
        }
      ],
      "stateMutability": "view",
      "type": "function"
    },
    {
      "inputs": [
        {
          "internalType": "uint8[4]",
          "name": "_guess",
          "type": "uint8[4]"
        }
      ],
      "name": "guess",
      "outputs": [],
      "stateMutability": "nonpayable",
      "type": "function"
    },
    {
      "inputs": [],
      "name": "hash",
      "outputs": [
        {
          "internalType": "uint256",
          "name": "",
          "type": "uint256"
        }
      ],
      "stateMutability": "view",
      "type": "function"
    },
    {
      "inputs": [],
      "name": "isCreated",
      "outputs": [
        {
          "internalType": "bool",
          "name": "",
          "type": "bool"
        }
      ],
      "stateMutability": "view",
      "type": "function"
    },
    {
      "inputs": [],
      "name": "isGameCreator",
      "outputs": [
        {
          "internalType": "bool",
          "name": "",
          "type": "bool"
        }
      ],
      "stateMutability": "view",
      "type": "function"
    },
    {
      "inputs": [],
      "name": "isStarted",
      "outputs": [
        {
          "internalType": "bool",
          "name": "",
          "type": "bool"
        }
      ],
      "stateMutability": "view",
      "type": "function"
    },
    {
      "inputs": [
        {
          "internalType": "uint8",
          "name": "_won",
          "type": "uint8"
        },
        {
          "internalType": "uint256[2]",
          "name": "a",
          "type": "uint256[2]"
        },
        {
          "internalType": "uint256[2][2]",
          "name": "b",
          "type": "uint256[2][2]"
        },
        {
          "internalType": "uint256[2]",
          "name": "c",
          "type": "uint256[2]"
        }
      ],
      "name": "isWon",
      "outputs": [],
      "stateMutability": "nonpayable",
      "type": "function"
    },
    {
      "inputs": [
        {
          "internalType": "uint256",
          "name": "_hash",
          "type": "uint256"
        },
        {
          "internalType": "uint256[2]",
          "name": "a",
          "type": "uint256[2]"
        },
        {
          "internalType": "uint256[2][2]",
          "name": "b",
          "type": "uint256[2][2]"
        },
        {
          "internalType": "uint256[2]",
          "name": "c",
          "type": "uint256[2]"
        }
      ],
      "name": "join",
      "outputs": [],
      "stateMutability": "nonpayable",
      "type": "function"
    },
    {
      "inputs": [],
      "name": "lastCharacteristic",
      "outputs": [
        {
          "internalType": "uint8",
          "name": "",
          "type": "uint8"
        }
      ],
      "stateMutability": "view",
      "type": "function"
    },
    {
      "inputs": [
        {
          "internalType": "uint256",
          "name": "",
          "type": "uint256"
        }
      ],
      "name": "lastGuess",
      "outputs": [
        {
          "internalType": "uint256",
          "name": "",
          "type": "uint256"
        }
      ],
      "stateMutability": "view",
      "type": "function"
    },
    {
      "inputs": [],
      "name": "lastResponse",
      "outputs": [
        {
          "internalType": "uint8",
          "name": "",
          "type": "uint8"
        }
      ],
      "stateMutability": "view",
      "type": "function"
    },
    {
      "inputs": [],
      "name": "lastType",
      "outputs": [
        {
          "internalType": "uint8",
          "name": "",
          "type": "uint8"
        }
      ],
      "stateMutability": "view",
      "type": "function"
    },
    {
      "inputs": [
        {
          "internalType": "uint256",
          "name": "",
          "type": "uint256"
        }
      ],
      "name": "players",
      "outputs": [
        {
          "internalType": "address",
          "name": "",
          "type": "address"
        }
      ],
      "stateMutability": "view",
      "type": "function"
    },
    {
      "inputs": [
        {
          "internalType": "uint8",
          "name": "_answer",
          "type": "uint8"
        },
        {
          "internalType": "uint256[2]",
          "name": "a",
          "type": "uint256[2]"
        },
        {
          "internalType": "uint256[2][2]",
          "name": "b",
          "type": "uint256[2][2]"
        },
        {
          "internalType": "uint256[2]",
          "name": "c",
          "type": "uint256[2]"
        }
      ],
      "name": "response",
      "outputs": [],
      "stateMutability": "nonpayable",
      "type": "function"
    },
    {
      "inputs": [
        {
          "internalType": "uint256",
          "name": "_hash",
          "type": "uint256"
        },
        {
          "internalType": "uint256[2]",
          "name": "a",
          "type": "uint256[2]"
        },
        {
          "internalType": "uint256[2][2]",
          "name": "b",
          "type": "uint256[2][2]"
        },
        {
          "internalType": "uint256[2]",
          "name": "c",
          "type": "uint256[2]"
        }
      ],
      "name": "start",
      "outputs": [],
      "stateMutability": "nonpayable",
      "type": "function"
    },
    {
      "inputs": [],
      "name": "won",
      "outputs": [
        {
          "internalType": "uint8",
          "name": "",
          "type": "uint8"
        }
      ],
      "stateMutability": "view",
      "type": "function"
    }
  ],
  "bytecode": "0x60806040523480156200001157600080fd5b5060405162002b8438038062002b8483398181016040528101906200003791906200011a565b82600a60006101000a81548173ffffffffffffffffffffffffffffffffffffffff021916908373ffffffffffffffffffffffffffffffffffffffff16021790555081600b60006101000a81548173ffffffffffffffffffffffffffffffffffffffff021916908373ffffffffffffffffffffffffffffffffffffffff16021790555080600c60006101000a81548173ffffffffffffffffffffffffffffffffffffffff021916908373ffffffffffffffffffffffffffffffffffffffff160217905550505050620001be565b6000815190506200011481620001a4565b92915050565b6000806000606084860312156200013057600080fd5b6000620001408682870162000103565b9350506020620001538682870162000103565b9250506040620001668682870162000103565b9150509250925092565b60006200017d8262000184565b9050919050565b600073ffffffffffffffffffffffffffffffffffffffff82169050919050565b620001af8162000170565b8114620001bb57600080fd5b50565b6129b680620001ce6000396000f3fe608060405234801561001057600080fd5b506004361061010b5760003560e01c80636c366848116100a2578063b85f46eb11610071578063b85f46eb14610270578063e602f7f71461028c578063eea108c2146102a8578063f250975c146102d8578063f71d96cb146102f65761010b565b80636c366848146101fc57806386174396146102185780639f9a32b014610236578063ae43f848146102545761010b565b8063350a66c0116100de578063350a66c014610186578063352e84a7146101a4578063544736e6146101c057806362747e42146101de5761010b565b806302d05d3f1461011057806309bd5a601461012e57806312c8052f1461014c57806333bd875d1461016a575b600080fd5b610118610326565b6040516101259190612190565b60405180910390f35b61013661034c565b60405161014391906123f6565b60405180910390f35b610154610352565b6040516101619190612411565b60405180910390f35b610184600480360381019061017f9190611c4b565b610365565b005b61018e610633565b60405161019b919061229b565b60405180910390f35b6101be60048036038101906101b99190611d13565b61068b565b005b6101c861087f565b6040516101d5919061229b565b60405180910390f35b6101e6610921565b6040516101f39190612411565b60405180910390f35b61021660048036038101906102119190611caf565b610934565b005b610220610d67565b60405161022d919061229b565b60405180910390f35b61023e610e8e565b60405161024b9190612411565b60405180910390f35b61026e60048036038101906102699190611caf565b610e9f565b005b61028a60048036038101906102859190611c4b565b6111f1565b005b6102a660048036038101906102a19190611bd0565b611506565b005b6102c260048036038101906102bd9190611c22565b6116d7565b6040516102cf91906123f6565b60405180910390f35b6102e06116f2565b6040516102ed9190612411565b60405180910390f35b610310600480360381019061030b9190611c22565b611705565b60405161031d9190612190565b60405180910390f35b600760009054906101000a900473ffffffffffffffffffffffffffffffffffffffff1681565b60065481565b600560009054906101000a900460ff1681565b600060065414156103ab576040517f08c379a00000000000000000000000000000000000000000000000000000000081526004016103a290612316565b60405180910390fd5b600073ffffffffffffffffffffffffffffffffffffffff1660086001600281106103fe577f4e487b7100000000000000000000000000000000000000000000000000000000600052603260045260246000fd5b0160009054906101000a900473ffffffffffffffffffffffffffffffffffffffff1673ffffffffffffffffffffffffffffffffffffffff1614610476576040517f08c379a000000000000000000000000000000000000000000000000000000000815260040161046d906122f6565b60405180910390fd5b60006040518060200160405280868152509050600a60009054906101000a900473ffffffffffffffffffffffffffffffffffffffff1673ffffffffffffffffffffffffffffffffffffffff166343753b4d858585856040518563ffffffff1660e01b81526004016104ea94939291906121ab565b60206040518083038186803b15801561050257600080fd5b505afa158015610516573d6000803e3d6000fd5b505050506040513d601f19601f8201168201806040525081019061053a9190611bf9565b610579576040517f08c379a000000000000000000000000000000000000000000000000000000000815260040161057090612396565b60405180910390fd5b3360086001600281106105b5577f4e487b7100000000000000000000000000000000000000000000000000000000600052603260045260246000fd5b0160006101000a81548173ffffffffffffffffffffffffffffffffffffffff021916908373ffffffffffffffffffffffffffffffffffffffff1602179055506003600060026101000a81548160ff021916908360ff1602179055506003600560006101000a81548160ff021916908360ff1602179055505050505050565b6000600760009054906101000a900473ffffffffffffffffffffffffffffffffffffffff1673ffffffffffffffffffffffffffffffffffffffff163373ffffffffffffffffffffffffffffffffffffffff1614905090565b600060065414156106d1576040517f08c379a00000000000000000000000000000000000000000000000000000000081526004016106c890612316565b60405180910390fd5b600073ffffffffffffffffffffffffffffffffffffffff166008600160028110610724577f4e487b7100000000000000000000000000000000000000000000000000000000600052603260045260246000fd5b0160009054906101000a900473ffffffffffffffffffffffffffffffffffffffff1673ffffffffffffffffffffffffffffffffffffffff16141561079d576040517f08c379a0000000000000000000000000000000000000000000000000000000008152600401610794906123b6565b60405180910390fd5b60008060029054906101000a900460ff1660ff1614156107f2576040517f08c379a00000000000000000000000000000000000000000000000000000000081526004016107e990612376565b60405180910390fd5b816000806101000a81548160ff021916908360ff16021790555080600060016101000a81548160ff021916908360ff16021790555060008060026101000a81548160ff021916908360ff1602179055507f32a95ea2373c4d2cff10c37d2caf784dc5e400dc50924dc7042f3f9afb5a270f828260405161087392919061242c565b60405180910390a15050565b6000806006541415801561091c5750600073ffffffffffffffffffffffffffffffffffffffff1660086001600281106108e1577f4e487b7100000000000000000000000000000000000000000000000000000000600052603260045260246000fd5b0160009054906101000a900473ffffffffffffffffffffffffffffffffffffffff1673ffffffffffffffffffffffffffffffffffffffff1614155b905090565b600060029054906101000a900460ff1681565b6000600654141561097a576040517f08c379a000000000000000000000000000000000000000000000000000000000815260040161097190612316565b60405180910390fd5b600073ffffffffffffffffffffffffffffffffffffffff1660086001600281106109cd577f4e487b7100000000000000000000000000000000000000000000000000000000600052603260045260246000fd5b0160009054906101000a900473ffffffffffffffffffffffffffffffffffffffff1673ffffffffffffffffffffffffffffffffffffffff161415610a46576040517f08c379a0000000000000000000000000000000000000000000000000000000008152600401610a3d906123b6565b60405180910390fd5b600760009054906101000a900473ffffffffffffffffffffffffffffffffffffffff1673ffffffffffffffffffffffffffffffffffffffff163373ffffffffffffffffffffffffffffffffffffffff1614610ad6576040517f08c379a0000000000000000000000000000000000000000000000000000000008152600401610acd90612336565b60405180910390fd5b60006040518060c001604052808660ff1681526020016001600060048110610b27577f4e487b7100000000000000000000000000000000000000000000000000000000600052603260045260246000fd5b0154815260200160018060048110610b68577f4e487b7100000000000000000000000000000000000000000000000000000000600052603260045260246000fd5b015481526020016001600260048110610baa577f4e487b7100000000000000000000000000000000000000000000000000000000600052603260045260246000fd5b015481526020016001600360048110610bec577f4e487b7100000000000000000000000000000000000000000000000000000000600052603260045260246000fd5b015481526020016006548152509050600c60009054906101000a900473ffffffffffffffffffffffffffffffffffffffff1673ffffffffffffffffffffffffffffffffffffffff1663f398789b858585856040518563ffffffff1660e01b8152600401610c5c9493929190612239565b60206040518083038186803b158015610c7457600080fd5b505afa158015610c88573d6000803e3d6000fd5b505050506040513d601f19601f82011682018060405250810190610cac9190611bf9565b610ceb576040517f08c379a0000000000000000000000000000000000000000000000000000000008152600401610ce2906123d6565b60405180910390fd5b600185610cf8919061260b565b600560006101000a81548160ff021916908360ff160217905550610d1a61173b565b7f321b96ee4065ea0954e60de9522d211aabbec3815b71688d7a79c8a19463d195600560009054906101000a900460ff16604051610d589190612411565b60405180910390a15050505050565b60008073ffffffffffffffffffffffffffffffffffffffff166008600060028110610dbb577f4e487b7100000000000000000000000000000000000000000000000000000000600052603260045260246000fd5b0160009054906101000a900473ffffffffffffffffffffffffffffffffffffffff1673ffffffffffffffffffffffffffffffffffffffff1614158015610e895750600073ffffffffffffffffffffffffffffffffffffffff166008600160028110610e4f577f4e487b7100000000000000000000000000000000000000000000000000000000600052603260045260246000fd5b0160009054906101000a900473ffffffffffffffffffffffffffffffffffffffff1673ffffffffffffffffffffffffffffffffffffffff16145b905090565b60008054906101000a900460ff1681565b60006006541415610ee5576040517f08c379a0000000000000000000000000000000000000000000000000000000008152600401610edc90612316565b60405180910390fd5b600073ffffffffffffffffffffffffffffffffffffffff166008600160028110610f38577f4e487b7100000000000000000000000000000000000000000000000000000000600052603260045260246000fd5b0160009054906101000a900473ffffffffffffffffffffffffffffffffffffffff1673ffffffffffffffffffffffffffffffffffffffff161415610fb1576040517f08c379a0000000000000000000000000000000000000000000000000000000008152600401610fa8906123b6565b60405180910390fd5b600760009054906101000a900473ffffffffffffffffffffffffffffffffffffffff1673ffffffffffffffffffffffffffffffffffffffff163373ffffffffffffffffffffffffffffffffffffffff1614611041576040517f08c379a000000000000000000000000000000000000000000000000000000000815260040161103890612336565b60405180910390fd5b600060405180608001604052808660ff16815260200160008054906101000a900460ff1660ff168152602001600060019054906101000a900460ff1660ff1681526020016006548152509050600b60009054906101000a900473ffffffffffffffffffffffffffffffffffffffff1673ffffffffffffffffffffffffffffffffffffffff16635fe8c13b858585856040518563ffffffff1660e01b81526004016110ee94939291906121f2565b60206040518083038186803b15801561110657600080fd5b505afa15801561111a573d6000803e3d6000fd5b505050506040513d601f19601f8201168201806040525081019061113e9190611bf9565b61117d576040517f08c379a000000000000000000000000000000000000000000000000000000000815260040161117490612356565b60405180910390fd5b60018561118a919061260b565b600060026101000a81548160ff021916908360ff1602179055507fb9c2decafb8bb7052b7a1c4452beff9a62e1bbf436aa24e3f22e3dbfa05f1ca1600060029054906101000a900460ff166040516111e29190612411565b60405180910390a15050505050565b600073ffffffffffffffffffffffffffffffffffffffff166008600060028110611244577f4e487b7100000000000000000000000000000000000000000000000000000000600052603260045260246000fd5b0160009054906101000a900473ffffffffffffffffffffffffffffffffffffffff1673ffffffffffffffffffffffffffffffffffffffff16146112bc576040517f08c379a00000000000000000000000000000000000000000000000000000000081526004016112b3906122b6565b60405180910390fd5b600060065414611301576040517f08c379a00000000000000000000000000000000000000000000000000000000081526004016112f8906122b6565b60405180910390fd5b60006040518060200160405280868152509050600a60009054906101000a900473ffffffffffffffffffffffffffffffffffffffff1673ffffffffffffffffffffffffffffffffffffffff166343753b4d858585856040518563ffffffff1660e01b815260040161137594939291906121ab565b60206040518083038186803b15801561138d57600080fd5b505afa1580156113a1573d6000803e3d6000fd5b505050506040513d601f19601f820116820180604052508101906113c59190611bf9565b611404576040517f08c379a00000000000000000000000000000000000000000000000000000000081526004016113fb90612396565b60405180910390fd5b8460068190555033600760006101000a81548173ffffffffffffffffffffffffffffffffffffffff021916908373ffffffffffffffffffffffffffffffffffffffff160217905550336008600060028110611488577f4e487b7100000000000000000000000000000000000000000000000000000000600052603260045260246000fd5b0160006101000a81548173ffffffffffffffffffffffffffffffffffffffff021916908373ffffffffffffffffffffffffffffffffffffffff1602179055506003600060026101000a81548160ff021916908360ff1602179055506003600560006101000a81548160ff021916908360ff1602179055505050505050565b6000600654141561154c576040517f08c379a000000000000000000000000000000000000000000000000000000000815260040161154390612316565b60405180910390fd5b600073ffffffffffffffffffffffffffffffffffffffff16600860016002811061159f577f4e487b7100000000000000000000000000000000000000000000000000000000600052603260045260246000fd5b0160009054906101000a900473ffffffffffffffffffffffffffffffffffffffff1673ffffffffffffffffffffffffffffffffffffffff161415611618576040517f08c379a000000000000000000000000000000000000000000000000000000000815260040161160f906123b6565b60405180910390fd5b6000600560009054906101000a900460ff1660ff16141561166e576040517f08c379a0000000000000000000000000000000000000000000000000000000008152600401611665906122d6565b60405180910390fd5b80600190600461167f929190611991565b506000600560006101000a81548160ff021916908360ff1602179055507f5fbecfb9ebd9b032c64d3ad9e07a26c11d5cc0e530f3187f2f77087ea4ec622f60016040516116cc9190612280565b60405180910390a150565b600181600481106116e757600080fd5b016000915090505481565b600060019054906101000a900460ff1681565b6008816002811061171557600080fd5b016000915054906101000a900473ffffffffffffffffffffffffffffffffffffffff1681565b60006006541415611781576040517f08c379a000000000000000000000000000000000000000000000000000000000815260040161177890612316565b60405180910390fd5b600073ffffffffffffffffffffffffffffffffffffffff1660086001600281106117d4577f4e487b7100000000000000000000000000000000000000000000000000000000600052603260045260246000fd5b0160009054906101000a900473ffffffffffffffffffffffffffffffffffffffff1673ffffffffffffffffffffffffffffffffffffffff16141561184d576040517f08c379a0000000000000000000000000000000000000000000000000000000008152600401611844906123b6565b60405180910390fd5b60006006819055506000600760006101000a81548173ffffffffffffffffffffffffffffffffffffffff021916908373ffffffffffffffffffffffffffffffffffffffff160217905550600060086000600281106118d4577f4e487b7100000000000000000000000000000000000000000000000000000000600052603260045260246000fd5b0160006101000a81548173ffffffffffffffffffffffffffffffffffffffff021916908373ffffffffffffffffffffffffffffffffffffffff16021790555060006008600160028110611950577f4e487b7100000000000000000000000000000000000000000000000000000000600052603260045260246000fd5b0160006101000a81548173ffffffffffffffffffffffffffffffffffffffff021916908373ffffffffffffffffffffffffffffffffffffffff160217905550565b82600481019282156119c5579160200282015b828111156119c4578251829060ff169055916020019190600101906119a4565b5b5090506119d291906119d6565b5090565b5b808211156119ef5760008160009055506001016119d7565b5090565b6000611a06611a018461247a565b612455565b90508082856040860282011115611a1c57600080fd5b60005b85811015611a4c5781611a328882611b43565b845260208401935060408301925050600181019050611a1f565b5050509392505050565b6000611a69611a64846124a0565b612455565b90508082856020860282011115611a7f57600080fd5b60005b85811015611aaf5781611a958882611ba6565b845260208401935060208301925050600181019050611a82565b5050509392505050565b6000611acc611ac7846124c6565b612455565b90508082856020860282011115611ae257600080fd5b60005b85811015611b125781611af88882611bbb565b845260208401935060208301925050600181019050611ae5565b5050509392505050565b600082601f830112611b2d57600080fd5b6002611b3a8482856119f3565b91505092915050565b600082601f830112611b5457600080fd5b6002611b61848285611a56565b91505092915050565b600082601f830112611b7b57600080fd5b6004611b88848285611ab9565b91505092915050565b600081519050611ba08161293b565b92915050565b600081359050611bb581612952565b92915050565b600081359050611bca81612969565b92915050565b600060808284031215611be257600080fd5b6000611bf084828501611b6a565b91505092915050565b600060208284031215611c0b57600080fd5b6000611c1984828501611b91565b91505092915050565b600060208284031215611c3457600080fd5b6000611c4284828501611ba6565b91505092915050565b6000806000806101208587031215611c6257600080fd5b6000611c7087828801611ba6565b9450506020611c8187828801611b43565b9350506060611c9287828801611b1c565b92505060e0611ca387828801611b43565b91505092959194509250565b6000806000806101208587031215611cc657600080fd5b6000611cd487828801611bbb565b9450506020611ce587828801611b43565b9350506060611cf687828801611b1c565b92505060e0611d0787828801611b43565b91505092959194509250565b60008060408385031215611d2657600080fd5b6000611d3485828601611bbb565b9250506020611d4585828601611bbb565b9150509250929050565b6000611d5b8383611e3c565b60408301905092915050565b6000611d738383612163565b60208301905092915050565b611d888161264c565b82525050565b611d9781612528565b611da181846125b8565b9250611dac826124ec565b8060005b83811015611ddd578151611dc48782611d4f565b9650611dcf8361256a565b925050600181019050611db0565b505050505050565b611dee81612533565b611df881846125c3565b9250611e03826124f6565b8060005b83811015611e34578151611e1b8782611d67565b9650611e2683612577565b925050600181019050611e07565b505050505050565b611e458161253e565b611e4f81846125ce565b9250611e5a82612500565b8060005b83811015611e8b578151611e728782611d67565b9650611e7d83612584565b925050600181019050611e5e565b505050505050565b611e9c8161253e565b611ea681846125d9565b9250611eb182612500565b8060005b83811015611ee2578151611ec98782611d67565b9650611ed483612584565b925050600181019050611eb5565b505050505050565b611ef381612549565b611efd81846125e4565b9250611f088261250a565b8060005b83811015611f39578151611f208782611d67565b9650611f2b83612591565b925050600181019050611f0c565b505050505050565b611f4a81612554565b611f5481846125e4565b9250611f5f82612514565b8060005b83811015611f9757611f748261274a565b611f7e8782611d67565b9650611f898361259e565b925050600181019050611f63565b505050505050565b611fa88161255f565b611fb281846125ef565b9250611fbd8261251e565b8060005b83811015611fee578151611fd58782611d67565b9650611fe0836125ab565b925050600181019050611fc1565b505050505050565b611fff8161265e565b82525050565b60006120126014836125fa565b915061201d8261277b565b602082019050919050565b6000612035601a836125fa565b9150612040826127a4565b602082019050919050565b60006120586016836125fa565b9150612063826127cd565b602082019050919050565b600061207b6010836125fa565b9150612086826127f6565b602082019050919050565b600061209e6023836125fa565b91506120a98261281f565b604082019050919050565b60006120c16018836125fa565b91506120cc8261286e565b602082019050919050565b60006120e4601d836125fa565b91506120ef82612897565b602082019050919050565b6000612107601c836125fa565b9150612112826128c0565b602082019050919050565b600061212a6014836125fa565b9150612135826128e9565b602082019050919050565b600061214d6017836125fa565b915061215882612912565b602082019050919050565b61216c8161268a565b82525050565b61217b8161268a565b82525050565b61218a81612694565b82525050565b60006020820190506121a56000830184611d7f565b92915050565b6000610120820190506121c16000830187611e93565b6121ce6040830186611d8e565b6121db60c0830185611e93565b6121e9610100830184611de5565b95945050505050565b6000610180820190506122086000830187611e93565b6122156040830186611d8e565b61222260c0830185611e93565b612230610100830184611eea565b95945050505050565b60006101c08201905061224f6000830187611e93565b61225c6040830186611d8e565b61226960c0830185611e93565b612277610100830184611f9f565b95945050505050565b60006080820190506122956000830184611f41565b92915050565b60006020820190506122b06000830184611ff6565b92915050565b600060208201905081810360008301526122cf81612005565b9050919050565b600060208201905081810360008301526122ef81612028565b9050919050565b6000602082019050818103600083015261230f8161204b565b9050919050565b6000602082019050818103600083015261232f8161206e565b9050919050565b6000602082019050818103600083015261234f81612091565b9050919050565b6000602082019050818103600083015261236f816120b4565b9050919050565b6000602082019050818103600083015261238f816120d7565b9050919050565b600060208201905081810360008301526123af816120fa565b9050919050565b600060208201905081810360008301526123cf8161211d565b9050919050565b600060208201905081810360008301526123ef81612140565b9050919050565b600060208201905061240b6000830184612172565b92915050565b60006020820190506124266000830184612181565b92915050565b60006040820190506124416000830185612181565b61244e6020830184612181565b9392505050565b600061245f612470565b905061246b82826126bb565b919050565b6000604051905090565b600067ffffffffffffffff8211156124955761249461271b565b5b602082029050919050565b600067ffffffffffffffff8211156124bb576124ba61271b565b5b602082029050919050565b600067ffffffffffffffff8211156124e1576124e061271b565b5b602082029050919050565b6000819050919050565b6000819050919050565b6000819050919050565b6000819050919050565b6000819050919050565b6000819050919050565b600060029050919050565b600060019050919050565b600060029050919050565b600060049050919050565b600060049050919050565b600060069050919050565b6000602082019050919050565b6000602082019050919050565b6000602082019050919050565b6000602082019050919050565b6000600182019050919050565b6000602082019050919050565b600081905092915050565b600081905092915050565b600081905092915050565b600081905092915050565b600081905092915050565b600081905092915050565b600082825260208201905092915050565b600061261682612694565b915061262183612694565b92508260ff03821115612637576126366126ec565b5b828201905092915050565b6000819050919050565b60006126578261266a565b9050919050565b60008115159050919050565b600073ffffffffffffffffffffffffffffffffffffffff82169050919050565b6000819050919050565b600060ff82169050919050565b60006126b46126af8361276e565b612642565b9050919050565b6126c48261275d565b810181811067ffffffffffffffff821117156126e3576126e261271b565b5b80604052505050565b7f4e487b7100000000000000000000000000000000000000000000000000000000600052601160045260246000fd5b7f4e487b7100000000000000000000000000000000000000000000000000000000600052604160045260246000fd5b600061275682546126a1565b9050919050565b6000601f19601f8301169050919050565b60008160001c9050919050565b7f47616d6520616c72656164792063726561746564000000000000000000000000600082015250565b7f47756573732069732070656e64696e67206f6620616e73776572000000000000600082015250565b7f47616d6520526f6f6d20616c72656164792066756c6c00000000000000000000600082015250565b7f47616d65206e6f74207374617274656400000000000000000000000000000000600082015250565b7f4f6e6c792063726561746f722063616e2063616c6c20746869732066756e637460008201527f696f6e0000000000000000000000000000000000000000000000000000000000602082015250565b7f496e76616c6964207175657374696f6e20616e73776572210000000000000000600082015250565b7f5175657374696f6e2069732070656e64696e67206f6620616e73776572000000600082015250565b7f496e76616c6964206368617261637465722073656c656374696f6e2100000000600082015250565b7f506c617965722032206973206e6f74206a6f696e000000000000000000000000600082015250565b7f496e76616c696420677565737320726573706f6e736521000000000000000000600082015250565b6129448161265e565b811461294f57600080fd5b50565b61295b8161268a565b811461296657600080fd5b50565b61297281612694565b811461297d57600080fd5b5056fea2646970667358221220c329729a6e42c1a6128b60c5ed426ad94c7b8ed764a9a5976a20aa90d7ec197764736f6c63430008040033",
  "linkReferences": {},
  "deployedLinkReferences": {}
}