{
  "_format": "hh-sol-artifact-1",
  "contractName": "Game",
  "sourceName": "contracts/Game.sol",
  "abi": [
    {
      "inputs": [
        {
          "internalType": "address",
          "name": "_verifierBoard",
          "type": "address"
        },
        {
          "internalType": "address",
          "name": "_verifierQuestion",
          "type": "address"
        },
        {
          "internalType": "address",
          "name": "_verifierGuess",
          "type": "address"
        }
      ],
      "stateMutability": "nonpayable",
      "type": "constructor"
    },
    {
      "anonymous": false,
      "inputs": [],
      "name": "GameCreated",
      "type": "event"
    },
    {
      "anonymous": false,
      "inputs": [
        {
          "indexed": false,
          "internalType": "uint256[4]",
          "name": "_guess",
          "type": "uint256[4]"
        }
      ],
      "name": "Guess",
      "type": "event"
    },
    {
      "anonymous": false,
      "inputs": [
        {
          "indexed": false,
          "internalType": "uint8",
          "name": "_answer",
          "type": "uint8"
        }
      ],
      "name": "GuessResponse",
      "type": "event"
    },
    {
      "anonymous": false,
      "inputs": [],
      "name": "Joined",
      "type": "event"
    },
    {
      "anonymous": false,
      "inputs": [
        {
          "indexed": false,
          "internalType": "uint8",
          "name": "_answer",
          "type": "uint8"
        }
      ],
      "name": "QuestionAnswered",
      "type": "event"
    },
    {
      "anonymous": false,
      "inputs": [
        {
          "indexed": false,
          "internalType": "uint8",
          "name": "_type",
          "type": "uint8"
        },
        {
          "indexed": false,
          "internalType": "uint8",
          "name": "_characteristic",
          "type": "uint8"
        }
      ],
      "name": "QuestionAsked",
      "type": "event"
    },
    {
      "inputs": [
        {
          "internalType": "uint8",
          "name": "_type",
          "type": "uint8"
        },
        {
          "internalType": "uint8",
          "name": "_characteristic",
          "type": "uint8"
        }
      ],
      "name": "ask",
      "outputs": [],
      "stateMutability": "nonpayable",
      "type": "function"
    },
    {
      "inputs": [],
      "name": "currentTurn",
      "outputs": [
        {
          "internalType": "uint256",
          "name": "",
          "type": "uint256"
        }
      ],
      "stateMutability": "view",
      "type": "function"
    },
    {
      "inputs": [
        {
          "internalType": "uint8[4]",
          "name": "_guess",
          "type": "uint8[4]"
        }
      ],
      "name": "guess",
      "outputs": [],
      "stateMutability": "nonpayable",
      "type": "function"
    },
    {
      "inputs": [
        {
          "internalType": "uint256",
          "name": "",
          "type": "uint256"
        }
      ],
      "name": "hash",
      "outputs": [
        {
          "internalType": "uint256",
          "name": "",
          "type": "uint256"
        }
      ],
      "stateMutability": "view",
      "type": "function"
    },
    {
      "inputs": [],
      "name": "hashByAccount",
      "outputs": [
        {
          "internalType": "uint256",
          "name": "",
          "type": "uint256"
        }
      ],
      "stateMutability": "view",
      "type": "function"
    },
    {
      "inputs": [],
      "name": "isAnswerTurn",
      "outputs": [
        {
          "internalType": "bool",
          "name": "",
          "type": "bool"
        }
      ],
      "stateMutability": "view",
      "type": "function"
    },
    {
      "inputs": [],
      "name": "isCreated",
      "outputs": [
        {
          "internalType": "bool",
          "name": "",
          "type": "bool"
        }
      ],
      "stateMutability": "view",
      "type": "function"
    },
    {
      "inputs": [],
      "name": "isQuestionTurn",
      "outputs": [
        {
          "internalType": "bool",
          "name": "",
          "type": "bool"
        }
      ],
      "stateMutability": "view",
      "type": "function"
    },
    {
      "inputs": [],
      "name": "isStarted",
      "outputs": [
        {
          "internalType": "bool",
          "name": "",
          "type": "bool"
        }
      ],
      "stateMutability": "view",
      "type": "function"
    },
    {
      "inputs": [],
      "name": "isWinner",
      "outputs": [
        {
          "internalType": "bool",
          "name": "",
          "type": "bool"
        }
      ],
      "stateMutability": "view",
      "type": "function"
    },
    {
      "inputs": [
        {
          "internalType": "uint8",
          "name": "_won",
          "type": "uint8"
        },
        {
          "internalType": "uint256[2]",
          "name": "a",
          "type": "uint256[2]"
        },
        {
          "internalType": "uint256[2][2]",
          "name": "b",
          "type": "uint256[2][2]"
        },
        {
          "internalType": "uint256[2]",
          "name": "c",
          "type": "uint256[2]"
        }
      ],
      "name": "isWon",
      "outputs": [],
      "stateMutability": "nonpayable",
      "type": "function"
    },
    {
      "inputs": [
        {
          "internalType": "uint256",
          "name": "_hash",
          "type": "uint256"
        },
        {
          "internalType": "uint256[2]",
          "name": "a",
          "type": "uint256[2]"
        },
        {
          "internalType": "uint256[2][2]",
          "name": "b",
          "type": "uint256[2][2]"
        },
        {
          "internalType": "uint256[2]",
          "name": "c",
          "type": "uint256[2]"
        }
      ],
      "name": "join",
      "outputs": [],
      "stateMutability": "nonpayable",
      "type": "function"
    },
    {
      "inputs": [],
      "name": "lastCharacteristic",
      "outputs": [
        {
          "internalType": "uint8",
          "name": "",
          "type": "uint8"
        }
      ],
      "stateMutability": "view",
      "type": "function"
    },
    {
      "inputs": [
        {
          "internalType": "uint256",
          "name": "",
          "type": "uint256"
        }
      ],
      "name": "lastGuess",
      "outputs": [
        {
          "internalType": "uint256",
          "name": "",
          "type": "uint256"
        }
      ],
      "stateMutability": "view",
      "type": "function"
    },
    {
      "inputs": [],
      "name": "lastResponse",
      "outputs": [
        {
          "internalType": "uint8",
          "name": "",
          "type": "uint8"
        }
      ],
      "stateMutability": "view",
      "type": "function"
    },
    {
      "inputs": [],
      "name": "lastType",
      "outputs": [
        {
          "internalType": "uint8",
          "name": "",
          "type": "uint8"
        }
      ],
      "stateMutability": "view",
      "type": "function"
    },
    {
      "inputs": [
        {
          "internalType": "uint256",
          "name": "",
          "type": "uint256"
        }
      ],
      "name": "players",
      "outputs": [
        {
          "internalType": "address",
          "name": "",
          "type": "address"
        }
      ],
      "stateMutability": "view",
      "type": "function"
    },
    {
      "inputs": [],
      "name": "previousTurn",
      "outputs": [
        {
          "internalType": "uint256",
          "name": "",
          "type": "uint256"
        }
      ],
      "stateMutability": "view",
      "type": "function"
    },
    {
      "inputs": [
        {
          "internalType": "uint8",
          "name": "_answer",
          "type": "uint8"
        },
        {
          "internalType": "uint256[2]",
          "name": "a",
          "type": "uint256[2]"
        },
        {
          "internalType": "uint256[2][2]",
          "name": "b",
          "type": "uint256[2][2]"
        },
        {
          "internalType": "uint256[2]",
          "name": "c",
          "type": "uint256[2]"
        }
      ],
      "name": "response",
      "outputs": [],
      "stateMutability": "nonpayable",
      "type": "function"
    },
    {
      "inputs": [
        {
          "internalType": "uint256",
          "name": "_hash",
          "type": "uint256"
        },
        {
          "internalType": "uint256[2]",
          "name": "a",
          "type": "uint256[2]"
        },
        {
          "internalType": "uint256[2][2]",
          "name": "b",
          "type": "uint256[2][2]"
        },
        {
          "internalType": "uint256[2]",
          "name": "c",
          "type": "uint256[2]"
        }
      ],
      "name": "start",
      "outputs": [],
      "stateMutability": "nonpayable",
      "type": "function"
    },
    {
      "inputs": [],
      "name": "winner",
      "outputs": [
        {
          "internalType": "address",
          "name": "",
          "type": "address"
        }
      ],
      "stateMutability": "view",
      "type": "function"
    },
    {
      "inputs": [],
      "name": "won",
      "outputs": [
        {
          "internalType": "uint8",
          "name": "",
          "type": "uint8"
        }
      ],
      "stateMutability": "view",
      "type": "function"
    }
  ],
  "bytecode": "0x60806040523480156200001157600080fd5b50604051620039db380380620039db83398181016040528101906200003791906200011a565b82600a60006101000a81548173ffffffffffffffffffffffffffffffffffffffff021916908373ffffffffffffffffffffffffffffffffffffffff16021790555081600b60006101000a81548173ffffffffffffffffffffffffffffffffffffffff021916908373ffffffffffffffffffffffffffffffffffffffff16021790555080600c60006101000a81548173ffffffffffffffffffffffffffffffffffffffff021916908373ffffffffffffffffffffffffffffffffffffffff160217905550505050620001be565b6000815190506200011481620001a4565b92915050565b6000806000606084860312156200013057600080fd5b6000620001408682870162000103565b9350506020620001538682870162000103565b9250506040620001668682870162000103565b9150509250925092565b60006200017d8262000184565b9050919050565b600073ffffffffffffffffffffffffffffffffffffffff82169050919050565b620001af8162000170565b8114620001bb57600080fd5b50565b61380d80620001ce6000396000f3fe608060405234801561001057600080fd5b50600436106101425760003560e01c8063ae43f848116100b8578063e4cecb101161007c578063e4cecb101461032f578063e602f7f71461034d578063eea108c214610369578063f250975c14610399578063f71d96cb146103b7578063fabd2f9c146103e757610142565b8063ae43f8481461028b578063b189fd4c146102a7578063b85f46eb146102d7578063deb61286146102f3578063dfbf53ae1461031157610142565b8063544736e61161010a578063544736e6146101d957806362747e42146101f75780636c3668481461021557806386174396146102315780639f9a32b01461024f578063a7acd3411461026d57610142565b806312c8052f146101475780631a9b0b7c146101655780632e5144381461018357806333bd875d146101a1578063352e84a7146101bd575b600080fd5b61014f610405565b60405161015c919061309c565b60405180910390f35b61016d610418565b60405161017a9190612e86565b60405180910390f35b61018b610470565b6040516101989190613081565b60405180910390f35b6101bb60048036038101906101b69190612787565b610492565b005b6101d760048036038101906101d2919061284f565b610992565b005b6101e1610c60565b6040516101ee9190612e86565b60405180910390f35b6101ff610d3c565b60405161020c919061309c565b60405180910390f35b61022f600480360381019061022a91906127eb565b610d4f565b005b6102396111b4565b6040516102469190612e86565b60405180910390f35b6102576112da565b604051610264919061309c565b60405180910390f35b6102756112ed565b6040516102829190612e86565b60405180910390f35b6102a560048036038101906102a091906127eb565b611384565b005b6102c160048036038101906102bc919061275e565b611721565b6040516102ce9190613081565b60405180910390f35b6102f160048036038101906102ec9190612787565b61173c565b005b6102fb611af0565b6040516103089190613081565b60405180910390f35b610319611b06565b6040516103269190612d7b565b60405180910390f35b610337611b2c565b6040516103449190613081565b60405180910390f35b6103676004803603810190610362919061270c565b611cdc565b005b610383600480360381019061037e919061275e565b611f84565b6040516103909190613081565b60405180910390f35b6103a1611f9f565b6040516103ae919061309c565b60405180910390f35b6103d160048036038101906103cc919061275e565b611fb2565b6040516103de9190612d7b565b60405180910390f35b6103ef611fe8565b6040516103fc9190612e86565b60405180910390f35b600960039054906101000a900460ff1681565b6000600960049054906101000a900473ffffffffffffffffffffffffffffffffffffffff1673ffffffffffffffffffffffffffffffffffffffff163373ffffffffffffffffffffffffffffffffffffffff1614905090565b6000600260016004546104839190613296565b61048d9190613416565b905090565b600060026000600281106104cf577f4e487b7100000000000000000000000000000000000000000000000000000000600052603260045260246000fd5b01541415610512576040517f08c379a000000000000000000000000000000000000000000000000000000000815260040161050990612f41565b60405180910390fd5b600073ffffffffffffffffffffffffffffffffffffffff166000600160028110610565577f4e487b7100000000000000000000000000000000000000000000000000000000600052603260045260246000fd5b0160009054906101000a900473ffffffffffffffffffffffffffffffffffffffff1673ffffffffffffffffffffffffffffffffffffffff16146105dd576040517f08c379a00000000000000000000000000000000000000000000000000000000081526004016105d490612f01565b60405180910390fd5b3373ffffffffffffffffffffffffffffffffffffffff166000806002811061062e577f4e487b7100000000000000000000000000000000000000000000000000000000600052603260045260246000fd5b0160009054906101000a900473ffffffffffffffffffffffffffffffffffffffff1673ffffffffffffffffffffffffffffffffffffffff1614156106a7576040517f08c379a000000000000000000000000000000000000000000000000000000000815260040161069e90613041565b60405180910390fd5b600060026001600281106106e4577f4e487b7100000000000000000000000000000000000000000000000000000000600052603260045260246000fd5b015414610726576040517f08c379a000000000000000000000000000000000000000000000000000000000815260040161071d90613061565b60405180910390fd5b60006040518060200160405280868152509050600a60009054906101000a900473ffffffffffffffffffffffffffffffffffffffff1673ffffffffffffffffffffffffffffffffffffffff166343753b4d858585856040518563ffffffff1660e01b815260040161079a9493929190612d96565b60206040518083038186803b1580156107b257600080fd5b505afa1580156107c6573d6000803e3d6000fd5b505050506040513d601f19601f820116820180604052508101906107ea9190612735565b610829576040517f08c379a000000000000000000000000000000000000000000000000000000000815260040161082090612fe1565b60405180910390fd5b846002600160028110610865577f4e487b7100000000000000000000000000000000000000000000000000000000600052603260045260246000fd5b01819055503360006001600281106108a6577f4e487b7100000000000000000000000000000000000000000000000000000000600052603260045260246000fd5b0160006101000a81548173ffffffffffffffffffffffffffffffffffffffff021916908373ffffffffffffffffffffffffffffffffffffffff1602179055506003600960026101000a81548160ff021916908360ff1602179055506003600960036101000a81548160ff021916908360ff1602179055506000600960046101000a81548173ffffffffffffffffffffffffffffffffffffffff021916908373ffffffffffffffffffffffffffffffffffffffff1602179055507f01bef3730c3b3c7a12797f6baa6ef0473275290438b5264ad09598751c13a10c60405160405180910390a15050505050565b600060026000600281106109cf577f4e487b7100000000000000000000000000000000000000000000000000000000600052603260045260246000fd5b01541415610a12576040517f08c379a0000000000000000000000000000000000000000000000000000000008152600401610a0990612f41565b60405180910390fd5b600073ffffffffffffffffffffffffffffffffffffffff166000600160028110610a65577f4e487b7100000000000000000000000000000000000000000000000000000000600052603260045260246000fd5b0160009054906101000a900473ffffffffffffffffffffffffffffffffffffffff1673ffffffffffffffffffffffffffffffffffffffff161415610ade576040517f08c379a0000000000000000000000000000000000000000000000000000000008152600401610ad590613001565b60405180910390fd5b610ae66112ed565b610b25576040517f08c379a0000000000000000000000000000000000000000000000000000000008152600401610b1c90612f81565b60405180910390fd5b6000600960029054906101000a900460ff1660ff161415610b7b576040517f08c379a0000000000000000000000000000000000000000000000000000000008152600401610b7290612fc1565b60405180910390fd5b6000600960039054906101000a900460ff1660ff161415610bd1576040517f08c379a0000000000000000000000000000000000000000000000000000000008152600401610bc890612ea1565b60405180910390fd5b81600960006101000a81548160ff021916908360ff16021790555080600960016101000a81548160ff021916908360ff1602179055506000600960026101000a81548160ff021916908360ff1602179055507f32a95ea2373c4d2cff10c37d2caf784dc5e400dc50924dc7042f3f9afb5a270f8282604051610c549291906130b7565b60405180910390a15050565b6000806002600060028110610c9e577f4e487b7100000000000000000000000000000000000000000000000000000000600052603260045260246000fd5b015414158015610d375750600073ffffffffffffffffffffffffffffffffffffffff166000600160028110610cfc577f4e487b7100000000000000000000000000000000000000000000000000000000600052603260045260246000fd5b0160009054906101000a900473ffffffffffffffffffffffffffffffffffffffff1673ffffffffffffffffffffffffffffffffffffffff1614155b905090565b600960029054906101000a900460ff1681565b60006002600060028110610d8c577f4e487b7100000000000000000000000000000000000000000000000000000000600052603260045260246000fd5b01541415610dcf576040517f08c379a0000000000000000000000000000000000000000000000000000000008152600401610dc690612f41565b60405180910390fd5b600073ffffffffffffffffffffffffffffffffffffffff166000600160028110610e22577f4e487b7100000000000000000000000000000000000000000000000000000000600052603260045260246000fd5b0160009054906101000a900473ffffffffffffffffffffffffffffffffffffffff1673ffffffffffffffffffffffffffffffffffffffff161415610e9b576040517f08c379a0000000000000000000000000000000000000000000000000000000008152600401610e9290613001565b60405180910390fd5b610ea3611fe8565b610ee2576040517f08c379a0000000000000000000000000000000000000000000000000000000008152600401610ed990612f61565b60405180910390fd5b60006040518060c001604052808660ff1681526020016005600060048110610f33577f4e487b7100000000000000000000000000000000000000000000000000000000600052603260045260246000fd5b015481526020016005600160048110610f75577f4e487b7100000000000000000000000000000000000000000000000000000000600052603260045260246000fd5b015481526020016005600260048110610fb7577f4e487b7100000000000000000000000000000000000000000000000000000000600052603260045260246000fd5b015481526020016005600360048110610ff9577f4e487b7100000000000000000000000000000000000000000000000000000000600052603260045260246000fd5b01548152602001600261100a611af0565b60028110611041577f4e487b7100000000000000000000000000000000000000000000000000000000600052603260045260246000fd5b01548152509050600c60009054906101000a900473ffffffffffffffffffffffffffffffffffffffff1673ffffffffffffffffffffffffffffffffffffffff1663f398789b858585856040518563ffffffff1660e01b81526004016110a99493929190612e24565b60206040518083038186803b1580156110c157600080fd5b505afa1580156110d5573d6000803e3d6000fd5b505050506040513d601f19601f820116820180604052508101906110f99190612735565b611138576040517f08c379a000000000000000000000000000000000000000000000000000000000815260040161112f90613021565b60405180910390fd5b60018561114591906132ec565b600960036101000a81548160ff021916908360ff16021790555061116761207f565b7f321b96ee4065ea0954e60de9522d211aabbec3815b71688d7a79c8a19463d195600960039054906101000a900460ff166040516111a5919061309c565b60405180910390a15050505050565b60008073ffffffffffffffffffffffffffffffffffffffff1660008060028110611207577f4e487b7100000000000000000000000000000000000000000000000000000000600052603260045260246000fd5b0160009054906101000a900473ffffffffffffffffffffffffffffffffffffffff1673ffffffffffffffffffffffffffffffffffffffff16141580156112d55750600073ffffffffffffffffffffffffffffffffffffffff16600060016002811061129b577f4e487b7100000000000000000000000000000000000000000000000000000000600052603260045260246000fd5b0160009054906101000a900473ffffffffffffffffffffffffffffffffffffffff1673ffffffffffffffffffffffffffffffffffffffff16145b905090565b600960009054906101000a900460ff1681565b6000806112f8610470565b6002811061132f577f4e487b7100000000000000000000000000000000000000000000000000000000600052603260045260246000fd5b0160009054906101000a900473ffffffffffffffffffffffffffffffffffffffff1673ffffffffffffffffffffffffffffffffffffffff163373ffffffffffffffffffffffffffffffffffffffff1614905090565b600060026000600281106113c1577f4e487b7100000000000000000000000000000000000000000000000000000000600052603260045260246000fd5b01541415611404576040517f08c379a00000000000000000000000000000000000000000000000000000000081526004016113fb90612f41565b60405180910390fd5b600073ffffffffffffffffffffffffffffffffffffffff166000600160028110611457577f4e487b7100000000000000000000000000000000000000000000000000000000600052603260045260246000fd5b0160009054906101000a900473ffffffffffffffffffffffffffffffffffffffff1673ffffffffffffffffffffffffffffffffffffffff1614156114d0576040517f08c379a00000000000000000000000000000000000000000000000000000000081526004016114c790613001565b60405180910390fd5b6114d8611fe8565b611517576040517f08c379a000000000000000000000000000000000000000000000000000000000815260040161150e90612f61565b60405180910390fd5b600060405180608001604052808660ff168152602001600960009054906101000a900460ff1660ff168152602001600960019054906101000a900460ff1660ff1681526020016002611567611af0565b6002811061159e577f4e487b7100000000000000000000000000000000000000000000000000000000600052603260045260246000fd5b01548152509050600b60009054906101000a900473ffffffffffffffffffffffffffffffffffffffff1673ffffffffffffffffffffffffffffffffffffffff16635fe8c13b858585856040518563ffffffff1660e01b81526004016116069493929190612ddd565b60206040518083038186803b15801561161e57600080fd5b505afa158015611632573d6000803e3d6000fd5b505050506040513d601f19601f820116820180604052508101906116569190612735565b611695576040517f08c379a000000000000000000000000000000000000000000000000000000000815260040161168c90612fa1565b60405180910390fd5b6001856116a291906132ec565b600960026101000a81548160ff021916908360ff160217905550600460008154809291906116cf906133cd565b91905055507fb9c2decafb8bb7052b7a1c4452beff9a62e1bbf436aa24e3f22e3dbfa05f1ca1600960029054906101000a900460ff16604051611712919061309c565b60405180910390a15050505050565b6002816002811061173157600080fd5b016000915090505481565b600073ffffffffffffffffffffffffffffffffffffffff166000806002811061178e577f4e487b7100000000000000000000000000000000000000000000000000000000600052603260045260246000fd5b0160009054906101000a900473ffffffffffffffffffffffffffffffffffffffff1673ffffffffffffffffffffffffffffffffffffffff1614611806576040517f08c379a00000000000000000000000000000000000000000000000000000000081526004016117fd90612ec1565b60405180910390fd5b60006002600060028110611843577f4e487b7100000000000000000000000000000000000000000000000000000000600052603260045260246000fd5b015414611885576040517f08c379a000000000000000000000000000000000000000000000000000000000815260040161187c90612ec1565b60405180910390fd5b60006040518060200160405280868152509050600a60009054906101000a900473ffffffffffffffffffffffffffffffffffffffff1673ffffffffffffffffffffffffffffffffffffffff166343753b4d858585856040518563ffffffff1660e01b81526004016118f99493929190612d96565b60206040518083038186803b15801561191157600080fd5b505afa158015611925573d6000803e3d6000fd5b505050506040513d601f19601f820116820180604052508101906119499190612735565b611988576040517f08c379a000000000000000000000000000000000000000000000000000000000815260040161197f90612fe1565b60405180910390fd5b8460026000600281106119c4577f4e487b7100000000000000000000000000000000000000000000000000000000600052603260045260246000fd5b01819055503360008060028110611a04577f4e487b7100000000000000000000000000000000000000000000000000000000600052603260045260246000fd5b0160006101000a81548173ffffffffffffffffffffffffffffffffffffffff021916908373ffffffffffffffffffffffffffffffffffffffff1602179055506003600960026101000a81548160ff021916908360ff1602179055506003600960036101000a81548160ff021916908360ff1602179055506000600960046101000a81548173ffffffffffffffffffffffffffffffffffffffff021916908373ffffffffffffffffffffffffffffffffffffffff1602179055507f151802685129c44d0dd1313fc103826047d8aac8add2f9aec41ea52a69f2495d60405160405180910390a15050505050565b60006002600454611b019190613416565b905090565b600960049054906101000a900473ffffffffffffffffffffffffffffffffffffffff1681565b600080600160028110611b68577f4e487b7100000000000000000000000000000000000000000000000000000000600052603260045260246000fd5b0160009054906101000a900473ffffffffffffffffffffffffffffffffffffffff1673ffffffffffffffffffffffffffffffffffffffff163373ffffffffffffffffffffffffffffffffffffffff161415611c01576002600160028110611bf8577f4e487b7100000000000000000000000000000000000000000000000000000000600052603260045260246000fd5b01549050611cd9565b60008060028110611c3b577f4e487b7100000000000000000000000000000000000000000000000000000000600052603260045260246000fd5b0160009054906101000a900473ffffffffffffffffffffffffffffffffffffffff1673ffffffffffffffffffffffffffffffffffffffff163373ffffffffffffffffffffffffffffffffffffffff161415611cd4576002600060028110611ccb577f4e487b7100000000000000000000000000000000000000000000000000000000600052603260045260246000fd5b01549050611cd9565b600090505b90565b60006002600060028110611d19577f4e487b7100000000000000000000000000000000000000000000000000000000600052603260045260246000fd5b01541415611d5c576040517f08c379a0000000000000000000000000000000000000000000000000000000008152600401611d5390612f41565b60405180910390fd5b600073ffffffffffffffffffffffffffffffffffffffff166000600160028110611daf577f4e487b7100000000000000000000000000000000000000000000000000000000600052603260045260246000fd5b0160009054906101000a900473ffffffffffffffffffffffffffffffffffffffff1673ffffffffffffffffffffffffffffffffffffffff161415611e28576040517f08c379a0000000000000000000000000000000000000000000000000000000008152600401611e1f90613001565b60405180910390fd5b611e306112ed565b611e6f576040517f08c379a0000000000000000000000000000000000000000000000000000000008152600401611e6690612f81565b60405180910390fd5b6000600960039054906101000a900460ff1660ff161415611ec5576040517f08c379a0000000000000000000000000000000000000000000000000000000008152600401611ebc90612ee1565b60405180910390fd5b6000600960029054906101000a900460ff1660ff161415611f1b576040517f08c379a0000000000000000000000000000000000000000000000000000000008152600401611f1290612f21565b60405180910390fd5b806005906004611f2c9291906124cd565b506000600960036101000a81548160ff021916908360ff1602179055507f5fbecfb9ebd9b032c64d3ad9e07a26c11d5cc0e530f3187f2f77087ea4ec622f6005604051611f799190612e6b565b60405180910390a150565b60058160048110611f9457600080fd5b016000915090505481565b600960019054906101000a900460ff1681565b60008160028110611fc257600080fd5b016000915054906101000a900473ffffffffffffffffffffffffffffffffffffffff1681565b600080611ff3611af0565b6002811061202a577f4e487b7100000000000000000000000000000000000000000000000000000000600052603260045260246000fd5b0160009054906101000a900473ffffffffffffffffffffffffffffffffffffffff1673ffffffffffffffffffffffffffffffffffffffff163373ffffffffffffffffffffffffffffffffffffffff1614905090565b600060026000600281106120bc577f4e487b7100000000000000000000000000000000000000000000000000000000600052603260045260246000fd5b015414156120ff576040517f08c379a00000000000000000000000000000000000000000000000000000000081526004016120f690612f41565b60405180910390fd5b600073ffffffffffffffffffffffffffffffffffffffff166000600160028110612152577f4e487b7100000000000000000000000000000000000000000000000000000000600052603260045260246000fd5b0160009054906101000a900473ffffffffffffffffffffffffffffffffffffffff1673ffffffffffffffffffffffffffffffffffffffff1614156121cb576040517f08c379a00000000000000000000000000000000000000000000000000000000081526004016121c290613001565b60405180910390fd5b6002600960039054906101000a900460ff1660ff16141561228a5760006121f0610470565b60028110612227577f4e487b7100000000000000000000000000000000000000000000000000000000600052603260045260246000fd5b0160009054906101000a900473ffffffffffffffffffffffffffffffffffffffff16600960046101000a81548173ffffffffffffffffffffffffffffffffffffffff021916908373ffffffffffffffffffffffffffffffffffffffff1602179055505b6001600960039054906101000a900460ff1660ff1614156123495760006122af611af0565b600281106122e6577f4e487b7100000000000000000000000000000000000000000000000000000000600052603260045260246000fd5b0160009054906101000a900473ffffffffffffffffffffffffffffffffffffffff16600960046101000a81548173ffffffffffffffffffffffffffffffffffffffff021916908373ffffffffffffffffffffffffffffffffffffffff1602179055505b60006002600060028110612386577f4e487b7100000000000000000000000000000000000000000000000000000000600052603260045260246000fd5b0181905550600060026001600281106123c8577f4e487b7100000000000000000000000000000000000000000000000000000000600052603260045260246000fd5b01819055506000600481905550600080600060028110612411577f4e487b7100000000000000000000000000000000000000000000000000000000600052603260045260246000fd5b0160006101000a81548173ffffffffffffffffffffffffffffffffffffffff021916908373ffffffffffffffffffffffffffffffffffffffff16021790555060008060016002811061248c577f4e487b7100000000000000000000000000000000000000000000000000000000600052603260045260246000fd5b0160006101000a81548173ffffffffffffffffffffffffffffffffffffffff021916908373ffffffffffffffffffffffffffffffffffffffff160217905550565b8260048101928215612501579160200282015b82811115612500578251829060ff169055916020019190600101906124e0565b5b50905061250e9190612512565b5090565b5b8082111561252b576000816000905550600101612513565b5090565b600061254261253d84613105565b6130e0565b9050808285604086028201111561255857600080fd5b60005b85811015612588578161256e888261267f565b84526020840193506040830192505060018101905061255b565b5050509392505050565b60006125a56125a08461312b565b6130e0565b905080828560208602820111156125bb57600080fd5b60005b858110156125eb57816125d188826126e2565b8452602084019350602083019250506001810190506125be565b5050509392505050565b600061260861260384613151565b6130e0565b9050808285602086028201111561261e57600080fd5b60005b8581101561264e578161263488826126f7565b845260208401935060208301925050600181019050612621565b5050509392505050565b600082601f83011261266957600080fd5b600261267684828561252f565b91505092915050565b600082601f83011261269057600080fd5b600261269d848285612592565b91505092915050565b600082601f8301126126b757600080fd5b60046126c48482856125f5565b91505092915050565b6000815190506126dc81613792565b92915050565b6000813590506126f1816137a9565b92915050565b600081359050612706816137c0565b92915050565b60006080828403121561271e57600080fd5b600061272c848285016126a6565b91505092915050565b60006020828403121561274757600080fd5b6000612755848285016126cd565b91505092915050565b60006020828403121561277057600080fd5b600061277e848285016126e2565b91505092915050565b600080600080610120858703121561279e57600080fd5b60006127ac878288016126e2565b94505060206127bd8782880161267f565b93505060606127ce87828801612658565b92505060e06127df8782880161267f565b91505092959194509250565b600080600080610120858703121561280257600080fd5b6000612810878288016126f7565b94505060206128218782880161267f565b935050606061283287828801612658565b92505060e06128438782880161267f565b91505092959194509250565b6000806040838503121561286257600080fd5b6000612870858286016126f7565b9250506020612881858286016126f7565b9150509250929050565b60006128978383612978565b60408301905092915050565b60006128af8383612d4e565b60208301905092915050565b6128c48161332d565b82525050565b6128d3816131b3565b6128dd8184613243565b92506128e882613177565b8060005b83811015612919578151612900878261288b565b965061290b836131f5565b9250506001810190506128ec565b505050505050565b61292a816131be565b612934818461324e565b925061293f82613181565b8060005b8381101561297057815161295787826128a3565b965061296283613202565b925050600181019050612943565b505050505050565b612981816131c9565b61298b8184613259565b92506129968261318b565b8060005b838110156129c75781516129ae87826128a3565b96506129b98361320f565b92505060018101905061299a565b505050505050565b6129d8816131c9565b6129e28184613264565b92506129ed8261318b565b8060005b83811015612a1e578151612a0587826128a3565b9650612a108361320f565b9250506001810190506129f1565b505050505050565b612a2f816131d4565b612a39818461326f565b9250612a4482613195565b8060005b83811015612a75578151612a5c87826128a3565b9650612a678361321c565b925050600181019050612a48565b505050505050565b612a86816131df565b612a90818461326f565b9250612a9b8261319f565b8060005b83811015612ad357612ab0826134d4565b612aba87826128a3565b9650612ac583613229565b925050600181019050612a9f565b505050505050565b612ae4816131ea565b612aee818461327a565b9250612af9826131a9565b8060005b83811015612b2a578151612b1187826128a3565b9650612b1c83613236565b925050600181019050612afd565b505050505050565b612b3b8161333f565b82525050565b6000612b4e601483613285565b9150612b5982613505565b602082019050919050565b6000612b71601483613285565b9150612b7c8261352e565b602082019050919050565b6000612b94601a83613285565b9150612b9f82613557565b602082019050919050565b6000612bb7601683613285565b9150612bc282613580565b602082019050919050565b6000612bda601783613285565b9150612be5826135a9565b602082019050919050565b6000612bfd601083613285565b9150612c08826135d2565b602082019050919050565b6000612c20602383613285565b9150612c2b826135fb565b604082019050919050565b6000612c43600f83613285565b9150612c4e8261364a565b602082019050919050565b6000612c66601883613285565b9150612c7182613673565b602082019050919050565b6000612c89601d83613285565b9150612c948261369c565b602082019050919050565b6000612cac601c83613285565b9150612cb7826136c5565b602082019050919050565b6000612ccf601483613285565b9150612cda826136ee565b602082019050919050565b6000612cf2601783613285565b9150612cfd82613717565b602082019050919050565b6000612d15601383613285565b9150612d2082613740565b602082019050919050565b6000612d38601483613285565b9150612d4382613769565b602082019050919050565b612d578161336b565b82525050565b612d668161336b565b82525050565b612d7581613375565b82525050565b6000602082019050612d9060008301846128bb565b92915050565b600061012082019050612dac60008301876129cf565b612db960408301866128ca565b612dc660c08301856129cf565b612dd4610100830184612921565b95945050505050565b600061018082019050612df360008301876129cf565b612e0060408301866128ca565b612e0d60c08301856129cf565b612e1b610100830184612a26565b95945050505050565b60006101c082019050612e3a60008301876129cf565b612e4760408301866128ca565b612e5460c08301856129cf565b612e62610100830184612adb565b95945050505050565b6000608082019050612e806000830184612a7d565b92915050565b6000602082019050612e9b6000830184612b32565b92915050565b60006020820190508181036000830152612eba81612b41565b9050919050565b60006020820190508181036000830152612eda81612b64565b9050919050565b60006020820190508181036000830152612efa81612b87565b9050919050565b60006020820190508181036000830152612f1a81612baa565b9050919050565b60006020820190508181036000830152612f3a81612bcd565b9050919050565b60006020820190508181036000830152612f5a81612bf0565b9050919050565b60006020820190508181036000830152612f7a81612c13565b9050919050565b60006020820190508181036000830152612f9a81612c36565b9050919050565b60006020820190508181036000830152612fba81612c59565b9050919050565b60006020820190508181036000830152612fda81612c7c565b9050919050565b60006020820190508181036000830152612ffa81612c9f565b9050919050565b6000602082019050818103600083015261301a81612cc2565b9050919050565b6000602082019050818103600083015261303a81612ce5565b9050919050565b6000602082019050818103600083015261305a81612d08565b9050919050565b6000602082019050818103600083015261307a81612d2b565b9050919050565b60006020820190506130966000830184612d5d565b92915050565b60006020820190506130b16000830184612d6c565b92915050565b60006040820190506130cc6000830185612d6c565b6130d96020830184612d6c565b9392505050565b60006130ea6130fb565b90506130f6828261339c565b919050565b6000604051905090565b600067ffffffffffffffff8211156131205761311f6134a5565b5b602082029050919050565b600067ffffffffffffffff821115613146576131456134a5565b5b602082029050919050565b600067ffffffffffffffff82111561316c5761316b6134a5565b5b602082029050919050565b6000819050919050565b6000819050919050565b6000819050919050565b6000819050919050565b6000819050919050565b6000819050919050565b600060029050919050565b600060019050919050565b600060029050919050565b600060049050919050565b600060049050919050565b600060069050919050565b6000602082019050919050565b6000602082019050919050565b6000602082019050919050565b6000602082019050919050565b6000600182019050919050565b6000602082019050919050565b600081905092915050565b600081905092915050565b600081905092915050565b600081905092915050565b600081905092915050565b600081905092915050565b600082825260208201905092915050565b60006132a18261336b565b91506132ac8361336b565b9250827fffffffffffffffffffffffffffffffffffffffffffffffffffffffffffffffff038211156132e1576132e0613447565b5b828201905092915050565b60006132f782613375565b915061330283613375565b92508260ff0382111561331857613317613447565b5b828201905092915050565b6000819050919050565b60006133388261334b565b9050919050565b60008115159050919050565b600073ffffffffffffffffffffffffffffffffffffffff82169050919050565b6000819050919050565b600060ff82169050919050565b6000613395613390836134f8565b613323565b9050919050565b6133a5826134e7565b810181811067ffffffffffffffff821117156133c4576133c36134a5565b5b80604052505050565b60006133d88261336b565b91507fffffffffffffffffffffffffffffffffffffffffffffffffffffffffffffffff82141561340b5761340a613447565b5b600182019050919050565b60006134218261336b565b915061342c8361336b565b92508261343c5761343b613476565b5b828206905092915050565b7f4e487b7100000000000000000000000000000000000000000000000000000000600052601160045260246000fd5b7f4e487b7100000000000000000000000000000000000000000000000000000000600052601260045260246000fd5b7f4e487b7100000000000000000000000000000000000000000000000000000000600052604160045260246000fd5b60006134e08254613382565b9050919050565b6000601f19601f8301169050919050565b60008160001c9050919050565b7f50656e64696e6720677565737320616e73776572000000000000000000000000600082015250565b7f47616d6520616c72656164792063726561746564000000000000000000000000600082015250565b7f47756573732069732070656e64696e67206f6620616e73776572000000000000600082015250565b7f47616d6520526f6f6d20616c72656164792066756c6c00000000000000000000600082015250565b7f50656e64696e67207175657374696f6e20616e73776572000000000000000000600082015250565b7f47616d65206e6f74207374617274656400000000000000000000000000000000600082015250565b7f4f6e6c792063757272656e7420706c61796572207475726e2063616e20616e7360008201527f7765720000000000000000000000000000000000000000000000000000000000602082015250565b7f4e6f7420706c61796572207475726e0000000000000000000000000000000000600082015250565b7f496e76616c6964207175657374696f6e20616e73776572210000000000000000600082015250565b7f5175657374696f6e2069732070656e64696e67206f6620616e73776572000000600082015250565b7f496e76616c6964206368617261637465722073656c656374696f6e2100000000600082015250565b7f506c617965722032206973206e6f74206a6f696e000000000000000000000000600082015250565b7f496e76616c696420677565737320726573706f6e736521000000000000000000600082015250565b7f506c6179657220616c7265616479206a6f696e00000000000000000000000000600082015250565b7f47616d6520616c72656164792073746172746564000000000000000000000000600082015250565b61379b8161333f565b81146137a657600080fd5b50565b6137b28161336b565b81146137bd57600080fd5b50565b6137c981613375565b81146137d457600080fd5b5056fea2646970667358221220f56bc3b7602043a8b56dc87ebca689751c96ff4cfd5440adc82b5a70eefe1f8464736f6c63430008040033",
  "linkReferences": {},
  "deployedLinkReferences": {}
}