{
  "_format": "hh-sol-artifact-1",
  "contractName": "Game",
  "sourceName": "contracts/Game.sol",
  "abi": [
    {
      "inputs": [
        {
          "internalType": "address",
          "name": "_verifierBoard",
          "type": "address"
        },
        {
          "internalType": "address",
          "name": "_verifierQuestion",
          "type": "address"
        },
        {
          "internalType": "address",
          "name": "_verifierGuess",
          "type": "address"
        }
      ],
      "stateMutability": "nonpayable",
      "type": "constructor"
    },
    {
      "anonymous": false,
      "inputs": [],
      "name": "GameCreated",
      "type": "event"
    },
    {
      "anonymous": false,
      "inputs": [
        {
          "indexed": false,
          "internalType": "uint256[4]",
          "name": "_guess",
          "type": "uint256[4]"
        }
      ],
      "name": "Guess",
      "type": "event"
    },
    {
      "anonymous": false,
      "inputs": [
        {
          "indexed": false,
          "internalType": "uint8",
          "name": "_answer",
          "type": "uint8"
        }
      ],
      "name": "GuessResponse",
      "type": "event"
    },
    {
      "anonymous": false,
      "inputs": [],
      "name": "Joined",
      "type": "event"
    },
    {
      "anonymous": false,
      "inputs": [
        {
          "indexed": false,
          "internalType": "uint8",
          "name": "_answer",
          "type": "uint8"
        }
      ],
      "name": "QuestionAnswered",
      "type": "event"
    },
    {
      "anonymous": false,
      "inputs": [
        {
          "indexed": false,
          "internalType": "uint8",
          "name": "_type",
          "type": "uint8"
        },
        {
          "indexed": false,
          "internalType": "uint8",
          "name": "_characteristic",
          "type": "uint8"
        }
      ],
      "name": "QuestionAsked",
      "type": "event"
    },
    {
      "inputs": [
        {
          "internalType": "uint8",
          "name": "_type",
          "type": "uint8"
        },
        {
          "internalType": "uint8",
          "name": "_characteristic",
          "type": "uint8"
        }
      ],
      "name": "ask",
      "outputs": [],
      "stateMutability": "nonpayable",
      "type": "function"
    },
    {
      "inputs": [
        {
          "internalType": "uint256",
          "name": "_hash",
          "type": "uint256"
        },
        {
          "internalType": "uint256[2]",
          "name": "a",
          "type": "uint256[2]"
        },
        {
          "internalType": "uint256[2][2]",
          "name": "b",
          "type": "uint256[2][2]"
        },
        {
          "internalType": "uint256[2]",
          "name": "c",
          "type": "uint256[2]"
        }
      ],
      "name": "createOrJoin",
      "outputs": [],
      "stateMutability": "nonpayable",
      "type": "function"
    },
    {
      "inputs": [],
      "name": "currentTurn",
      "outputs": [
        {
          "internalType": "uint256",
          "name": "",
          "type": "uint256"
        }
      ],
      "stateMutability": "view",
      "type": "function"
    },
    {
      "inputs": [
        {
          "internalType": "uint8[4]",
          "name": "_guess",
          "type": "uint8[4]"
        }
      ],
      "name": "guess",
      "outputs": [],
      "stateMutability": "nonpayable",
      "type": "function"
    },
    {
      "inputs": [
        {
          "internalType": "uint256",
          "name": "",
          "type": "uint256"
        }
      ],
      "name": "hash",
      "outputs": [
        {
          "internalType": "uint256",
          "name": "",
          "type": "uint256"
        }
      ],
      "stateMutability": "view",
      "type": "function"
    },
    {
      "inputs": [],
      "name": "hashByAccount",
      "outputs": [
        {
          "internalType": "uint256",
          "name": "",
          "type": "uint256"
        }
      ],
      "stateMutability": "view",
      "type": "function"
    },
    {
      "inputs": [],
      "name": "isAnswerTurn",
      "outputs": [
        {
          "internalType": "bool",
          "name": "",
          "type": "bool"
        }
      ],
      "stateMutability": "view",
      "type": "function"
    },
    {
      "inputs": [],
      "name": "isCreated",
      "outputs": [
        {
          "internalType": "bool",
          "name": "",
          "type": "bool"
        }
      ],
      "stateMutability": "view",
      "type": "function"
    },
    {
      "inputs": [],
      "name": "isPlayerInGame",
      "outputs": [
        {
          "internalType": "bool",
          "name": "",
          "type": "bool"
        }
      ],
      "stateMutability": "view",
      "type": "function"
    },
    {
      "inputs": [],
      "name": "isQuestionTurn",
      "outputs": [
        {
          "internalType": "bool",
          "name": "",
          "type": "bool"
        }
      ],
      "stateMutability": "view",
      "type": "function"
    },
    {
      "inputs": [],
      "name": "isStarted",
      "outputs": [
        {
          "internalType": "bool",
          "name": "",
          "type": "bool"
        }
      ],
      "stateMutability": "view",
      "type": "function"
    },
    {
      "inputs": [],
      "name": "isWinner",
      "outputs": [
        {
          "internalType": "bool",
          "name": "",
          "type": "bool"
        }
      ],
      "stateMutability": "view",
      "type": "function"
    },
    {
      "inputs": [
        {
          "internalType": "uint8",
          "name": "_won",
          "type": "uint8"
        },
        {
          "internalType": "uint256[2]",
          "name": "a",
          "type": "uint256[2]"
        },
        {
          "internalType": "uint256[2][2]",
          "name": "b",
          "type": "uint256[2][2]"
        },
        {
          "internalType": "uint256[2]",
          "name": "c",
          "type": "uint256[2]"
        }
      ],
      "name": "isWon",
      "outputs": [],
      "stateMutability": "nonpayable",
      "type": "function"
    },
    {
      "inputs": [],
      "name": "lastCharacteristic",
      "outputs": [
        {
          "internalType": "uint8",
          "name": "",
          "type": "uint8"
        }
      ],
      "stateMutability": "view",
      "type": "function"
    },
    {
      "inputs": [
        {
          "internalType": "uint256",
          "name": "",
          "type": "uint256"
        }
      ],
      "name": "lastGuess",
      "outputs": [
        {
          "internalType": "uint256",
          "name": "",
          "type": "uint256"
        }
      ],
      "stateMutability": "view",
      "type": "function"
    },
    {
      "inputs": [],
      "name": "lastResponse",
      "outputs": [
        {
          "internalType": "uint8",
          "name": "",
          "type": "uint8"
        }
      ],
      "stateMutability": "view",
      "type": "function"
    },
    {
      "inputs": [],
      "name": "lastType",
      "outputs": [
        {
          "internalType": "uint8",
          "name": "",
          "type": "uint8"
        }
      ],
      "stateMutability": "view",
      "type": "function"
    },
    {
      "inputs": [],
      "name": "owner",
      "outputs": [
        {
          "internalType": "address",
          "name": "",
          "type": "address"
        }
      ],
      "stateMutability": "view",
      "type": "function"
    },
    {
      "inputs": [
        {
          "internalType": "uint256",
          "name": "",
          "type": "uint256"
        }
      ],
      "name": "players",
      "outputs": [
        {
          "internalType": "address",
          "name": "",
          "type": "address"
        }
      ],
      "stateMutability": "view",
      "type": "function"
    },
    {
      "inputs": [],
      "name": "previousTurn",
      "outputs": [
        {
          "internalType": "uint256",
          "name": "",
          "type": "uint256"
        }
      ],
      "stateMutability": "view",
      "type": "function"
    },
    {
      "inputs": [],
      "name": "reset",
      "outputs": [],
      "stateMutability": "nonpayable",
      "type": "function"
    },
    {
      "inputs": [
        {
          "internalType": "uint8",
          "name": "_answer",
          "type": "uint8"
        },
        {
          "internalType": "uint256[2]",
          "name": "a",
          "type": "uint256[2]"
        },
        {
          "internalType": "uint256[2][2]",
          "name": "b",
          "type": "uint256[2][2]"
        },
        {
          "internalType": "uint256[2]",
          "name": "c",
          "type": "uint256[2]"
        }
      ],
      "name": "response",
      "outputs": [],
      "stateMutability": "nonpayable",
      "type": "function"
    },
    {
      "inputs": [],
      "name": "winner",
      "outputs": [
        {
          "internalType": "address",
          "name": "",
          "type": "address"
        }
      ],
      "stateMutability": "view",
      "type": "function"
    },
    {
      "inputs": [],
      "name": "won",
      "outputs": [
        {
          "internalType": "uint8",
          "name": "",
          "type": "uint8"
        }
      ],
      "stateMutability": "view",
      "type": "function"
    }
  ],
  "bytecode": "0x60806040523480156200001157600080fd5b5060405162003fae38038062003fae83398181016040528101906200003791906200015b565b82600b60006101000a81548173ffffffffffffffffffffffffffffffffffffffff021916908373ffffffffffffffffffffffffffffffffffffffff16021790555081600c60006101000a81548173ffffffffffffffffffffffffffffffffffffffff021916908373ffffffffffffffffffffffffffffffffffffffff16021790555080600d60006101000a81548173ffffffffffffffffffffffffffffffffffffffff021916908373ffffffffffffffffffffffffffffffffffffffff16021790555033600a60006101000a81548173ffffffffffffffffffffffffffffffffffffffff021916908373ffffffffffffffffffffffffffffffffffffffff160217905550505050620001ff565b6000815190506200015581620001e5565b92915050565b6000806000606084860312156200017157600080fd5b6000620001818682870162000144565b9350506020620001948682870162000144565b9250506040620001a78682870162000144565b9150509250925092565b6000620001be82620001c5565b9050919050565b600073ffffffffffffffffffffffffffffffffffffffff82169050919050565b620001f081620001b1565b8114620001fc57600080fd5b50565b613d9f806200020f6000396000f3fe608060405234801561001057600080fd5b50600436106101585760003560e01c8063ae43f848116100c3578063e602f7f71161007c578063e602f7f71461036f578063eea108c21461038b578063f250975c146103bb578063f4b7621c146103d9578063f71d96cb146103f7578063fabd2f9c1461042757610158565b8063ae43f848146102bf578063b189fd4c146102db578063d826f88f1461030b578063deb6128614610315578063dfbf53ae14610333578063e4cecb101461035157610158565b806362747e421161011557806362747e421461020d5780636c3668481461022b57806386174396146102475780638da5cb5b146102655780639f9a32b014610283578063a7acd341146102a157610158565b8063099c56cb1461015d57806312c8052f146101795780631a9b0b7c146101975780632e514438146101b5578063352e84a7146101d3578063544736e6146101ef575b600080fd5b61017760048036038101906101729190612cad565b610445565b005b6101816104be565b60405161018e9190613605565b60405180910390f35b61019f6104d1565b6040516101ac91906133cf565b60405180910390f35b6101bd610529565b6040516101ca91906135ea565b60405180910390f35b6101ed60048036038101906101e89190612d75565b61054b565b005b6101f7610819565b60405161020491906133cf565b60405180910390f35b6102156108f5565b6040516102229190613605565b60405180910390f35b61024560048036038101906102409190612d11565b610908565b005b61024f610d6d565b60405161025c91906133cf565b60405180910390f35b61026d610e93565b60405161027a91906132c4565b60405180910390f35b61028b610eb9565b6040516102989190613605565b60405180910390f35b6102a9610ecc565b6040516102b691906133cf565b60405180910390f35b6102d960048036038101906102d49190612d11565b610f63565b005b6102f560048036038101906102f09190612c84565b611300565b60405161030291906135ea565b60405180910390f35b61031361131b565b005b61031d61163f565b60405161032a91906135ea565b60405180910390f35b61033b611655565b60405161034891906132c4565b60405180910390f35b61035961167b565b60405161036691906135ea565b60405180910390f35b61038960048036038101906103849190612c32565b61182b565b005b6103a560048036038101906103a09190612c84565b611ad3565b6040516103b291906135ea565b60405180910390f35b6103c3611aee565b6040516103d09190613605565b60405180910390f35b6103e1611b01565b6040516103ee91906133cf565b60405180910390f35b610411600480360381019061040c9190612c84565b611c24565b60405161041e91906132c4565b60405180910390f35b61042f611c5a565b60405161043c91906133cf565b60405180910390f35b61044d610819565b1561048d576040517f08c379a00000000000000000000000000000000000000000000000000000000081526004016104849061346a565b60405180910390fd5b610495610d6d565b156104ab576104a684848484611cf1565b6104b8565b6104b7848484846121f1565b5b50505050565b600960039054906101000a900460ff1681565b6000600960049054906101000a900473ffffffffffffffffffffffffffffffffffffffff1673ffffffffffffffffffffffffffffffffffffffff163373ffffffffffffffffffffffffffffffffffffffff1614905090565b60006002600160045461053c91906137ff565b610546919061397f565b905090565b60006002600060028110610588577f4e487b7100000000000000000000000000000000000000000000000000000000600052603260045260246000fd5b015414156105cb576040517f08c379a00000000000000000000000000000000000000000000000000000000081526004016105c2906134aa565b60405180910390fd5b600073ffffffffffffffffffffffffffffffffffffffff16600060016002811061061e577f4e487b7100000000000000000000000000000000000000000000000000000000600052603260045260246000fd5b0160009054906101000a900473ffffffffffffffffffffffffffffffffffffffff1673ffffffffffffffffffffffffffffffffffffffff161415610697576040517f08c379a000000000000000000000000000000000000000000000000000000000815260040161068e9061356a565b60405180910390fd5b61069f610ecc565b6106de576040517f08c379a00000000000000000000000000000000000000000000000000000000081526004016106d5906134ea565b60405180910390fd5b6000600960029054906101000a900460ff1660ff161415610734576040517f08c379a000000000000000000000000000000000000000000000000000000000815260040161072b9061352a565b60405180910390fd5b6000600960039054906101000a900460ff1660ff16141561078a576040517f08c379a00000000000000000000000000000000000000000000000000000000081526004016107819061340a565b60405180910390fd5b81600960006101000a81548160ff021916908360ff16021790555080600960016101000a81548160ff021916908360ff1602179055506000600960026101000a81548160ff021916908360ff1602179055507f32a95ea2373c4d2cff10c37d2caf784dc5e400dc50924dc7042f3f9afb5a270f828260405161080d929190613620565b60405180910390a15050565b6000806002600060028110610857577f4e487b7100000000000000000000000000000000000000000000000000000000600052603260045260246000fd5b0154141580156108f05750600073ffffffffffffffffffffffffffffffffffffffff1660006001600281106108b5577f4e487b7100000000000000000000000000000000000000000000000000000000600052603260045260246000fd5b0160009054906101000a900473ffffffffffffffffffffffffffffffffffffffff1673ffffffffffffffffffffffffffffffffffffffff1614155b905090565b600960029054906101000a900460ff1681565b60006002600060028110610945577f4e487b7100000000000000000000000000000000000000000000000000000000600052603260045260246000fd5b01541415610988576040517f08c379a000000000000000000000000000000000000000000000000000000000815260040161097f906134aa565b60405180910390fd5b600073ffffffffffffffffffffffffffffffffffffffff1660006001600281106109db577f4e487b7100000000000000000000000000000000000000000000000000000000600052603260045260246000fd5b0160009054906101000a900473ffffffffffffffffffffffffffffffffffffffff1673ffffffffffffffffffffffffffffffffffffffff161415610a54576040517f08c379a0000000000000000000000000000000000000000000000000000000008152600401610a4b9061356a565b60405180910390fd5b610a5c611c5a565b610a9b576040517f08c379a0000000000000000000000000000000000000000000000000000000008152600401610a92906134ca565b60405180910390fd5b60006040518060c001604052808660ff1681526020016005600060048110610aec577f4e487b7100000000000000000000000000000000000000000000000000000000600052603260045260246000fd5b015481526020016005600160048110610b2e577f4e487b7100000000000000000000000000000000000000000000000000000000600052603260045260246000fd5b015481526020016005600260048110610b70577f4e487b7100000000000000000000000000000000000000000000000000000000600052603260045260246000fd5b015481526020016005600360048110610bb2577f4e487b7100000000000000000000000000000000000000000000000000000000600052603260045260246000fd5b015481526020016002610bc361163f565b60028110610bfa577f4e487b7100000000000000000000000000000000000000000000000000000000600052603260045260246000fd5b01548152509050600d60009054906101000a900473ffffffffffffffffffffffffffffffffffffffff1673ffffffffffffffffffffffffffffffffffffffff1663f398789b858585856040518563ffffffff1660e01b8152600401610c62949392919061336d565b60206040518083038186803b158015610c7a57600080fd5b505afa158015610c8e573d6000803e3d6000fd5b505050506040513d601f19601f82011682018060405250810190610cb29190612c5b565b610cf1576040517f08c379a0000000000000000000000000000000000000000000000000000000008152600401610ce89061358a565b60405180910390fd5b600185610cfe9190613855565b600960036101000a81548160ff021916908360ff160217905550610d206125a5565b7f321b96ee4065ea0954e60de9522d211aabbec3815b71688d7a79c8a19463d195600960039054906101000a900460ff16604051610d5e9190613605565b60405180910390a15050505050565b60008073ffffffffffffffffffffffffffffffffffffffff1660008060028110610dc0577f4e487b7100000000000000000000000000000000000000000000000000000000600052603260045260246000fd5b0160009054906101000a900473ffffffffffffffffffffffffffffffffffffffff1673ffffffffffffffffffffffffffffffffffffffff1614158015610e8e5750600073ffffffffffffffffffffffffffffffffffffffff166000600160028110610e54577f4e487b7100000000000000000000000000000000000000000000000000000000600052603260045260246000fd5b0160009054906101000a900473ffffffffffffffffffffffffffffffffffffffff1673ffffffffffffffffffffffffffffffffffffffff16145b905090565b600a60009054906101000a900473ffffffffffffffffffffffffffffffffffffffff1681565b600960009054906101000a900460ff1681565b600080610ed7610529565b60028110610f0e577f4e487b7100000000000000000000000000000000000000000000000000000000600052603260045260246000fd5b0160009054906101000a900473ffffffffffffffffffffffffffffffffffffffff1673ffffffffffffffffffffffffffffffffffffffff163373ffffffffffffffffffffffffffffffffffffffff1614905090565b60006002600060028110610fa0577f4e487b7100000000000000000000000000000000000000000000000000000000600052603260045260246000fd5b01541415610fe3576040517f08c379a0000000000000000000000000000000000000000000000000000000008152600401610fda906134aa565b60405180910390fd5b600073ffffffffffffffffffffffffffffffffffffffff166000600160028110611036577f4e487b7100000000000000000000000000000000000000000000000000000000600052603260045260246000fd5b0160009054906101000a900473ffffffffffffffffffffffffffffffffffffffff1673ffffffffffffffffffffffffffffffffffffffff1614156110af576040517f08c379a00000000000000000000000000000000000000000000000000000000081526004016110a69061356a565b60405180910390fd5b6110b7611c5a565b6110f6576040517f08c379a00000000000000000000000000000000000000000000000000000000081526004016110ed906134ca565b60405180910390fd5b600060405180608001604052808660ff168152602001600960009054906101000a900460ff1660ff168152602001600960019054906101000a900460ff1660ff168152602001600261114661163f565b6002811061117d577f4e487b7100000000000000000000000000000000000000000000000000000000600052603260045260246000fd5b01548152509050600c60009054906101000a900473ffffffffffffffffffffffffffffffffffffffff1673ffffffffffffffffffffffffffffffffffffffff16635fe8c13b858585856040518563ffffffff1660e01b81526004016111e59493929190613326565b60206040518083038186803b1580156111fd57600080fd5b505afa158015611211573d6000803e3d6000fd5b505050506040513d601f19601f820116820180604052508101906112359190612c5b565b611274576040517f08c379a000000000000000000000000000000000000000000000000000000000815260040161126b9061350a565b60405180910390fd5b6001856112819190613855565b600960026101000a81548160ff021916908360ff160217905550600460008154809291906112ae90613936565b91905055507fb9c2decafb8bb7052b7a1c4452beff9a62e1bbf436aa24e3f22e3dbfa05f1ca1600960029054906101000a900460ff166040516112f19190613605565b60405180910390a15050505050565b6002816002811061131057600080fd5b016000915090505481565b600a60009054906101000a900473ffffffffffffffffffffffffffffffffffffffff1673ffffffffffffffffffffffffffffffffffffffff163373ffffffffffffffffffffffffffffffffffffffff16146113ab576040517f08c379a00000000000000000000000000000000000000000000000000000000081526004016113a2906133ea565b60405180910390fd5b600060026000600281106113e8577f4e487b7100000000000000000000000000000000000000000000000000000000600052603260045260246000fd5b01819055506000600260016002811061142a577f4e487b7100000000000000000000000000000000000000000000000000000000600052603260045260246000fd5b018190555060008060006002811061146b577f4e487b7100000000000000000000000000000000000000000000000000000000600052603260045260246000fd5b0160006101000a81548173ffffffffffffffffffffffffffffffffffffffff021916908373ffffffffffffffffffffffffffffffffffffffff1602179055506000806001600281106114e6577f4e487b7100000000000000000000000000000000000000000000000000000000600052603260045260246000fd5b0160006101000a81548173ffffffffffffffffffffffffffffffffffffffff021916908373ffffffffffffffffffffffffffffffffffffffff16021790555060006004819055506003600960026101000a81548160ff021916908360ff1602179055506003600960036101000a81548160ff021916908360ff1602179055506000600960046101000a81548173ffffffffffffffffffffffffffffffffffffffff021916908373ffffffffffffffffffffffffffffffffffffffff1602179055506040518060800160405280600060ff168152602001600060ff168152602001600060ff168152602001600060ff1681525060059060046115e89291906129f3565b506000600960006101000a81548160ff021916908360ff1602179055506000600960016101000a81548160ff021916908360ff1602179055506000600960026101000a81548160ff021916908360ff160217905550565b60006002600454611650919061397f565b905090565b600960049054906101000a900473ffffffffffffffffffffffffffffffffffffffff1681565b6000806001600281106116b7577f4e487b7100000000000000000000000000000000000000000000000000000000600052603260045260246000fd5b0160009054906101000a900473ffffffffffffffffffffffffffffffffffffffff1673ffffffffffffffffffffffffffffffffffffffff163373ffffffffffffffffffffffffffffffffffffffff161415611750576002600160028110611747577f4e487b7100000000000000000000000000000000000000000000000000000000600052603260045260246000fd5b01549050611828565b6000806002811061178a577f4e487b7100000000000000000000000000000000000000000000000000000000600052603260045260246000fd5b0160009054906101000a900473ffffffffffffffffffffffffffffffffffffffff1673ffffffffffffffffffffffffffffffffffffffff163373ffffffffffffffffffffffffffffffffffffffff16141561182357600260006002811061181a577f4e487b7100000000000000000000000000000000000000000000000000000000600052603260045260246000fd5b01549050611828565b600090505b90565b60006002600060028110611868577f4e487b7100000000000000000000000000000000000000000000000000000000600052603260045260246000fd5b015414156118ab576040517f08c379a00000000000000000000000000000000000000000000000000000000081526004016118a2906134aa565b60405180910390fd5b600073ffffffffffffffffffffffffffffffffffffffff1660006001600281106118fe577f4e487b7100000000000000000000000000000000000000000000000000000000600052603260045260246000fd5b0160009054906101000a900473ffffffffffffffffffffffffffffffffffffffff1673ffffffffffffffffffffffffffffffffffffffff161415611977576040517f08c379a000000000000000000000000000000000000000000000000000000000815260040161196e9061356a565b60405180910390fd5b61197f610ecc565b6119be576040517f08c379a00000000000000000000000000000000000000000000000000000000081526004016119b5906134ea565b60405180910390fd5b6000600960039054906101000a900460ff1660ff161415611a14576040517f08c379a0000000000000000000000000000000000000000000000000000000008152600401611a0b9061344a565b60405180910390fd5b6000600960029054906101000a900460ff1660ff161415611a6a576040517f08c379a0000000000000000000000000000000000000000000000000000000008152600401611a619061348a565b60405180910390fd5b806005906004611a7b9291906129f3565b506000600960036101000a81548160ff021916908360ff1602179055507f5fbecfb9ebd9b032c64d3ad9e07a26c11d5cc0e530f3187f2f77087ea4ec622f6005604051611ac891906133b4565b60405180910390a150565b60058160048110611ae357600080fd5b016000915090505481565b600960019054906101000a900460ff1681565b600080600060028110611b3d577f4e487b7100000000000000000000000000000000000000000000000000000000600052603260045260246000fd5b0160009054906101000a900473ffffffffffffffffffffffffffffffffffffffff1673ffffffffffffffffffffffffffffffffffffffff163373ffffffffffffffffffffffffffffffffffffffff161480611c1f57506000600160028110611bce577f4e487b7100000000000000000000000000000000000000000000000000000000600052603260045260246000fd5b0160009054906101000a900473ffffffffffffffffffffffffffffffffffffffff1673ffffffffffffffffffffffffffffffffffffffff163373ffffffffffffffffffffffffffffffffffffffff16145b905090565b60008160028110611c3457600080fd5b016000915054906101000a900473ffffffffffffffffffffffffffffffffffffffff1681565b600080611c6561163f565b60028110611c9c577f4e487b7100000000000000000000000000000000000000000000000000000000600052603260045260246000fd5b0160009054906101000a900473ffffffffffffffffffffffffffffffffffffffff1673ffffffffffffffffffffffffffffffffffffffff163373ffffffffffffffffffffffffffffffffffffffff1614905090565b60006002600060028110611d2e577f4e487b7100000000000000000000000000000000000000000000000000000000600052603260045260246000fd5b01541415611d71576040517f08c379a0000000000000000000000000000000000000000000000000000000008152600401611d68906134aa565b60405180910390fd5b600073ffffffffffffffffffffffffffffffffffffffff166000600160028110611dc4577f4e487b7100000000000000000000000000000000000000000000000000000000600052603260045260246000fd5b0160009054906101000a900473ffffffffffffffffffffffffffffffffffffffff1673ffffffffffffffffffffffffffffffffffffffff1614611e3c576040517f08c379a0000000000000000000000000000000000000000000000000000000008152600401611e339061346a565b60405180910390fd5b3373ffffffffffffffffffffffffffffffffffffffff1660008060028110611e8d577f4e487b7100000000000000000000000000000000000000000000000000000000600052603260045260246000fd5b0160009054906101000a900473ffffffffffffffffffffffffffffffffffffffff1673ffffffffffffffffffffffffffffffffffffffff161415611f06576040517f08c379a0000000000000000000000000000000000000000000000000000000008152600401611efd906135aa565b60405180910390fd5b60006002600160028110611f43577f4e487b7100000000000000000000000000000000000000000000000000000000600052603260045260246000fd5b015414611f85576040517f08c379a0000000000000000000000000000000000000000000000000000000008152600401611f7c906135ca565b60405180910390fd5b60006040518060200160405280868152509050600b60009054906101000a900473ffffffffffffffffffffffffffffffffffffffff1673ffffffffffffffffffffffffffffffffffffffff166343753b4d858585856040518563ffffffff1660e01b8152600401611ff994939291906132df565b60206040518083038186803b15801561201157600080fd5b505afa158015612025573d6000803e3d6000fd5b505050506040513d601f19601f820116820180604052508101906120499190612c5b565b612088576040517f08c379a000000000000000000000000000000000000000000000000000000000815260040161207f9061354a565b60405180910390fd5b8460026001600281106120c4577f4e487b7100000000000000000000000000000000000000000000000000000000600052603260045260246000fd5b0181905550336000600160028110612105577f4e487b7100000000000000000000000000000000000000000000000000000000600052603260045260246000fd5b0160006101000a81548173ffffffffffffffffffffffffffffffffffffffff021916908373ffffffffffffffffffffffffffffffffffffffff1602179055506003600960026101000a81548160ff021916908360ff1602179055506003600960036101000a81548160ff021916908360ff1602179055506000600960046101000a81548173ffffffffffffffffffffffffffffffffffffffff021916908373ffffffffffffffffffffffffffffffffffffffff1602179055507f01bef3730c3b3c7a12797f6baa6ef0473275290438b5264ad09598751c13a10c60405160405180910390a15050505050565b600073ffffffffffffffffffffffffffffffffffffffff1660008060028110612243577f4e487b7100000000000000000000000000000000000000000000000000000000600052603260045260246000fd5b0160009054906101000a900473ffffffffffffffffffffffffffffffffffffffff1673ffffffffffffffffffffffffffffffffffffffff16146122bb576040517f08c379a00000000000000000000000000000000000000000000000000000000081526004016122b29061342a565b60405180910390fd5b600060026000600281106122f8577f4e487b7100000000000000000000000000000000000000000000000000000000600052603260045260246000fd5b01541461233a576040517f08c379a00000000000000000000000000000000000000000000000000000000081526004016123319061342a565b60405180910390fd5b60006040518060200160405280868152509050600b60009054906101000a900473ffffffffffffffffffffffffffffffffffffffff1673ffffffffffffffffffffffffffffffffffffffff166343753b4d858585856040518563ffffffff1660e01b81526004016123ae94939291906132df565b60206040518083038186803b1580156123c657600080fd5b505afa1580156123da573d6000803e3d6000fd5b505050506040513d601f19601f820116820180604052508101906123fe9190612c5b565b61243d576040517f08c379a00000000000000000000000000000000000000000000000000000000081526004016124349061354a565b60405180910390fd5b846002600060028110612479577f4e487b7100000000000000000000000000000000000000000000000000000000600052603260045260246000fd5b018190555033600080600281106124b9577f4e487b7100000000000000000000000000000000000000000000000000000000600052603260045260246000fd5b0160006101000a81548173ffffffffffffffffffffffffffffffffffffffff021916908373ffffffffffffffffffffffffffffffffffffffff1602179055506003600960026101000a81548160ff021916908360ff1602179055506003600960036101000a81548160ff021916908360ff1602179055506000600960046101000a81548173ffffffffffffffffffffffffffffffffffffffff021916908373ffffffffffffffffffffffffffffffffffffffff1602179055507f151802685129c44d0dd1313fc103826047d8aac8add2f9aec41ea52a69f2495d60405160405180910390a15050505050565b600060026000600281106125e2577f4e487b7100000000000000000000000000000000000000000000000000000000600052603260045260246000fd5b01541415612625576040517f08c379a000000000000000000000000000000000000000000000000000000000815260040161261c906134aa565b60405180910390fd5b600073ffffffffffffffffffffffffffffffffffffffff166000600160028110612678577f4e487b7100000000000000000000000000000000000000000000000000000000600052603260045260246000fd5b0160009054906101000a900473ffffffffffffffffffffffffffffffffffffffff1673ffffffffffffffffffffffffffffffffffffffff1614156126f1576040517f08c379a00000000000000000000000000000000000000000000000000000000081526004016126e89061356a565b60405180910390fd5b6002600960039054906101000a900460ff1660ff1614156127b0576000612716610529565b6002811061274d577f4e487b7100000000000000000000000000000000000000000000000000000000600052603260045260246000fd5b0160009054906101000a900473ffffffffffffffffffffffffffffffffffffffff16600960046101000a81548173ffffffffffffffffffffffffffffffffffffffff021916908373ffffffffffffffffffffffffffffffffffffffff1602179055505b6001600960039054906101000a900460ff1660ff16141561286f5760006127d561163f565b6002811061280c577f4e487b7100000000000000000000000000000000000000000000000000000000600052603260045260246000fd5b0160009054906101000a900473ffffffffffffffffffffffffffffffffffffffff16600960046101000a81548173ffffffffffffffffffffffffffffffffffffffff021916908373ffffffffffffffffffffffffffffffffffffffff1602179055505b600060026000600281106128ac577f4e487b7100000000000000000000000000000000000000000000000000000000600052603260045260246000fd5b0181905550600060026001600281106128ee577f4e487b7100000000000000000000000000000000000000000000000000000000600052603260045260246000fd5b01819055506000600481905550600080600060028110612937577f4e487b7100000000000000000000000000000000000000000000000000000000600052603260045260246000fd5b0160006101000a81548173ffffffffffffffffffffffffffffffffffffffff021916908373ffffffffffffffffffffffffffffffffffffffff1602179055506000806001600281106129b2577f4e487b7100000000000000000000000000000000000000000000000000000000600052603260045260246000fd5b0160006101000a81548173ffffffffffffffffffffffffffffffffffffffff021916908373ffffffffffffffffffffffffffffffffffffffff160217905550565b8260048101928215612a27579160200282015b82811115612a26578251829060ff16905591602001919060010190612a06565b5b509050612a349190612a38565b5090565b5b80821115612a51576000816000905550600101612a39565b5090565b6000612a68612a638461366e565b613649565b90508082856040860282011115612a7e57600080fd5b60005b85811015612aae5781612a948882612ba5565b845260208401935060408301925050600181019050612a81565b5050509392505050565b6000612acb612ac684613694565b613649565b90508082856020860282011115612ae157600080fd5b60005b85811015612b115781612af78882612c08565b845260208401935060208301925050600181019050612ae4565b5050509392505050565b6000612b2e612b29846136ba565b613649565b90508082856020860282011115612b4457600080fd5b60005b85811015612b745781612b5a8882612c1d565b845260208401935060208301925050600181019050612b47565b5050509392505050565b600082601f830112612b8f57600080fd5b6002612b9c848285612a55565b91505092915050565b600082601f830112612bb657600080fd5b6002612bc3848285612ab8565b91505092915050565b600082601f830112612bdd57600080fd5b6004612bea848285612b1b565b91505092915050565b600081519050612c0281613d24565b92915050565b600081359050612c1781613d3b565b92915050565b600081359050612c2c81613d52565b92915050565b600060808284031215612c4457600080fd5b6000612c5284828501612bcc565b91505092915050565b600060208284031215612c6d57600080fd5b6000612c7b84828501612bf3565b91505092915050565b600060208284031215612c9657600080fd5b6000612ca484828501612c08565b91505092915050565b6000806000806101208587031215612cc457600080fd5b6000612cd287828801612c08565b9450506020612ce387828801612ba5565b9350506060612cf487828801612b7e565b92505060e0612d0587828801612ba5565b91505092959194509250565b6000806000806101208587031215612d2857600080fd5b6000612d3687828801612c1d565b9450506020612d4787828801612ba5565b9350506060612d5887828801612b7e565b92505060e0612d6987828801612ba5565b91505092959194509250565b60008060408385031215612d8857600080fd5b6000612d9685828601612c1d565b9250506020612da785828601612c1d565b9150509250929050565b6000612dbd8383612e9e565b60408301905092915050565b6000612dd58383613297565b60208301905092915050565b612dea81613896565b82525050565b612df98161371c565b612e0381846137ac565b9250612e0e826136e0565b8060005b83811015612e3f578151612e268782612db1565b9650612e318361375e565b925050600181019050612e12565b505050505050565b612e5081613727565b612e5a81846137b7565b9250612e65826136ea565b8060005b83811015612e96578151612e7d8782612dc9565b9650612e888361376b565b925050600181019050612e69565b505050505050565b612ea781613732565b612eb181846137c2565b9250612ebc826136f4565b8060005b83811015612eed578151612ed48782612dc9565b9650612edf83613778565b925050600181019050612ec0565b505050505050565b612efe81613732565b612f0881846137cd565b9250612f13826136f4565b8060005b83811015612f44578151612f2b8782612dc9565b9650612f3683613778565b925050600181019050612f17565b505050505050565b612f558161373d565b612f5f81846137d8565b9250612f6a826136fe565b8060005b83811015612f9b578151612f828782612dc9565b9650612f8d83613785565b925050600181019050612f6e565b505050505050565b612fac81613748565b612fb681846137d8565b9250612fc182613708565b8060005b83811015612ff957612fd682613a3d565b612fe08782612dc9565b9650612feb83613792565b925050600181019050612fc5565b505050505050565b61300a81613753565b61301481846137e3565b925061301f82613712565b8060005b838110156130505781516130378782612dc9565b96506130428361379f565b925050600181019050613023565b505050505050565b613061816138a8565b82525050565b60006130746014836137ee565b915061307f82613a6e565b602082019050919050565b60006130976014836137ee565b91506130a282613a97565b602082019050919050565b60006130ba6014836137ee565b91506130c582613ac0565b602082019050919050565b60006130dd601a836137ee565b91506130e882613ae9565b602082019050919050565b60006131006016836137ee565b915061310b82613b12565b602082019050919050565b60006131236017836137ee565b915061312e82613b3b565b602082019050919050565b60006131466010836137ee565b915061315182613b64565b602082019050919050565b60006131696023836137ee565b915061317482613b8d565b604082019050919050565b600061318c600f836137ee565b915061319782613bdc565b602082019050919050565b60006131af6018836137ee565b91506131ba82613c05565b602082019050919050565b60006131d2601d836137ee565b91506131dd82613c2e565b602082019050919050565b60006131f5601c836137ee565b915061320082613c57565b602082019050919050565b60006132186014836137ee565b915061322382613c80565b602082019050919050565b600061323b6017836137ee565b915061324682613ca9565b602082019050919050565b600061325e6013836137ee565b915061326982613cd2565b602082019050919050565b60006132816014836137ee565b915061328c82613cfb565b602082019050919050565b6132a0816138d4565b82525050565b6132af816138d4565b82525050565b6132be816138de565b82525050565b60006020820190506132d96000830184612de1565b92915050565b6000610120820190506132f56000830187612ef5565b6133026040830186612df0565b61330f60c0830185612ef5565b61331d610100830184612e47565b95945050505050565b60006101808201905061333c6000830187612ef5565b6133496040830186612df0565b61335660c0830185612ef5565b613364610100830184612f4c565b95945050505050565b60006101c0820190506133836000830187612ef5565b6133906040830186612df0565b61339d60c0830185612ef5565b6133ab610100830184613001565b95945050505050565b60006080820190506133c96000830184612fa3565b92915050565b60006020820190506133e46000830184613058565b92915050565b6000602082019050818103600083015261340381613067565b9050919050565b600060208201905081810360008301526134238161308a565b9050919050565b60006020820190508181036000830152613443816130ad565b9050919050565b60006020820190508181036000830152613463816130d0565b9050919050565b60006020820190508181036000830152613483816130f3565b9050919050565b600060208201905081810360008301526134a381613116565b9050919050565b600060208201905081810360008301526134c381613139565b9050919050565b600060208201905081810360008301526134e38161315c565b9050919050565b600060208201905081810360008301526135038161317f565b9050919050565b60006020820190508181036000830152613523816131a2565b9050919050565b60006020820190508181036000830152613543816131c5565b9050919050565b60006020820190508181036000830152613563816131e8565b9050919050565b600060208201905081810360008301526135838161320b565b9050919050565b600060208201905081810360008301526135a38161322e565b9050919050565b600060208201905081810360008301526135c381613251565b9050919050565b600060208201905081810360008301526135e381613274565b9050919050565b60006020820190506135ff60008301846132a6565b92915050565b600060208201905061361a60008301846132b5565b92915050565b600060408201905061363560008301856132b5565b61364260208301846132b5565b9392505050565b6000613653613664565b905061365f8282613905565b919050565b6000604051905090565b600067ffffffffffffffff82111561368957613688613a0e565b5b602082029050919050565b600067ffffffffffffffff8211156136af576136ae613a0e565b5b602082029050919050565b600067ffffffffffffffff8211156136d5576136d4613a0e565b5b602082029050919050565b6000819050919050565b6000819050919050565b6000819050919050565b6000819050919050565b6000819050919050565b6000819050919050565b600060029050919050565b600060019050919050565b600060029050919050565b600060049050919050565b600060049050919050565b600060069050919050565b6000602082019050919050565b6000602082019050919050565b6000602082019050919050565b6000602082019050919050565b6000600182019050919050565b6000602082019050919050565b600081905092915050565b600081905092915050565b600081905092915050565b600081905092915050565b600081905092915050565b600081905092915050565b600082825260208201905092915050565b600061380a826138d4565b9150613815836138d4565b9250827fffffffffffffffffffffffffffffffffffffffffffffffffffffffffffffffff0382111561384a576138496139b0565b5b828201905092915050565b6000613860826138de565b915061386b836138de565b92508260ff03821115613881576138806139b0565b5b828201905092915050565b6000819050919050565b60006138a1826138b4565b9050919050565b60008115159050919050565b600073ffffffffffffffffffffffffffffffffffffffff82169050919050565b6000819050919050565b600060ff82169050919050565b60006138fe6138f983613a61565b61388c565b9050919050565b61390e82613a50565b810181811067ffffffffffffffff8211171561392d5761392c613a0e565b5b80604052505050565b6000613941826138d4565b91507fffffffffffffffffffffffffffffffffffffffffffffffffffffffffffffffff821415613974576139736139b0565b5b600182019050919050565b600061398a826138d4565b9150613995836138d4565b9250826139a5576139a46139df565b5b828206905092915050565b7f4e487b7100000000000000000000000000000000000000000000000000000000600052601160045260246000fd5b7f4e487b7100000000000000000000000000000000000000000000000000000000600052601260045260246000fd5b7f4e487b7100000000000000000000000000000000000000000000000000000000600052604160045260246000fd5b6000613a4982546138eb565b9050919050565b6000601f19601f8301169050919050565b60008160001c9050919050565b7f4f6e6c79206f776e65722063616e207265736574000000000000000000000000600082015250565b7f50656e64696e6720677565737320616e73776572000000000000000000000000600082015250565b7f47616d6520616c72656164792063726561746564000000000000000000000000600082015250565b7f47756573732069732070656e64696e67206f6620616e73776572000000000000600082015250565b7f47616d6520526f6f6d20616c72656164792066756c6c00000000000000000000600082015250565b7f50656e64696e67207175657374696f6e20616e73776572000000000000000000600082015250565b7f47616d65206e6f74207374617274656400000000000000000000000000000000600082015250565b7f4f6e6c792063757272656e7420706c61796572207475726e2063616e20616e7360008201527f7765720000000000000000000000000000000000000000000000000000000000602082015250565b7f4e6f7420706c61796572207475726e0000000000000000000000000000000000600082015250565b7f496e76616c6964207175657374696f6e20616e73776572210000000000000000600082015250565b7f5175657374696f6e2069732070656e64696e67206f6620616e73776572000000600082015250565b7f496e76616c6964206368617261637465722073656c656374696f6e2100000000600082015250565b7f506c617965722032206973206e6f74206a6f696e000000000000000000000000600082015250565b7f496e76616c696420677565737320726573706f6e736521000000000000000000600082015250565b7f506c6179657220616c7265616479206a6f696e00000000000000000000000000600082015250565b7f47616d6520616c72656164792073746172746564000000000000000000000000600082015250565b613d2d816138a8565b8114613d3857600080fd5b50565b613d44816138d4565b8114613d4f57600080fd5b50565b613d5b816138de565b8114613d6657600080fd5b5056fea26469706673582212208435059a9681eb16d3010c5b494f22c7e509fbe6d79d9114514f4c2ca4b078f564736f6c63430008040033",
  "linkReferences": {},
  "deployedLinkReferences": {}
}