{
  "_format": "hh-sol-artifact-1",
  "contractName": "Game",
  "sourceName": "contracts/Game.sol",
  "abi": [
    {
      "inputs": [
        {
          "internalType": "address",
          "name": "_verifierBoard",
          "type": "address"
        },
        {
          "internalType": "address",
          "name": "_verifierQuestion",
          "type": "address"
        },
        {
          "internalType": "address",
          "name": "_verifierGuess",
          "type": "address"
        }
      ],
      "stateMutability": "nonpayable",
      "type": "constructor"
    },
    {
      "anonymous": false,
      "inputs": [
        {
          "indexed": false,
          "internalType": "uint256[4]",
          "name": "_guess",
          "type": "uint256[4]"
        }
      ],
      "name": "Guess",
      "type": "event"
    },
    {
      "anonymous": false,
      "inputs": [
        {
          "indexed": false,
          "internalType": "uint8",
          "name": "_answer",
          "type": "uint8"
        }
      ],
      "name": "GuessResponse",
      "type": "event"
    },
    {
      "anonymous": false,
      "inputs": [
        {
          "indexed": false,
          "internalType": "uint8",
          "name": "_answer",
          "type": "uint8"
        }
      ],
      "name": "QuestionAnswered",
      "type": "event"
    },
    {
      "anonymous": false,
      "inputs": [
        {
          "indexed": false,
          "internalType": "uint8",
          "name": "_type",
          "type": "uint8"
        },
        {
          "indexed": false,
          "internalType": "uint8",
          "name": "_characteristic",
          "type": "uint8"
        }
      ],
      "name": "QuestionAsked",
      "type": "event"
    },
    {
      "inputs": [
        {
          "internalType": "uint8",
          "name": "_type",
          "type": "uint8"
        },
        {
          "internalType": "uint8",
          "name": "_characteristic",
          "type": "uint8"
        }
      ],
      "name": "ask",
      "outputs": [],
      "stateMutability": "nonpayable",
      "type": "function"
    },
    {
      "inputs": [],
      "name": "creator",
      "outputs": [
        {
          "internalType": "address",
          "name": "",
          "type": "address"
        }
      ],
      "stateMutability": "view",
      "type": "function"
    },
    {
      "inputs": [
        {
          "internalType": "uint8[4]",
          "name": "_guess",
          "type": "uint8[4]"
        }
      ],
      "name": "guess",
      "outputs": [],
      "stateMutability": "nonpayable",
      "type": "function"
    },
    {
      "inputs": [],
      "name": "hash",
      "outputs": [
        {
          "internalType": "uint256",
          "name": "",
          "type": "uint256"
        }
      ],
      "stateMutability": "view",
      "type": "function"
    },
    {
      "inputs": [],
      "name": "isGameCreator",
      "outputs": [
        {
          "internalType": "bool",
          "name": "",
          "type": "bool"
        }
      ],
      "stateMutability": "view",
      "type": "function"
    },
    {
      "inputs": [],
      "name": "isStarted",
      "outputs": [
        {
          "internalType": "bool",
          "name": "",
          "type": "bool"
        }
      ],
      "stateMutability": "view",
      "type": "function"
    },
    {
      "inputs": [
        {
          "internalType": "uint8",
          "name": "_won",
          "type": "uint8"
        },
        {
          "internalType": "uint256[2]",
          "name": "a",
          "type": "uint256[2]"
        },
        {
          "internalType": "uint256[2][2]",
          "name": "b",
          "type": "uint256[2][2]"
        },
        {
          "internalType": "uint256[2]",
          "name": "c",
          "type": "uint256[2]"
        }
      ],
      "name": "isWon",
      "outputs": [],
      "stateMutability": "nonpayable",
      "type": "function"
    },
    {
      "inputs": [],
      "name": "lastCharacteristic",
      "outputs": [
        {
          "internalType": "uint8",
          "name": "",
          "type": "uint8"
        }
      ],
      "stateMutability": "view",
      "type": "function"
    },
    {
      "inputs": [
        {
          "internalType": "uint256",
          "name": "",
          "type": "uint256"
        }
      ],
      "name": "lastGuess",
      "outputs": [
        {
          "internalType": "uint256",
          "name": "",
          "type": "uint256"
        }
      ],
      "stateMutability": "view",
      "type": "function"
    },
    {
      "inputs": [],
      "name": "lastResponse",
      "outputs": [
        {
          "internalType": "uint8",
          "name": "",
          "type": "uint8"
        }
      ],
      "stateMutability": "view",
      "type": "function"
    },
    {
      "inputs": [],
      "name": "lastType",
      "outputs": [
        {
          "internalType": "uint8",
          "name": "",
          "type": "uint8"
        }
      ],
      "stateMutability": "view",
      "type": "function"
    },
    {
      "inputs": [
        {
          "internalType": "uint8",
          "name": "_answer",
          "type": "uint8"
        },
        {
          "internalType": "uint256[2]",
          "name": "a",
          "type": "uint256[2]"
        },
        {
          "internalType": "uint256[2][2]",
          "name": "b",
          "type": "uint256[2][2]"
        },
        {
          "internalType": "uint256[2]",
          "name": "c",
          "type": "uint256[2]"
        }
      ],
      "name": "response",
      "outputs": [],
      "stateMutability": "nonpayable",
      "type": "function"
    },
    {
      "inputs": [
        {
          "internalType": "uint256",
          "name": "_hash",
          "type": "uint256"
        },
        {
          "internalType": "uint256[2]",
          "name": "a",
          "type": "uint256[2]"
        },
        {
          "internalType": "uint256[2][2]",
          "name": "b",
          "type": "uint256[2][2]"
        },
        {
          "internalType": "uint256[2]",
          "name": "c",
          "type": "uint256[2]"
        }
      ],
      "name": "start",
      "outputs": [],
      "stateMutability": "nonpayable",
      "type": "function"
    },
    {
      "inputs": [],
      "name": "won",
      "outputs": [
        {
          "internalType": "uint8",
          "name": "",
          "type": "uint8"
        }
      ],
      "stateMutability": "view",
      "type": "function"
    }
  ],
  "bytecode": "0x60806040523480156200001157600080fd5b5060405162001f2738038062001f2783398181016040528101906200003791906200011a565b82600860006101000a81548173ffffffffffffffffffffffffffffffffffffffff021916908373ffffffffffffffffffffffffffffffffffffffff16021790555081600960006101000a81548173ffffffffffffffffffffffffffffffffffffffff021916908373ffffffffffffffffffffffffffffffffffffffff16021790555080600a60006101000a81548173ffffffffffffffffffffffffffffffffffffffff021916908373ffffffffffffffffffffffffffffffffffffffff160217905550505050620001be565b6000815190506200011481620001a4565b92915050565b6000806000606084860312156200013057600080fd5b6000620001408682870162000103565b9350506020620001538682870162000103565b9250506040620001668682870162000103565b9150509250925092565b60006200017d8262000184565b9050919050565b600073ffffffffffffffffffffffffffffffffffffffff82169050919050565b620001af8162000170565b8114620001bb57600080fd5b50565b611d5980620001ce6000396000f3fe608060405234801561001057600080fd5b50600436106100ea5760003560e01c80636c3668481161008c578063b85f46eb11610066578063b85f46eb14610215578063e602f7f714610231578063eea108c21461024d578063f250975c1461027d576100ea565b80636c366848146101bf5780639f9a32b0146101db578063ae43f848146101f9576100ea565b8063350a66c0116100c8578063350a66c014610149578063352e84a714610167578063544736e61461018357806362747e42146101a1576100ea565b806302d05d3f146100ef57806309bd5a601461010d57806312c8052f1461012b575b600080fd5b6100f761029b565b60405161010491906115c5565b60405180910390f35b6101156102c1565b60405161012291906117eb565b60405180910390f35b6101336102c7565b6040516101409190611806565b60405180910390f35b6101516102da565b60405161015e91906116d0565b60405180910390f35b610181600480360381019061017c919061118e565b610332565b005b61018b61045a565b60405161019891906116d0565b60405180910390f35b6101a9610467565b6040516101b69190611806565b60405180910390f35b6101d960048036038101906101d4919061112a565b61047a565b005b6101e36107e1565b6040516101f09190611806565b60405180910390f35b610213600480360381019061020e919061112a565b6107f2565b005b61022f600480360381019061022a91906110c6565b610a78565b005b61024b6004803603810190610246919061104b565b610c47565b005b6102676004803603810190610262919061109d565b610d4c565b60405161027491906117eb565b60405180910390f35b610285610d67565b6040516102929190611806565b60405180910390f35b600760009054906101000a900473ffffffffffffffffffffffffffffffffffffffff1681565b60065481565b600560009054906101000a900460ff1681565b6000600760009054906101000a900473ffffffffffffffffffffffffffffffffffffffff1673ffffffffffffffffffffffffffffffffffffffff163373ffffffffffffffffffffffffffffffffffffffff1614905090565b60006006541415610378576040517f08c379a000000000000000000000000000000000000000000000000000000000815260040161036f9061172b565b60405180910390fd5b60008060029054906101000a900460ff1660ff1614156103cd576040517f08c379a00000000000000000000000000000000000000000000000000000000081526004016103c49061178b565b60405180910390fd5b816000806101000a81548160ff021916908360ff16021790555080600060016101000a81548160ff021916908360ff16021790555060008060026101000a81548160ff021916908360ff1602179055507f32a95ea2373c4d2cff10c37d2caf784dc5e400dc50924dc7042f3f9afb5a270f828260405161044e929190611821565b60405180910390a15050565b6000806006541415905090565b600060029054906101000a900460ff1681565b600060065414156104c0576040517f08c379a00000000000000000000000000000000000000000000000000000000081526004016104b79061172b565b60405180910390fd5b600760009054906101000a900473ffffffffffffffffffffffffffffffffffffffff1673ffffffffffffffffffffffffffffffffffffffff163373ffffffffffffffffffffffffffffffffffffffff1614610550576040517f08c379a00000000000000000000000000000000000000000000000000000000081526004016105479061174b565b60405180910390fd5b60006040518060c001604052808660ff16815260200160016000600481106105a1577f4e487b7100000000000000000000000000000000000000000000000000000000600052603260045260246000fd5b01548152602001600180600481106105e2577f4e487b7100000000000000000000000000000000000000000000000000000000600052603260045260246000fd5b015481526020016001600260048110610624577f4e487b7100000000000000000000000000000000000000000000000000000000600052603260045260246000fd5b015481526020016001600360048110610666577f4e487b7100000000000000000000000000000000000000000000000000000000600052603260045260246000fd5b015481526020016006548152509050600a60009054906101000a900473ffffffffffffffffffffffffffffffffffffffff1673ffffffffffffffffffffffffffffffffffffffff1663f398789b858585856040518563ffffffff1660e01b81526004016106d6949392919061166e565b60206040518083038186803b1580156106ee57600080fd5b505afa158015610702573d6000803e3d6000fd5b505050506040513d601f19601f820116820180604052508101906107269190611074565b610765576040517f08c379a000000000000000000000000000000000000000000000000000000000815260040161075c906117cb565b60405180910390fd5b6001856107729190611a00565b600560006101000a81548160ff021916908360ff160217905550610794610d7a565b7f321b96ee4065ea0954e60de9522d211aabbec3815b71688d7a79c8a19463d195600560009054906101000a900460ff166040516107d29190611806565b60405180910390a15050505050565b60008054906101000a900460ff1681565b60006006541415610838576040517f08c379a000000000000000000000000000000000000000000000000000000000815260040161082f9061172b565b60405180910390fd5b600760009054906101000a900473ffffffffffffffffffffffffffffffffffffffff1673ffffffffffffffffffffffffffffffffffffffff163373ffffffffffffffffffffffffffffffffffffffff16146108c8576040517f08c379a00000000000000000000000000000000000000000000000000000000081526004016108bf9061174b565b60405180910390fd5b600060405180608001604052808660ff16815260200160008054906101000a900460ff1660ff168152602001600060019054906101000a900460ff1660ff1681526020016006548152509050600960009054906101000a900473ffffffffffffffffffffffffffffffffffffffff1673ffffffffffffffffffffffffffffffffffffffff16635fe8c13b858585856040518563ffffffff1660e01b81526004016109759493929190611627565b60206040518083038186803b15801561098d57600080fd5b505afa1580156109a1573d6000803e3d6000fd5b505050506040513d601f19601f820116820180604052508101906109c59190611074565b610a04576040517f08c379a00000000000000000000000000000000000000000000000000000000081526004016109fb9061176b565b60405180910390fd5b600185610a119190611a00565b600060026101000a81548160ff021916908360ff1602179055507fb9c2decafb8bb7052b7a1c4452beff9a62e1bbf436aa24e3f22e3dbfa05f1ca1600060029054906101000a900460ff16604051610a699190611806565b60405180910390a15050505050565b600060065414610abd576040517f08c379a0000000000000000000000000000000000000000000000000000000008152600401610ab4906116eb565b60405180910390fd5b60006040518060200160405280868152509050600860009054906101000a900473ffffffffffffffffffffffffffffffffffffffff1673ffffffffffffffffffffffffffffffffffffffff166343753b4d858585856040518563ffffffff1660e01b8152600401610b3194939291906115e0565b60206040518083038186803b158015610b4957600080fd5b505afa158015610b5d573d6000803e3d6000fd5b505050506040513d601f19601f82011682018060405250810190610b819190611074565b610bc0576040517f08c379a0000000000000000000000000000000000000000000000000000000008152600401610bb7906117ab565b60405180910390fd5b8460068190555033600760006101000a81548173ffffffffffffffffffffffffffffffffffffffff021916908373ffffffffffffffffffffffffffffffffffffffff1602179055506003600060026101000a81548160ff021916908360ff1602179055506003600560006101000a81548160ff021916908360ff1602179055505050505050565b60006006541415610c8d576040517f08c379a0000000000000000000000000000000000000000000000000000000008152600401610c849061172b565b60405180910390fd5b6000600560009054906101000a900460ff1660ff161415610ce3576040517f08c379a0000000000000000000000000000000000000000000000000000000008152600401610cda9061170b565b60405180910390fd5b806001906004610cf4929190610e0c565b506000600560006101000a81548160ff021916908360ff1602179055507f5fbecfb9ebd9b032c64d3ad9e07a26c11d5cc0e530f3187f2f77087ea4ec622f6001604051610d4191906116b5565b60405180910390a150565b60018160048110610d5c57600080fd5b016000915090505481565b600060019054906101000a900460ff1681565b60006006541415610dc0576040517f08c379a0000000000000000000000000000000000000000000000000000000008152600401610db79061172b565b60405180910390fd5b60006006819055506000600760006101000a81548173ffffffffffffffffffffffffffffffffffffffff021916908373ffffffffffffffffffffffffffffffffffffffff160217905550565b8260048101928215610e40579160200282015b82811115610e3f578251829060ff16905591602001919060010190610e1f565b5b509050610e4d9190610e51565b5090565b5b80821115610e6a576000816000905550600101610e52565b5090565b6000610e81610e7c8461186f565b61184a565b90508082856040860282011115610e9757600080fd5b60005b85811015610ec75781610ead8882610fbe565b845260208401935060408301925050600181019050610e9a565b5050509392505050565b6000610ee4610edf84611895565b61184a565b90508082856020860282011115610efa57600080fd5b60005b85811015610f2a5781610f108882611021565b845260208401935060208301925050600181019050610efd565b5050509392505050565b6000610f47610f42846118bb565b61184a565b90508082856020860282011115610f5d57600080fd5b60005b85811015610f8d5781610f738882611036565b845260208401935060208301925050600181019050610f60565b5050509392505050565b600082601f830112610fa857600080fd5b6002610fb5848285610e6e565b91505092915050565b600082601f830112610fcf57600080fd5b6002610fdc848285610ed1565b91505092915050565b600082601f830112610ff657600080fd5b6004611003848285610f34565b91505092915050565b60008151905061101b81611cde565b92915050565b60008135905061103081611cf5565b92915050565b60008135905061104581611d0c565b92915050565b60006080828403121561105d57600080fd5b600061106b84828501610fe5565b91505092915050565b60006020828403121561108657600080fd5b60006110948482850161100c565b91505092915050565b6000602082840312156110af57600080fd5b60006110bd84828501611021565b91505092915050565b60008060008061012085870312156110dd57600080fd5b60006110eb87828801611021565b94505060206110fc87828801610fbe565b935050606061110d87828801610f97565b92505060e061111e87828801610fbe565b91505092959194509250565b600080600080610120858703121561114157600080fd5b600061114f87828801611036565b945050602061116087828801610fbe565b935050606061117187828801610f97565b92505060e061118287828801610fbe565b91505092959194509250565b600080604083850312156111a157600080fd5b60006111af85828601611036565b92505060206111c085828601611036565b9150509250929050565b60006111d683836112b7565b60408301905092915050565b60006111ee8383611598565b60208301905092915050565b61120381611a41565b82525050565b6112128161191d565b61121c81846119ad565b9250611227826118e1565b8060005b8381101561125857815161123f87826111ca565b965061124a8361195f565b92505060018101905061122b565b505050505050565b61126981611928565b61127381846119b8565b925061127e826118eb565b8060005b838110156112af57815161129687826111e2565b96506112a18361196c565b925050600181019050611282565b505050505050565b6112c081611933565b6112ca81846119c3565b92506112d5826118f5565b8060005b838110156113065781516112ed87826111e2565b96506112f883611979565b9250506001810190506112d9565b505050505050565b61131781611933565b61132181846119ce565b925061132c826118f5565b8060005b8381101561135d57815161134487826111e2565b965061134f83611979565b925050600181019050611330565b505050505050565b61136e8161193e565b61137881846119d9565b9250611383826118ff565b8060005b838110156113b457815161139b87826111e2565b96506113a683611986565b925050600181019050611387565b505050505050565b6113c581611949565b6113cf81846119d9565b92506113da82611909565b8060005b83811015611412576113ef82611b3f565b6113f987826111e2565b965061140483611993565b9250506001810190506113de565b505050505050565b61142381611954565b61142d81846119e4565b925061143882611913565b8060005b8381101561146957815161145087826111e2565b965061145b836119a0565b92505060018101905061143c565b505050505050565b61147a81611a53565b82525050565b600061148d6014836119ef565b915061149882611b70565b602082019050919050565b60006114b0601a836119ef565b91506114bb82611b99565b602082019050919050565b60006114d36010836119ef565b91506114de82611bc2565b602082019050919050565b60006114f66023836119ef565b915061150182611beb565b604082019050919050565b60006115196018836119ef565b915061152482611c3a565b602082019050919050565b600061153c601d836119ef565b915061154782611c63565b602082019050919050565b600061155f601c836119ef565b915061156a82611c8c565b602082019050919050565b60006115826017836119ef565b915061158d82611cb5565b602082019050919050565b6115a181611a7f565b82525050565b6115b081611a7f565b82525050565b6115bf81611a89565b82525050565b60006020820190506115da60008301846111fa565b92915050565b6000610120820190506115f6600083018761130e565b6116036040830186611209565b61161060c083018561130e565b61161e610100830184611260565b95945050505050565b60006101808201905061163d600083018761130e565b61164a6040830186611209565b61165760c083018561130e565b611665610100830184611365565b95945050505050565b60006101c082019050611684600083018761130e565b6116916040830186611209565b61169e60c083018561130e565b6116ac61010083018461141a565b95945050505050565b60006080820190506116ca60008301846113bc565b92915050565b60006020820190506116e56000830184611471565b92915050565b6000602082019050818103600083015261170481611480565b9050919050565b60006020820190508181036000830152611724816114a3565b9050919050565b60006020820190508181036000830152611744816114c6565b9050919050565b60006020820190508181036000830152611764816114e9565b9050919050565b600060208201905081810360008301526117848161150c565b9050919050565b600060208201905081810360008301526117a48161152f565b9050919050565b600060208201905081810360008301526117c481611552565b9050919050565b600060208201905081810360008301526117e481611575565b9050919050565b600060208201905061180060008301846115a7565b92915050565b600060208201905061181b60008301846115b6565b92915050565b600060408201905061183660008301856115b6565b61184360208301846115b6565b9392505050565b6000611854611865565b90506118608282611ab0565b919050565b6000604051905090565b600067ffffffffffffffff82111561188a57611889611b10565b5b602082029050919050565b600067ffffffffffffffff8211156118b0576118af611b10565b5b602082029050919050565b600067ffffffffffffffff8211156118d6576118d5611b10565b5b602082029050919050565b6000819050919050565b6000819050919050565b6000819050919050565b6000819050919050565b6000819050919050565b6000819050919050565b600060029050919050565b600060019050919050565b600060029050919050565b600060049050919050565b600060049050919050565b600060069050919050565b6000602082019050919050565b6000602082019050919050565b6000602082019050919050565b6000602082019050919050565b6000600182019050919050565b6000602082019050919050565b600081905092915050565b600081905092915050565b600081905092915050565b600081905092915050565b600081905092915050565b600081905092915050565b600082825260208201905092915050565b6000611a0b82611a89565b9150611a1683611a89565b92508260ff03821115611a2c57611a2b611ae1565b5b828201905092915050565b6000819050919050565b6000611a4c82611a5f565b9050919050565b60008115159050919050565b600073ffffffffffffffffffffffffffffffffffffffff82169050919050565b6000819050919050565b600060ff82169050919050565b6000611aa9611aa483611b63565b611a37565b9050919050565b611ab982611b52565b810181811067ffffffffffffffff82111715611ad857611ad7611b10565b5b80604052505050565b7f4e487b7100000000000000000000000000000000000000000000000000000000600052601160045260246000fd5b7f4e487b7100000000000000000000000000000000000000000000000000000000600052604160045260246000fd5b6000611b4b8254611a96565b9050919050565b6000601f19601f8301169050919050565b60008160001c9050919050565b7f47616d6520616c72656164792063726561746564000000000000000000000000600082015250565b7f47756573732069732070656e64696e67206f6620616e73776572000000000000600082015250565b7f47616d65206e6f74207374617274656400000000000000000000000000000000600082015250565b7f4f6e6c792063726561746f722063616e2063616c6c20746869732066756e637460008201527f696f6e0000000000000000000000000000000000000000000000000000000000602082015250565b7f496e76616c6964207175657374696f6e20616e73776572210000000000000000600082015250565b7f5175657374696f6e2069732070656e64696e67206f6620616e73776572000000600082015250565b7f496e76616c6964206368617261637465722073656c656374696f6e2100000000600082015250565b7f496e76616c696420677565737320726573706f6e736521000000000000000000600082015250565b611ce781611a53565b8114611cf257600080fd5b50565b611cfe81611a7f565b8114611d0957600080fd5b50565b611d1581611a89565b8114611d2057600080fd5b5056fea264697066735822122018dab20a60ed379503f13c4484591803ac234c6e115c83f8cf0a3b4cec9e430d64736f6c63430008040033",
  "linkReferences": {},
  "deployedLinkReferences": {}
}