{
  "_format": "hh-sol-artifact-1",
  "contractName": "Game",
  "sourceName": "contracts/Game.sol",
  "abi": [
    {
      "inputs": [
        {
          "internalType": "address",
          "name": "_verifierBoard",
          "type": "address"
        },
        {
          "internalType": "address",
          "name": "_verifierQuestion",
          "type": "address"
        },
        {
          "internalType": "address",
          "name": "_verifierGuess",
          "type": "address"
        }
      ],
      "stateMutability": "nonpayable",
      "type": "constructor"
    },
    {
      "anonymous": false,
      "inputs": [
        {
          "indexed": false,
          "internalType": "uint256[4]",
          "name": "_guess",
          "type": "uint256[4]"
        }
      ],
      "name": "Guess",
      "type": "event"
    },
    {
      "anonymous": false,
      "inputs": [
        {
          "indexed": false,
          "internalType": "uint8",
          "name": "_answer",
          "type": "uint8"
        }
      ],
      "name": "GuessResponse",
      "type": "event"
    },
    {
      "anonymous": false,
      "inputs": [
        {
          "indexed": false,
          "internalType": "uint8",
          "name": "_answer",
          "type": "uint8"
        }
      ],
      "name": "QuestionAnswered",
      "type": "event"
    },
    {
      "anonymous": false,
      "inputs": [
        {
          "indexed": false,
          "internalType": "uint8",
          "name": "_type",
          "type": "uint8"
        },
        {
          "indexed": false,
          "internalType": "uint8",
          "name": "_characteristic",
          "type": "uint8"
        }
      ],
      "name": "QuestionAsked",
      "type": "event"
    },
    {
      "inputs": [
        {
          "internalType": "uint8",
          "name": "_type",
          "type": "uint8"
        },
        {
          "internalType": "uint8",
          "name": "_characteristic",
          "type": "uint8"
        }
      ],
      "name": "ask",
      "outputs": [],
      "stateMutability": "nonpayable",
      "type": "function"
    },
    {
      "inputs": [],
      "name": "creator",
      "outputs": [
        {
          "internalType": "address",
          "name": "",
          "type": "address"
        }
      ],
      "stateMutability": "view",
      "type": "function"
    },
    {
      "inputs": [
        {
          "internalType": "uint8[4]",
          "name": "_guess",
          "type": "uint8[4]"
        }
      ],
      "name": "guess",
      "outputs": [],
      "stateMutability": "nonpayable",
      "type": "function"
    },
    {
      "inputs": [],
      "name": "hash",
      "outputs": [
        {
          "internalType": "uint256",
          "name": "",
          "type": "uint256"
        }
      ],
      "stateMutability": "view",
      "type": "function"
    },
    {
      "inputs": [],
      "name": "isStarted",
      "outputs": [
        {
          "internalType": "bool",
          "name": "",
          "type": "bool"
        }
      ],
      "stateMutability": "view",
      "type": "function"
    },
    {
      "inputs": [
        {
          "internalType": "uint8",
          "name": "_won",
          "type": "uint8"
        },
        {
          "internalType": "uint256[2]",
          "name": "a",
          "type": "uint256[2]"
        },
        {
          "internalType": "uint256[2][2]",
          "name": "b",
          "type": "uint256[2][2]"
        },
        {
          "internalType": "uint256[2]",
          "name": "c",
          "type": "uint256[2]"
        }
      ],
      "name": "isWon",
      "outputs": [],
      "stateMutability": "nonpayable",
      "type": "function"
    },
    {
      "inputs": [],
      "name": "lastCharacteristic",
      "outputs": [
        {
          "internalType": "uint8",
          "name": "",
          "type": "uint8"
        }
      ],
      "stateMutability": "view",
      "type": "function"
    },
    {
      "inputs": [
        {
          "internalType": "uint256",
          "name": "",
          "type": "uint256"
        }
      ],
      "name": "lastGuess",
      "outputs": [
        {
          "internalType": "uint256",
          "name": "",
          "type": "uint256"
        }
      ],
      "stateMutability": "view",
      "type": "function"
    },
    {
      "inputs": [],
      "name": "lastResponse",
      "outputs": [
        {
          "internalType": "uint8",
          "name": "",
          "type": "uint8"
        }
      ],
      "stateMutability": "view",
      "type": "function"
    },
    {
      "inputs": [],
      "name": "lastType",
      "outputs": [
        {
          "internalType": "uint8",
          "name": "",
          "type": "uint8"
        }
      ],
      "stateMutability": "view",
      "type": "function"
    },
    {
      "inputs": [
        {
          "internalType": "uint8",
          "name": "_answer",
          "type": "uint8"
        },
        {
          "internalType": "uint256[2]",
          "name": "a",
          "type": "uint256[2]"
        },
        {
          "internalType": "uint256[2][2]",
          "name": "b",
          "type": "uint256[2][2]"
        },
        {
          "internalType": "uint256[2]",
          "name": "c",
          "type": "uint256[2]"
        }
      ],
      "name": "response",
      "outputs": [],
      "stateMutability": "nonpayable",
      "type": "function"
    },
    {
      "inputs": [
        {
          "internalType": "uint256",
          "name": "_hash",
          "type": "uint256"
        },
        {
          "internalType": "uint256[2]",
          "name": "a",
          "type": "uint256[2]"
        },
        {
          "internalType": "uint256[2][2]",
          "name": "b",
          "type": "uint256[2][2]"
        },
        {
          "internalType": "uint256[2]",
          "name": "c",
          "type": "uint256[2]"
        }
      ],
      "name": "start",
      "outputs": [],
      "stateMutability": "nonpayable",
      "type": "function"
    },
    {
      "inputs": [],
      "name": "won",
      "outputs": [
        {
          "internalType": "uint8",
          "name": "",
          "type": "uint8"
        }
      ],
      "stateMutability": "view",
      "type": "function"
    }
  ],
  "bytecode": "0x60806040523480156200001157600080fd5b5060405162001e9638038062001e9683398181016040528101906200003791906200011a565b82600860006101000a81548173ffffffffffffffffffffffffffffffffffffffff021916908373ffffffffffffffffffffffffffffffffffffffff16021790555081600960006101000a81548173ffffffffffffffffffffffffffffffffffffffff021916908373ffffffffffffffffffffffffffffffffffffffff16021790555080600a60006101000a81548173ffffffffffffffffffffffffffffffffffffffff021916908373ffffffffffffffffffffffffffffffffffffffff160217905550505050620001be565b6000815190506200011481620001a4565b92915050565b6000806000606084860312156200013057600080fd5b6000620001408682870162000103565b9350506020620001538682870162000103565b9250506040620001668682870162000103565b9150509250925092565b60006200017d8262000184565b9050919050565b600073ffffffffffffffffffffffffffffffffffffffff82169050919050565b620001af8162000170565b8114620001bb57600080fd5b50565b611cc880620001ce6000396000f3fe608060405234801561001057600080fd5b50600436106100cf5760003560e01c80636c3668481161008c578063b85f46eb11610066578063b85f46eb146101dc578063e602f7f7146101f8578063eea108c214610214578063f250975c14610244576100cf565b80636c366848146101865780639f9a32b0146101a2578063ae43f848146101c0576100cf565b806302d05d3f146100d457806309bd5a60146100f257806312c8052f14610110578063352e84a71461012e578063544736e61461014a57806362747e4214610168575b600080fd5b6100dc610262565b6040516100e99190611534565b60405180910390f35b6100fa610288565b604051610107919061175a565b60405180910390f35b61011861028e565b6040516101259190611775565b60405180910390f35b610148600480360381019061014391906110fd565b6102a1565b005b6101526103c9565b60405161015f919061163f565b60405180910390f35b6101706103d6565b60405161017d9190611775565b60405180910390f35b6101a0600480360381019061019b9190611099565b6103e9565b005b6101aa610750565b6040516101b79190611775565b60405180910390f35b6101da60048036038101906101d59190611099565b610761565b005b6101f660048036038101906101f19190611035565b6109e7565b005b610212600480360381019061020d9190610fba565b610bb6565b005b61022e6004803603810190610229919061100c565b610cbb565b60405161023b919061175a565b60405180910390f35b61024c610cd6565b6040516102599190611775565b60405180910390f35b600760009054906101000a900473ffffffffffffffffffffffffffffffffffffffff1681565b60065481565b600560009054906101000a900460ff1681565b600060065414156102e7576040517f08c379a00000000000000000000000000000000000000000000000000000000081526004016102de9061169a565b60405180910390fd5b60008060029054906101000a900460ff1660ff16141561033c576040517f08c379a0000000000000000000000000000000000000000000000000000000008152600401610333906116fa565b60405180910390fd5b816000806101000a81548160ff021916908360ff16021790555080600060016101000a81548160ff021916908360ff16021790555060008060026101000a81548160ff021916908360ff1602179055507f32a95ea2373c4d2cff10c37d2caf784dc5e400dc50924dc7042f3f9afb5a270f82826040516103bd929190611790565b60405180910390a15050565b6000806006541415905090565b600060029054906101000a900460ff1681565b6000600654141561042f576040517f08c379a00000000000000000000000000000000000000000000000000000000081526004016104269061169a565b60405180910390fd5b600760009054906101000a900473ffffffffffffffffffffffffffffffffffffffff1673ffffffffffffffffffffffffffffffffffffffff163373ffffffffffffffffffffffffffffffffffffffff16146104bf576040517f08c379a00000000000000000000000000000000000000000000000000000000081526004016104b6906116ba565b60405180910390fd5b60006040518060c001604052808660ff1681526020016001600060048110610510577f4e487b7100000000000000000000000000000000000000000000000000000000600052603260045260246000fd5b0154815260200160018060048110610551577f4e487b7100000000000000000000000000000000000000000000000000000000600052603260045260246000fd5b015481526020016001600260048110610593577f4e487b7100000000000000000000000000000000000000000000000000000000600052603260045260246000fd5b0154815260200160016003600481106105d5577f4e487b7100000000000000000000000000000000000000000000000000000000600052603260045260246000fd5b015481526020016006548152509050600a60009054906101000a900473ffffffffffffffffffffffffffffffffffffffff1673ffffffffffffffffffffffffffffffffffffffff1663f398789b858585856040518563ffffffff1660e01b815260040161064594939291906115dd565b60206040518083038186803b15801561065d57600080fd5b505afa158015610671573d6000803e3d6000fd5b505050506040513d601f19601f820116820180604052508101906106959190610fe3565b6106d4576040517f08c379a00000000000000000000000000000000000000000000000000000000081526004016106cb9061173a565b60405180910390fd5b6001856106e1919061196f565b600560006101000a81548160ff021916908360ff160217905550610703610ce9565b7f321b96ee4065ea0954e60de9522d211aabbec3815b71688d7a79c8a19463d195600560009054906101000a900460ff166040516107419190611775565b60405180910390a15050505050565b60008054906101000a900460ff1681565b600060065414156107a7576040517f08c379a000000000000000000000000000000000000000000000000000000000815260040161079e9061169a565b60405180910390fd5b600760009054906101000a900473ffffffffffffffffffffffffffffffffffffffff1673ffffffffffffffffffffffffffffffffffffffff163373ffffffffffffffffffffffffffffffffffffffff1614610837576040517f08c379a000000000000000000000000000000000000000000000000000000000815260040161082e906116ba565b60405180910390fd5b600060405180608001604052808660ff16815260200160008054906101000a900460ff1660ff168152602001600060019054906101000a900460ff1660ff1681526020016006548152509050600960009054906101000a900473ffffffffffffffffffffffffffffffffffffffff1673ffffffffffffffffffffffffffffffffffffffff16635fe8c13b858585856040518563ffffffff1660e01b81526004016108e49493929190611596565b60206040518083038186803b1580156108fc57600080fd5b505afa158015610910573d6000803e3d6000fd5b505050506040513d601f19601f820116820180604052508101906109349190610fe3565b610973576040517f08c379a000000000000000000000000000000000000000000000000000000000815260040161096a906116da565b60405180910390fd5b600185610980919061196f565b600060026101000a81548160ff021916908360ff1602179055507fb9c2decafb8bb7052b7a1c4452beff9a62e1bbf436aa24e3f22e3dbfa05f1ca1600060029054906101000a900460ff166040516109d89190611775565b60405180910390a15050505050565b600060065414610a2c576040517f08c379a0000000000000000000000000000000000000000000000000000000008152600401610a239061165a565b60405180910390fd5b60006040518060200160405280868152509050600860009054906101000a900473ffffffffffffffffffffffffffffffffffffffff1673ffffffffffffffffffffffffffffffffffffffff166343753b4d858585856040518563ffffffff1660e01b8152600401610aa0949392919061154f565b60206040518083038186803b158015610ab857600080fd5b505afa158015610acc573d6000803e3d6000fd5b505050506040513d601f19601f82011682018060405250810190610af09190610fe3565b610b2f576040517f08c379a0000000000000000000000000000000000000000000000000000000008152600401610b269061171a565b60405180910390fd5b8460068190555033600760006101000a81548173ffffffffffffffffffffffffffffffffffffffff021916908373ffffffffffffffffffffffffffffffffffffffff1602179055506003600060026101000a81548160ff021916908360ff1602179055506003600560006101000a81548160ff021916908360ff1602179055505050505050565b60006006541415610bfc576040517f08c379a0000000000000000000000000000000000000000000000000000000008152600401610bf39061169a565b60405180910390fd5b6000600560009054906101000a900460ff1660ff161415610c52576040517f08c379a0000000000000000000000000000000000000000000000000000000008152600401610c499061167a565b60405180910390fd5b806001906004610c63929190610d7b565b506000600560006101000a81548160ff021916908360ff1602179055507f5fbecfb9ebd9b032c64d3ad9e07a26c11d5cc0e530f3187f2f77087ea4ec622f6001604051610cb09190611624565b60405180910390a150565b60018160048110610ccb57600080fd5b016000915090505481565b600060019054906101000a900460ff1681565b60006006541415610d2f576040517f08c379a0000000000000000000000000000000000000000000000000000000008152600401610d269061169a565b60405180910390fd5b60006006819055506000600760006101000a81548173ffffffffffffffffffffffffffffffffffffffff021916908373ffffffffffffffffffffffffffffffffffffffff160217905550565b8260048101928215610daf579160200282015b82811115610dae578251829060ff16905591602001919060010190610d8e565b5b509050610dbc9190610dc0565b5090565b5b80821115610dd9576000816000905550600101610dc1565b5090565b6000610df0610deb846117de565b6117b9565b90508082856040860282011115610e0657600080fd5b60005b85811015610e365781610e1c8882610f2d565b845260208401935060408301925050600181019050610e09565b5050509392505050565b6000610e53610e4e84611804565b6117b9565b90508082856020860282011115610e6957600080fd5b60005b85811015610e995781610e7f8882610f90565b845260208401935060208301925050600181019050610e6c565b5050509392505050565b6000610eb6610eb18461182a565b6117b9565b90508082856020860282011115610ecc57600080fd5b60005b85811015610efc5781610ee28882610fa5565b845260208401935060208301925050600181019050610ecf565b5050509392505050565b600082601f830112610f1757600080fd5b6002610f24848285610ddd565b91505092915050565b600082601f830112610f3e57600080fd5b6002610f4b848285610e40565b91505092915050565b600082601f830112610f6557600080fd5b6004610f72848285610ea3565b91505092915050565b600081519050610f8a81611c4d565b92915050565b600081359050610f9f81611c64565b92915050565b600081359050610fb481611c7b565b92915050565b600060808284031215610fcc57600080fd5b6000610fda84828501610f54565b91505092915050565b600060208284031215610ff557600080fd5b600061100384828501610f7b565b91505092915050565b60006020828403121561101e57600080fd5b600061102c84828501610f90565b91505092915050565b600080600080610120858703121561104c57600080fd5b600061105a87828801610f90565b945050602061106b87828801610f2d565b935050606061107c87828801610f06565b92505060e061108d87828801610f2d565b91505092959194509250565b60008060008061012085870312156110b057600080fd5b60006110be87828801610fa5565b94505060206110cf87828801610f2d565b93505060606110e087828801610f06565b92505060e06110f187828801610f2d565b91505092959194509250565b6000806040838503121561111057600080fd5b600061111e85828601610fa5565b925050602061112f85828601610fa5565b9150509250929050565b60006111458383611226565b60408301905092915050565b600061115d8383611507565b60208301905092915050565b611172816119b0565b82525050565b6111818161188c565b61118b818461191c565b925061119682611850565b8060005b838110156111c75781516111ae8782611139565b96506111b9836118ce565b92505060018101905061119a565b505050505050565b6111d881611897565b6111e28184611927565b92506111ed8261185a565b8060005b8381101561121e5781516112058782611151565b9650611210836118db565b9250506001810190506111f1565b505050505050565b61122f816118a2565b6112398184611932565b925061124482611864565b8060005b8381101561127557815161125c8782611151565b9650611267836118e8565b925050600181019050611248565b505050505050565b611286816118a2565b611290818461193d565b925061129b82611864565b8060005b838110156112cc5781516112b38782611151565b96506112be836118e8565b92505060018101905061129f565b505050505050565b6112dd816118ad565b6112e78184611948565b92506112f28261186e565b8060005b8381101561132357815161130a8782611151565b9650611315836118f5565b9250506001810190506112f6565b505050505050565b611334816118b8565b61133e8184611948565b925061134982611878565b8060005b838110156113815761135e82611aae565b6113688782611151565b965061137383611902565b92505060018101905061134d565b505050505050565b611392816118c3565b61139c8184611953565b92506113a782611882565b8060005b838110156113d85781516113bf8782611151565b96506113ca8361190f565b9250506001810190506113ab565b505050505050565b6113e9816119c2565b82525050565b60006113fc60148361195e565b915061140782611adf565b602082019050919050565b600061141f601a8361195e565b915061142a82611b08565b602082019050919050565b600061144260108361195e565b915061144d82611b31565b602082019050919050565b600061146560238361195e565b915061147082611b5a565b604082019050919050565b600061148860188361195e565b915061149382611ba9565b602082019050919050565b60006114ab601d8361195e565b91506114b682611bd2565b602082019050919050565b60006114ce601c8361195e565b91506114d982611bfb565b602082019050919050565b60006114f160178361195e565b91506114fc82611c24565b602082019050919050565b611510816119ee565b82525050565b61151f816119ee565b82525050565b61152e816119f8565b82525050565b60006020820190506115496000830184611169565b92915050565b600061012082019050611565600083018761127d565b6115726040830186611178565b61157f60c083018561127d565b61158d6101008301846111cf565b95945050505050565b6000610180820190506115ac600083018761127d565b6115b96040830186611178565b6115c660c083018561127d565b6115d46101008301846112d4565b95945050505050565b60006101c0820190506115f3600083018761127d565b6116006040830186611178565b61160d60c083018561127d565b61161b610100830184611389565b95945050505050565b6000608082019050611639600083018461132b565b92915050565b600060208201905061165460008301846113e0565b92915050565b60006020820190508181036000830152611673816113ef565b9050919050565b6000602082019050818103600083015261169381611412565b9050919050565b600060208201905081810360008301526116b381611435565b9050919050565b600060208201905081810360008301526116d381611458565b9050919050565b600060208201905081810360008301526116f38161147b565b9050919050565b600060208201905081810360008301526117138161149e565b9050919050565b60006020820190508181036000830152611733816114c1565b9050919050565b60006020820190508181036000830152611753816114e4565b9050919050565b600060208201905061176f6000830184611516565b92915050565b600060208201905061178a6000830184611525565b92915050565b60006040820190506117a56000830185611525565b6117b26020830184611525565b9392505050565b60006117c36117d4565b90506117cf8282611a1f565b919050565b6000604051905090565b600067ffffffffffffffff8211156117f9576117f8611a7f565b5b602082029050919050565b600067ffffffffffffffff82111561181f5761181e611a7f565b5b602082029050919050565b600067ffffffffffffffff82111561184557611844611a7f565b5b602082029050919050565b6000819050919050565b6000819050919050565b6000819050919050565b6000819050919050565b6000819050919050565b6000819050919050565b600060029050919050565b600060019050919050565b600060029050919050565b600060049050919050565b600060049050919050565b600060069050919050565b6000602082019050919050565b6000602082019050919050565b6000602082019050919050565b6000602082019050919050565b6000600182019050919050565b6000602082019050919050565b600081905092915050565b600081905092915050565b600081905092915050565b600081905092915050565b600081905092915050565b600081905092915050565b600082825260208201905092915050565b600061197a826119f8565b9150611985836119f8565b92508260ff0382111561199b5761199a611a50565b5b828201905092915050565b6000819050919050565b60006119bb826119ce565b9050919050565b60008115159050919050565b600073ffffffffffffffffffffffffffffffffffffffff82169050919050565b6000819050919050565b600060ff82169050919050565b6000611a18611a1383611ad2565b6119a6565b9050919050565b611a2882611ac1565b810181811067ffffffffffffffff82111715611a4757611a46611a7f565b5b80604052505050565b7f4e487b7100000000000000000000000000000000000000000000000000000000600052601160045260246000fd5b7f4e487b7100000000000000000000000000000000000000000000000000000000600052604160045260246000fd5b6000611aba8254611a05565b9050919050565b6000601f19601f8301169050919050565b60008160001c9050919050565b7f47616d6520616c72656164792063726561746564000000000000000000000000600082015250565b7f47756573732069732070656e64696e67206f6620616e73776572000000000000600082015250565b7f47616d65206e6f74207374617274656400000000000000000000000000000000600082015250565b7f4f6e6c792063726561746f722063616e2063616c6c20746869732066756e637460008201527f696f6e0000000000000000000000000000000000000000000000000000000000602082015250565b7f496e76616c6964207175657374696f6e20616e73776572210000000000000000600082015250565b7f5175657374696f6e2069732070656e64696e67206f6620616e73776572000000600082015250565b7f496e76616c6964206368617261637465722073656c656374696f6e2100000000600082015250565b7f496e76616c696420677565737320726573706f6e736521000000000000000000600082015250565b611c56816119c2565b8114611c6157600080fd5b50565b611c6d816119ee565b8114611c7857600080fd5b50565b611c84816119f8565b8114611c8f57600080fd5b5056fea2646970667358221220cc7314b15011a106033c095d9f6a39733186199040be649a45c015a9e4a14dcf64736f6c63430008040033",
  "linkReferences": {},
  "deployedLinkReferences": {}
}