{
  "_format": "hh-sol-artifact-1",
  "contractName": "Game",
  "sourceName": "contracts/Game.sol",
  "abi": [
    {
      "inputs": [
        {
          "internalType": "address",
          "name": "_verifierBoard",
          "type": "address"
        },
        {
          "internalType": "address",
          "name": "_verifierQuestion",
          "type": "address"
        },
        {
          "internalType": "address",
          "name": "_verifierGuess",
          "type": "address"
        }
      ],
      "stateMutability": "nonpayable",
      "type": "constructor"
    },
    {
      "anonymous": false,
      "inputs": [],
      "name": "GameCreated",
      "type": "event"
    },
    {
      "anonymous": false,
      "inputs": [
        {
          "indexed": false,
          "internalType": "uint256[4]",
          "name": "_guess",
          "type": "uint256[4]"
        }
      ],
      "name": "Guess",
      "type": "event"
    },
    {
      "anonymous": false,
      "inputs": [
        {
          "indexed": false,
          "internalType": "uint8",
          "name": "_answer",
          "type": "uint8"
        }
      ],
      "name": "GuessResponse",
      "type": "event"
    },
    {
      "anonymous": false,
      "inputs": [],
      "name": "Joined",
      "type": "event"
    },
    {
      "anonymous": false,
      "inputs": [
        {
          "indexed": false,
          "internalType": "uint8",
          "name": "_answer",
          "type": "uint8"
        }
      ],
      "name": "QuestionAnswered",
      "type": "event"
    },
    {
      "anonymous": false,
      "inputs": [
        {
          "indexed": false,
          "internalType": "uint8",
          "name": "_type",
          "type": "uint8"
        },
        {
          "indexed": false,
          "internalType": "uint8",
          "name": "_characteristic",
          "type": "uint8"
        }
      ],
      "name": "QuestionAsked",
      "type": "event"
    },
    {
      "inputs": [
        {
          "internalType": "uint8",
          "name": "_type",
          "type": "uint8"
        },
        {
          "internalType": "uint8",
          "name": "_characteristic",
          "type": "uint8"
        }
      ],
      "name": "ask",
      "outputs": [],
      "stateMutability": "nonpayable",
      "type": "function"
    },
    {
      "inputs": [],
      "name": "currentTurn",
      "outputs": [
        {
          "internalType": "uint256",
          "name": "",
          "type": "uint256"
        }
      ],
      "stateMutability": "view",
      "type": "function"
    },
    {
      "inputs": [
        {
          "internalType": "uint8[4]",
          "name": "_guess",
          "type": "uint8[4]"
        }
      ],
      "name": "guess",
      "outputs": [],
      "stateMutability": "nonpayable",
      "type": "function"
    },
    {
      "inputs": [
        {
          "internalType": "uint256",
          "name": "",
          "type": "uint256"
        }
      ],
      "name": "hash",
      "outputs": [
        {
          "internalType": "uint256",
          "name": "",
          "type": "uint256"
        }
      ],
      "stateMutability": "view",
      "type": "function"
    },
    {
      "inputs": [],
      "name": "hashByAccount",
      "outputs": [
        {
          "internalType": "uint256",
          "name": "",
          "type": "uint256"
        }
      ],
      "stateMutability": "view",
      "type": "function"
    },
    {
      "inputs": [],
      "name": "isAnswerTurn",
      "outputs": [
        {
          "internalType": "bool",
          "name": "",
          "type": "bool"
        }
      ],
      "stateMutability": "view",
      "type": "function"
    },
    {
      "inputs": [],
      "name": "isCreated",
      "outputs": [
        {
          "internalType": "bool",
          "name": "",
          "type": "bool"
        }
      ],
      "stateMutability": "view",
      "type": "function"
    },
    {
      "inputs": [],
      "name": "isPlayerInGame",
      "outputs": [
        {
          "internalType": "bool",
          "name": "",
          "type": "bool"
        }
      ],
      "stateMutability": "view",
      "type": "function"
    },
    {
      "inputs": [],
      "name": "isQuestionTurn",
      "outputs": [
        {
          "internalType": "bool",
          "name": "",
          "type": "bool"
        }
      ],
      "stateMutability": "view",
      "type": "function"
    },
    {
      "inputs": [],
      "name": "isStarted",
      "outputs": [
        {
          "internalType": "bool",
          "name": "",
          "type": "bool"
        }
      ],
      "stateMutability": "view",
      "type": "function"
    },
    {
      "inputs": [],
      "name": "isWinner",
      "outputs": [
        {
          "internalType": "bool",
          "name": "",
          "type": "bool"
        }
      ],
      "stateMutability": "view",
      "type": "function"
    },
    {
      "inputs": [
        {
          "internalType": "uint8",
          "name": "_won",
          "type": "uint8"
        },
        {
          "internalType": "uint256[2]",
          "name": "a",
          "type": "uint256[2]"
        },
        {
          "internalType": "uint256[2][2]",
          "name": "b",
          "type": "uint256[2][2]"
        },
        {
          "internalType": "uint256[2]",
          "name": "c",
          "type": "uint256[2]"
        }
      ],
      "name": "isWon",
      "outputs": [],
      "stateMutability": "nonpayable",
      "type": "function"
    },
    {
      "inputs": [
        {
          "internalType": "uint256",
          "name": "_hash",
          "type": "uint256"
        },
        {
          "internalType": "uint256[2]",
          "name": "a",
          "type": "uint256[2]"
        },
        {
          "internalType": "uint256[2][2]",
          "name": "b",
          "type": "uint256[2][2]"
        },
        {
          "internalType": "uint256[2]",
          "name": "c",
          "type": "uint256[2]"
        }
      ],
      "name": "join",
      "outputs": [],
      "stateMutability": "nonpayable",
      "type": "function"
    },
    {
      "inputs": [],
      "name": "lastCharacteristic",
      "outputs": [
        {
          "internalType": "uint8",
          "name": "",
          "type": "uint8"
        }
      ],
      "stateMutability": "view",
      "type": "function"
    },
    {
      "inputs": [
        {
          "internalType": "uint256",
          "name": "",
          "type": "uint256"
        }
      ],
      "name": "lastGuess",
      "outputs": [
        {
          "internalType": "uint256",
          "name": "",
          "type": "uint256"
        }
      ],
      "stateMutability": "view",
      "type": "function"
    },
    {
      "inputs": [],
      "name": "lastResponse",
      "outputs": [
        {
          "internalType": "uint8",
          "name": "",
          "type": "uint8"
        }
      ],
      "stateMutability": "view",
      "type": "function"
    },
    {
      "inputs": [],
      "name": "lastType",
      "outputs": [
        {
          "internalType": "uint8",
          "name": "",
          "type": "uint8"
        }
      ],
      "stateMutability": "view",
      "type": "function"
    },
    {
      "inputs": [
        {
          "internalType": "uint256",
          "name": "",
          "type": "uint256"
        }
      ],
      "name": "players",
      "outputs": [
        {
          "internalType": "address",
          "name": "",
          "type": "address"
        }
      ],
      "stateMutability": "view",
      "type": "function"
    },
    {
      "inputs": [],
      "name": "previousTurn",
      "outputs": [
        {
          "internalType": "uint256",
          "name": "",
          "type": "uint256"
        }
      ],
      "stateMutability": "view",
      "type": "function"
    },
    {
      "inputs": [
        {
          "internalType": "uint8",
          "name": "_answer",
          "type": "uint8"
        },
        {
          "internalType": "uint256[2]",
          "name": "a",
          "type": "uint256[2]"
        },
        {
          "internalType": "uint256[2][2]",
          "name": "b",
          "type": "uint256[2][2]"
        },
        {
          "internalType": "uint256[2]",
          "name": "c",
          "type": "uint256[2]"
        }
      ],
      "name": "response",
      "outputs": [],
      "stateMutability": "nonpayable",
      "type": "function"
    },
    {
      "inputs": [
        {
          "internalType": "uint256",
          "name": "_hash",
          "type": "uint256"
        },
        {
          "internalType": "uint256[2]",
          "name": "a",
          "type": "uint256[2]"
        },
        {
          "internalType": "uint256[2][2]",
          "name": "b",
          "type": "uint256[2][2]"
        },
        {
          "internalType": "uint256[2]",
          "name": "c",
          "type": "uint256[2]"
        }
      ],
      "name": "start",
      "outputs": [],
      "stateMutability": "nonpayable",
      "type": "function"
    },
    {
      "inputs": [],
      "name": "winner",
      "outputs": [
        {
          "internalType": "address",
          "name": "",
          "type": "address"
        }
      ],
      "stateMutability": "view",
      "type": "function"
    },
    {
      "inputs": [],
      "name": "won",
      "outputs": [
        {
          "internalType": "uint8",
          "name": "",
          "type": "uint8"
        }
      ],
      "stateMutability": "view",
      "type": "function"
    }
  ],
  "bytecode": "0x60806040523480156200001157600080fd5b5060405162003b2738038062003b2783398181016040528101906200003791906200011a565b82600a60006101000a81548173ffffffffffffffffffffffffffffffffffffffff021916908373ffffffffffffffffffffffffffffffffffffffff16021790555081600b60006101000a81548173ffffffffffffffffffffffffffffffffffffffff021916908373ffffffffffffffffffffffffffffffffffffffff16021790555080600c60006101000a81548173ffffffffffffffffffffffffffffffffffffffff021916908373ffffffffffffffffffffffffffffffffffffffff160217905550505050620001be565b6000815190506200011481620001a4565b92915050565b6000806000606084860312156200013057600080fd5b6000620001408682870162000103565b9350506020620001538682870162000103565b9250506040620001668682870162000103565b9150509250925092565b60006200017d8262000184565b9050919050565b600073ffffffffffffffffffffffffffffffffffffffff82169050919050565b620001af8162000170565b8114620001bb57600080fd5b50565b61395980620001ce6000396000f3fe608060405234801561001057600080fd5b506004361061014d5760003560e01c8063ae43f848116100c3578063e602f7f71161007c578063e602f7f714610358578063eea108c214610374578063f250975c146103a4578063f4b7621c146103c2578063f71d96cb146103e0578063fabd2f9c146104105761014d565b8063ae43f84814610296578063b189fd4c146102b2578063b85f46eb146102e2578063deb61286146102fe578063dfbf53ae1461031c578063e4cecb101461033a5761014d565b8063544736e611610115578063544736e6146101e457806362747e42146102025780636c36684814610220578063861743961461023c5780639f9a32b01461025a578063a7acd341146102785761014d565b806312c8052f146101525780631a9b0b7c146101705780632e5144381461018e57806333bd875d146101ac578063352e84a7146101c8575b600080fd5b61015a61042e565b60405161016791906131e8565b60405180910390f35b610178610441565b6040516101859190612fd2565b60405180910390f35b610196610499565b6040516101a391906131cd565b60405180910390f35b6101c660048036038101906101c191906128d3565b6104bb565b005b6101e260048036038101906101dd919061299b565b6109bb565b005b6101ec610c89565b6040516101f99190612fd2565b60405180910390f35b61020a610d65565b60405161021791906131e8565b60405180910390f35b61023a60048036038101906102359190612937565b610d78565b005b6102446111dd565b6040516102519190612fd2565b60405180910390f35b610262611303565b60405161026f91906131e8565b60405180910390f35b610280611316565b60405161028d9190612fd2565b60405180910390f35b6102b060048036038101906102ab9190612937565b6113ad565b005b6102cc60048036038101906102c791906128aa565b61174a565b6040516102d991906131cd565b60405180910390f35b6102fc60048036038101906102f791906128d3565b611765565b005b610306611b19565b60405161031391906131cd565b60405180910390f35b610324611b2f565b6040516103319190612ec7565b60405180910390f35b610342611b55565b60405161034f91906131cd565b60405180910390f35b610372600480360381019061036d9190612858565b611d05565b005b61038e600480360381019061038991906128aa565b611fad565b60405161039b91906131cd565b60405180910390f35b6103ac611fc8565b6040516103b991906131e8565b60405180910390f35b6103ca611fdb565b6040516103d79190612fd2565b60405180910390f35b6103fa60048036038101906103f591906128aa565b6120fe565b6040516104079190612ec7565b60405180910390f35b610418612134565b6040516104259190612fd2565b60405180910390f35b600960039054906101000a900460ff1681565b6000600960049054906101000a900473ffffffffffffffffffffffffffffffffffffffff1673ffffffffffffffffffffffffffffffffffffffff163373ffffffffffffffffffffffffffffffffffffffff1614905090565b6000600260016004546104ac91906133e2565b6104b69190613562565b905090565b600060026000600281106104f8577f4e487b7100000000000000000000000000000000000000000000000000000000600052603260045260246000fd5b0154141561053b576040517f08c379a00000000000000000000000000000000000000000000000000000000081526004016105329061308d565b60405180910390fd5b600073ffffffffffffffffffffffffffffffffffffffff16600060016002811061058e577f4e487b7100000000000000000000000000000000000000000000000000000000600052603260045260246000fd5b0160009054906101000a900473ffffffffffffffffffffffffffffffffffffffff1673ffffffffffffffffffffffffffffffffffffffff1614610606576040517f08c379a00000000000000000000000000000000000000000000000000000000081526004016105fd9061304d565b60405180910390fd5b3373ffffffffffffffffffffffffffffffffffffffff1660008060028110610657577f4e487b7100000000000000000000000000000000000000000000000000000000600052603260045260246000fd5b0160009054906101000a900473ffffffffffffffffffffffffffffffffffffffff1673ffffffffffffffffffffffffffffffffffffffff1614156106d0576040517f08c379a00000000000000000000000000000000000000000000000000000000081526004016106c79061318d565b60405180910390fd5b6000600260016002811061070d577f4e487b7100000000000000000000000000000000000000000000000000000000600052603260045260246000fd5b01541461074f576040517f08c379a0000000000000000000000000000000000000000000000000000000008152600401610746906131ad565b60405180910390fd5b60006040518060200160405280868152509050600a60009054906101000a900473ffffffffffffffffffffffffffffffffffffffff1673ffffffffffffffffffffffffffffffffffffffff166343753b4d858585856040518563ffffffff1660e01b81526004016107c39493929190612ee2565b60206040518083038186803b1580156107db57600080fd5b505afa1580156107ef573d6000803e3d6000fd5b505050506040513d601f19601f820116820180604052508101906108139190612881565b610852576040517f08c379a00000000000000000000000000000000000000000000000000000000081526004016108499061312d565b60405180910390fd5b84600260016002811061088e577f4e487b7100000000000000000000000000000000000000000000000000000000600052603260045260246000fd5b01819055503360006001600281106108cf577f4e487b7100000000000000000000000000000000000000000000000000000000600052603260045260246000fd5b0160006101000a81548173ffffffffffffffffffffffffffffffffffffffff021916908373ffffffffffffffffffffffffffffffffffffffff1602179055506003600960026101000a81548160ff021916908360ff1602179055506003600960036101000a81548160ff021916908360ff1602179055506000600960046101000a81548173ffffffffffffffffffffffffffffffffffffffff021916908373ffffffffffffffffffffffffffffffffffffffff1602179055507f01bef3730c3b3c7a12797f6baa6ef0473275290438b5264ad09598751c13a10c60405160405180910390a15050505050565b600060026000600281106109f8577f4e487b7100000000000000000000000000000000000000000000000000000000600052603260045260246000fd5b01541415610a3b576040517f08c379a0000000000000000000000000000000000000000000000000000000008152600401610a329061308d565b60405180910390fd5b600073ffffffffffffffffffffffffffffffffffffffff166000600160028110610a8e577f4e487b7100000000000000000000000000000000000000000000000000000000600052603260045260246000fd5b0160009054906101000a900473ffffffffffffffffffffffffffffffffffffffff1673ffffffffffffffffffffffffffffffffffffffff161415610b07576040517f08c379a0000000000000000000000000000000000000000000000000000000008152600401610afe9061314d565b60405180910390fd5b610b0f611316565b610b4e576040517f08c379a0000000000000000000000000000000000000000000000000000000008152600401610b45906130cd565b60405180910390fd5b6000600960029054906101000a900460ff1660ff161415610ba4576040517f08c379a0000000000000000000000000000000000000000000000000000000008152600401610b9b9061310d565b60405180910390fd5b6000600960039054906101000a900460ff1660ff161415610bfa576040517f08c379a0000000000000000000000000000000000000000000000000000000008152600401610bf190612fed565b60405180910390fd5b81600960006101000a81548160ff021916908360ff16021790555080600960016101000a81548160ff021916908360ff1602179055506000600960026101000a81548160ff021916908360ff1602179055507f32a95ea2373c4d2cff10c37d2caf784dc5e400dc50924dc7042f3f9afb5a270f8282604051610c7d929190613203565b60405180910390a15050565b6000806002600060028110610cc7577f4e487b7100000000000000000000000000000000000000000000000000000000600052603260045260246000fd5b015414158015610d605750600073ffffffffffffffffffffffffffffffffffffffff166000600160028110610d25577f4e487b7100000000000000000000000000000000000000000000000000000000600052603260045260246000fd5b0160009054906101000a900473ffffffffffffffffffffffffffffffffffffffff1673ffffffffffffffffffffffffffffffffffffffff1614155b905090565b600960029054906101000a900460ff1681565b60006002600060028110610db5577f4e487b7100000000000000000000000000000000000000000000000000000000600052603260045260246000fd5b01541415610df8576040517f08c379a0000000000000000000000000000000000000000000000000000000008152600401610def9061308d565b60405180910390fd5b600073ffffffffffffffffffffffffffffffffffffffff166000600160028110610e4b577f4e487b7100000000000000000000000000000000000000000000000000000000600052603260045260246000fd5b0160009054906101000a900473ffffffffffffffffffffffffffffffffffffffff1673ffffffffffffffffffffffffffffffffffffffff161415610ec4576040517f08c379a0000000000000000000000000000000000000000000000000000000008152600401610ebb9061314d565b60405180910390fd5b610ecc612134565b610f0b576040517f08c379a0000000000000000000000000000000000000000000000000000000008152600401610f02906130ad565b60405180910390fd5b60006040518060c001604052808660ff1681526020016005600060048110610f5c577f4e487b7100000000000000000000000000000000000000000000000000000000600052603260045260246000fd5b015481526020016005600160048110610f9e577f4e487b7100000000000000000000000000000000000000000000000000000000600052603260045260246000fd5b015481526020016005600260048110610fe0577f4e487b7100000000000000000000000000000000000000000000000000000000600052603260045260246000fd5b015481526020016005600360048110611022577f4e487b7100000000000000000000000000000000000000000000000000000000600052603260045260246000fd5b015481526020016002611033611b19565b6002811061106a577f4e487b7100000000000000000000000000000000000000000000000000000000600052603260045260246000fd5b01548152509050600c60009054906101000a900473ffffffffffffffffffffffffffffffffffffffff1673ffffffffffffffffffffffffffffffffffffffff1663f398789b858585856040518563ffffffff1660e01b81526004016110d29493929190612f70565b60206040518083038186803b1580156110ea57600080fd5b505afa1580156110fe573d6000803e3d6000fd5b505050506040513d601f19601f820116820180604052508101906111229190612881565b611161576040517f08c379a00000000000000000000000000000000000000000000000000000000081526004016111589061316d565b60405180910390fd5b60018561116e9190613438565b600960036101000a81548160ff021916908360ff1602179055506111906121cb565b7f321b96ee4065ea0954e60de9522d211aabbec3815b71688d7a79c8a19463d195600960039054906101000a900460ff166040516111ce91906131e8565b60405180910390a15050505050565b60008073ffffffffffffffffffffffffffffffffffffffff1660008060028110611230577f4e487b7100000000000000000000000000000000000000000000000000000000600052603260045260246000fd5b0160009054906101000a900473ffffffffffffffffffffffffffffffffffffffff1673ffffffffffffffffffffffffffffffffffffffff16141580156112fe5750600073ffffffffffffffffffffffffffffffffffffffff1660006001600281106112c4577f4e487b7100000000000000000000000000000000000000000000000000000000600052603260045260246000fd5b0160009054906101000a900473ffffffffffffffffffffffffffffffffffffffff1673ffffffffffffffffffffffffffffffffffffffff16145b905090565b600960009054906101000a900460ff1681565b600080611321610499565b60028110611358577f4e487b7100000000000000000000000000000000000000000000000000000000600052603260045260246000fd5b0160009054906101000a900473ffffffffffffffffffffffffffffffffffffffff1673ffffffffffffffffffffffffffffffffffffffff163373ffffffffffffffffffffffffffffffffffffffff1614905090565b600060026000600281106113ea577f4e487b7100000000000000000000000000000000000000000000000000000000600052603260045260246000fd5b0154141561142d576040517f08c379a00000000000000000000000000000000000000000000000000000000081526004016114249061308d565b60405180910390fd5b600073ffffffffffffffffffffffffffffffffffffffff166000600160028110611480577f4e487b7100000000000000000000000000000000000000000000000000000000600052603260045260246000fd5b0160009054906101000a900473ffffffffffffffffffffffffffffffffffffffff1673ffffffffffffffffffffffffffffffffffffffff1614156114f9576040517f08c379a00000000000000000000000000000000000000000000000000000000081526004016114f09061314d565b60405180910390fd5b611501612134565b611540576040517f08c379a0000000000000000000000000000000000000000000000000000000008152600401611537906130ad565b60405180910390fd5b600060405180608001604052808660ff168152602001600960009054906101000a900460ff1660ff168152602001600960019054906101000a900460ff1660ff1681526020016002611590611b19565b600281106115c7577f4e487b7100000000000000000000000000000000000000000000000000000000600052603260045260246000fd5b01548152509050600b60009054906101000a900473ffffffffffffffffffffffffffffffffffffffff1673ffffffffffffffffffffffffffffffffffffffff16635fe8c13b858585856040518563ffffffff1660e01b815260040161162f9493929190612f29565b60206040518083038186803b15801561164757600080fd5b505afa15801561165b573d6000803e3d6000fd5b505050506040513d601f19601f8201168201806040525081019061167f9190612881565b6116be576040517f08c379a00000000000000000000000000000000000000000000000000000000081526004016116b5906130ed565b60405180910390fd5b6001856116cb9190613438565b600960026101000a81548160ff021916908360ff160217905550600460008154809291906116f890613519565b91905055507fb9c2decafb8bb7052b7a1c4452beff9a62e1bbf436aa24e3f22e3dbfa05f1ca1600960029054906101000a900460ff1660405161173b91906131e8565b60405180910390a15050505050565b6002816002811061175a57600080fd5b016000915090505481565b600073ffffffffffffffffffffffffffffffffffffffff16600080600281106117b7577f4e487b7100000000000000000000000000000000000000000000000000000000600052603260045260246000fd5b0160009054906101000a900473ffffffffffffffffffffffffffffffffffffffff1673ffffffffffffffffffffffffffffffffffffffff161461182f576040517f08c379a00000000000000000000000000000000000000000000000000000000081526004016118269061300d565b60405180910390fd5b6000600260006002811061186c577f4e487b7100000000000000000000000000000000000000000000000000000000600052603260045260246000fd5b0154146118ae576040517f08c379a00000000000000000000000000000000000000000000000000000000081526004016118a59061300d565b60405180910390fd5b60006040518060200160405280868152509050600a60009054906101000a900473ffffffffffffffffffffffffffffffffffffffff1673ffffffffffffffffffffffffffffffffffffffff166343753b4d858585856040518563ffffffff1660e01b81526004016119229493929190612ee2565b60206040518083038186803b15801561193a57600080fd5b505afa15801561194e573d6000803e3d6000fd5b505050506040513d601f19601f820116820180604052508101906119729190612881565b6119b1576040517f08c379a00000000000000000000000000000000000000000000000000000000081526004016119a89061312d565b60405180910390fd5b8460026000600281106119ed577f4e487b7100000000000000000000000000000000000000000000000000000000600052603260045260246000fd5b01819055503360008060028110611a2d577f4e487b7100000000000000000000000000000000000000000000000000000000600052603260045260246000fd5b0160006101000a81548173ffffffffffffffffffffffffffffffffffffffff021916908373ffffffffffffffffffffffffffffffffffffffff1602179055506003600960026101000a81548160ff021916908360ff1602179055506003600960036101000a81548160ff021916908360ff1602179055506000600960046101000a81548173ffffffffffffffffffffffffffffffffffffffff021916908373ffffffffffffffffffffffffffffffffffffffff1602179055507f151802685129c44d0dd1313fc103826047d8aac8add2f9aec41ea52a69f2495d60405160405180910390a15050505050565b60006002600454611b2a9190613562565b905090565b600960049054906101000a900473ffffffffffffffffffffffffffffffffffffffff1681565b600080600160028110611b91577f4e487b7100000000000000000000000000000000000000000000000000000000600052603260045260246000fd5b0160009054906101000a900473ffffffffffffffffffffffffffffffffffffffff1673ffffffffffffffffffffffffffffffffffffffff163373ffffffffffffffffffffffffffffffffffffffff161415611c2a576002600160028110611c21577f4e487b7100000000000000000000000000000000000000000000000000000000600052603260045260246000fd5b01549050611d02565b60008060028110611c64577f4e487b7100000000000000000000000000000000000000000000000000000000600052603260045260246000fd5b0160009054906101000a900473ffffffffffffffffffffffffffffffffffffffff1673ffffffffffffffffffffffffffffffffffffffff163373ffffffffffffffffffffffffffffffffffffffff161415611cfd576002600060028110611cf4577f4e487b7100000000000000000000000000000000000000000000000000000000600052603260045260246000fd5b01549050611d02565b600090505b90565b60006002600060028110611d42577f4e487b7100000000000000000000000000000000000000000000000000000000600052603260045260246000fd5b01541415611d85576040517f08c379a0000000000000000000000000000000000000000000000000000000008152600401611d7c9061308d565b60405180910390fd5b600073ffffffffffffffffffffffffffffffffffffffff166000600160028110611dd8577f4e487b7100000000000000000000000000000000000000000000000000000000600052603260045260246000fd5b0160009054906101000a900473ffffffffffffffffffffffffffffffffffffffff1673ffffffffffffffffffffffffffffffffffffffff161415611e51576040517f08c379a0000000000000000000000000000000000000000000000000000000008152600401611e489061314d565b60405180910390fd5b611e59611316565b611e98576040517f08c379a0000000000000000000000000000000000000000000000000000000008152600401611e8f906130cd565b60405180910390fd5b6000600960039054906101000a900460ff1660ff161415611eee576040517f08c379a0000000000000000000000000000000000000000000000000000000008152600401611ee59061302d565b60405180910390fd5b6000600960029054906101000a900460ff1660ff161415611f44576040517f08c379a0000000000000000000000000000000000000000000000000000000008152600401611f3b9061306d565b60405180910390fd5b806005906004611f55929190612619565b506000600960036101000a81548160ff021916908360ff1602179055507f5fbecfb9ebd9b032c64d3ad9e07a26c11d5cc0e530f3187f2f77087ea4ec622f6005604051611fa29190612fb7565b60405180910390a150565b60058160048110611fbd57600080fd5b016000915090505481565b600960019054906101000a900460ff1681565b600080600060028110612017577f4e487b7100000000000000000000000000000000000000000000000000000000600052603260045260246000fd5b0160009054906101000a900473ffffffffffffffffffffffffffffffffffffffff1673ffffffffffffffffffffffffffffffffffffffff163373ffffffffffffffffffffffffffffffffffffffff1614806120f9575060006001600281106120a8577f4e487b7100000000000000000000000000000000000000000000000000000000600052603260045260246000fd5b0160009054906101000a900473ffffffffffffffffffffffffffffffffffffffff1673ffffffffffffffffffffffffffffffffffffffff163373ffffffffffffffffffffffffffffffffffffffff16145b905090565b6000816002811061210e57600080fd5b016000915054906101000a900473ffffffffffffffffffffffffffffffffffffffff1681565b60008061213f611b19565b60028110612176577f4e487b7100000000000000000000000000000000000000000000000000000000600052603260045260246000fd5b0160009054906101000a900473ffffffffffffffffffffffffffffffffffffffff1673ffffffffffffffffffffffffffffffffffffffff163373ffffffffffffffffffffffffffffffffffffffff1614905090565b60006002600060028110612208577f4e487b7100000000000000000000000000000000000000000000000000000000600052603260045260246000fd5b0154141561224b576040517f08c379a00000000000000000000000000000000000000000000000000000000081526004016122429061308d565b60405180910390fd5b600073ffffffffffffffffffffffffffffffffffffffff16600060016002811061229e577f4e487b7100000000000000000000000000000000000000000000000000000000600052603260045260246000fd5b0160009054906101000a900473ffffffffffffffffffffffffffffffffffffffff1673ffffffffffffffffffffffffffffffffffffffff161415612317576040517f08c379a000000000000000000000000000000000000000000000000000000000815260040161230e9061314d565b60405180910390fd5b6002600960039054906101000a900460ff1660ff1614156123d657600061233c610499565b60028110612373577f4e487b7100000000000000000000000000000000000000000000000000000000600052603260045260246000fd5b0160009054906101000a900473ffffffffffffffffffffffffffffffffffffffff16600960046101000a81548173ffffffffffffffffffffffffffffffffffffffff021916908373ffffffffffffffffffffffffffffffffffffffff1602179055505b6001600960039054906101000a900460ff1660ff1614156124955760006123fb611b19565b60028110612432577f4e487b7100000000000000000000000000000000000000000000000000000000600052603260045260246000fd5b0160009054906101000a900473ffffffffffffffffffffffffffffffffffffffff16600960046101000a81548173ffffffffffffffffffffffffffffffffffffffff021916908373ffffffffffffffffffffffffffffffffffffffff1602179055505b600060026000600281106124d2577f4e487b7100000000000000000000000000000000000000000000000000000000600052603260045260246000fd5b018190555060006002600160028110612514577f4e487b7100000000000000000000000000000000000000000000000000000000600052603260045260246000fd5b0181905550600060048190555060008060006002811061255d577f4e487b7100000000000000000000000000000000000000000000000000000000600052603260045260246000fd5b0160006101000a81548173ffffffffffffffffffffffffffffffffffffffff021916908373ffffffffffffffffffffffffffffffffffffffff1602179055506000806001600281106125d8577f4e487b7100000000000000000000000000000000000000000000000000000000600052603260045260246000fd5b0160006101000a81548173ffffffffffffffffffffffffffffffffffffffff021916908373ffffffffffffffffffffffffffffffffffffffff160217905550565b826004810192821561264d579160200282015b8281111561264c578251829060ff1690559160200191906001019061262c565b5b50905061265a919061265e565b5090565b5b8082111561267757600081600090555060010161265f565b5090565b600061268e61268984613251565b61322c565b905080828560408602820111156126a457600080fd5b60005b858110156126d457816126ba88826127cb565b8452602084019350604083019250506001810190506126a7565b5050509392505050565b60006126f16126ec84613277565b61322c565b9050808285602086028201111561270757600080fd5b60005b85811015612737578161271d888261282e565b84526020840193506020830192505060018101905061270a565b5050509392505050565b600061275461274f8461329d565b61322c565b9050808285602086028201111561276a57600080fd5b60005b8581101561279a57816127808882612843565b84526020840193506020830192505060018101905061276d565b5050509392505050565b600082601f8301126127b557600080fd5b60026127c284828561267b565b91505092915050565b600082601f8301126127dc57600080fd5b60026127e98482856126de565b91505092915050565b600082601f83011261280357600080fd5b6004612810848285612741565b91505092915050565b600081519050612828816138de565b92915050565b60008135905061283d816138f5565b92915050565b6000813590506128528161390c565b92915050565b60006080828403121561286a57600080fd5b6000612878848285016127f2565b91505092915050565b60006020828403121561289357600080fd5b60006128a184828501612819565b91505092915050565b6000602082840312156128bc57600080fd5b60006128ca8482850161282e565b91505092915050565b60008060008061012085870312156128ea57600080fd5b60006128f88782880161282e565b9450506020612909878288016127cb565b935050606061291a878288016127a4565b92505060e061292b878288016127cb565b91505092959194509250565b600080600080610120858703121561294e57600080fd5b600061295c87828801612843565b945050602061296d878288016127cb565b935050606061297e878288016127a4565b92505060e061298f878288016127cb565b91505092959194509250565b600080604083850312156129ae57600080fd5b60006129bc85828601612843565b92505060206129cd85828601612843565b9150509250929050565b60006129e38383612ac4565b60408301905092915050565b60006129fb8383612e9a565b60208301905092915050565b612a1081613479565b82525050565b612a1f816132ff565b612a29818461338f565b9250612a34826132c3565b8060005b83811015612a65578151612a4c87826129d7565b9650612a5783613341565b925050600181019050612a38565b505050505050565b612a768161330a565b612a80818461339a565b9250612a8b826132cd565b8060005b83811015612abc578151612aa387826129ef565b9650612aae8361334e565b925050600181019050612a8f565b505050505050565b612acd81613315565b612ad781846133a5565b9250612ae2826132d7565b8060005b83811015612b13578151612afa87826129ef565b9650612b058361335b565b925050600181019050612ae6565b505050505050565b612b2481613315565b612b2e81846133b0565b9250612b39826132d7565b8060005b83811015612b6a578151612b5187826129ef565b9650612b5c8361335b565b925050600181019050612b3d565b505050505050565b612b7b81613320565b612b8581846133bb565b9250612b90826132e1565b8060005b83811015612bc1578151612ba887826129ef565b9650612bb383613368565b925050600181019050612b94565b505050505050565b612bd28161332b565b612bdc81846133bb565b9250612be7826132eb565b8060005b83811015612c1f57612bfc82613620565b612c0687826129ef565b9650612c1183613375565b925050600181019050612beb565b505050505050565b612c3081613336565b612c3a81846133c6565b9250612c45826132f5565b8060005b83811015612c76578151612c5d87826129ef565b9650612c6883613382565b925050600181019050612c49565b505050505050565b612c878161348b565b82525050565b6000612c9a6014836133d1565b9150612ca582613651565b602082019050919050565b6000612cbd6014836133d1565b9150612cc88261367a565b602082019050919050565b6000612ce0601a836133d1565b9150612ceb826136a3565b602082019050919050565b6000612d036016836133d1565b9150612d0e826136cc565b602082019050919050565b6000612d266017836133d1565b9150612d31826136f5565b602082019050919050565b6000612d496010836133d1565b9150612d548261371e565b602082019050919050565b6000612d6c6023836133d1565b9150612d7782613747565b604082019050919050565b6000612d8f600f836133d1565b9150612d9a82613796565b602082019050919050565b6000612db26018836133d1565b9150612dbd826137bf565b602082019050919050565b6000612dd5601d836133d1565b9150612de0826137e8565b602082019050919050565b6000612df8601c836133d1565b9150612e0382613811565b602082019050919050565b6000612e1b6014836133d1565b9150612e268261383a565b602082019050919050565b6000612e3e6017836133d1565b9150612e4982613863565b602082019050919050565b6000612e616013836133d1565b9150612e6c8261388c565b602082019050919050565b6000612e846014836133d1565b9150612e8f826138b5565b602082019050919050565b612ea3816134b7565b82525050565b612eb2816134b7565b82525050565b612ec1816134c1565b82525050565b6000602082019050612edc6000830184612a07565b92915050565b600061012082019050612ef86000830187612b1b565b612f056040830186612a16565b612f1260c0830185612b1b565b612f20610100830184612a6d565b95945050505050565b600061018082019050612f3f6000830187612b1b565b612f4c6040830186612a16565b612f5960c0830185612b1b565b612f67610100830184612b72565b95945050505050565b60006101c082019050612f866000830187612b1b565b612f936040830186612a16565b612fa060c0830185612b1b565b612fae610100830184612c27565b95945050505050565b6000608082019050612fcc6000830184612bc9565b92915050565b6000602082019050612fe76000830184612c7e565b92915050565b6000602082019050818103600083015261300681612c8d565b9050919050565b6000602082019050818103600083015261302681612cb0565b9050919050565b6000602082019050818103600083015261304681612cd3565b9050919050565b6000602082019050818103600083015261306681612cf6565b9050919050565b6000602082019050818103600083015261308681612d19565b9050919050565b600060208201905081810360008301526130a681612d3c565b9050919050565b600060208201905081810360008301526130c681612d5f565b9050919050565b600060208201905081810360008301526130e681612d82565b9050919050565b6000602082019050818103600083015261310681612da5565b9050919050565b6000602082019050818103600083015261312681612dc8565b9050919050565b6000602082019050818103600083015261314681612deb565b9050919050565b6000602082019050818103600083015261316681612e0e565b9050919050565b6000602082019050818103600083015261318681612e31565b9050919050565b600060208201905081810360008301526131a681612e54565b9050919050565b600060208201905081810360008301526131c681612e77565b9050919050565b60006020820190506131e26000830184612ea9565b92915050565b60006020820190506131fd6000830184612eb8565b92915050565b60006040820190506132186000830185612eb8565b6132256020830184612eb8565b9392505050565b6000613236613247565b905061324282826134e8565b919050565b6000604051905090565b600067ffffffffffffffff82111561326c5761326b6135f1565b5b602082029050919050565b600067ffffffffffffffff821115613292576132916135f1565b5b602082029050919050565b600067ffffffffffffffff8211156132b8576132b76135f1565b5b602082029050919050565b6000819050919050565b6000819050919050565b6000819050919050565b6000819050919050565b6000819050919050565b6000819050919050565b600060029050919050565b600060019050919050565b600060029050919050565b600060049050919050565b600060049050919050565b600060069050919050565b6000602082019050919050565b6000602082019050919050565b6000602082019050919050565b6000602082019050919050565b6000600182019050919050565b6000602082019050919050565b600081905092915050565b600081905092915050565b600081905092915050565b600081905092915050565b600081905092915050565b600081905092915050565b600082825260208201905092915050565b60006133ed826134b7565b91506133f8836134b7565b9250827fffffffffffffffffffffffffffffffffffffffffffffffffffffffffffffffff0382111561342d5761342c613593565b5b828201905092915050565b6000613443826134c1565b915061344e836134c1565b92508260ff0382111561346457613463613593565b5b828201905092915050565b6000819050919050565b600061348482613497565b9050919050565b60008115159050919050565b600073ffffffffffffffffffffffffffffffffffffffff82169050919050565b6000819050919050565b600060ff82169050919050565b60006134e16134dc83613644565b61346f565b9050919050565b6134f182613633565b810181811067ffffffffffffffff821117156135105761350f6135f1565b5b80604052505050565b6000613524826134b7565b91507fffffffffffffffffffffffffffffffffffffffffffffffffffffffffffffffff82141561355757613556613593565b5b600182019050919050565b600061356d826134b7565b9150613578836134b7565b925082613588576135876135c2565b5b828206905092915050565b7f4e487b7100000000000000000000000000000000000000000000000000000000600052601160045260246000fd5b7f4e487b7100000000000000000000000000000000000000000000000000000000600052601260045260246000fd5b7f4e487b7100000000000000000000000000000000000000000000000000000000600052604160045260246000fd5b600061362c82546134ce565b9050919050565b6000601f19601f8301169050919050565b60008160001c9050919050565b7f50656e64696e6720677565737320616e73776572000000000000000000000000600082015250565b7f47616d6520616c72656164792063726561746564000000000000000000000000600082015250565b7f47756573732069732070656e64696e67206f6620616e73776572000000000000600082015250565b7f47616d6520526f6f6d20616c72656164792066756c6c00000000000000000000600082015250565b7f50656e64696e67207175657374696f6e20616e73776572000000000000000000600082015250565b7f47616d65206e6f74207374617274656400000000000000000000000000000000600082015250565b7f4f6e6c792063757272656e7420706c61796572207475726e2063616e20616e7360008201527f7765720000000000000000000000000000000000000000000000000000000000602082015250565b7f4e6f7420706c61796572207475726e0000000000000000000000000000000000600082015250565b7f496e76616c6964207175657374696f6e20616e73776572210000000000000000600082015250565b7f5175657374696f6e2069732070656e64696e67206f6620616e73776572000000600082015250565b7f496e76616c6964206368617261637465722073656c656374696f6e2100000000600082015250565b7f506c617965722032206973206e6f74206a6f696e000000000000000000000000600082015250565b7f496e76616c696420677565737320726573706f6e736521000000000000000000600082015250565b7f506c6179657220616c7265616479206a6f696e00000000000000000000000000600082015250565b7f47616d6520616c72656164792073746172746564000000000000000000000000600082015250565b6138e78161348b565b81146138f257600080fd5b50565b6138fe816134b7565b811461390957600080fd5b50565b613915816134c1565b811461392057600080fd5b5056fea2646970667358221220c3917631cc1487dcb28e062cd4224623bfbc4fec4ee3daf2b8b9632aba82d74a64736f6c63430008040033",
  "linkReferences": {},
  "deployedLinkReferences": {}
}