{
  "_format": "hh-sol-artifact-1",
  "contractName": "Game",
  "sourceName": "contracts/Game.sol",
  "abi": [
    {
      "inputs": [
        {
          "internalType": "address",
          "name": "_verifierBoard",
          "type": "address"
        },
        {
          "internalType": "address",
          "name": "_verifierQuestion",
          "type": "address"
        },
        {
          "internalType": "address",
          "name": "_verifierGuess",
          "type": "address"
        }
      ],
      "stateMutability": "nonpayable",
      "type": "constructor"
    },
    {
      "anonymous": false,
      "inputs": [
        {
          "indexed": false,
          "internalType": "uint256[4]",
          "name": "_guess",
          "type": "uint256[4]"
        }
      ],
      "name": "Guess",
      "type": "event"
    },
    {
      "anonymous": false,
      "inputs": [
        {
          "indexed": false,
          "internalType": "uint8",
          "name": "_answer",
          "type": "uint8"
        }
      ],
      "name": "GuessResponse",
      "type": "event"
    },
    {
      "anonymous": false,
      "inputs": [],
      "name": "Joined",
      "type": "event"
    },
    {
      "anonymous": false,
      "inputs": [
        {
          "indexed": false,
          "internalType": "uint8",
          "name": "_answer",
          "type": "uint8"
        }
      ],
      "name": "QuestionAnswered",
      "type": "event"
    },
    {
      "anonymous": false,
      "inputs": [
        {
          "indexed": false,
          "internalType": "uint8",
          "name": "_type",
          "type": "uint8"
        },
        {
          "indexed": false,
          "internalType": "uint8",
          "name": "_characteristic",
          "type": "uint8"
        }
      ],
      "name": "QuestionAsked",
      "type": "event"
    },
    {
      "inputs": [
        {
          "internalType": "uint8",
          "name": "_type",
          "type": "uint8"
        },
        {
          "internalType": "uint8",
          "name": "_characteristic",
          "type": "uint8"
        }
      ],
      "name": "ask",
      "outputs": [],
      "stateMutability": "nonpayable",
      "type": "function"
    },
    {
      "inputs": [],
      "name": "currentTurn",
      "outputs": [
        {
          "internalType": "uint256",
          "name": "",
          "type": "uint256"
        }
      ],
      "stateMutability": "view",
      "type": "function"
    },
    {
      "inputs": [
        {
          "internalType": "uint8[4]",
          "name": "_guess",
          "type": "uint8[4]"
        }
      ],
      "name": "guess",
      "outputs": [],
      "stateMutability": "nonpayable",
      "type": "function"
    },
    {
      "inputs": [
        {
          "internalType": "uint256",
          "name": "",
          "type": "uint256"
        }
      ],
      "name": "hash",
      "outputs": [
        {
          "internalType": "uint256",
          "name": "",
          "type": "uint256"
        }
      ],
      "stateMutability": "view",
      "type": "function"
    },
    {
      "inputs": [],
      "name": "hashByAccount",
      "outputs": [
        {
          "internalType": "uint256",
          "name": "",
          "type": "uint256"
        }
      ],
      "stateMutability": "view",
      "type": "function"
    },
    {
      "inputs": [],
      "name": "isAnswerTurn",
      "outputs": [
        {
          "internalType": "bool",
          "name": "",
          "type": "bool"
        }
      ],
      "stateMutability": "view",
      "type": "function"
    },
    {
      "inputs": [],
      "name": "isCreated",
      "outputs": [
        {
          "internalType": "bool",
          "name": "",
          "type": "bool"
        }
      ],
      "stateMutability": "view",
      "type": "function"
    },
    {
      "inputs": [],
      "name": "isQuestionTurn",
      "outputs": [
        {
          "internalType": "bool",
          "name": "",
          "type": "bool"
        }
      ],
      "stateMutability": "view",
      "type": "function"
    },
    {
      "inputs": [],
      "name": "isStarted",
      "outputs": [
        {
          "internalType": "bool",
          "name": "",
          "type": "bool"
        }
      ],
      "stateMutability": "view",
      "type": "function"
    },
    {
      "inputs": [],
      "name": "isWinner",
      "outputs": [
        {
          "internalType": "bool",
          "name": "",
          "type": "bool"
        }
      ],
      "stateMutability": "view",
      "type": "function"
    },
    {
      "inputs": [
        {
          "internalType": "uint8",
          "name": "_won",
          "type": "uint8"
        },
        {
          "internalType": "uint256[2]",
          "name": "a",
          "type": "uint256[2]"
        },
        {
          "internalType": "uint256[2][2]",
          "name": "b",
          "type": "uint256[2][2]"
        },
        {
          "internalType": "uint256[2]",
          "name": "c",
          "type": "uint256[2]"
        }
      ],
      "name": "isWon",
      "outputs": [],
      "stateMutability": "nonpayable",
      "type": "function"
    },
    {
      "inputs": [
        {
          "internalType": "uint256",
          "name": "_hash",
          "type": "uint256"
        },
        {
          "internalType": "uint256[2]",
          "name": "a",
          "type": "uint256[2]"
        },
        {
          "internalType": "uint256[2][2]",
          "name": "b",
          "type": "uint256[2][2]"
        },
        {
          "internalType": "uint256[2]",
          "name": "c",
          "type": "uint256[2]"
        }
      ],
      "name": "join",
      "outputs": [],
      "stateMutability": "nonpayable",
      "type": "function"
    },
    {
      "inputs": [],
      "name": "lastCharacteristic",
      "outputs": [
        {
          "internalType": "uint8",
          "name": "",
          "type": "uint8"
        }
      ],
      "stateMutability": "view",
      "type": "function"
    },
    {
      "inputs": [
        {
          "internalType": "uint256",
          "name": "",
          "type": "uint256"
        }
      ],
      "name": "lastGuess",
      "outputs": [
        {
          "internalType": "uint256",
          "name": "",
          "type": "uint256"
        }
      ],
      "stateMutability": "view",
      "type": "function"
    },
    {
      "inputs": [],
      "name": "lastResponse",
      "outputs": [
        {
          "internalType": "uint8",
          "name": "",
          "type": "uint8"
        }
      ],
      "stateMutability": "view",
      "type": "function"
    },
    {
      "inputs": [],
      "name": "lastType",
      "outputs": [
        {
          "internalType": "uint8",
          "name": "",
          "type": "uint8"
        }
      ],
      "stateMutability": "view",
      "type": "function"
    },
    {
      "inputs": [
        {
          "internalType": "uint256",
          "name": "",
          "type": "uint256"
        }
      ],
      "name": "players",
      "outputs": [
        {
          "internalType": "address",
          "name": "",
          "type": "address"
        }
      ],
      "stateMutability": "view",
      "type": "function"
    },
    {
      "inputs": [],
      "name": "previousTurn",
      "outputs": [
        {
          "internalType": "uint256",
          "name": "",
          "type": "uint256"
        }
      ],
      "stateMutability": "view",
      "type": "function"
    },
    {
      "inputs": [
        {
          "internalType": "uint8",
          "name": "_answer",
          "type": "uint8"
        },
        {
          "internalType": "uint256[2]",
          "name": "a",
          "type": "uint256[2]"
        },
        {
          "internalType": "uint256[2][2]",
          "name": "b",
          "type": "uint256[2][2]"
        },
        {
          "internalType": "uint256[2]",
          "name": "c",
          "type": "uint256[2]"
        }
      ],
      "name": "response",
      "outputs": [],
      "stateMutability": "nonpayable",
      "type": "function"
    },
    {
      "inputs": [
        {
          "internalType": "uint256",
          "name": "_hash",
          "type": "uint256"
        },
        {
          "internalType": "uint256[2]",
          "name": "a",
          "type": "uint256[2]"
        },
        {
          "internalType": "uint256[2][2]",
          "name": "b",
          "type": "uint256[2][2]"
        },
        {
          "internalType": "uint256[2]",
          "name": "c",
          "type": "uint256[2]"
        }
      ],
      "name": "start",
      "outputs": [],
      "stateMutability": "nonpayable",
      "type": "function"
    },
    {
      "inputs": [],
      "name": "winner",
      "outputs": [
        {
          "internalType": "address",
          "name": "",
          "type": "address"
        }
      ],
      "stateMutability": "view",
      "type": "function"
    },
    {
      "inputs": [],
      "name": "won",
      "outputs": [
        {
          "internalType": "uint8",
          "name": "",
          "type": "uint8"
        }
      ],
      "stateMutability": "view",
      "type": "function"
    }
  ],
  "bytecode": "0x60806040523480156200001157600080fd5b50604051620039af380380620039af83398181016040528101906200003791906200011a565b82600a60006101000a81548173ffffffffffffffffffffffffffffffffffffffff021916908373ffffffffffffffffffffffffffffffffffffffff16021790555081600b60006101000a81548173ffffffffffffffffffffffffffffffffffffffff021916908373ffffffffffffffffffffffffffffffffffffffff16021790555080600c60006101000a81548173ffffffffffffffffffffffffffffffffffffffff021916908373ffffffffffffffffffffffffffffffffffffffff160217905550505050620001be565b6000815190506200011481620001a4565b92915050565b6000806000606084860312156200013057600080fd5b6000620001408682870162000103565b9350506020620001538682870162000103565b9250506040620001668682870162000103565b9150509250925092565b60006200017d8262000184565b9050919050565b600073ffffffffffffffffffffffffffffffffffffffff82169050919050565b620001af8162000170565b8114620001bb57600080fd5b50565b6137e180620001ce6000396000f3fe608060405234801561001057600080fd5b50600436106101425760003560e01c8063ae43f848116100b8578063e4cecb101161007c578063e4cecb101461032f578063e602f7f71461034d578063eea108c214610369578063f250975c14610399578063f71d96cb146103b7578063fabd2f9c146103e757610142565b8063ae43f8481461028b578063b189fd4c146102a7578063b85f46eb146102d7578063deb61286146102f3578063dfbf53ae1461031157610142565b8063544736e61161010a578063544736e6146101d957806362747e42146101f75780636c3668481461021557806386174396146102315780639f9a32b01461024f578063a7acd3411461026d57610142565b806312c8052f146101475780631a9b0b7c146101655780632e5144381461018357806333bd875d146101a1578063352e84a7146101bd575b600080fd5b61014f610405565b60405161015c9190613070565b60405180910390f35b61016d610418565b60405161017a9190612e5a565b60405180910390f35b61018b610470565b6040516101989190613055565b60405180910390f35b6101bb60048036038101906101b6919061275b565b610492565b005b6101d760048036038101906101d29190612823565b610992565b005b6101e1610c60565b6040516101ee9190612e5a565b60405180910390f35b6101ff610d3c565b60405161020c9190613070565b60405180910390f35b61022f600480360381019061022a91906127bf565b610d4f565b005b6102396111b4565b6040516102469190612e5a565b60405180910390f35b6102576112da565b6040516102649190613070565b60405180910390f35b6102756112ed565b6040516102829190612e5a565b60405180910390f35b6102a560048036038101906102a091906127bf565b611384565b005b6102c160048036038101906102bc9190612732565b611721565b6040516102ce9190613055565b60405180910390f35b6102f160048036038101906102ec919061275b565b61173c565b005b6102fb611ac4565b6040516103089190613055565b60405180910390f35b610319611ada565b6040516103269190612d4f565b60405180910390f35b610337611b00565b6040516103449190613055565b60405180910390f35b610367600480360381019061036291906126e0565b611cb0565b005b610383600480360381019061037e9190612732565b611f58565b6040516103909190613055565b60405180910390f35b6103a1611f73565b6040516103ae9190613070565b60405180910390f35b6103d160048036038101906103cc9190612732565b611f86565b6040516103de9190612d4f565b60405180910390f35b6103ef611fbc565b6040516103fc9190612e5a565b60405180910390f35b600960039054906101000a900460ff1681565b6000600960049054906101000a900473ffffffffffffffffffffffffffffffffffffffff1673ffffffffffffffffffffffffffffffffffffffff163373ffffffffffffffffffffffffffffffffffffffff1614905090565b600060026001600454610483919061326a565b61048d91906133ea565b905090565b600060026000600281106104cf577f4e487b7100000000000000000000000000000000000000000000000000000000600052603260045260246000fd5b01541415610512576040517f08c379a000000000000000000000000000000000000000000000000000000000815260040161050990612f15565b60405180910390fd5b600073ffffffffffffffffffffffffffffffffffffffff166000600160028110610565577f4e487b7100000000000000000000000000000000000000000000000000000000600052603260045260246000fd5b0160009054906101000a900473ffffffffffffffffffffffffffffffffffffffff1673ffffffffffffffffffffffffffffffffffffffff16146105dd576040517f08c379a00000000000000000000000000000000000000000000000000000000081526004016105d490612ed5565b60405180910390fd5b3373ffffffffffffffffffffffffffffffffffffffff166000806002811061062e577f4e487b7100000000000000000000000000000000000000000000000000000000600052603260045260246000fd5b0160009054906101000a900473ffffffffffffffffffffffffffffffffffffffff1673ffffffffffffffffffffffffffffffffffffffff1614156106a7576040517f08c379a000000000000000000000000000000000000000000000000000000000815260040161069e90613015565b60405180910390fd5b600060026001600281106106e4577f4e487b7100000000000000000000000000000000000000000000000000000000600052603260045260246000fd5b015414610726576040517f08c379a000000000000000000000000000000000000000000000000000000000815260040161071d90613035565b60405180910390fd5b60006040518060200160405280868152509050600a60009054906101000a900473ffffffffffffffffffffffffffffffffffffffff1673ffffffffffffffffffffffffffffffffffffffff166343753b4d858585856040518563ffffffff1660e01b815260040161079a9493929190612d6a565b60206040518083038186803b1580156107b257600080fd5b505afa1580156107c6573d6000803e3d6000fd5b505050506040513d601f19601f820116820180604052508101906107ea9190612709565b610829576040517f08c379a000000000000000000000000000000000000000000000000000000000815260040161082090612fb5565b60405180910390fd5b846002600160028110610865577f4e487b7100000000000000000000000000000000000000000000000000000000600052603260045260246000fd5b01819055503360006001600281106108a6577f4e487b7100000000000000000000000000000000000000000000000000000000600052603260045260246000fd5b0160006101000a81548173ffffffffffffffffffffffffffffffffffffffff021916908373ffffffffffffffffffffffffffffffffffffffff1602179055506003600960026101000a81548160ff021916908360ff1602179055506003600960036101000a81548160ff021916908360ff1602179055506000600960046101000a81548173ffffffffffffffffffffffffffffffffffffffff021916908373ffffffffffffffffffffffffffffffffffffffff1602179055507f01bef3730c3b3c7a12797f6baa6ef0473275290438b5264ad09598751c13a10c60405160405180910390a15050505050565b600060026000600281106109cf577f4e487b7100000000000000000000000000000000000000000000000000000000600052603260045260246000fd5b01541415610a12576040517f08c379a0000000000000000000000000000000000000000000000000000000008152600401610a0990612f15565b60405180910390fd5b600073ffffffffffffffffffffffffffffffffffffffff166000600160028110610a65577f4e487b7100000000000000000000000000000000000000000000000000000000600052603260045260246000fd5b0160009054906101000a900473ffffffffffffffffffffffffffffffffffffffff1673ffffffffffffffffffffffffffffffffffffffff161415610ade576040517f08c379a0000000000000000000000000000000000000000000000000000000008152600401610ad590612fd5565b60405180910390fd5b610ae66112ed565b610b25576040517f08c379a0000000000000000000000000000000000000000000000000000000008152600401610b1c90612f55565b60405180910390fd5b6000600960029054906101000a900460ff1660ff161415610b7b576040517f08c379a0000000000000000000000000000000000000000000000000000000008152600401610b7290612f95565b60405180910390fd5b6000600960039054906101000a900460ff1660ff161415610bd1576040517f08c379a0000000000000000000000000000000000000000000000000000000008152600401610bc890612e75565b60405180910390fd5b81600960006101000a81548160ff021916908360ff16021790555080600960016101000a81548160ff021916908360ff1602179055506000600960026101000a81548160ff021916908360ff1602179055507f32a95ea2373c4d2cff10c37d2caf784dc5e400dc50924dc7042f3f9afb5a270f8282604051610c5492919061308b565b60405180910390a15050565b6000806002600060028110610c9e577f4e487b7100000000000000000000000000000000000000000000000000000000600052603260045260246000fd5b015414158015610d375750600073ffffffffffffffffffffffffffffffffffffffff166000600160028110610cfc577f4e487b7100000000000000000000000000000000000000000000000000000000600052603260045260246000fd5b0160009054906101000a900473ffffffffffffffffffffffffffffffffffffffff1673ffffffffffffffffffffffffffffffffffffffff1614155b905090565b600960029054906101000a900460ff1681565b60006002600060028110610d8c577f4e487b7100000000000000000000000000000000000000000000000000000000600052603260045260246000fd5b01541415610dcf576040517f08c379a0000000000000000000000000000000000000000000000000000000008152600401610dc690612f15565b60405180910390fd5b600073ffffffffffffffffffffffffffffffffffffffff166000600160028110610e22577f4e487b7100000000000000000000000000000000000000000000000000000000600052603260045260246000fd5b0160009054906101000a900473ffffffffffffffffffffffffffffffffffffffff1673ffffffffffffffffffffffffffffffffffffffff161415610e9b576040517f08c379a0000000000000000000000000000000000000000000000000000000008152600401610e9290612fd5565b60405180910390fd5b610ea3611fbc565b610ee2576040517f08c379a0000000000000000000000000000000000000000000000000000000008152600401610ed990612f35565b60405180910390fd5b60006040518060c001604052808660ff1681526020016005600060048110610f33577f4e487b7100000000000000000000000000000000000000000000000000000000600052603260045260246000fd5b015481526020016005600160048110610f75577f4e487b7100000000000000000000000000000000000000000000000000000000600052603260045260246000fd5b015481526020016005600260048110610fb7577f4e487b7100000000000000000000000000000000000000000000000000000000600052603260045260246000fd5b015481526020016005600360048110610ff9577f4e487b7100000000000000000000000000000000000000000000000000000000600052603260045260246000fd5b01548152602001600261100a611ac4565b60028110611041577f4e487b7100000000000000000000000000000000000000000000000000000000600052603260045260246000fd5b01548152509050600c60009054906101000a900473ffffffffffffffffffffffffffffffffffffffff1673ffffffffffffffffffffffffffffffffffffffff1663f398789b858585856040518563ffffffff1660e01b81526004016110a99493929190612df8565b60206040518083038186803b1580156110c157600080fd5b505afa1580156110d5573d6000803e3d6000fd5b505050506040513d601f19601f820116820180604052508101906110f99190612709565b611138576040517f08c379a000000000000000000000000000000000000000000000000000000000815260040161112f90612ff5565b60405180910390fd5b60018561114591906132c0565b600960036101000a81548160ff021916908360ff160217905550611167612053565b7f321b96ee4065ea0954e60de9522d211aabbec3815b71688d7a79c8a19463d195600960039054906101000a900460ff166040516111a59190613070565b60405180910390a15050505050565b60008073ffffffffffffffffffffffffffffffffffffffff1660008060028110611207577f4e487b7100000000000000000000000000000000000000000000000000000000600052603260045260246000fd5b0160009054906101000a900473ffffffffffffffffffffffffffffffffffffffff1673ffffffffffffffffffffffffffffffffffffffff16141580156112d55750600073ffffffffffffffffffffffffffffffffffffffff16600060016002811061129b577f4e487b7100000000000000000000000000000000000000000000000000000000600052603260045260246000fd5b0160009054906101000a900473ffffffffffffffffffffffffffffffffffffffff1673ffffffffffffffffffffffffffffffffffffffff16145b905090565b600960009054906101000a900460ff1681565b6000806112f8610470565b6002811061132f577f4e487b7100000000000000000000000000000000000000000000000000000000600052603260045260246000fd5b0160009054906101000a900473ffffffffffffffffffffffffffffffffffffffff1673ffffffffffffffffffffffffffffffffffffffff163373ffffffffffffffffffffffffffffffffffffffff1614905090565b600060026000600281106113c1577f4e487b7100000000000000000000000000000000000000000000000000000000600052603260045260246000fd5b01541415611404576040517f08c379a00000000000000000000000000000000000000000000000000000000081526004016113fb90612f15565b60405180910390fd5b600073ffffffffffffffffffffffffffffffffffffffff166000600160028110611457577f4e487b7100000000000000000000000000000000000000000000000000000000600052603260045260246000fd5b0160009054906101000a900473ffffffffffffffffffffffffffffffffffffffff1673ffffffffffffffffffffffffffffffffffffffff1614156114d0576040517f08c379a00000000000000000000000000000000000000000000000000000000081526004016114c790612fd5565b60405180910390fd5b6114d8611fbc565b611517576040517f08c379a000000000000000000000000000000000000000000000000000000000815260040161150e90612f35565b60405180910390fd5b600060405180608001604052808660ff168152602001600960009054906101000a900460ff1660ff168152602001600960019054906101000a900460ff1660ff1681526020016002611567611ac4565b6002811061159e577f4e487b7100000000000000000000000000000000000000000000000000000000600052603260045260246000fd5b01548152509050600b60009054906101000a900473ffffffffffffffffffffffffffffffffffffffff1673ffffffffffffffffffffffffffffffffffffffff16635fe8c13b858585856040518563ffffffff1660e01b81526004016116069493929190612db1565b60206040518083038186803b15801561161e57600080fd5b505afa158015611632573d6000803e3d6000fd5b505050506040513d601f19601f820116820180604052508101906116569190612709565b611695576040517f08c379a000000000000000000000000000000000000000000000000000000000815260040161168c90612f75565b60405180910390fd5b6001856116a291906132c0565b600960026101000a81548160ff021916908360ff160217905550600460008154809291906116cf906133a1565b91905055507fb9c2decafb8bb7052b7a1c4452beff9a62e1bbf436aa24e3f22e3dbfa05f1ca1600960029054906101000a900460ff166040516117129190613070565b60405180910390a15050505050565b6002816002811061173157600080fd5b016000915090505481565b600073ffffffffffffffffffffffffffffffffffffffff166000806002811061178e577f4e487b7100000000000000000000000000000000000000000000000000000000600052603260045260246000fd5b0160009054906101000a900473ffffffffffffffffffffffffffffffffffffffff1673ffffffffffffffffffffffffffffffffffffffff1614611806576040517f08c379a00000000000000000000000000000000000000000000000000000000081526004016117fd90612e95565b60405180910390fd5b60006002600060028110611843577f4e487b7100000000000000000000000000000000000000000000000000000000600052603260045260246000fd5b015414611885576040517f08c379a000000000000000000000000000000000000000000000000000000000815260040161187c90612e95565b60405180910390fd5b60006040518060200160405280868152509050600a60009054906101000a900473ffffffffffffffffffffffffffffffffffffffff1673ffffffffffffffffffffffffffffffffffffffff166343753b4d858585856040518563ffffffff1660e01b81526004016118f99493929190612d6a565b60206040518083038186803b15801561191157600080fd5b505afa158015611925573d6000803e3d6000fd5b505050506040513d601f19601f820116820180604052508101906119499190612709565b611988576040517f08c379a000000000000000000000000000000000000000000000000000000000815260040161197f90612fb5565b60405180910390fd5b8460026000600281106119c4577f4e487b7100000000000000000000000000000000000000000000000000000000600052603260045260246000fd5b01819055503360008060028110611a04577f4e487b7100000000000000000000000000000000000000000000000000000000600052603260045260246000fd5b0160006101000a81548173ffffffffffffffffffffffffffffffffffffffff021916908373ffffffffffffffffffffffffffffffffffffffff1602179055506003600960026101000a81548160ff021916908360ff1602179055506003600960036101000a81548160ff021916908360ff1602179055506000600960046101000a81548173ffffffffffffffffffffffffffffffffffffffff021916908373ffffffffffffffffffffffffffffffffffffffff1602179055505050505050565b60006002600454611ad591906133ea565b905090565b600960049054906101000a900473ffffffffffffffffffffffffffffffffffffffff1681565b600080600160028110611b3c577f4e487b7100000000000000000000000000000000000000000000000000000000600052603260045260246000fd5b0160009054906101000a900473ffffffffffffffffffffffffffffffffffffffff1673ffffffffffffffffffffffffffffffffffffffff163373ffffffffffffffffffffffffffffffffffffffff161415611bd5576002600160028110611bcc577f4e487b7100000000000000000000000000000000000000000000000000000000600052603260045260246000fd5b01549050611cad565b60008060028110611c0f577f4e487b7100000000000000000000000000000000000000000000000000000000600052603260045260246000fd5b0160009054906101000a900473ffffffffffffffffffffffffffffffffffffffff1673ffffffffffffffffffffffffffffffffffffffff163373ffffffffffffffffffffffffffffffffffffffff161415611ca8576002600060028110611c9f577f4e487b7100000000000000000000000000000000000000000000000000000000600052603260045260246000fd5b01549050611cad565b600090505b90565b60006002600060028110611ced577f4e487b7100000000000000000000000000000000000000000000000000000000600052603260045260246000fd5b01541415611d30576040517f08c379a0000000000000000000000000000000000000000000000000000000008152600401611d2790612f15565b60405180910390fd5b600073ffffffffffffffffffffffffffffffffffffffff166000600160028110611d83577f4e487b7100000000000000000000000000000000000000000000000000000000600052603260045260246000fd5b0160009054906101000a900473ffffffffffffffffffffffffffffffffffffffff1673ffffffffffffffffffffffffffffffffffffffff161415611dfc576040517f08c379a0000000000000000000000000000000000000000000000000000000008152600401611df390612fd5565b60405180910390fd5b611e046112ed565b611e43576040517f08c379a0000000000000000000000000000000000000000000000000000000008152600401611e3a90612f55565b60405180910390fd5b6000600960039054906101000a900460ff1660ff161415611e99576040517f08c379a0000000000000000000000000000000000000000000000000000000008152600401611e9090612eb5565b60405180910390fd5b6000600960029054906101000a900460ff1660ff161415611eef576040517f08c379a0000000000000000000000000000000000000000000000000000000008152600401611ee690612ef5565b60405180910390fd5b806005906004611f009291906124a1565b506000600960036101000a81548160ff021916908360ff1602179055507f5fbecfb9ebd9b032c64d3ad9e07a26c11d5cc0e530f3187f2f77087ea4ec622f6005604051611f4d9190612e3f565b60405180910390a150565b60058160048110611f6857600080fd5b016000915090505481565b600960019054906101000a900460ff1681565b60008160028110611f9657600080fd5b016000915054906101000a900473ffffffffffffffffffffffffffffffffffffffff1681565b600080611fc7611ac4565b60028110611ffe577f4e487b7100000000000000000000000000000000000000000000000000000000600052603260045260246000fd5b0160009054906101000a900473ffffffffffffffffffffffffffffffffffffffff1673ffffffffffffffffffffffffffffffffffffffff163373ffffffffffffffffffffffffffffffffffffffff1614905090565b60006002600060028110612090577f4e487b7100000000000000000000000000000000000000000000000000000000600052603260045260246000fd5b015414156120d3576040517f08c379a00000000000000000000000000000000000000000000000000000000081526004016120ca90612f15565b60405180910390fd5b600073ffffffffffffffffffffffffffffffffffffffff166000600160028110612126577f4e487b7100000000000000000000000000000000000000000000000000000000600052603260045260246000fd5b0160009054906101000a900473ffffffffffffffffffffffffffffffffffffffff1673ffffffffffffffffffffffffffffffffffffffff16141561219f576040517f08c379a000000000000000000000000000000000000000000000000000000000815260040161219690612fd5565b60405180910390fd5b6002600960039054906101000a900460ff1660ff16141561225e5760006121c4610470565b600281106121fb577f4e487b7100000000000000000000000000000000000000000000000000000000600052603260045260246000fd5b0160009054906101000a900473ffffffffffffffffffffffffffffffffffffffff16600960046101000a81548173ffffffffffffffffffffffffffffffffffffffff021916908373ffffffffffffffffffffffffffffffffffffffff1602179055505b6001600960039054906101000a900460ff1660ff16141561231d576000612283611ac4565b600281106122ba577f4e487b7100000000000000000000000000000000000000000000000000000000600052603260045260246000fd5b0160009054906101000a900473ffffffffffffffffffffffffffffffffffffffff16600960046101000a81548173ffffffffffffffffffffffffffffffffffffffff021916908373ffffffffffffffffffffffffffffffffffffffff1602179055505b6000600260006002811061235a577f4e487b7100000000000000000000000000000000000000000000000000000000600052603260045260246000fd5b01819055506000600260016002811061239c577f4e487b7100000000000000000000000000000000000000000000000000000000600052603260045260246000fd5b018190555060006004819055506000806000600281106123e5577f4e487b7100000000000000000000000000000000000000000000000000000000600052603260045260246000fd5b0160006101000a81548173ffffffffffffffffffffffffffffffffffffffff021916908373ffffffffffffffffffffffffffffffffffffffff160217905550600080600160028110612460577f4e487b7100000000000000000000000000000000000000000000000000000000600052603260045260246000fd5b0160006101000a81548173ffffffffffffffffffffffffffffffffffffffff021916908373ffffffffffffffffffffffffffffffffffffffff160217905550565b82600481019282156124d5579160200282015b828111156124d4578251829060ff169055916020019190600101906124b4565b5b5090506124e291906124e6565b5090565b5b808211156124ff5760008160009055506001016124e7565b5090565b6000612516612511846130d9565b6130b4565b9050808285604086028201111561252c57600080fd5b60005b8581101561255c57816125428882612653565b84526020840193506040830192505060018101905061252f565b5050509392505050565b6000612579612574846130ff565b6130b4565b9050808285602086028201111561258f57600080fd5b60005b858110156125bf57816125a588826126b6565b845260208401935060208301925050600181019050612592565b5050509392505050565b60006125dc6125d784613125565b6130b4565b905080828560208602820111156125f257600080fd5b60005b85811015612622578161260888826126cb565b8452602084019350602083019250506001810190506125f5565b5050509392505050565b600082601f83011261263d57600080fd5b600261264a848285612503565b91505092915050565b600082601f83011261266457600080fd5b6002612671848285612566565b91505092915050565b600082601f83011261268b57600080fd5b60046126988482856125c9565b91505092915050565b6000815190506126b081613766565b92915050565b6000813590506126c58161377d565b92915050565b6000813590506126da81613794565b92915050565b6000608082840312156126f257600080fd5b60006127008482850161267a565b91505092915050565b60006020828403121561271b57600080fd5b6000612729848285016126a1565b91505092915050565b60006020828403121561274457600080fd5b6000612752848285016126b6565b91505092915050565b600080600080610120858703121561277257600080fd5b6000612780878288016126b6565b945050602061279187828801612653565b93505060606127a28782880161262c565b92505060e06127b387828801612653565b91505092959194509250565b60008060008061012085870312156127d657600080fd5b60006127e4878288016126cb565b94505060206127f587828801612653565b93505060606128068782880161262c565b92505060e061281787828801612653565b91505092959194509250565b6000806040838503121561283657600080fd5b6000612844858286016126cb565b9250506020612855858286016126cb565b9150509250929050565b600061286b838361294c565b60408301905092915050565b60006128838383612d22565b60208301905092915050565b61289881613301565b82525050565b6128a781613187565b6128b18184613217565b92506128bc8261314b565b8060005b838110156128ed5781516128d4878261285f565b96506128df836131c9565b9250506001810190506128c0565b505050505050565b6128fe81613192565b6129088184613222565b925061291382613155565b8060005b8381101561294457815161292b8782612877565b9650612936836131d6565b925050600181019050612917565b505050505050565b6129558161319d565b61295f818461322d565b925061296a8261315f565b8060005b8381101561299b5781516129828782612877565b965061298d836131e3565b92505060018101905061296e565b505050505050565b6129ac8161319d565b6129b68184613238565b92506129c18261315f565b8060005b838110156129f25781516129d98782612877565b96506129e4836131e3565b9250506001810190506129c5565b505050505050565b612a03816131a8565b612a0d8184613243565b9250612a1882613169565b8060005b83811015612a49578151612a308782612877565b9650612a3b836131f0565b925050600181019050612a1c565b505050505050565b612a5a816131b3565b612a648184613243565b9250612a6f82613173565b8060005b83811015612aa757612a84826134a8565b612a8e8782612877565b9650612a99836131fd565b925050600181019050612a73565b505050505050565b612ab8816131be565b612ac2818461324e565b9250612acd8261317d565b8060005b83811015612afe578151612ae58782612877565b9650612af08361320a565b925050600181019050612ad1565b505050505050565b612b0f81613313565b82525050565b6000612b22601483613259565b9150612b2d826134d9565b602082019050919050565b6000612b45601483613259565b9150612b5082613502565b602082019050919050565b6000612b68601a83613259565b9150612b738261352b565b602082019050919050565b6000612b8b601683613259565b9150612b9682613554565b602082019050919050565b6000612bae601783613259565b9150612bb98261357d565b602082019050919050565b6000612bd1601083613259565b9150612bdc826135a6565b602082019050919050565b6000612bf4602383613259565b9150612bff826135cf565b604082019050919050565b6000612c17600f83613259565b9150612c228261361e565b602082019050919050565b6000612c3a601883613259565b9150612c4582613647565b602082019050919050565b6000612c5d601d83613259565b9150612c6882613670565b602082019050919050565b6000612c80601c83613259565b9150612c8b82613699565b602082019050919050565b6000612ca3601483613259565b9150612cae826136c2565b602082019050919050565b6000612cc6601783613259565b9150612cd1826136eb565b602082019050919050565b6000612ce9601383613259565b9150612cf482613714565b602082019050919050565b6000612d0c601483613259565b9150612d178261373d565b602082019050919050565b612d2b8161333f565b82525050565b612d3a8161333f565b82525050565b612d4981613349565b82525050565b6000602082019050612d64600083018461288f565b92915050565b600061012082019050612d8060008301876129a3565b612d8d604083018661289e565b612d9a60c08301856129a3565b612da86101008301846128f5565b95945050505050565b600061018082019050612dc760008301876129a3565b612dd4604083018661289e565b612de160c08301856129a3565b612def6101008301846129fa565b95945050505050565b60006101c082019050612e0e60008301876129a3565b612e1b604083018661289e565b612e2860c08301856129a3565b612e36610100830184612aaf565b95945050505050565b6000608082019050612e546000830184612a51565b92915050565b6000602082019050612e6f6000830184612b06565b92915050565b60006020820190508181036000830152612e8e81612b15565b9050919050565b60006020820190508181036000830152612eae81612b38565b9050919050565b60006020820190508181036000830152612ece81612b5b565b9050919050565b60006020820190508181036000830152612eee81612b7e565b9050919050565b60006020820190508181036000830152612f0e81612ba1565b9050919050565b60006020820190508181036000830152612f2e81612bc4565b9050919050565b60006020820190508181036000830152612f4e81612be7565b9050919050565b60006020820190508181036000830152612f6e81612c0a565b9050919050565b60006020820190508181036000830152612f8e81612c2d565b9050919050565b60006020820190508181036000830152612fae81612c50565b9050919050565b60006020820190508181036000830152612fce81612c73565b9050919050565b60006020820190508181036000830152612fee81612c96565b9050919050565b6000602082019050818103600083015261300e81612cb9565b9050919050565b6000602082019050818103600083015261302e81612cdc565b9050919050565b6000602082019050818103600083015261304e81612cff565b9050919050565b600060208201905061306a6000830184612d31565b92915050565b60006020820190506130856000830184612d40565b92915050565b60006040820190506130a06000830185612d40565b6130ad6020830184612d40565b9392505050565b60006130be6130cf565b90506130ca8282613370565b919050565b6000604051905090565b600067ffffffffffffffff8211156130f4576130f3613479565b5b602082029050919050565b600067ffffffffffffffff82111561311a57613119613479565b5b602082029050919050565b600067ffffffffffffffff8211156131405761313f613479565b5b602082029050919050565b6000819050919050565b6000819050919050565b6000819050919050565b6000819050919050565b6000819050919050565b6000819050919050565b600060029050919050565b600060019050919050565b600060029050919050565b600060049050919050565b600060049050919050565b600060069050919050565b6000602082019050919050565b6000602082019050919050565b6000602082019050919050565b6000602082019050919050565b6000600182019050919050565b6000602082019050919050565b600081905092915050565b600081905092915050565b600081905092915050565b600081905092915050565b600081905092915050565b600081905092915050565b600082825260208201905092915050565b60006132758261333f565b91506132808361333f565b9250827fffffffffffffffffffffffffffffffffffffffffffffffffffffffffffffffff038211156132b5576132b461341b565b5b828201905092915050565b60006132cb82613349565b91506132d683613349565b92508260ff038211156132ec576132eb61341b565b5b828201905092915050565b6000819050919050565b600061330c8261331f565b9050919050565b60008115159050919050565b600073ffffffffffffffffffffffffffffffffffffffff82169050919050565b6000819050919050565b600060ff82169050919050565b6000613369613364836134cc565b6132f7565b9050919050565b613379826134bb565b810181811067ffffffffffffffff8211171561339857613397613479565b5b80604052505050565b60006133ac8261333f565b91507fffffffffffffffffffffffffffffffffffffffffffffffffffffffffffffffff8214156133df576133de61341b565b5b600182019050919050565b60006133f58261333f565b91506134008361333f565b9250826134105761340f61344a565b5b828206905092915050565b7f4e487b7100000000000000000000000000000000000000000000000000000000600052601160045260246000fd5b7f4e487b7100000000000000000000000000000000000000000000000000000000600052601260045260246000fd5b7f4e487b7100000000000000000000000000000000000000000000000000000000600052604160045260246000fd5b60006134b48254613356565b9050919050565b6000601f19601f8301169050919050565b60008160001c9050919050565b7f50656e64696e6720677565737320616e73776572000000000000000000000000600082015250565b7f47616d6520616c72656164792063726561746564000000000000000000000000600082015250565b7f47756573732069732070656e64696e67206f6620616e73776572000000000000600082015250565b7f47616d6520526f6f6d20616c72656164792066756c6c00000000000000000000600082015250565b7f50656e64696e67207175657374696f6e20616e73776572000000000000000000600082015250565b7f47616d65206e6f74207374617274656400000000000000000000000000000000600082015250565b7f4f6e6c792063757272656e7420706c61796572207475726e2063616e20616e7360008201527f7765720000000000000000000000000000000000000000000000000000000000602082015250565b7f4e6f7420706c61796572207475726e0000000000000000000000000000000000600082015250565b7f496e76616c6964207175657374696f6e20616e73776572210000000000000000600082015250565b7f5175657374696f6e2069732070656e64696e67206f6620616e73776572000000600082015250565b7f496e76616c6964206368617261637465722073656c656374696f6e2100000000600082015250565b7f506c617965722032206973206e6f74206a6f696e000000000000000000000000600082015250565b7f496e76616c696420677565737320726573706f6e736521000000000000000000600082015250565b7f506c6179657220616c7265616479206a6f696e00000000000000000000000000600082015250565b7f47616d6520616c72656164792073746172746564000000000000000000000000600082015250565b61376f81613313565b811461377a57600080fd5b50565b6137868161333f565b811461379157600080fd5b50565b61379d81613349565b81146137a857600080fd5b5056fea2646970667358221220dfe8f856dd2ddac5b1c0c22ae80adffdd914457a08d1eeef4a9b44cfcd4373e564736f6c63430008040033",
  "linkReferences": {},
  "deployedLinkReferences": {}
}